{
	"contracts/NodeReward.sol": {
		"CheckerReward": {
			"abi": [
				{
					"inputs": [
						{
							"internalType": "address",
							"name": "initialOwner",
							"type": "address"
						},
						{
							"internalType": "address",
							"name": "checkerLicenseAddress",
							"type": "address"
						},
						{
							"internalType": "address",
							"name": "cKIP_token",
							"type": "address"
						},
						{
							"internalType": "address",
							"name": "fundAddress",
							"type": "address"
						}
					],
					"stateMutability": "nonpayable",
					"type": "constructor"
				},
				{
					"inputs": [],
					"name": "ECDSAInvalidSignature",
					"type": "error"
				},
				{
					"inputs": [
						{
							"internalType": "uint256",
							"name": "length",
							"type": "uint256"
						}
					],
					"name": "ECDSAInvalidSignatureLength",
					"type": "error"
				},
				{
					"inputs": [
						{
							"internalType": "bytes32",
							"name": "s",
							"type": "bytes32"
						}
					],
					"name": "ECDSAInvalidSignatureS",
					"type": "error"
				},
				{
					"inputs": [
						{
							"internalType": "address",
							"name": "owner",
							"type": "address"
						}
					],
					"name": "OwnableInvalidOwner",
					"type": "error"
				},
				{
					"inputs": [
						{
							"internalType": "address",
							"name": "account",
							"type": "address"
						}
					],
					"name": "OwnableUnauthorizedAccount",
					"type": "error"
				},
				{
					"anonymous": false,
					"inputs": [
						{
							"indexed": true,
							"internalType": "address",
							"name": "sender",
							"type": "address"
						},
						{
							"indexed": false,
							"internalType": "uint256",
							"name": "token_id",
							"type": "uint256"
						},
						{
							"indexed": false,
							"internalType": "uint256",
							"name": "amount",
							"type": "uint256"
						},
						{
							"indexed": true,
							"internalType": "address",
							"name": "paymaster",
							"type": "address"
						}
					],
					"name": "Claimed",
					"type": "event"
				},
				{
					"anonymous": false,
					"inputs": [
						{
							"indexed": true,
							"internalType": "address",
							"name": "previousOwner",
							"type": "address"
						},
						{
							"indexed": true,
							"internalType": "address",
							"name": "newOwner",
							"type": "address"
						}
					],
					"name": "OwnershipTransferred",
					"type": "event"
				},
				{
					"anonymous": false,
					"inputs": [
						{
							"indexed": true,
							"internalType": "address",
							"name": "sender",
							"type": "address"
						},
						{
							"indexed": true,
							"internalType": "address",
							"name": "paymaster",
							"type": "address"
						},
						{
							"indexed": false,
							"internalType": "bool",
							"name": "enabled",
							"type": "bool"
						}
					],
					"name": "PaymasterChanged",
					"type": "event"
				},
				{
					"anonymous": false,
					"inputs": [
						{
							"indexed": true,
							"internalType": "address",
							"name": "paymaster",
							"type": "address"
						},
						{
							"indexed": false,
							"internalType": "uint256",
							"name": "token_id",
							"type": "uint256"
						},
						{
							"indexed": false,
							"internalType": "uint256",
							"name": "amount",
							"type": "uint256"
						}
					],
					"name": "Penalty",
					"type": "event"
				},
				{
					"anonymous": false,
					"inputs": [
						{
							"indexed": true,
							"internalType": "address",
							"name": "sender",
							"type": "address"
						},
						{
							"indexed": false,
							"internalType": "uint256",
							"name": "token_id",
							"type": "uint256"
						},
						{
							"indexed": false,
							"internalType": "uint256",
							"name": "amount",
							"type": "uint256"
						}
					],
					"name": "Withdraw",
					"type": "event"
				},
				{
					"inputs": [],
					"name": "cKIP",
					"outputs": [
						{
							"internalType": "contract IERC20",
							"name": "",
							"type": "address"
						}
					],
					"stateMutability": "view",
					"type": "function"
				},
				{
					"inputs": [
						{
							"internalType": "uint256",
							"name": "token_id",
							"type": "uint256"
						},
						{
							"internalType": "uint256",
							"name": "amount",
							"type": "uint256"
						},
						{
							"internalType": "address",
							"name": "_paymaster",
							"type": "address"
						},
						{
							"internalType": "bytes",
							"name": "signature",
							"type": "bytes"
						}
					],
					"name": "claim",
					"outputs": [],
					"stateMutability": "nonpayable",
					"type": "function"
				},
				{
					"inputs": [
						{
							"internalType": "uint256",
							"name": "",
							"type": "uint256"
						}
					],
					"name": "claimedAmounts",
					"outputs": [
						{
							"internalType": "uint256",
							"name": "",
							"type": "uint256"
						}
					],
					"stateMutability": "view",
					"type": "function"
				},
				{
					"inputs": [],
					"name": "fund_address",
					"outputs": [
						{
							"internalType": "address",
							"name": "",
							"type": "address"
						}
					],
					"stateMutability": "view",
					"type": "function"
				},
				{
					"inputs": [],
					"name": "license_nft",
					"outputs": [
						{
							"internalType": "contract IERC721",
							"name": "",
							"type": "address"
						}
					],
					"stateMutability": "view",
					"type": "function"
				},
				{
					"inputs": [],
					"name": "owner",
					"outputs": [
						{
							"internalType": "address",
							"name": "",
							"type": "address"
						}
					],
					"stateMutability": "view",
					"type": "function"
				},
				{
					"inputs": [
						{
							"internalType": "uint256",
							"name": "token_id",
							"type": "uint256"
						},
						{
							"internalType": "uint256",
							"name": "amount",
							"type": "uint256"
						}
					],
					"name": "penalty",
					"outputs": [],
					"stateMutability": "nonpayable",
					"type": "function"
				},
				{
					"inputs": [],
					"name": "renounceOwnership",
					"outputs": [],
					"stateMutability": "nonpayable",
					"type": "function"
				},
				{
					"inputs": [
						{
							"internalType": "address",
							"name": "_address",
							"type": "address"
						}
					],
					"name": "setFundAddress",
					"outputs": [],
					"stateMutability": "nonpayable",
					"type": "function"
				},
				{
					"inputs": [
						{
							"internalType": "address",
							"name": "_address",
							"type": "address"
						},
						{
							"internalType": "bool",
							"name": "enabled",
							"type": "bool"
						}
					],
					"name": "setPaymaster",
					"outputs": [],
					"stateMutability": "nonpayable",
					"type": "function"
				},
				{
					"inputs": [
						{
							"internalType": "address",
							"name": "newOwner",
							"type": "address"
						}
					],
					"name": "transferOwnership",
					"outputs": [],
					"stateMutability": "nonpayable",
					"type": "function"
				},
				{
					"inputs": [
						{
							"internalType": "uint256",
							"name": "token_id",
							"type": "uint256"
						},
						{
							"internalType": "uint256",
							"name": "amount",
							"type": "uint256"
						}
					],
					"name": "withdraw",
					"outputs": [],
					"stateMutability": "nonpayable",
					"type": "function"
				},
				{
					"inputs": [
						{
							"internalType": "uint256",
							"name": "",
							"type": "uint256"
						}
					],
					"name": "withdrawAmounts",
					"outputs": [
						{
							"internalType": "uint256",
							"name": "",
							"type": "uint256"
						}
					],
					"stateMutability": "view",
					"type": "function"
				},
				{
					"inputs": [],
					"name": "withdraw_interval",
					"outputs": [
						{
							"internalType": "uint256",
							"name": "",
							"type": "uint256"
						}
					],
					"stateMutability": "view",
					"type": "function"
				}
			],
			"devdoc": {
				"errors": {
					"ECDSAInvalidSignature()": [
						{
							"details": "The signature derives the `address(0)`."
						}
					],
					"ECDSAInvalidSignatureLength(uint256)": [
						{
							"details": "The signature has an invalid length."
						}
					],
					"ECDSAInvalidSignatureS(bytes32)": [
						{
							"details": "The signature has an S value that is in the upper half order."
						}
					],
					"OwnableInvalidOwner(address)": [
						{
							"details": "The owner is not a valid owner account. (eg. `address(0)`)"
						}
					],
					"OwnableUnauthorizedAccount(address)": [
						{
							"details": "The caller account is not authorized to perform an operation."
						}
					]
				},
				"kind": "dev",
				"methods": {
					"owner()": {
						"details": "Returns the address of the current owner."
					},
					"renounceOwnership()": {
						"details": "Leaves the contract without owner. It will not be possible to call `onlyOwner` functions. Can only be called by the current owner. NOTE: Renouncing ownership will leave the contract without an owner, thereby disabling any functionality that is only available to the owner."
					},
					"transferOwnership(address)": {
						"details": "Transfers ownership of the contract to a new account (`newOwner`). Can only be called by the current owner."
					}
				},
				"version": 1
			},
			"evm": {
				"assembly": "    /* \"contracts/NodeReward.sol\":298:3430  contract CheckerReward is Ownable {... */\n  mstore(0x40, 0x80)\n    /* \"contracts/NodeReward.sol\":500:507  2592000 */\n  0x278d00\n    /* \"contracts/NodeReward.sol\":465:507  uint256 public withdraw_interval = 2592000 */\n  0x04\n  sstore\n    /* \"contracts/NodeReward.sol\":1168:1432  constructor(address initialOwner, address checkerLicenseAddress, address cKIP_token, address fundAddress) Ownable(initialOwner) {... */\n  callvalue\n  dup1\n  iszero\n  tag_1\n  jumpi\n  0x00\n  dup1\n  revert\ntag_1:\n  pop\n  mload(0x40)\n  sub(codesize, bytecodeSize)\n  dup1\n  bytecodeSize\n  dup4\n  codecopy\n  dup2\n  dup2\n  add\n  0x40\n  mstore\n  dup2\n  add\n  swap1\n  tag_2\n  swap2\n  swap1\n  tag_3\n  jump\t// in\ntag_2:\n    /* \"contracts/NodeReward.sol\":1282:1294  initialOwner */\n  dup4\n    /* \"@openzeppelin/contracts/access/Ownable.sol\":1297:1298  0 */\n  0x00\n    /* \"@openzeppelin/contracts/access/Ownable.sol\":1273:1299  initialOwner == address(0) */\n  0xffffffffffffffffffffffffffffffffffffffff\n  and\n    /* \"@openzeppelin/contracts/access/Ownable.sol\":1273:1285  initialOwner */\n  dup2\n    /* \"@openzeppelin/contracts/access/Ownable.sol\":1273:1299  initialOwner == address(0) */\n  0xffffffffffffffffffffffffffffffffffffffff\n  and\n  sub\n    /* \"@openzeppelin/contracts/access/Ownable.sol\":1269:1364  if (initialOwner == address(0)) {... */\n  tag_7\n  jumpi\n    /* \"@openzeppelin/contracts/access/Ownable.sol\":1350:1351  0 */\n  0x00\n    /* \"@openzeppelin/contracts/access/Ownable.sol\":1322:1353  OwnableInvalidOwner(address(0)) */\n  mload(0x40)\n  0x1e4fbdf700000000000000000000000000000000000000000000000000000000\n  dup2\n  mstore\n  0x04\n  add\n  tag_8\n  swap2\n  swap1\n  tag_9\n  jump\t// in\ntag_8:\n  mload(0x40)\n  dup1\n  swap2\n  sub\n  swap1\n  revert\n    /* \"@openzeppelin/contracts/access/Ownable.sol\":1269:1364  if (initialOwner == address(0)) {... */\ntag_7:\n    /* \"@openzeppelin/contracts/access/Ownable.sol\":1373:1405  _transferOwnership(initialOwner) */\n  tag_10\n    /* \"@openzeppelin/contracts/access/Ownable.sol\":1392:1404  initialOwner */\n  dup2\n    /* \"@openzeppelin/contracts/access/Ownable.sol\":1373:1391  _transferOwnership */\n  shl(0x20, tag_11)\n    /* \"@openzeppelin/contracts/access/Ownable.sol\":1373:1405  _transferOwnership(initialOwner) */\n  0x20\n  shr\n  jump\t// in\ntag_10:\n    /* \"@openzeppelin/contracts/access/Ownable.sol\":1225:1412  constructor(address initialOwner) {... */\n  pop\n    /* \"contracts/NodeReward.sol\":1329:1350  checkerLicenseAddress */\n  dup3\n    /* \"contracts/NodeReward.sol\":1307:1318  license_nft */\n  0x01\n  0x00\n    /* \"contracts/NodeReward.sol\":1307:1351  license_nft = IERC721(checkerLicenseAddress) */\n  0x0100\n  exp\n  dup2\n  sload\n  dup2\n  0xffffffffffffffffffffffffffffffffffffffff\n  mul\n  not\n  and\n  swap1\n  dup4\n  0xffffffffffffffffffffffffffffffffffffffff\n  and\n  mul\n  or\n  swap1\n  sstore\n  pop\n    /* \"contracts/NodeReward.sol\":1376:1386  cKIP_token */\n  dup2\n    /* \"contracts/NodeReward.sol\":1362:1366  cKIP */\n  0x02\n  0x00\n    /* \"contracts/NodeReward.sol\":1362:1387  cKIP = IERC20(cKIP_token) */\n  0x0100\n  exp\n  dup2\n  sload\n  dup2\n  0xffffffffffffffffffffffffffffffffffffffff\n  mul\n  not\n  and\n  swap1\n  dup4\n  0xffffffffffffffffffffffffffffffffffffffff\n  and\n  mul\n  or\n  swap1\n  sstore\n  pop\n    /* \"contracts/NodeReward.sol\":1413:1424  fundAddress */\n  dup1\n    /* \"contracts/NodeReward.sol\":1398:1410  fund_address */\n  0x03\n  0x00\n    /* \"contracts/NodeReward.sol\":1398:1424  fund_address = fundAddress */\n  0x0100\n  exp\n  dup2\n  sload\n  dup2\n  0xffffffffffffffffffffffffffffffffffffffff\n  mul\n  not\n  and\n  swap1\n  dup4\n  0xffffffffffffffffffffffffffffffffffffffff\n  and\n  mul\n  or\n  swap1\n  sstore\n  pop\n    /* \"contracts/NodeReward.sol\":1168:1432  constructor(address initialOwner, address checkerLicenseAddress, address cKIP_token, address fundAddress) Ownable(initialOwner) {... */\n  pop\n  pop\n  pop\n  pop\n    /* \"contracts/NodeReward.sol\":298:3430  contract CheckerReward is Ownable {... */\n  jump(tag_13)\n    /* \"@openzeppelin/contracts/access/Ownable.sol\":2912:3099  function _transferOwnership(address newOwner) internal virtual {... */\ntag_11:\n    /* \"@openzeppelin/contracts/access/Ownable.sol\":2985:3001  address oldOwner */\n  0x00\n    /* \"@openzeppelin/contracts/access/Ownable.sol\":3004:3010  _owner */\n  dup1\n  0x00\n  swap1\n  sload\n  swap1\n  0x0100\n  exp\n  swap1\n  div\n  0xffffffffffffffffffffffffffffffffffffffff\n  and\n    /* \"@openzeppelin/contracts/access/Ownable.sol\":2985:3010  address oldOwner = _owner */\n  swap1\n  pop\n    /* \"@openzeppelin/contracts/access/Ownable.sol\":3029:3037  newOwner */\n  dup2\n    /* \"@openzeppelin/contracts/access/Ownable.sol\":3020:3026  _owner */\n  0x00\n  dup1\n    /* \"@openzeppelin/contracts/access/Ownable.sol\":3020:3037  _owner = newOwner */\n  0x0100\n  exp\n  dup2\n  sload\n  dup2\n  0xffffffffffffffffffffffffffffffffffffffff\n  mul\n  not\n  and\n  swap1\n  dup4\n  0xffffffffffffffffffffffffffffffffffffffff\n  and\n  mul\n  or\n  swap1\n  sstore\n  pop\n    /* \"@openzeppelin/contracts/access/Ownable.sol\":3083:3091  newOwner */\n  dup2\n    /* \"@openzeppelin/contracts/access/Ownable.sol\":3052:3092  OwnershipTransferred(oldOwner, newOwner) */\n  0xffffffffffffffffffffffffffffffffffffffff\n  and\n    /* \"@openzeppelin/contracts/access/Ownable.sol\":3073:3081  oldOwner */\n  dup2\n    /* \"@openzeppelin/contracts/access/Ownable.sol\":3052:3092  OwnershipTransferred(oldOwner, newOwner) */\n  0xffffffffffffffffffffffffffffffffffffffff\n  and\n  0x8be0079c531659141344cd1fd0a4f28419497f9722a3daafe3b4186f6b6457e0\n  mload(0x40)\n  mload(0x40)\n  dup1\n  swap2\n  sub\n  swap1\n  log3\n    /* \"@openzeppelin/contracts/access/Ownable.sol\":2975:3099  {... */\n  pop\n    /* \"@openzeppelin/contracts/access/Ownable.sol\":2912:3099  function _transferOwnership(address newOwner) internal virtual {... */\n  pop\n  jump\t// out\n    /* \"#utility.yul\":88:205   */\ntag_16:\n    /* \"#utility.yul\":197:198   */\n  0x00\n    /* \"#utility.yul\":194:195   */\n  dup1\n    /* \"#utility.yul\":187:199   */\n  revert\n    /* \"#utility.yul\":334:460   */\ntag_18:\n    /* \"#utility.yul\":371:378   */\n  0x00\n    /* \"#utility.yul\":411:453   */\n  0xffffffffffffffffffffffffffffffffffffffff\n    /* \"#utility.yul\":404:409   */\n  dup3\n    /* \"#utility.yul\":400:454   */\n  and\n    /* \"#utility.yul\":389:454   */\n  swap1\n  pop\n    /* \"#utility.yul\":334:460   */\n  swap2\n  swap1\n  pop\n  jump\t// out\n    /* \"#utility.yul\":466:562   */\ntag_19:\n    /* \"#utility.yul\":503:510   */\n  0x00\n    /* \"#utility.yul\":532:556   */\n  tag_29\n    /* \"#utility.yul\":550:555   */\n  dup3\n    /* \"#utility.yul\":532:556   */\n  tag_18\n  jump\t// in\ntag_29:\n    /* \"#utility.yul\":521:556   */\n  swap1\n  pop\n    /* \"#utility.yul\":466:562   */\n  swap2\n  swap1\n  pop\n  jump\t// out\n    /* \"#utility.yul\":568:690   */\ntag_20:\n    /* \"#utility.yul\":641:665   */\n  tag_31\n    /* \"#utility.yul\":659:664   */\n  dup2\n    /* \"#utility.yul\":641:665   */\n  tag_19\n  jump\t// in\ntag_31:\n    /* \"#utility.yul\":634:639   */\n  dup2\n    /* \"#utility.yul\":631:666   */\n  eq\n    /* \"#utility.yul\":621:684   */\n  tag_32\n  jumpi\n    /* \"#utility.yul\":680:681   */\n  0x00\n    /* \"#utility.yul\":677:678   */\n  dup1\n    /* \"#utility.yul\":670:682   */\n  revert\n    /* \"#utility.yul\":621:684   */\ntag_32:\n    /* \"#utility.yul\":568:690   */\n  pop\n  jump\t// out\n    /* \"#utility.yul\":696:839   */\ntag_21:\n    /* \"#utility.yul\":753:758   */\n  0x00\n    /* \"#utility.yul\":784:790   */\n  dup2\n    /* \"#utility.yul\":778:791   */\n  mload\n    /* \"#utility.yul\":769:791   */\n  swap1\n  pop\n    /* \"#utility.yul\":800:833   */\n  tag_34\n    /* \"#utility.yul\":827:832   */\n  dup2\n    /* \"#utility.yul\":800:833   */\n  tag_20\n  jump\t// in\ntag_34:\n    /* \"#utility.yul\":696:839   */\n  swap3\n  swap2\n  pop\n  pop\n  jump\t// out\n    /* \"#utility.yul\":845:1665   */\ntag_3:\n    /* \"#utility.yul\":942:948   */\n  0x00\n    /* \"#utility.yul\":950:956   */\n  dup1\n    /* \"#utility.yul\":958:964   */\n  0x00\n    /* \"#utility.yul\":966:972   */\n  dup1\n    /* \"#utility.yul\":1015:1018   */\n  0x80\n    /* \"#utility.yul\":1003:1012   */\n  dup6\n    /* \"#utility.yul\":994:1001   */\n  dup8\n    /* \"#utility.yul\":990:1013   */\n  sub\n    /* \"#utility.yul\":986:1019   */\n  slt\n    /* \"#utility.yul\":983:1103   */\n  iszero\n  tag_36\n  jumpi\n    /* \"#utility.yul\":1022:1101   */\n  tag_37\n  tag_16\n  jump\t// in\ntag_37:\n    /* \"#utility.yul\":983:1103   */\ntag_36:\n    /* \"#utility.yul\":1142:1143   */\n  0x00\n    /* \"#utility.yul\":1167:1231   */\n  tag_38\n    /* \"#utility.yul\":1223:1230   */\n  dup8\n    /* \"#utility.yul\":1214:1220   */\n  dup3\n    /* \"#utility.yul\":1203:1212   */\n  dup9\n    /* \"#utility.yul\":1199:1221   */\n  add\n    /* \"#utility.yul\":1167:1231   */\n  tag_21\n  jump\t// in\ntag_38:\n    /* \"#utility.yul\":1157:1231   */\n  swap5\n  pop\n    /* \"#utility.yul\":1113:1241   */\n  pop\n    /* \"#utility.yul\":1280:1282   */\n  0x20\n    /* \"#utility.yul\":1306:1370   */\n  tag_39\n    /* \"#utility.yul\":1362:1369   */\n  dup8\n    /* \"#utility.yul\":1353:1359   */\n  dup3\n    /* \"#utility.yul\":1342:1351   */\n  dup9\n    /* \"#utility.yul\":1338:1360   */\n  add\n    /* \"#utility.yul\":1306:1370   */\n  tag_21\n  jump\t// in\ntag_39:\n    /* \"#utility.yul\":1296:1370   */\n  swap4\n  pop\n    /* \"#utility.yul\":1251:1380   */\n  pop\n    /* \"#utility.yul\":1419:1421   */\n  0x40\n    /* \"#utility.yul\":1445:1509   */\n  tag_40\n    /* \"#utility.yul\":1501:1508   */\n  dup8\n    /* \"#utility.yul\":1492:1498   */\n  dup3\n    /* \"#utility.yul\":1481:1490   */\n  dup9\n    /* \"#utility.yul\":1477:1499   */\n  add\n    /* \"#utility.yul\":1445:1509   */\n  tag_21\n  jump\t// in\ntag_40:\n    /* \"#utility.yul\":1435:1509   */\n  swap3\n  pop\n    /* \"#utility.yul\":1390:1519   */\n  pop\n    /* \"#utility.yul\":1558:1560   */\n  0x60\n    /* \"#utility.yul\":1584:1648   */\n  tag_41\n    /* \"#utility.yul\":1640:1647   */\n  dup8\n    /* \"#utility.yul\":1631:1637   */\n  dup3\n    /* \"#utility.yul\":1620:1629   */\n  dup9\n    /* \"#utility.yul\":1616:1638   */\n  add\n    /* \"#utility.yul\":1584:1648   */\n  tag_21\n  jump\t// in\ntag_41:\n    /* \"#utility.yul\":1574:1648   */\n  swap2\n  pop\n    /* \"#utility.yul\":1529:1658   */\n  pop\n    /* \"#utility.yul\":845:1665   */\n  swap3\n  swap6\n  swap2\n  swap5\n  pop\n  swap3\n  pop\n  jump\t// out\n    /* \"#utility.yul\":1671:1789   */\ntag_22:\n    /* \"#utility.yul\":1758:1782   */\n  tag_43\n    /* \"#utility.yul\":1776:1781   */\n  dup2\n    /* \"#utility.yul\":1758:1782   */\n  tag_19\n  jump\t// in\ntag_43:\n    /* \"#utility.yul\":1753:1756   */\n  dup3\n    /* \"#utility.yul\":1746:1783   */\n  mstore\n    /* \"#utility.yul\":1671:1789   */\n  pop\n  pop\n  jump\t// out\n    /* \"#utility.yul\":1795:2017   */\ntag_9:\n    /* \"#utility.yul\":1888:1892   */\n  0x00\n    /* \"#utility.yul\":1926:1928   */\n  0x20\n    /* \"#utility.yul\":1915:1924   */\n  dup3\n    /* \"#utility.yul\":1911:1929   */\n  add\n    /* \"#utility.yul\":1903:1929   */\n  swap1\n  pop\n    /* \"#utility.yul\":1939:2010   */\n  tag_45\n    /* \"#utility.yul\":2007:2008   */\n  0x00\n    /* \"#utility.yul\":1996:2005   */\n  dup4\n    /* \"#utility.yul\":1992:2009   */\n  add\n    /* \"#utility.yul\":1983:1989   */\n  dup5\n    /* \"#utility.yul\":1939:2010   */\n  tag_22\n  jump\t// in\ntag_45:\n    /* \"#utility.yul\":1795:2017   */\n  swap3\n  swap2\n  pop\n  pop\n  jump\t// out\n    /* \"contracts/NodeReward.sol\":298:3430  contract CheckerReward is Ownable {... */\ntag_13:\n  dataSize(sub_0)\n  dup1\n  dataOffset(sub_0)\n  0x00\n  codecopy\n  0x00\n  return\nstop\n\nsub_0: assembly {\n        /* \"contracts/NodeReward.sol\":298:3430  contract CheckerReward is Ownable {... */\n      mstore(0x40, 0x80)\n      callvalue\n      dup1\n      iszero\n      tag_1\n      jumpi\n      0x00\n      dup1\n      revert\n    tag_1:\n      pop\n      jumpi(tag_2, lt(calldatasize, 0x04))\n      shr(0xe0, calldataload(0x00))\n      dup1\n      0x85dc3004\n      gt\n      tag_17\n      jumpi\n      dup1\n      0xd44b6478\n      gt\n      tag_18\n      jumpi\n      dup1\n      0xd44b6478\n      eq\n      tag_13\n      jumpi\n      dup1\n      0xe767c798\n      eq\n      tag_14\n      jumpi\n      dup1\n      0xf2fde38b\n      eq\n      tag_15\n      jumpi\n      dup1\n      0xf9e58b28\n      eq\n      tag_16\n      jumpi\n      jump(tag_2)\n    tag_18:\n      dup1\n      0x85dc3004\n      eq\n      tag_10\n      jumpi\n      dup1\n      0x8da5cb5b\n      eq\n      tag_11\n      jumpi\n      dup1\n      0x9f666d84\n      eq\n      tag_12\n      jumpi\n      jump(tag_2)\n    tag_17:\n      dup1\n      0x441a3e70\n      gt\n      tag_19\n      jumpi\n      dup1\n      0x441a3e70\n      eq\n      tag_6\n      jumpi\n      dup1\n      0x51cdb77b\n      eq\n      tag_7\n      jumpi\n      dup1\n      0x56f738cf\n      eq\n      tag_8\n      jumpi\n      dup1\n      0x715018a6\n      eq\n      tag_9\n      jumpi\n      jump(tag_2)\n    tag_19:\n      dup1\n      0x0f20b94c\n      eq\n      tag_3\n      jumpi\n      dup1\n      0x1573f688\n      eq\n      tag_4\n      jumpi\n      dup1\n      0x18afe170\n      eq\n      tag_5\n      jumpi\n    tag_2:\n      0x00\n      dup1\n      revert\n        /* \"contracts/NodeReward.sol\":742:792  mapping(uint256 => uint256) public withdrawAmounts */\n    tag_3:\n      tag_20\n      0x04\n      dup1\n      calldatasize\n      sub\n      dup2\n      add\n      swap1\n      tag_21\n      swap2\n      swap1\n      tag_22\n      jump\t// in\n    tag_21:\n      tag_23\n      jump\t// in\n    tag_20:\n      mload(0x40)\n      tag_24\n      swap2\n      swap1\n      tag_25\n      jump\t// in\n    tag_24:\n      mload(0x40)\n      dup1\n      swap2\n      sub\n      swap1\n      return\n        /* \"contracts/NodeReward.sol\":1440:1626  function setPaymaster(address _address, bool enabled) external onlyOwner {... */\n    tag_4:\n      tag_26\n      0x04\n      dup1\n      calldatasize\n      sub\n      dup2\n      add\n      swap1\n      tag_27\n      swap2\n      swap1\n      tag_28\n      jump\t// in\n    tag_27:\n      tag_29\n      jump\t// in\n    tag_26:\n      stop\n        /* \"contracts/NodeReward.sol\":429:456  address public fund_address */\n    tag_5:\n      tag_30\n      tag_31\n      jump\t// in\n    tag_30:\n      mload(0x40)\n      tag_32\n      swap2\n      swap1\n      tag_33\n      jump\t// in\n    tag_32:\n      mload(0x40)\n      dup1\n      swap2\n      sub\n      swap1\n      return\n        /* \"contracts/NodeReward.sol\":2439:3142  function withdraw(uint256 token_id, uint256 amount) external {... */\n    tag_6:\n      tag_34\n      0x04\n      dup1\n      calldatasize\n      sub\n      dup2\n      add\n      swap1\n      tag_35\n      swap2\n      swap1\n      tag_36\n      jump\t// in\n    tag_35:\n      tag_37\n      jump\t// in\n    tag_34:\n      stop\n        /* \"contracts/NodeReward.sol\":3150:3427  function penalty(uint256 token_id, uint256 amount) external {... */\n    tag_7:\n      tag_38\n      0x04\n      dup1\n      calldatasize\n      sub\n      dup2\n      add\n      swap1\n      tag_39\n      swap2\n      swap1\n      tag_36\n      jump\t// in\n    tag_39:\n      tag_40\n      jump\t// in\n    tag_38:\n      stop\n        /* \"contracts/NodeReward.sol\":404:422  IERC20 public cKIP */\n    tag_8:\n      tag_41\n      tag_42\n      jump\t// in\n    tag_41:\n      mload(0x40)\n      tag_43\n      swap2\n      swap1\n      tag_44\n      jump\t// in\n    tag_43:\n      mload(0x40)\n      dup1\n      swap2\n      sub\n      swap1\n      return\n        /* \"@openzeppelin/contracts/access/Ownable.sol\":2293:2394  function renounceOwnership() public virtual onlyOwner {... */\n    tag_9:\n      tag_45\n      tag_46\n      jump\t// in\n    tag_45:\n      stop\n        /* \"contracts/NodeReward.sol\":1634:1737  function setFundAddress(address _address) external onlyOwner {... */\n    tag_10:\n      tag_47\n      0x04\n      dup1\n      calldatasize\n      sub\n      dup2\n      add\n      swap1\n      tag_48\n      swap2\n      swap1\n      tag_49\n      jump\t// in\n    tag_48:\n      tag_50\n      jump\t// in\n    tag_47:\n      stop\n        /* \"@openzeppelin/contracts/access/Ownable.sol\":1638:1723  function owner() public view virtual returns (address) {... */\n    tag_11:\n      tag_51\n      tag_52\n      jump\t// in\n    tag_51:\n      mload(0x40)\n      tag_53\n      swap2\n      swap1\n      tag_33\n      jump\t// in\n    tag_53:\n      mload(0x40)\n      dup1\n      swap2\n      sub\n      swap1\n      return\n        /* \"contracts/NodeReward.sol\":686:735  mapping(uint256 => uint256) public claimedAmounts */\n    tag_12:\n      tag_54\n      0x04\n      dup1\n      calldatasize\n      sub\n      dup2\n      add\n      swap1\n      tag_55\n      swap2\n      swap1\n      tag_22\n      jump\t// in\n    tag_55:\n      tag_56\n      jump\t// in\n    tag_54:\n      mload(0x40)\n      tag_57\n      swap2\n      swap1\n      tag_25\n      jump\t// in\n    tag_57:\n      mload(0x40)\n      dup1\n      swap2\n      sub\n      swap1\n      return\n        /* \"contracts/NodeReward.sol\":1745:2431  function claim(uint256 token_id, uint256 amount, address _paymaster, bytes memory signature) external {... */\n    tag_13:\n      tag_58\n      0x04\n      dup1\n      calldatasize\n      sub\n      dup2\n      add\n      swap1\n      tag_59\n      swap2\n      swap1\n      tag_60\n      jump\t// in\n    tag_59:\n      tag_61\n      jump\t// in\n    tag_58:\n      stop\n        /* \"contracts/NodeReward.sol\":465:507  uint256 public withdraw_interval = 2592000 */\n    tag_14:\n      tag_62\n      tag_63\n      jump\t// in\n    tag_62:\n      mload(0x40)\n      tag_64\n      swap2\n      swap1\n      tag_25\n      jump\t// in\n    tag_64:\n      mload(0x40)\n      dup1\n      swap2\n      sub\n      swap1\n      return\n        /* \"@openzeppelin/contracts/access/Ownable.sol\":2543:2758  function transferOwnership(address newOwner) public virtual onlyOwner {... */\n    tag_15:\n      tag_65\n      0x04\n      dup1\n      calldatasize\n      sub\n      dup2\n      add\n      swap1\n      tag_66\n      swap2\n      swap1\n      tag_49\n      jump\t// in\n    tag_66:\n      tag_67\n      jump\t// in\n    tag_65:\n      stop\n        /* \"contracts/NodeReward.sol\":371:397  IERC721 public license_nft */\n    tag_16:\n      tag_68\n      tag_69\n      jump\t// in\n    tag_68:\n      mload(0x40)\n      tag_70\n      swap2\n      swap1\n      tag_71\n      jump\t// in\n    tag_70:\n      mload(0x40)\n      dup1\n      swap2\n      sub\n      swap1\n      return\n        /* \"contracts/NodeReward.sol\":742:792  mapping(uint256 => uint256) public withdrawAmounts */\n    tag_23:\n      mstore(0x20, 0x09)\n      dup1\n      0x00\n      mstore\n      keccak256(0x00, 0x40)\n      0x00\n      swap2\n      pop\n      swap1\n      pop\n      sload\n      dup2\n      jump\t// out\n        /* \"contracts/NodeReward.sol\":1440:1626  function setPaymaster(address _address, bool enabled) external onlyOwner {... */\n    tag_29:\n        /* \"@openzeppelin/contracts/access/Ownable.sol\":1531:1544  _checkOwner() */\n      tag_73\n        /* \"@openzeppelin/contracts/access/Ownable.sol\":1531:1542  _checkOwner */\n      tag_74\n        /* \"@openzeppelin/contracts/access/Ownable.sol\":1531:1544  _checkOwner() */\n      jump\t// in\n    tag_73:\n        /* \"contracts/NodeReward.sol\":1546:1553  enabled */\n      dup1\n        /* \"contracts/NodeReward.sol\":1524:1533  paymaster */\n      0x05\n        /* \"contracts/NodeReward.sol\":1524:1543  paymaster[_address] */\n      0x00\n        /* \"contracts/NodeReward.sol\":1534:1542  _address */\n      dup5\n        /* \"contracts/NodeReward.sol\":1524:1543  paymaster[_address] */\n      0xffffffffffffffffffffffffffffffffffffffff\n      and\n      0xffffffffffffffffffffffffffffffffffffffff\n      and\n      dup2\n      mstore\n      0x20\n      add\n      swap1\n      dup2\n      mstore\n      0x20\n      add\n      0x00\n      keccak256\n      0x00\n        /* \"contracts/NodeReward.sol\":1524:1553  paymaster[_address] = enabled */\n      0x0100\n      exp\n      dup2\n      sload\n      dup2\n      0xff\n      mul\n      not\n      and\n      swap1\n      dup4\n      iszero\n      iszero\n      mul\n      or\n      swap1\n      sstore\n      pop\n        /* \"contracts/NodeReward.sol\":1600:1608  _address */\n      dup2\n        /* \"contracts/NodeReward.sol\":1569:1618  PaymasterChanged(_msgSender(), _address, enabled) */\n      0xffffffffffffffffffffffffffffffffffffffff\n      and\n        /* \"contracts/NodeReward.sol\":1586:1598  _msgSender() */\n      tag_76\n        /* \"contracts/NodeReward.sol\":1586:1596  _msgSender */\n      tag_77\n        /* \"contracts/NodeReward.sol\":1586:1598  _msgSender() */\n      jump\t// in\n    tag_76:\n        /* \"contracts/NodeReward.sol\":1569:1618  PaymasterChanged(_msgSender(), _address, enabled) */\n      0xffffffffffffffffffffffffffffffffffffffff\n      and\n      0x6acf3afc37630e6f3e6b7176f7c4f8a3fd260b3f52fbca69f34d6db2d4fbd897\n        /* \"contracts/NodeReward.sol\":1610:1617  enabled */\n      dup4\n        /* \"contracts/NodeReward.sol\":1569:1618  PaymasterChanged(_msgSender(), _address, enabled) */\n      mload(0x40)\n      tag_78\n      swap2\n      swap1\n      tag_79\n      jump\t// in\n    tag_78:\n      mload(0x40)\n      dup1\n      swap2\n      sub\n      swap1\n      log3\n        /* \"contracts/NodeReward.sol\":1440:1626  function setPaymaster(address _address, bool enabled) external onlyOwner {... */\n      pop\n      pop\n      jump\t// out\n        /* \"contracts/NodeReward.sol\":429:456  address public fund_address */\n    tag_31:\n      0x03\n      0x00\n      swap1\n      sload\n      swap1\n      0x0100\n      exp\n      swap1\n      div\n      0xffffffffffffffffffffffffffffffffffffffff\n      and\n      dup2\n      jump\t// out\n        /* \"contracts/NodeReward.sol\":2439:3142  function withdraw(uint256 token_id, uint256 amount) external {... */\n    tag_37:\n        /* \"contracts/NodeReward.sol\":2549:2550  0 */\n      0x00\n        /* \"contracts/NodeReward.sol\":2519:2537  last_withdraw_time */\n      0x06\n        /* \"contracts/NodeReward.sol\":2519:2547  last_withdraw_time[token_id] */\n      0x00\n        /* \"contracts/NodeReward.sol\":2538:2546  token_id */\n      dup5\n        /* \"contracts/NodeReward.sol\":2519:2547  last_withdraw_time[token_id] */\n      dup2\n      mstore\n      0x20\n      add\n      swap1\n      dup2\n      mstore\n      0x20\n      add\n      0x00\n      keccak256\n      sload\n        /* \"contracts/NodeReward.sol\":2519:2550  last_withdraw_time[token_id]==0 */\n      eq\n        /* \"contracts/NodeReward.sol\":2519:2616  last_withdraw_time[token_id]==0 && last_withdraw_time[token_id]+withdraw_interval>block.timestamp */\n      dup1\n      iszero\n      tag_81\n      jumpi\n      pop\n        /* \"contracts/NodeReward.sol\":2601:2616  block.timestamp */\n      timestamp\n        /* \"contracts/NodeReward.sol\":2583:2600  withdraw_interval */\n      sload(0x04)\n        /* \"contracts/NodeReward.sol\":2554:2572  last_withdraw_time */\n      0x06\n        /* \"contracts/NodeReward.sol\":2554:2582  last_withdraw_time[token_id] */\n      0x00\n        /* \"contracts/NodeReward.sol\":2573:2581  token_id */\n      dup6\n        /* \"contracts/NodeReward.sol\":2554:2582  last_withdraw_time[token_id] */\n      dup2\n      mstore\n      0x20\n      add\n      swap1\n      dup2\n      mstore\n      0x20\n      add\n      0x00\n      keccak256\n      sload\n        /* \"contracts/NodeReward.sol\":2554:2600  last_withdraw_time[token_id]+withdraw_interval */\n      tag_82\n      swap2\n      swap1\n      tag_83\n      jump\t// in\n    tag_82:\n        /* \"contracts/NodeReward.sol\":2554:2616  last_withdraw_time[token_id]+withdraw_interval>block.timestamp */\n      gt\n        /* \"contracts/NodeReward.sol\":2519:2616  last_withdraw_time[token_id]==0 && last_withdraw_time[token_id]+withdraw_interval>block.timestamp */\n    tag_81:\n        /* \"contracts/NodeReward.sol\":2511:2639  require(last_withdraw_time[token_id]==0 && last_withdraw_time[token_id]+withdraw_interval>block.timestamp, \"Can't withdraw yet\") */\n      tag_84\n      jumpi\n      mload(0x40)\n      0x08c379a000000000000000000000000000000000000000000000000000000000\n      dup2\n      mstore\n      0x04\n      add\n      tag_85\n      swap1\n      tag_86\n      jump\t// in\n    tag_85:\n      mload(0x40)\n      dup1\n      swap2\n      sub\n      swap1\n      revert\n    tag_84:\n        /* \"contracts/NodeReward.sol\":2695:2707  _msgSender() */\n      tag_87\n        /* \"contracts/NodeReward.sol\":2695:2705  _msgSender */\n      tag_77\n        /* \"contracts/NodeReward.sol\":2695:2707  _msgSender() */\n      jump\t// in\n    tag_87:\n        /* \"contracts/NodeReward.sol\":2662:2707  license_nft.ownerOf(token_id) == _msgSender() */\n      0xffffffffffffffffffffffffffffffffffffffff\n      and\n        /* \"contracts/NodeReward.sol\":2662:2673  license_nft */\n      0x01\n      0x00\n      swap1\n      sload\n      swap1\n      0x0100\n      exp\n      swap1\n      div\n      0xffffffffffffffffffffffffffffffffffffffff\n      and\n        /* \"contracts/NodeReward.sol\":2662:2681  license_nft.ownerOf */\n      0xffffffffffffffffffffffffffffffffffffffff\n      and\n      0x6352211e\n        /* \"contracts/NodeReward.sol\":2682:2690  token_id */\n      dup5\n        /* \"contracts/NodeReward.sol\":2662:2691  license_nft.ownerOf(token_id) */\n      mload(0x40)\n      dup3\n      0xffffffff\n      and\n      0xe0\n      shl\n      dup2\n      mstore\n      0x04\n      add\n      tag_88\n      swap2\n      swap1\n      tag_25\n      jump\t// in\n    tag_88:\n      0x20\n      mload(0x40)\n      dup1\n      dup4\n      sub\n      dup2\n      dup7\n      gas\n      staticcall\n      iszero\n      dup1\n      iszero\n      tag_90\n      jumpi\n      returndatasize\n      0x00\n      dup1\n      returndatacopy\n      revert(0x00, returndatasize)\n    tag_90:\n      pop\n      pop\n      pop\n      pop\n      mload(0x40)\n      returndatasize\n      not(0x1f)\n      0x1f\n      dup3\n      add\n      and\n      dup3\n      add\n      dup1\n      0x40\n      mstore\n      pop\n      dup2\n      add\n      swap1\n      tag_91\n      swap2\n      swap1\n      tag_92\n      jump\t// in\n    tag_91:\n        /* \"contracts/NodeReward.sol\":2662:2707  license_nft.ownerOf(token_id) == _msgSender() */\n      0xffffffffffffffffffffffffffffffffffffffff\n      and\n      eq\n        /* \"contracts/NodeReward.sol\":2654:2741  require(license_nft.ownerOf(token_id) == _msgSender(), \"Caller is not the token owner\") */\n      tag_93\n      jumpi\n      mload(0x40)\n      0x08c379a000000000000000000000000000000000000000000000000000000000\n      dup2\n      mstore\n      0x04\n      add\n      tag_94\n      swap1\n      tag_95\n      jump\t// in\n    tag_94:\n      mload(0x40)\n      dup1\n      swap2\n      sub\n      swap1\n      revert\n    tag_93:\n        /* \"contracts/NodeReward.sol\":2767:2768  0 */\n      0x00\n        /* \"contracts/NodeReward.sol\":2760:2766  amount */\n      dup2\n        /* \"contracts/NodeReward.sol\":2760:2768  amount>0 */\n      gt\n        /* \"contracts/NodeReward.sol\":2752:2793  require(amount>0, \"Amount can't be zero\") */\n      tag_96\n      jumpi\n      mload(0x40)\n      0x08c379a000000000000000000000000000000000000000000000000000000000\n      dup2\n      mstore\n      0x04\n      add\n      tag_97\n      swap1\n      tag_98\n      jump\t// in\n    tag_97:\n      mload(0x40)\n      dup1\n      swap2\n      sub\n      swap1\n      revert\n    tag_96:\n        /* \"contracts/NodeReward.sol\":2880:2886  amount */\n      dup1\n        /* \"contracts/NodeReward.sol\":2854:2869  withdrawAmounts */\n      0x09\n        /* \"contracts/NodeReward.sol\":2854:2879  withdrawAmounts[token_id] */\n      0x00\n        /* \"contracts/NodeReward.sol\":2870:2878  token_id */\n      dup5\n        /* \"contracts/NodeReward.sol\":2854:2879  withdrawAmounts[token_id] */\n      dup2\n      mstore\n      0x20\n      add\n      swap1\n      dup2\n      mstore\n      0x20\n      add\n      0x00\n      keccak256\n      sload\n        /* \"contracts/NodeReward.sol\":2854:2886  withdrawAmounts[token_id]+amount */\n      tag_99\n      swap2\n      swap1\n      tag_83\n      jump\t// in\n    tag_99:\n        /* \"contracts/NodeReward.sol\":2837:2842  fines */\n      0x07\n        /* \"contracts/NodeReward.sol\":2837:2852  fines[token_id] */\n      0x00\n        /* \"contracts/NodeReward.sol\":2843:2851  token_id */\n      dup5\n        /* \"contracts/NodeReward.sol\":2837:2852  fines[token_id] */\n      dup2\n      mstore\n      0x20\n      add\n      swap1\n      dup2\n      mstore\n      0x20\n      add\n      0x00\n      keccak256\n      sload\n        /* \"contracts/NodeReward.sol\":2812:2826  claimedAmounts */\n      0x08\n        /* \"contracts/NodeReward.sol\":2812:2836  claimedAmounts[token_id] */\n      0x00\n        /* \"contracts/NodeReward.sol\":2827:2835  token_id */\n      dup6\n        /* \"contracts/NodeReward.sol\":2812:2836  claimedAmounts[token_id] */\n      dup2\n      mstore\n      0x20\n      add\n      swap1\n      dup2\n      mstore\n      0x20\n      add\n      0x00\n      keccak256\n      sload\n        /* \"contracts/NodeReward.sol\":2812:2852  claimedAmounts[token_id]-fines[token_id] */\n      tag_100\n      swap2\n      swap1\n      tag_101\n      jump\t// in\n    tag_100:\n        /* \"contracts/NodeReward.sol\":2812:2886  claimedAmounts[token_id]-fines[token_id]>=withdrawAmounts[token_id]+amount */\n      lt\n      iszero\n        /* \"contracts/NodeReward.sol\":2804:2911  require(claimedAmounts[token_id]-fines[token_id]>=withdrawAmounts[token_id]+amount, \"You money not enough\") */\n      tag_102\n      jumpi\n      mload(0x40)\n      0x08c379a000000000000000000000000000000000000000000000000000000000\n      dup2\n      mstore\n      0x04\n      add\n      tag_103\n      swap1\n      tag_104\n      jump\t// in\n    tag_103:\n      mload(0x40)\n      dup1\n      swap2\n      sub\n      swap1\n      revert\n    tag_102:\n        /* \"contracts/NodeReward.sol\":2922:2926  cKIP */\n      0x02\n      0x00\n      swap1\n      sload\n      swap1\n      0x0100\n      exp\n      swap1\n      div\n      0xffffffffffffffffffffffffffffffffffffffff\n      and\n        /* \"contracts/NodeReward.sol\":2922:2939  cKIP.transferFrom */\n      0xffffffffffffffffffffffffffffffffffffffff\n      and\n      0x23b872dd\n        /* \"contracts/NodeReward.sol\":2940:2952  fund_address */\n      0x03\n      0x00\n      swap1\n      sload\n      swap1\n      0x0100\n      exp\n      swap1\n      div\n      0xffffffffffffffffffffffffffffffffffffffff\n      and\n        /* \"contracts/NodeReward.sol\":2954:2966  _msgSender() */\n      tag_105\n        /* \"contracts/NodeReward.sol\":2954:2964  _msgSender */\n      tag_77\n        /* \"contracts/NodeReward.sol\":2954:2966  _msgSender() */\n      jump\t// in\n    tag_105:\n        /* \"contracts/NodeReward.sol\":2968:2974  amount */\n      dup5\n        /* \"contracts/NodeReward.sol\":2922:2975  cKIP.transferFrom(fund_address, _msgSender(), amount) */\n      mload(0x40)\n      dup5\n      0xffffffff\n      and\n      0xe0\n      shl\n      dup2\n      mstore\n      0x04\n      add\n      tag_106\n      swap4\n      swap3\n      swap2\n      swap1\n      tag_107\n      jump\t// in\n    tag_106:\n      0x20\n      mload(0x40)\n      dup1\n      dup4\n      sub\n      dup2\n      0x00\n      dup8\n      gas\n      call\n      iszero\n      dup1\n      iszero\n      tag_109\n      jumpi\n      returndatasize\n      0x00\n      dup1\n      returndatacopy\n      revert(0x00, returndatasize)\n    tag_109:\n      pop\n      pop\n      pop\n      pop\n      mload(0x40)\n      returndatasize\n      not(0x1f)\n      0x1f\n      dup3\n      add\n      and\n      dup3\n      add\n      dup1\n      0x40\n      mstore\n      pop\n      dup2\n      add\n      swap1\n      tag_110\n      swap2\n      swap1\n      tag_111\n      jump\t// in\n    tag_110:\n      pop\n        /* \"contracts/NodeReward.sol\":3017:3032  block.timestamp */\n      timestamp\n        /* \"contracts/NodeReward.sol\":2986:3004  last_withdraw_time */\n      0x06\n        /* \"contracts/NodeReward.sol\":2986:3014  last_withdraw_time[token_id] */\n      0x00\n        /* \"contracts/NodeReward.sol\":3005:3013  token_id */\n      dup5\n        /* \"contracts/NodeReward.sol\":2986:3014  last_withdraw_time[token_id] */\n      dup2\n      mstore\n      0x20\n      add\n      swap1\n      dup2\n      mstore\n      0x20\n      add\n      0x00\n      keccak256\n        /* \"contracts/NodeReward.sol\":2986:3032  last_withdraw_time[token_id] = block.timestamp */\n      dup2\n      swap1\n      sstore\n      pop\n        /* \"contracts/NodeReward.sol\":3072:3078  amount */\n      dup1\n        /* \"contracts/NodeReward.sol\":3043:3058  withdrawAmounts */\n      0x09\n        /* \"contracts/NodeReward.sol\":3043:3068  withdrawAmounts[token_id] */\n      0x00\n        /* \"contracts/NodeReward.sol\":3059:3067  token_id */\n      dup5\n        /* \"contracts/NodeReward.sol\":3043:3068  withdrawAmounts[token_id] */\n      dup2\n      mstore\n      0x20\n      add\n      swap1\n      dup2\n      mstore\n      0x20\n      add\n      0x00\n      keccak256\n      0x00\n        /* \"contracts/NodeReward.sol\":3043:3078  withdrawAmounts[token_id] += amount */\n      dup3\n      dup3\n      sload\n      tag_112\n      swap2\n      swap1\n      tag_83\n      jump\t// in\n    tag_112:\n      swap3\n      pop\n      pop\n      dup2\n      swap1\n      sstore\n      pop\n        /* \"contracts/NodeReward.sol\":3103:3115  _msgSender() */\n      tag_113\n        /* \"contracts/NodeReward.sol\":3103:3113  _msgSender */\n      tag_77\n        /* \"contracts/NodeReward.sol\":3103:3115  _msgSender() */\n      jump\t// in\n    tag_113:\n        /* \"contracts/NodeReward.sol\":3094:3134  Withdraw(_msgSender(), token_id, amount) */\n      0xffffffffffffffffffffffffffffffffffffffff\n      and\n      0xf279e6a1f5e320cca91135676d9cb6e44ca8a08c0b88342bcdb1144f6511b568\n        /* \"contracts/NodeReward.sol\":3117:3125  token_id */\n      dup4\n        /* \"contracts/NodeReward.sol\":3127:3133  amount */\n      dup4\n        /* \"contracts/NodeReward.sol\":3094:3134  Withdraw(_msgSender(), token_id, amount) */\n      mload(0x40)\n      tag_114\n      swap3\n      swap2\n      swap1\n      tag_115\n      jump\t// in\n    tag_114:\n      mload(0x40)\n      dup1\n      swap2\n      sub\n      swap1\n      log2\n        /* \"contracts/NodeReward.sol\":2439:3142  function withdraw(uint256 token_id, uint256 amount) external {... */\n      pop\n      pop\n      jump\t// out\n        /* \"contracts/NodeReward.sol\":3150:3427  function penalty(uint256 token_id, uint256 amount) external {... */\n    tag_40:\n        /* \"contracts/NodeReward.sol\":3229:3238  paymaster */\n      0x05\n        /* \"contracts/NodeReward.sol\":3229:3252  paymaster[_msgSender()] */\n      0x00\n        /* \"contracts/NodeReward.sol\":3239:3251  _msgSender() */\n      tag_117\n        /* \"contracts/NodeReward.sol\":3239:3249  _msgSender */\n      tag_77\n        /* \"contracts/NodeReward.sol\":3239:3251  _msgSender() */\n      jump\t// in\n    tag_117:\n        /* \"contracts/NodeReward.sol\":3229:3252  paymaster[_msgSender()] */\n      0xffffffffffffffffffffffffffffffffffffffff\n      and\n      0xffffffffffffffffffffffffffffffffffffffff\n      and\n      dup2\n      mstore\n      0x20\n      add\n      swap1\n      dup2\n      mstore\n      0x20\n      add\n      0x00\n      keccak256\n      0x00\n      swap1\n      sload\n      swap1\n      0x0100\n      exp\n      swap1\n      div\n      0xff\n      and\n        /* \"contracts/NodeReward.sol\":3221:3276  require(paymaster[_msgSender()], \"You are't paymaster\") */\n      tag_118\n      jumpi\n      mload(0x40)\n      0x08c379a000000000000000000000000000000000000000000000000000000000\n      dup2\n      mstore\n      0x04\n      add\n      tag_119\n      swap1\n      tag_120\n      jump\t// in\n    tag_119:\n      mload(0x40)\n      dup1\n      swap2\n      sub\n      swap1\n      revert\n    tag_118:\n        /* \"contracts/NodeReward.sol\":3302:3303  0 */\n      0x00\n        /* \"contracts/NodeReward.sol\":3295:3301  amount */\n      dup2\n        /* \"contracts/NodeReward.sol\":3295:3303  amount>0 */\n      gt\n        /* \"contracts/NodeReward.sol\":3287:3328  require(amount>0, \"Amount can't be zero\") */\n      tag_121\n      jumpi\n      mload(0x40)\n      0x08c379a000000000000000000000000000000000000000000000000000000000\n      dup2\n      mstore\n      0x04\n      add\n      tag_122\n      swap1\n      tag_98\n      jump\t// in\n    tag_122:\n      mload(0x40)\n      dup1\n      swap2\n      sub\n      swap1\n      revert\n    tag_121:\n        /* \"contracts/NodeReward.sol\":3358:3364  amount */\n      dup1\n        /* \"contracts/NodeReward.sol\":3339:3344  fines */\n      0x07\n        /* \"contracts/NodeReward.sol\":3339:3354  fines[token_id] */\n      0x00\n        /* \"contracts/NodeReward.sol\":3345:3353  token_id */\n      dup5\n        /* \"contracts/NodeReward.sol\":3339:3354  fines[token_id] */\n      dup2\n      mstore\n      0x20\n      add\n      swap1\n      dup2\n      mstore\n      0x20\n      add\n      0x00\n      keccak256\n      0x00\n        /* \"contracts/NodeReward.sol\":3339:3364  fines[token_id] += amount */\n      dup3\n      dup3\n      sload\n      tag_123\n      swap2\n      swap1\n      tag_83\n      jump\t// in\n    tag_123:\n      swap3\n      pop\n      pop\n      dup2\n      swap1\n      sstore\n      pop\n        /* \"contracts/NodeReward.sol\":3388:3400  _msgSender() */\n      tag_124\n        /* \"contracts/NodeReward.sol\":3388:3398  _msgSender */\n      tag_77\n        /* \"contracts/NodeReward.sol\":3388:3400  _msgSender() */\n      jump\t// in\n    tag_124:\n        /* \"contracts/NodeReward.sol\":3380:3419  Penalty(_msgSender(), token_id, amount) */\n      0xffffffffffffffffffffffffffffffffffffffff\n      and\n      0xc25dcb745945a227e2139cc3f70645f2b61a352fe9e7f8d44ac19571f4b89eff\n        /* \"contracts/NodeReward.sol\":3402:3410  token_id */\n      dup4\n        /* \"contracts/NodeReward.sol\":3412:3418  amount */\n      dup4\n        /* \"contracts/NodeReward.sol\":3380:3419  Penalty(_msgSender(), token_id, amount) */\n      mload(0x40)\n      tag_125\n      swap3\n      swap2\n      swap1\n      tag_115\n      jump\t// in\n    tag_125:\n      mload(0x40)\n      dup1\n      swap2\n      sub\n      swap1\n      log2\n        /* \"contracts/NodeReward.sol\":3150:3427  function penalty(uint256 token_id, uint256 amount) external {... */\n      pop\n      pop\n      jump\t// out\n        /* \"contracts/NodeReward.sol\":404:422  IERC20 public cKIP */\n    tag_42:\n      0x02\n      0x00\n      swap1\n      sload\n      swap1\n      0x0100\n      exp\n      swap1\n      div\n      0xffffffffffffffffffffffffffffffffffffffff\n      and\n      dup2\n      jump\t// out\n        /* \"@openzeppelin/contracts/access/Ownable.sol\":2293:2394  function renounceOwnership() public virtual onlyOwner {... */\n    tag_46:\n        /* \"@openzeppelin/contracts/access/Ownable.sol\":1531:1544  _checkOwner() */\n      tag_127\n        /* \"@openzeppelin/contracts/access/Ownable.sol\":1531:1542  _checkOwner */\n      tag_74\n        /* \"@openzeppelin/contracts/access/Ownable.sol\":1531:1544  _checkOwner() */\n      jump\t// in\n    tag_127:\n        /* \"@openzeppelin/contracts/access/Ownable.sol\":2357:2387  _transferOwnership(address(0)) */\n      tag_129\n        /* \"@openzeppelin/contracts/access/Ownable.sol\":2384:2385  0 */\n      0x00\n        /* \"@openzeppelin/contracts/access/Ownable.sol\":2357:2375  _transferOwnership */\n      tag_130\n        /* \"@openzeppelin/contracts/access/Ownable.sol\":2357:2387  _transferOwnership(address(0)) */\n      jump\t// in\n    tag_129:\n        /* \"@openzeppelin/contracts/access/Ownable.sol\":2293:2394  function renounceOwnership() public virtual onlyOwner {... */\n      jump\t// out\n        /* \"contracts/NodeReward.sol\":1634:1737  function setFundAddress(address _address) external onlyOwner {... */\n    tag_50:\n        /* \"@openzeppelin/contracts/access/Ownable.sol\":1531:1544  _checkOwner() */\n      tag_132\n        /* \"@openzeppelin/contracts/access/Ownable.sol\":1531:1542  _checkOwner */\n      tag_74\n        /* \"@openzeppelin/contracts/access/Ownable.sol\":1531:1544  _checkOwner() */\n      jump\t// in\n    tag_132:\n        /* \"contracts/NodeReward.sol\":1721:1729  _address */\n      dup1\n        /* \"contracts/NodeReward.sol\":1706:1718  fund_address */\n      0x03\n      0x00\n        /* \"contracts/NodeReward.sol\":1706:1729  fund_address = _address */\n      0x0100\n      exp\n      dup2\n      sload\n      dup2\n      0xffffffffffffffffffffffffffffffffffffffff\n      mul\n      not\n      and\n      swap1\n      dup4\n      0xffffffffffffffffffffffffffffffffffffffff\n      and\n      mul\n      or\n      swap1\n      sstore\n      pop\n        /* \"contracts/NodeReward.sol\":1634:1737  function setFundAddress(address _address) external onlyOwner {... */\n      pop\n      jump\t// out\n        /* \"@openzeppelin/contracts/access/Ownable.sol\":1638:1723  function owner() public view virtual returns (address) {... */\n    tag_52:\n        /* \"@openzeppelin/contracts/access/Ownable.sol\":1684:1691  address */\n      0x00\n        /* \"@openzeppelin/contracts/access/Ownable.sol\":1710:1716  _owner */\n      dup1\n      0x00\n      swap1\n      sload\n      swap1\n      0x0100\n      exp\n      swap1\n      div\n      0xffffffffffffffffffffffffffffffffffffffff\n      and\n        /* \"@openzeppelin/contracts/access/Ownable.sol\":1703:1716  return _owner */\n      swap1\n      pop\n        /* \"@openzeppelin/contracts/access/Ownable.sol\":1638:1723  function owner() public view virtual returns (address) {... */\n      swap1\n      jump\t// out\n        /* \"contracts/NodeReward.sol\":686:735  mapping(uint256 => uint256) public claimedAmounts */\n    tag_56:\n      mstore(0x20, 0x08)\n      dup1\n      0x00\n      mstore\n      keccak256(0x00, 0x40)\n      0x00\n      swap2\n      pop\n      swap1\n      pop\n      sload\n      dup2\n      jump\t// out\n        /* \"contracts/NodeReward.sol\":1745:2431  function claim(uint256 token_id, uint256 amount, address _paymaster, bytes memory signature) external {... */\n    tag_61:\n        /* \"contracts/NodeReward.sol\":1873:1874  0 */\n      0x00\n        /* \"contracts/NodeReward.sol\":1866:1872  amount */\n      dup4\n        /* \"contracts/NodeReward.sol\":1866:1874  amount>0 */\n      gt\n        /* \"contracts/NodeReward.sol\":1858:1899  require(amount>0, \"Amount can't be zero\") */\n      tag_136\n      jumpi\n      mload(0x40)\n      0x08c379a000000000000000000000000000000000000000000000000000000000\n      dup2\n      mstore\n      0x04\n      add\n      tag_137\n      swap1\n      tag_98\n      jump\t// in\n    tag_137:\n      mload(0x40)\n      dup1\n      swap2\n      sub\n      swap1\n      revert\n    tag_136:\n        /* \"contracts/NodeReward.sol\":1922:1931  paymaster */\n      0x05\n        /* \"contracts/NodeReward.sol\":1922:1943  paymaster[_paymaster] */\n      0x00\n        /* \"contracts/NodeReward.sol\":1932:1942  _paymaster */\n      dup4\n        /* \"contracts/NodeReward.sol\":1922:1943  paymaster[_paymaster] */\n      0xffffffffffffffffffffffffffffffffffffffff\n      and\n      0xffffffffffffffffffffffffffffffffffffffff\n      and\n      dup2\n      mstore\n      0x20\n      add\n      swap1\n      dup2\n      mstore\n      0x20\n      add\n      0x00\n      keccak256\n      0x00\n      swap1\n      sload\n      swap1\n      0x0100\n      exp\n      swap1\n      div\n      0xff\n      and\n        /* \"contracts/NodeReward.sol\":1914:1967  require(paymaster[_paymaster], \"You are't paymaster\") */\n      tag_138\n      jumpi\n      mload(0x40)\n      0x08c379a000000000000000000000000000000000000000000000000000000000\n      dup2\n      mstore\n      0x04\n      add\n      tag_139\n      swap1\n      tag_120\n      jump\t// in\n    tag_139:\n      mload(0x40)\n      dup1\n      swap2\n      sub\n      swap1\n      revert\n    tag_138:\n        /* \"contracts/NodeReward.sol\":2023:2035  _msgSender() */\n      tag_140\n        /* \"contracts/NodeReward.sol\":2023:2033  _msgSender */\n      tag_77\n        /* \"contracts/NodeReward.sol\":2023:2035  _msgSender() */\n      jump\t// in\n    tag_140:\n        /* \"contracts/NodeReward.sol\":1990:2035  license_nft.ownerOf(token_id) == _msgSender() */\n      0xffffffffffffffffffffffffffffffffffffffff\n      and\n        /* \"contracts/NodeReward.sol\":1990:2001  license_nft */\n      0x01\n      0x00\n      swap1\n      sload\n      swap1\n      0x0100\n      exp\n      swap1\n      div\n      0xffffffffffffffffffffffffffffffffffffffff\n      and\n        /* \"contracts/NodeReward.sol\":1990:2009  license_nft.ownerOf */\n      0xffffffffffffffffffffffffffffffffffffffff\n      and\n      0x6352211e\n        /* \"contracts/NodeReward.sol\":2010:2018  token_id */\n      dup7\n        /* \"contracts/NodeReward.sol\":1990:2019  license_nft.ownerOf(token_id) */\n      mload(0x40)\n      dup3\n      0xffffffff\n      and\n      0xe0\n      shl\n      dup2\n      mstore\n      0x04\n      add\n      tag_141\n      swap2\n      swap1\n      tag_25\n      jump\t// in\n    tag_141:\n      0x20\n      mload(0x40)\n      dup1\n      dup4\n      sub\n      dup2\n      dup7\n      gas\n      staticcall\n      iszero\n      dup1\n      iszero\n      tag_143\n      jumpi\n      returndatasize\n      0x00\n      dup1\n      returndatacopy\n      revert(0x00, returndatasize)\n    tag_143:\n      pop\n      pop\n      pop\n      pop\n      mload(0x40)\n      returndatasize\n      not(0x1f)\n      0x1f\n      dup3\n      add\n      and\n      dup3\n      add\n      dup1\n      0x40\n      mstore\n      pop\n      dup2\n      add\n      swap1\n      tag_144\n      swap2\n      swap1\n      tag_92\n      jump\t// in\n    tag_144:\n        /* \"contracts/NodeReward.sol\":1990:2035  license_nft.ownerOf(token_id) == _msgSender() */\n      0xffffffffffffffffffffffffffffffffffffffff\n      and\n      eq\n        /* \"contracts/NodeReward.sol\":1982:2069  require(license_nft.ownerOf(token_id) == _msgSender(), \"Caller is not the token owner\") */\n      tag_145\n      jumpi\n      mload(0x40)\n      0x08c379a000000000000000000000000000000000000000000000000000000000\n      dup2\n      mstore\n      0x04\n      add\n      tag_146\n      swap1\n      tag_95\n      jump\t// in\n    tag_146:\n      mload(0x40)\n      dup1\n      swap2\n      sub\n      swap1\n      revert\n    tag_145:\n        /* \"contracts/NodeReward.sol\":2080:2095  bytes32 message */\n      0x00\n        /* \"contracts/NodeReward.sol\":2119:2133  claimedAmounts */\n      0x08\n        /* \"contracts/NodeReward.sol\":2119:2143  claimedAmounts[token_id] */\n      0x00\n        /* \"contracts/NodeReward.sol\":2134:2142  token_id */\n      dup7\n        /* \"contracts/NodeReward.sol\":2119:2143  claimedAmounts[token_id] */\n      dup2\n      mstore\n      0x20\n      add\n      swap1\n      dup2\n      mstore\n      0x20\n      add\n      0x00\n      keccak256\n      sload\n        /* \"contracts/NodeReward.sol\":2144:2152  token_id */\n      dup6\n        /* \"contracts/NodeReward.sol\":2154:2160  amount */\n      dup6\n        /* \"contracts/NodeReward.sol\":2162:2174  _msgSender() */\n      tag_147\n        /* \"contracts/NodeReward.sol\":2162:2172  _msgSender */\n      tag_77\n        /* \"contracts/NodeReward.sol\":2162:2174  _msgSender() */\n      jump\t// in\n    tag_147:\n        /* \"contracts/NodeReward.sol\":2108:2175  abi.encode(claimedAmounts[token_id],token_id, amount, _msgSender()) */\n      add(0x20, mload(0x40))\n      tag_148\n      swap5\n      swap4\n      swap3\n      swap2\n      swap1\n      tag_149\n      jump\t// in\n    tag_148:\n      mload(0x40)\n      0x20\n      dup2\n      dup4\n      sub\n      sub\n      dup2\n      mstore\n      swap1\n      0x40\n      mstore\n        /* \"contracts/NodeReward.sol\":2098:2176  keccak256(abi.encode(claimedAmounts[token_id],token_id, amount, _msgSender())) */\n      dup1\n      mload\n      swap1\n      0x20\n      add\n      keccak256\n        /* \"contracts/NodeReward.sol\":2080:2176  bytes32 message = keccak256(abi.encode(claimedAmounts[token_id],token_id, amount, _msgSender())) */\n      swap1\n      pop\n        /* \"contracts/NodeReward.sol\":2187:2211  address recoveredAddress */\n      0x00\n        /* \"contracts/NodeReward.sol\":2214:2240  message.recover(signature) */\n      tag_150\n        /* \"contracts/NodeReward.sol\":2230:2239  signature */\n      dup4\n        /* \"contracts/NodeReward.sol\":2214:2221  message */\n      dup4\n        /* \"contracts/NodeReward.sol\":2214:2229  message.recover */\n      tag_151\n      swap1\n        /* \"contracts/NodeReward.sol\":2214:2240  message.recover(signature) */\n      swap2\n      swap1\n      0xffffffff\n      and\n      jump\t// in\n    tag_150:\n        /* \"contracts/NodeReward.sol\":2187:2240  address recoveredAddress = message.recover(signature) */\n      swap1\n      pop\n        /* \"contracts/NodeReward.sol\":2279:2289  _paymaster */\n      dup4\n        /* \"contracts/NodeReward.sol\":2259:2289  recoveredAddress == _paymaster */\n      0xffffffffffffffffffffffffffffffffffffffff\n      and\n        /* \"contracts/NodeReward.sol\":2259:2275  recoveredAddress */\n      dup2\n        /* \"contracts/NodeReward.sol\":2259:2289  recoveredAddress == _paymaster */\n      0xffffffffffffffffffffffffffffffffffffffff\n      and\n      eq\n        /* \"contracts/NodeReward.sol\":2251:2311  require(recoveredAddress == _paymaster, \"Invalid Signature\") */\n      tag_152\n      jumpi\n      mload(0x40)\n      0x08c379a000000000000000000000000000000000000000000000000000000000\n      dup2\n      mstore\n      0x04\n      add\n      tag_153\n      swap1\n      tag_154\n      jump\t// in\n    tag_153:\n      mload(0x40)\n      dup1\n      swap2\n      sub\n      swap1\n      revert\n    tag_152:\n        /* \"contracts/NodeReward.sol\":2350:2356  amount */\n      dup5\n        /* \"contracts/NodeReward.sol\":2322:2336  claimedAmounts */\n      0x08\n        /* \"contracts/NodeReward.sol\":2322:2346  claimedAmounts[token_id] */\n      0x00\n        /* \"contracts/NodeReward.sol\":2337:2345  token_id */\n      dup9\n        /* \"contracts/NodeReward.sol\":2322:2346  claimedAmounts[token_id] */\n      dup2\n      mstore\n      0x20\n      add\n      swap1\n      dup2\n      mstore\n      0x20\n      add\n      0x00\n      keccak256\n      0x00\n        /* \"contracts/NodeReward.sol\":2322:2356  claimedAmounts[token_id] += amount */\n      dup3\n      dup3\n      sload\n      tag_155\n      swap2\n      swap1\n      tag_83\n      jump\t// in\n    tag_155:\n      swap3\n      pop\n      pop\n      dup2\n      swap1\n      sstore\n      pop\n        /* \"contracts/NodeReward.sol\":2412:2422  _paymaster */\n      dup4\n        /* \"contracts/NodeReward.sol\":2372:2423  Claimed(_msgSender(), token_id, amount, _paymaster) */\n      0xffffffffffffffffffffffffffffffffffffffff\n      and\n        /* \"contracts/NodeReward.sol\":2380:2392  _msgSender() */\n      tag_156\n        /* \"contracts/NodeReward.sol\":2380:2390  _msgSender */\n      tag_77\n        /* \"contracts/NodeReward.sol\":2380:2392  _msgSender() */\n      jump\t// in\n    tag_156:\n        /* \"contracts/NodeReward.sol\":2372:2423  Claimed(_msgSender(), token_id, amount, _paymaster) */\n      0xffffffffffffffffffffffffffffffffffffffff\n      and\n      0xca8bf70624ec0ecfc925e5746a0e4625afe01129043c1c7201c7ce01075ea3ac\n        /* \"contracts/NodeReward.sol\":2394:2402  token_id */\n      dup9\n        /* \"contracts/NodeReward.sol\":2404:2410  amount */\n      dup9\n        /* \"contracts/NodeReward.sol\":2372:2423  Claimed(_msgSender(), token_id, amount, _paymaster) */\n      mload(0x40)\n      tag_157\n      swap3\n      swap2\n      swap1\n      tag_115\n      jump\t// in\n    tag_157:\n      mload(0x40)\n      dup1\n      swap2\n      sub\n      swap1\n      log3\n        /* \"contracts/NodeReward.sol\":1847:2431  {... */\n      pop\n      pop\n        /* \"contracts/NodeReward.sol\":1745:2431  function claim(uint256 token_id, uint256 amount, address _paymaster, bytes memory signature) external {... */\n      pop\n      pop\n      pop\n      pop\n      jump\t// out\n        /* \"contracts/NodeReward.sol\":465:507  uint256 public withdraw_interval = 2592000 */\n    tag_63:\n      sload(0x04)\n      dup2\n      jump\t// out\n        /* \"@openzeppelin/contracts/access/Ownable.sol\":2543:2758  function transferOwnership(address newOwner) public virtual onlyOwner {... */\n    tag_67:\n        /* \"@openzeppelin/contracts/access/Ownable.sol\":1531:1544  _checkOwner() */\n      tag_159\n        /* \"@openzeppelin/contracts/access/Ownable.sol\":1531:1542  _checkOwner */\n      tag_74\n        /* \"@openzeppelin/contracts/access/Ownable.sol\":1531:1544  _checkOwner() */\n      jump\t// in\n    tag_159:\n        /* \"@openzeppelin/contracts/access/Ownable.sol\":2647:2648  0 */\n      0x00\n        /* \"@openzeppelin/contracts/access/Ownable.sol\":2627:2649  newOwner == address(0) */\n      0xffffffffffffffffffffffffffffffffffffffff\n      and\n        /* \"@openzeppelin/contracts/access/Ownable.sol\":2627:2635  newOwner */\n      dup2\n        /* \"@openzeppelin/contracts/access/Ownable.sol\":2627:2649  newOwner == address(0) */\n      0xffffffffffffffffffffffffffffffffffffffff\n      and\n      sub\n        /* \"@openzeppelin/contracts/access/Ownable.sol\":2623:2714  if (newOwner == address(0)) {... */\n      tag_161\n      jumpi\n        /* \"@openzeppelin/contracts/access/Ownable.sol\":2700:2701  0 */\n      0x00\n        /* \"@openzeppelin/contracts/access/Ownable.sol\":2672:2703  OwnableInvalidOwner(address(0)) */\n      mload(0x40)\n      0x1e4fbdf700000000000000000000000000000000000000000000000000000000\n      dup2\n      mstore\n      0x04\n      add\n      tag_162\n      swap2\n      swap1\n      tag_33\n      jump\t// in\n    tag_162:\n      mload(0x40)\n      dup1\n      swap2\n      sub\n      swap1\n      revert\n        /* \"@openzeppelin/contracts/access/Ownable.sol\":2623:2714  if (newOwner == address(0)) {... */\n    tag_161:\n        /* \"@openzeppelin/contracts/access/Ownable.sol\":2723:2751  _transferOwnership(newOwner) */\n      tag_163\n        /* \"@openzeppelin/contracts/access/Ownable.sol\":2742:2750  newOwner */\n      dup2\n        /* \"@openzeppelin/contracts/access/Ownable.sol\":2723:2741  _transferOwnership */\n      tag_130\n        /* \"@openzeppelin/contracts/access/Ownable.sol\":2723:2751  _transferOwnership(newOwner) */\n      jump\t// in\n    tag_163:\n        /* \"@openzeppelin/contracts/access/Ownable.sol\":2543:2758  function transferOwnership(address newOwner) public virtual onlyOwner {... */\n      pop\n      jump\t// out\n        /* \"contracts/NodeReward.sol\":371:397  IERC721 public license_nft */\n    tag_69:\n      0x01\n      0x00\n      swap1\n      sload\n      swap1\n      0x0100\n      exp\n      swap1\n      div\n      0xffffffffffffffffffffffffffffffffffffffff\n      and\n      dup2\n      jump\t// out\n        /* \"@openzeppelin/contracts/access/Ownable.sol\":1796:1958  function _checkOwner() internal view virtual {... */\n    tag_74:\n        /* \"@openzeppelin/contracts/access/Ownable.sol\":1866:1878  _msgSender() */\n      tag_165\n        /* \"@openzeppelin/contracts/access/Ownable.sol\":1866:1876  _msgSender */\n      tag_77\n        /* \"@openzeppelin/contracts/access/Ownable.sol\":1866:1878  _msgSender() */\n      jump\t// in\n    tag_165:\n        /* \"@openzeppelin/contracts/access/Ownable.sol\":1855:1878  owner() != _msgSender() */\n      0xffffffffffffffffffffffffffffffffffffffff\n      and\n        /* \"@openzeppelin/contracts/access/Ownable.sol\":1855:1862  owner() */\n      tag_166\n        /* \"@openzeppelin/contracts/access/Ownable.sol\":1855:1860  owner */\n      tag_52\n        /* \"@openzeppelin/contracts/access/Ownable.sol\":1855:1862  owner() */\n      jump\t// in\n    tag_166:\n        /* \"@openzeppelin/contracts/access/Ownable.sol\":1855:1878  owner() != _msgSender() */\n      0xffffffffffffffffffffffffffffffffffffffff\n      and\n      eq\n        /* \"@openzeppelin/contracts/access/Ownable.sol\":1851:1952  if (owner() != _msgSender()) {... */\n      tag_167\n      jumpi\n        /* \"@openzeppelin/contracts/access/Ownable.sol\":1928:1940  _msgSender() */\n      tag_168\n        /* \"@openzeppelin/contracts/access/Ownable.sol\":1928:1938  _msgSender */\n      tag_77\n        /* \"@openzeppelin/contracts/access/Ownable.sol\":1928:1940  _msgSender() */\n      jump\t// in\n    tag_168:\n        /* \"@openzeppelin/contracts/access/Ownable.sol\":1901:1941  OwnableUnauthorizedAccount(_msgSender()) */\n      mload(0x40)\n      0x118cdaa700000000000000000000000000000000000000000000000000000000\n      dup2\n      mstore\n      0x04\n      add\n      tag_169\n      swap2\n      swap1\n      tag_33\n      jump\t// in\n    tag_169:\n      mload(0x40)\n      dup1\n      swap2\n      sub\n      swap1\n      revert\n        /* \"@openzeppelin/contracts/access/Ownable.sol\":1851:1952  if (owner() != _msgSender()) {... */\n    tag_167:\n        /* \"@openzeppelin/contracts/access/Ownable.sol\":1796:1958  function _checkOwner() internal view virtual {... */\n      jump\t// out\n        /* \"@openzeppelin/contracts/utils/Context.sol\":656:752  function _msgSender() internal view virtual returns (address) {... */\n    tag_77:\n        /* \"@openzeppelin/contracts/utils/Context.sol\":709:716  address */\n      0x00\n        /* \"@openzeppelin/contracts/utils/Context.sol\":735:745  msg.sender */\n      caller\n        /* \"@openzeppelin/contracts/utils/Context.sol\":728:745  return msg.sender */\n      swap1\n      pop\n        /* \"@openzeppelin/contracts/utils/Context.sol\":656:752  function _msgSender() internal view virtual returns (address) {... */\n      swap1\n      jump\t// out\n        /* \"@openzeppelin/contracts/access/Ownable.sol\":2912:3099  function _transferOwnership(address newOwner) internal virtual {... */\n    tag_130:\n        /* \"@openzeppelin/contracts/access/Ownable.sol\":2985:3001  address oldOwner */\n      0x00\n        /* \"@openzeppelin/contracts/access/Ownable.sol\":3004:3010  _owner */\n      dup1\n      0x00\n      swap1\n      sload\n      swap1\n      0x0100\n      exp\n      swap1\n      div\n      0xffffffffffffffffffffffffffffffffffffffff\n      and\n        /* \"@openzeppelin/contracts/access/Ownable.sol\":2985:3010  address oldOwner = _owner */\n      swap1\n      pop\n        /* \"@openzeppelin/contracts/access/Ownable.sol\":3029:3037  newOwner */\n      dup2\n        /* \"@openzeppelin/contracts/access/Ownable.sol\":3020:3026  _owner */\n      0x00\n      dup1\n        /* \"@openzeppelin/contracts/access/Ownable.sol\":3020:3037  _owner = newOwner */\n      0x0100\n      exp\n      dup2\n      sload\n      dup2\n      0xffffffffffffffffffffffffffffffffffffffff\n      mul\n      not\n      and\n      swap1\n      dup4\n      0xffffffffffffffffffffffffffffffffffffffff\n      and\n      mul\n      or\n      swap1\n      sstore\n      pop\n        /* \"@openzeppelin/contracts/access/Ownable.sol\":3083:3091  newOwner */\n      dup2\n        /* \"@openzeppelin/contracts/access/Ownable.sol\":3052:3092  OwnershipTransferred(oldOwner, newOwner) */\n      0xffffffffffffffffffffffffffffffffffffffff\n      and\n        /* \"@openzeppelin/contracts/access/Ownable.sol\":3073:3081  oldOwner */\n      dup2\n        /* \"@openzeppelin/contracts/access/Ownable.sol\":3052:3092  OwnershipTransferred(oldOwner, newOwner) */\n      0xffffffffffffffffffffffffffffffffffffffff\n      and\n      0x8be0079c531659141344cd1fd0a4f28419497f9722a3daafe3b4186f6b6457e0\n      mload(0x40)\n      mload(0x40)\n      dup1\n      swap2\n      sub\n      swap1\n      log3\n        /* \"@openzeppelin/contracts/access/Ownable.sol\":2975:3099  {... */\n      pop\n        /* \"@openzeppelin/contracts/access/Ownable.sol\":2912:3099  function _transferOwnership(address newOwner) internal virtual {... */\n      pop\n      jump\t// out\n        /* \"@openzeppelin/contracts/utils/cryptography/ECDSA.sol\":3702:3957  function recover(bytes32 hash, bytes memory signature) internal pure returns (address) {... */\n    tag_151:\n        /* \"@openzeppelin/contracts/utils/cryptography/ECDSA.sol\":3780:3787  address */\n      0x00\n        /* \"@openzeppelin/contracts/utils/cryptography/ECDSA.sol\":3800:3817  address recovered */\n      dup1\n        /* \"@openzeppelin/contracts/utils/cryptography/ECDSA.sol\":3819:3837  RecoverError error */\n      0x00\n        /* \"@openzeppelin/contracts/utils/cryptography/ECDSA.sol\":3839:3855  bytes32 errorArg */\n      dup1\n        /* \"@openzeppelin/contracts/utils/cryptography/ECDSA.sol\":3859:3886  tryRecover(hash, signature) */\n      tag_173\n        /* \"@openzeppelin/contracts/utils/cryptography/ECDSA.sol\":3870:3874  hash */\n      dup7\n        /* \"@openzeppelin/contracts/utils/cryptography/ECDSA.sol\":3876:3885  signature */\n      dup7\n        /* \"@openzeppelin/contracts/utils/cryptography/ECDSA.sol\":3859:3869  tryRecover */\n      tag_174\n        /* \"@openzeppelin/contracts/utils/cryptography/ECDSA.sol\":3859:3886  tryRecover(hash, signature) */\n      jump\t// in\n    tag_173:\n        /* \"@openzeppelin/contracts/utils/cryptography/ECDSA.sol\":3799:3886  (address recovered, RecoverError error, bytes32 errorArg) = tryRecover(hash, signature) */\n      swap3\n      pop\n      swap3\n      pop\n      swap3\n      pop\n        /* \"@openzeppelin/contracts/utils/cryptography/ECDSA.sol\":3896:3924  _throwError(error, errorArg) */\n      tag_175\n        /* \"@openzeppelin/contracts/utils/cryptography/ECDSA.sol\":3908:3913  error */\n      dup3\n        /* \"@openzeppelin/contracts/utils/cryptography/ECDSA.sol\":3915:3923  errorArg */\n      dup3\n        /* \"@openzeppelin/contracts/utils/cryptography/ECDSA.sol\":3896:3907  _throwError */\n      tag_176\n        /* \"@openzeppelin/contracts/utils/cryptography/ECDSA.sol\":3896:3924  _throwError(error, errorArg) */\n      jump\t// in\n    tag_175:\n        /* \"@openzeppelin/contracts/utils/cryptography/ECDSA.sol\":3941:3950  recovered */\n      dup3\n        /* \"@openzeppelin/contracts/utils/cryptography/ECDSA.sol\":3934:3950  return recovered */\n      swap4\n      pop\n      pop\n      pop\n      pop\n        /* \"@openzeppelin/contracts/utils/cryptography/ECDSA.sol\":3702:3957  function recover(bytes32 hash, bytes memory signature) internal pure returns (address) {... */\n      swap3\n      swap2\n      pop\n      pop\n      jump\t// out\n        /* \"@openzeppelin/contracts/utils/cryptography/ECDSA.sol\":2129:2895  function tryRecover(bytes32 hash, bytes memory signature) internal pure returns (address, RecoverError, bytes32) {... */\n    tag_174:\n        /* \"@openzeppelin/contracts/utils/cryptography/ECDSA.sol\":2210:2217  address */\n      0x00\n        /* \"@openzeppelin/contracts/utils/cryptography/ECDSA.sol\":2219:2231  RecoverError */\n      dup1\n        /* \"@openzeppelin/contracts/utils/cryptography/ECDSA.sol\":2233:2240  bytes32 */\n      0x00\n        /* \"@openzeppelin/contracts/utils/cryptography/ECDSA.sol\":2276:2278  65 */\n      0x41\n        /* \"@openzeppelin/contracts/utils/cryptography/ECDSA.sol\":2256:2265  signature */\n      dup5\n        /* \"@openzeppelin/contracts/utils/cryptography/ECDSA.sol\":2256:2272  signature.length */\n      mload\n        /* \"@openzeppelin/contracts/utils/cryptography/ECDSA.sol\":2256:2278  signature.length == 65 */\n      sub\n        /* \"@openzeppelin/contracts/utils/cryptography/ECDSA.sol\":2252:2889  if (signature.length == 65) {... */\n      tag_178\n      jumpi\n        /* \"@openzeppelin/contracts/utils/cryptography/ECDSA.sol\":2294:2303  bytes32 r */\n      0x00\n        /* \"@openzeppelin/contracts/utils/cryptography/ECDSA.sol\":2317:2326  bytes32 s */\n      dup1\n        /* \"@openzeppelin/contracts/utils/cryptography/ECDSA.sol\":2340:2347  uint8 v */\n      0x00\n        /* \"@openzeppelin/contracts/utils/cryptography/ECDSA.sol\":2592:2596  0x20 */\n      0x20\n        /* \"@openzeppelin/contracts/utils/cryptography/ECDSA.sol\":2581:2590  signature */\n      dup8\n        /* \"@openzeppelin/contracts/utils/cryptography/ECDSA.sol\":2577:2597  add(signature, 0x20) */\n      add\n        /* \"@openzeppelin/contracts/utils/cryptography/ECDSA.sol\":2571:2598  mload(add(signature, 0x20)) */\n      mload\n        /* \"@openzeppelin/contracts/utils/cryptography/ECDSA.sol\":2566:2598  r := mload(add(signature, 0x20)) */\n      swap3\n      pop\n        /* \"@openzeppelin/contracts/utils/cryptography/ECDSA.sol\":2641:2645  0x40 */\n      0x40\n        /* \"@openzeppelin/contracts/utils/cryptography/ECDSA.sol\":2630:2639  signature */\n      dup8\n        /* \"@openzeppelin/contracts/utils/cryptography/ECDSA.sol\":2626:2646  add(signature, 0x40) */\n      add\n        /* \"@openzeppelin/contracts/utils/cryptography/ECDSA.sol\":2620:2647  mload(add(signature, 0x40)) */\n      mload\n        /* \"@openzeppelin/contracts/utils/cryptography/ECDSA.sol\":2615:2647  s := mload(add(signature, 0x40)) */\n      swap2\n      pop\n        /* \"@openzeppelin/contracts/utils/cryptography/ECDSA.sol\":2698:2702  0x60 */\n      0x60\n        /* \"@openzeppelin/contracts/utils/cryptography/ECDSA.sol\":2687:2696  signature */\n      dup8\n        /* \"@openzeppelin/contracts/utils/cryptography/ECDSA.sol\":2683:2703  add(signature, 0x60) */\n      add\n        /* \"@openzeppelin/contracts/utils/cryptography/ECDSA.sol\":2677:2704  mload(add(signature, 0x60)) */\n      mload\n        /* \"@openzeppelin/contracts/utils/cryptography/ECDSA.sol\":2674:2675  0 */\n      0x00\n        /* \"@openzeppelin/contracts/utils/cryptography/ECDSA.sol\":2669:2705  byte(0, mload(add(signature, 0x60))) */\n      byte\n        /* \"@openzeppelin/contracts/utils/cryptography/ECDSA.sol\":2664:2705  v := byte(0, mload(add(signature, 0x60))) */\n      swap1\n      pop\n        /* \"@openzeppelin/contracts/utils/cryptography/ECDSA.sol\":2739:2764  tryRecover(hash, v, r, s) */\n      tag_179\n        /* \"@openzeppelin/contracts/utils/cryptography/ECDSA.sol\":2750:2754  hash */\n      dup9\n        /* \"@openzeppelin/contracts/utils/cryptography/ECDSA.sol\":2756:2757  v */\n      dup3\n        /* \"@openzeppelin/contracts/utils/cryptography/ECDSA.sol\":2759:2760  r */\n      dup6\n        /* \"@openzeppelin/contracts/utils/cryptography/ECDSA.sol\":2762:2763  s */\n      dup6\n        /* \"@openzeppelin/contracts/utils/cryptography/ECDSA.sol\":2739:2749  tryRecover */\n      tag_180\n        /* \"@openzeppelin/contracts/utils/cryptography/ECDSA.sol\":2739:2764  tryRecover(hash, v, r, s) */\n      jump\t// in\n    tag_179:\n        /* \"@openzeppelin/contracts/utils/cryptography/ECDSA.sol\":2732:2764  return tryRecover(hash, v, r, s) */\n      swap6\n      pop\n      swap6\n      pop\n      swap6\n      pop\n      pop\n      pop\n      pop\n      jump(tag_177)\n        /* \"@openzeppelin/contracts/utils/cryptography/ECDSA.sol\":2252:2889  if (signature.length == 65) {... */\n    tag_178:\n        /* \"@openzeppelin/contracts/utils/cryptography/ECDSA.sol\":2811:2812  0 */\n      0x00\n        /* \"@openzeppelin/contracts/utils/cryptography/ECDSA.sol\":2815:2850  RecoverError.InvalidSignatureLength */\n      0x02\n        /* \"@openzeppelin/contracts/utils/cryptography/ECDSA.sol\":2860:2869  signature */\n      dup6\n        /* \"@openzeppelin/contracts/utils/cryptography/ECDSA.sol\":2860:2876  signature.length */\n      mload\n        /* \"@openzeppelin/contracts/utils/cryptography/ECDSA.sol\":2852:2877  bytes32(signature.length) */\n      0x00\n      shl\n        /* \"@openzeppelin/contracts/utils/cryptography/ECDSA.sol\":2795:2878  return (address(0), RecoverError.InvalidSignatureLength, bytes32(signature.length)) */\n      swap3\n      pop\n      swap3\n      pop\n      swap3\n      pop\n        /* \"@openzeppelin/contracts/utils/cryptography/ECDSA.sol\":2129:2895  function tryRecover(bytes32 hash, bytes memory signature) internal pure returns (address, RecoverError, bytes32) {... */\n    tag_177:\n      swap3\n      pop\n      swap3\n      pop\n      swap3\n      jump\t// out\n        /* \"@openzeppelin/contracts/utils/cryptography/ECDSA.sol\":7196:7728  function _throwError(RecoverError error, bytes32 errorArg) private pure {... */\n    tag_176:\n        /* \"@openzeppelin/contracts/utils/cryptography/ECDSA.sol\":7291:7311  RecoverError.NoError */\n      0x00\n        /* \"@openzeppelin/contracts/utils/cryptography/ECDSA.sol\":7282:7311  error == RecoverError.NoError */\n      0x03\n      dup2\n      gt\n      iszero\n      tag_183\n      jumpi\n      tag_184\n      tag_185\n      jump\t// in\n    tag_184:\n    tag_183:\n        /* \"@openzeppelin/contracts/utils/cryptography/ECDSA.sol\":7282:7287  error */\n      dup3\n        /* \"@openzeppelin/contracts/utils/cryptography/ECDSA.sol\":7282:7311  error == RecoverError.NoError */\n      0x03\n      dup2\n      gt\n      iszero\n      tag_186\n      jumpi\n      tag_187\n      tag_185\n      jump\t// in\n    tag_187:\n    tag_186:\n      sub\n        /* \"@openzeppelin/contracts/utils/cryptography/ECDSA.sol\":7278:7722  if (error == RecoverError.NoError) {... */\n      iszero\n        /* \"@openzeppelin/contracts/utils/cryptography/ECDSA.sol\":7327:7334  return; */\n      tag_182\n        /* \"@openzeppelin/contracts/utils/cryptography/ECDSA.sol\":7278:7722  if (error == RecoverError.NoError) {... */\n      jumpi\n        /* \"@openzeppelin/contracts/utils/cryptography/ECDSA.sol\":7387:7416  RecoverError.InvalidSignature */\n      0x01\n        /* \"@openzeppelin/contracts/utils/cryptography/ECDSA.sol\":7378:7416  error == RecoverError.InvalidSignature */\n      0x03\n      dup2\n      gt\n      iszero\n      tag_190\n      jumpi\n      tag_191\n      tag_185\n      jump\t// in\n    tag_191:\n    tag_190:\n        /* \"@openzeppelin/contracts/utils/cryptography/ECDSA.sol\":7378:7383  error */\n      dup3\n        /* \"@openzeppelin/contracts/utils/cryptography/ECDSA.sol\":7378:7416  error == RecoverError.InvalidSignature */\n      0x03\n      dup2\n      gt\n      iszero\n      tag_192\n      jumpi\n      tag_193\n      tag_185\n      jump\t// in\n    tag_193:\n    tag_192:\n      sub\n        /* \"@openzeppelin/contracts/utils/cryptography/ECDSA.sol\":7374:7722  if (error == RecoverError.InvalidSignature) {... */\n      tag_194\n      jumpi\n        /* \"@openzeppelin/contracts/utils/cryptography/ECDSA.sol\":7439:7462  ECDSAInvalidSignature() */\n      mload(0x40)\n      0xf645eedf00000000000000000000000000000000000000000000000000000000\n      dup2\n      mstore\n      0x04\n      add\n      mload(0x40)\n      dup1\n      swap2\n      sub\n      swap1\n      revert\n        /* \"@openzeppelin/contracts/utils/cryptography/ECDSA.sol\":7374:7722  if (error == RecoverError.InvalidSignature) {... */\n    tag_194:\n        /* \"@openzeppelin/contracts/utils/cryptography/ECDSA.sol\":7492:7527  RecoverError.InvalidSignatureLength */\n      0x02\n        /* \"@openzeppelin/contracts/utils/cryptography/ECDSA.sol\":7483:7527  error == RecoverError.InvalidSignatureLength */\n      0x03\n      dup2\n      gt\n      iszero\n      tag_196\n      jumpi\n      tag_197\n      tag_185\n      jump\t// in\n    tag_197:\n    tag_196:\n        /* \"@openzeppelin/contracts/utils/cryptography/ECDSA.sol\":7483:7488  error */\n      dup3\n        /* \"@openzeppelin/contracts/utils/cryptography/ECDSA.sol\":7483:7527  error == RecoverError.InvalidSignatureLength */\n      0x03\n      dup2\n      gt\n      iszero\n      tag_198\n      jumpi\n      tag_199\n      tag_185\n      jump\t// in\n    tag_199:\n    tag_198:\n      sub\n        /* \"@openzeppelin/contracts/utils/cryptography/ECDSA.sol\":7479:7722  if (error == RecoverError.InvalidSignatureLength) {... */\n      tag_200\n      jumpi\n        /* \"@openzeppelin/contracts/utils/cryptography/ECDSA.sol\":7586:7594  errorArg */\n      dup1\n        /* \"@openzeppelin/contracts/utils/cryptography/ECDSA.sol\":7578:7595  uint256(errorArg) */\n      0x00\n      shr\n        /* \"@openzeppelin/contracts/utils/cryptography/ECDSA.sol\":7550:7596  ECDSAInvalidSignatureLength(uint256(errorArg)) */\n      mload(0x40)\n      0xfce698f700000000000000000000000000000000000000000000000000000000\n      dup2\n      mstore\n      0x04\n      add\n      tag_201\n      swap2\n      swap1\n      tag_25\n      jump\t// in\n    tag_201:\n      mload(0x40)\n      dup1\n      swap2\n      sub\n      swap1\n      revert\n        /* \"@openzeppelin/contracts/utils/cryptography/ECDSA.sol\":7479:7722  if (error == RecoverError.InvalidSignatureLength) {... */\n    tag_200:\n        /* \"@openzeppelin/contracts/utils/cryptography/ECDSA.sol\":7626:7656  RecoverError.InvalidSignatureS */\n      0x03\n        /* \"@openzeppelin/contracts/utils/cryptography/ECDSA.sol\":7617:7656  error == RecoverError.InvalidSignatureS */\n      dup1\n      dup2\n      gt\n      iszero\n      tag_203\n      jumpi\n      tag_204\n      tag_185\n      jump\t// in\n    tag_204:\n    tag_203:\n        /* \"@openzeppelin/contracts/utils/cryptography/ECDSA.sol\":7617:7622  error */\n      dup3\n        /* \"@openzeppelin/contracts/utils/cryptography/ECDSA.sol\":7617:7656  error == RecoverError.InvalidSignatureS */\n      0x03\n      dup2\n      gt\n      iszero\n      tag_205\n      jumpi\n      tag_206\n      tag_185\n      jump\t// in\n    tag_206:\n    tag_205:\n      sub\n        /* \"@openzeppelin/contracts/utils/cryptography/ECDSA.sol\":7613:7722  if (error == RecoverError.InvalidSignatureS) {... */\n      tag_207\n      jumpi\n        /* \"@openzeppelin/contracts/utils/cryptography/ECDSA.sol\":7702:7710  errorArg */\n      dup1\n        /* \"@openzeppelin/contracts/utils/cryptography/ECDSA.sol\":7679:7711  ECDSAInvalidSignatureS(errorArg) */\n      mload(0x40)\n      0xd78bce0c00000000000000000000000000000000000000000000000000000000\n      dup2\n      mstore\n      0x04\n      add\n      tag_208\n      swap2\n      swap1\n      tag_209\n      jump\t// in\n    tag_208:\n      mload(0x40)\n      dup1\n      swap2\n      sub\n      swap1\n      revert\n        /* \"@openzeppelin/contracts/utils/cryptography/ECDSA.sol\":7613:7722  if (error == RecoverError.InvalidSignatureS) {... */\n    tag_207:\n        /* \"@openzeppelin/contracts/utils/cryptography/ECDSA.sol\":7196:7728  function _throwError(RecoverError error, bytes32 errorArg) private pure {... */\n    tag_182:\n      pop\n      pop\n      jump\t// out\n        /* \"@openzeppelin/contracts/utils/cryptography/ECDSA.sol\":5140:6670  function tryRecover(... */\n    tag_180:\n        /* \"@openzeppelin/contracts/utils/cryptography/ECDSA.sol\":5266:5273  address */\n      0x00\n        /* \"@openzeppelin/contracts/utils/cryptography/ECDSA.sol\":5275:5287  RecoverError */\n      dup1\n        /* \"@openzeppelin/contracts/utils/cryptography/ECDSA.sol\":5289:5296  bytes32 */\n      0x00\n        /* \"@openzeppelin/contracts/utils/cryptography/ECDSA.sol\":6199:6265  0x7FFFFFFFFFFFFFFFFFFFFFFFFFFFFFFF5D576E7357A4501DDFE92F46681B20A0 */\n      0x7fffffffffffffffffffffffffffffff5d576e7357a4501ddfe92f46681b20a0\n        /* \"@openzeppelin/contracts/utils/cryptography/ECDSA.sol\":6194:6195  s */\n      dup5\n        /* \"@openzeppelin/contracts/utils/cryptography/ECDSA.sol\":6186:6196  uint256(s) */\n      0x00\n      shr\n        /* \"@openzeppelin/contracts/utils/cryptography/ECDSA.sol\":6186:6265  uint256(s) > 0x7FFFFFFFFFFFFFFFFFFFFFFFFFFFFFFF5D576E7357A4501DDFE92F46681B20A0 */\n      gt\n        /* \"@openzeppelin/contracts/utils/cryptography/ECDSA.sol\":6182:6346  if (uint256(s) > 0x7FFFFFFFFFFFFFFFFFFFFFFFFFFFFFFF5D576E7357A4501DDFE92F46681B20A0) {... */\n      iszero\n      tag_211\n      jumpi\n        /* \"@openzeppelin/contracts/utils/cryptography/ECDSA.sol\":6297:6298  0 */\n      0x00\n        /* \"@openzeppelin/contracts/utils/cryptography/ECDSA.sol\":6301:6331  RecoverError.InvalidSignatureS */\n      0x03\n        /* \"@openzeppelin/contracts/utils/cryptography/ECDSA.sol\":6333:6334  s */\n      dup6\n        /* \"@openzeppelin/contracts/utils/cryptography/ECDSA.sol\":6281:6335  return (address(0), RecoverError.InvalidSignatureS, s) */\n      swap3\n      pop\n      swap3\n      pop\n      swap3\n      pop\n      jump(tag_210)\n        /* \"@openzeppelin/contracts/utils/cryptography/ECDSA.sol\":6182:6346  if (uint256(s) > 0x7FFFFFFFFFFFFFFFFFFFFFFFFFFFFFFF5D576E7357A4501DDFE92F46681B20A0) {... */\n    tag_211:\n        /* \"@openzeppelin/contracts/utils/cryptography/ECDSA.sol\":6440:6454  address signer */\n      0x00\n        /* \"@openzeppelin/contracts/utils/cryptography/ECDSA.sol\":6457:6481  ecrecover(hash, v, r, s) */\n      0x01\n        /* \"@openzeppelin/contracts/utils/cryptography/ECDSA.sol\":6467:6471  hash */\n      dup9\n        /* \"@openzeppelin/contracts/utils/cryptography/ECDSA.sol\":6473:6474  v */\n      dup9\n        /* \"@openzeppelin/contracts/utils/cryptography/ECDSA.sol\":6476:6477  r */\n      dup9\n        /* \"@openzeppelin/contracts/utils/cryptography/ECDSA.sol\":6479:6480  s */\n      dup9\n        /* \"@openzeppelin/contracts/utils/cryptography/ECDSA.sol\":6457:6481  ecrecover(hash, v, r, s) */\n      mload(0x40)\n      0x00\n      dup2\n      mstore\n      0x20\n      add\n      0x40\n      mstore\n      mload(0x40)\n      tag_212\n      swap5\n      swap4\n      swap3\n      swap2\n      swap1\n      tag_213\n      jump\t// in\n    tag_212:\n      0x20\n      mload(0x40)\n      0x20\n      dup2\n      sub\n      swap1\n      dup1\n      dup5\n      sub\n      swap1\n      dup6\n      gas\n      staticcall\n      iszero\n      dup1\n      iszero\n      tag_215\n      jumpi\n      returndatasize\n      0x00\n      dup1\n      returndatacopy\n      revert(0x00, returndatasize)\n    tag_215:\n      pop\n      pop\n      pop\n      mload(sub(mload(0x40), 0x20))\n        /* \"@openzeppelin/contracts/utils/cryptography/ECDSA.sol\":6440:6481  address signer = ecrecover(hash, v, r, s) */\n      swap1\n      pop\n        /* \"@openzeppelin/contracts/utils/cryptography/ECDSA.sol\":6513:6514  0 */\n      0x00\n        /* \"@openzeppelin/contracts/utils/cryptography/ECDSA.sol\":6495:6515  signer == address(0) */\n      0xffffffffffffffffffffffffffffffffffffffff\n      and\n        /* \"@openzeppelin/contracts/utils/cryptography/ECDSA.sol\":6495:6501  signer */\n      dup2\n        /* \"@openzeppelin/contracts/utils/cryptography/ECDSA.sol\":6495:6515  signer == address(0) */\n      0xffffffffffffffffffffffffffffffffffffffff\n      and\n      sub\n        /* \"@openzeppelin/contracts/utils/cryptography/ECDSA.sol\":6491:6604  if (signer == address(0)) {... */\n      tag_216\n      jumpi\n        /* \"@openzeppelin/contracts/utils/cryptography/ECDSA.sol\":6547:6548  0 */\n      0x00\n        /* \"@openzeppelin/contracts/utils/cryptography/ECDSA.sol\":6551:6580  RecoverError.InvalidSignature */\n      0x01\n        /* \"@openzeppelin/contracts/utils/cryptography/ECDSA.sol\":6590:6591  0 */\n      0x00\n        /* \"@openzeppelin/contracts/utils/cryptography/ECDSA.sol\":6582:6592  bytes32(0) */\n      dup1\n      shl\n        /* \"@openzeppelin/contracts/utils/cryptography/ECDSA.sol\":6531:6593  return (address(0), RecoverError.InvalidSignature, bytes32(0)) */\n      swap4\n      pop\n      swap4\n      pop\n      swap4\n      pop\n      pop\n      jump(tag_210)\n        /* \"@openzeppelin/contracts/utils/cryptography/ECDSA.sol\":6491:6604  if (signer == address(0)) {... */\n    tag_216:\n        /* \"@openzeppelin/contracts/utils/cryptography/ECDSA.sol\":6622:6628  signer */\n      dup1\n        /* \"@openzeppelin/contracts/utils/cryptography/ECDSA.sol\":6630:6650  RecoverError.NoError */\n      0x00\n        /* \"@openzeppelin/contracts/utils/cryptography/ECDSA.sol\":6660:6661  0 */\n      dup1\n        /* \"@openzeppelin/contracts/utils/cryptography/ECDSA.sol\":6652:6662  bytes32(0) */\n      0x00\n      shl\n        /* \"@openzeppelin/contracts/utils/cryptography/ECDSA.sol\":6614:6663  return (signer, RecoverError.NoError, bytes32(0)) */\n      swap4\n      pop\n      swap4\n      pop\n      swap4\n      pop\n      pop\n        /* \"@openzeppelin/contracts/utils/cryptography/ECDSA.sol\":5140:6670  function tryRecover(... */\n    tag_210:\n      swap5\n      pop\n      swap5\n      pop\n      swap5\n      swap2\n      pop\n      pop\n      jump\t// out\n        /* \"#utility.yul\":7:82   */\n    tag_217:\n        /* \"#utility.yul\":40:46   */\n      0x00\n        /* \"#utility.yul\":73:75   */\n      0x40\n        /* \"#utility.yul\":67:76   */\n      mload\n        /* \"#utility.yul\":57:76   */\n      swap1\n      pop\n        /* \"#utility.yul\":7:82   */\n      swap1\n      jump\t// out\n        /* \"#utility.yul\":88:205   */\n    tag_218:\n        /* \"#utility.yul\":197:198   */\n      0x00\n        /* \"#utility.yul\":194:195   */\n      dup1\n        /* \"#utility.yul\":187:199   */\n      revert\n        /* \"#utility.yul\":211:328   */\n    tag_219:\n        /* \"#utility.yul\":320:321   */\n      0x00\n        /* \"#utility.yul\":317:318   */\n      dup1\n        /* \"#utility.yul\":310:322   */\n      revert\n        /* \"#utility.yul\":334:411   */\n    tag_220:\n        /* \"#utility.yul\":371:378   */\n      0x00\n        /* \"#utility.yul\":400:405   */\n      dup2\n        /* \"#utility.yul\":389:405   */\n      swap1\n      pop\n        /* \"#utility.yul\":334:411   */\n      swap2\n      swap1\n      pop\n      jump\t// out\n        /* \"#utility.yul\":417:539   */\n    tag_221:\n        /* \"#utility.yul\":490:514   */\n      tag_276\n        /* \"#utility.yul\":508:513   */\n      dup2\n        /* \"#utility.yul\":490:514   */\n      tag_220\n      jump\t// in\n    tag_276:\n        /* \"#utility.yul\":483:488   */\n      dup2\n        /* \"#utility.yul\":480:515   */\n      eq\n        /* \"#utility.yul\":470:533   */\n      tag_277\n      jumpi\n        /* \"#utility.yul\":529:530   */\n      0x00\n        /* \"#utility.yul\":526:527   */\n      dup1\n        /* \"#utility.yul\":519:531   */\n      revert\n        /* \"#utility.yul\":470:533   */\n    tag_277:\n        /* \"#utility.yul\":417:539   */\n      pop\n      jump\t// out\n        /* \"#utility.yul\":545:684   */\n    tag_222:\n        /* \"#utility.yul\":591:596   */\n      0x00\n        /* \"#utility.yul\":629:635   */\n      dup2\n        /* \"#utility.yul\":616:636   */\n      calldataload\n        /* \"#utility.yul\":607:636   */\n      swap1\n      pop\n        /* \"#utility.yul\":645:678   */\n      tag_279\n        /* \"#utility.yul\":672:677   */\n      dup2\n        /* \"#utility.yul\":645:678   */\n      tag_221\n      jump\t// in\n    tag_279:\n        /* \"#utility.yul\":545:684   */\n      swap3\n      swap2\n      pop\n      pop\n      jump\t// out\n        /* \"#utility.yul\":690:1019   */\n    tag_22:\n        /* \"#utility.yul\":749:755   */\n      0x00\n        /* \"#utility.yul\":798:800   */\n      0x20\n        /* \"#utility.yul\":786:795   */\n      dup3\n        /* \"#utility.yul\":777:784   */\n      dup5\n        /* \"#utility.yul\":773:796   */\n      sub\n        /* \"#utility.yul\":769:801   */\n      slt\n        /* \"#utility.yul\":766:885   */\n      iszero\n      tag_281\n      jumpi\n        /* \"#utility.yul\":804:883   */\n      tag_282\n      tag_218\n      jump\t// in\n    tag_282:\n        /* \"#utility.yul\":766:885   */\n    tag_281:\n        /* \"#utility.yul\":924:925   */\n      0x00\n        /* \"#utility.yul\":949:1002   */\n      tag_283\n        /* \"#utility.yul\":994:1001   */\n      dup5\n        /* \"#utility.yul\":985:991   */\n      dup3\n        /* \"#utility.yul\":974:983   */\n      dup6\n        /* \"#utility.yul\":970:992   */\n      add\n        /* \"#utility.yul\":949:1002   */\n      tag_222\n      jump\t// in\n    tag_283:\n        /* \"#utility.yul\":939:1002   */\n      swap2\n      pop\n        /* \"#utility.yul\":895:1012   */\n      pop\n        /* \"#utility.yul\":690:1019   */\n      swap3\n      swap2\n      pop\n      pop\n      jump\t// out\n        /* \"#utility.yul\":1025:1143   */\n    tag_223:\n        /* \"#utility.yul\":1112:1136   */\n      tag_285\n        /* \"#utility.yul\":1130:1135   */\n      dup2\n        /* \"#utility.yul\":1112:1136   */\n      tag_220\n      jump\t// in\n    tag_285:\n        /* \"#utility.yul\":1107:1110   */\n      dup3\n        /* \"#utility.yul\":1100:1137   */\n      mstore\n        /* \"#utility.yul\":1025:1143   */\n      pop\n      pop\n      jump\t// out\n        /* \"#utility.yul\":1149:1371   */\n    tag_25:\n        /* \"#utility.yul\":1242:1246   */\n      0x00\n        /* \"#utility.yul\":1280:1282   */\n      0x20\n        /* \"#utility.yul\":1269:1278   */\n      dup3\n        /* \"#utility.yul\":1265:1283   */\n      add\n        /* \"#utility.yul\":1257:1283   */\n      swap1\n      pop\n        /* \"#utility.yul\":1293:1364   */\n      tag_287\n        /* \"#utility.yul\":1361:1362   */\n      0x00\n        /* \"#utility.yul\":1350:1359   */\n      dup4\n        /* \"#utility.yul\":1346:1363   */\n      add\n        /* \"#utility.yul\":1337:1343   */\n      dup5\n        /* \"#utility.yul\":1293:1364   */\n      tag_223\n      jump\t// in\n    tag_287:\n        /* \"#utility.yul\":1149:1371   */\n      swap3\n      swap2\n      pop\n      pop\n      jump\t// out\n        /* \"#utility.yul\":1377:1503   */\n    tag_224:\n        /* \"#utility.yul\":1414:1421   */\n      0x00\n        /* \"#utility.yul\":1454:1496   */\n      0xffffffffffffffffffffffffffffffffffffffff\n        /* \"#utility.yul\":1447:1452   */\n      dup3\n        /* \"#utility.yul\":1443:1497   */\n      and\n        /* \"#utility.yul\":1432:1497   */\n      swap1\n      pop\n        /* \"#utility.yul\":1377:1503   */\n      swap2\n      swap1\n      pop\n      jump\t// out\n        /* \"#utility.yul\":1509:1605   */\n    tag_225:\n        /* \"#utility.yul\":1546:1553   */\n      0x00\n        /* \"#utility.yul\":1575:1599   */\n      tag_290\n        /* \"#utility.yul\":1593:1598   */\n      dup3\n        /* \"#utility.yul\":1575:1599   */\n      tag_224\n      jump\t// in\n    tag_290:\n        /* \"#utility.yul\":1564:1599   */\n      swap1\n      pop\n        /* \"#utility.yul\":1509:1605   */\n      swap2\n      swap1\n      pop\n      jump\t// out\n        /* \"#utility.yul\":1611:1733   */\n    tag_226:\n        /* \"#utility.yul\":1684:1708   */\n      tag_292\n        /* \"#utility.yul\":1702:1707   */\n      dup2\n        /* \"#utility.yul\":1684:1708   */\n      tag_225\n      jump\t// in\n    tag_292:\n        /* \"#utility.yul\":1677:1682   */\n      dup2\n        /* \"#utility.yul\":1674:1709   */\n      eq\n        /* \"#utility.yul\":1664:1727   */\n      tag_293\n      jumpi\n        /* \"#utility.yul\":1723:1724   */\n      0x00\n        /* \"#utility.yul\":1720:1721   */\n      dup1\n        /* \"#utility.yul\":1713:1725   */\n      revert\n        /* \"#utility.yul\":1664:1727   */\n    tag_293:\n        /* \"#utility.yul\":1611:1733   */\n      pop\n      jump\t// out\n        /* \"#utility.yul\":1739:1878   */\n    tag_227:\n        /* \"#utility.yul\":1785:1790   */\n      0x00\n        /* \"#utility.yul\":1823:1829   */\n      dup2\n        /* \"#utility.yul\":1810:1830   */\n      calldataload\n        /* \"#utility.yul\":1801:1830   */\n      swap1\n      pop\n        /* \"#utility.yul\":1839:1872   */\n      tag_295\n        /* \"#utility.yul\":1866:1871   */\n      dup2\n        /* \"#utility.yul\":1839:1872   */\n      tag_226\n      jump\t// in\n    tag_295:\n        /* \"#utility.yul\":1739:1878   */\n      swap3\n      swap2\n      pop\n      pop\n      jump\t// out\n        /* \"#utility.yul\":1884:1974   */\n    tag_228:\n        /* \"#utility.yul\":1918:1925   */\n      0x00\n        /* \"#utility.yul\":1961:1966   */\n      dup2\n        /* \"#utility.yul\":1954:1967   */\n      iszero\n        /* \"#utility.yul\":1947:1968   */\n      iszero\n        /* \"#utility.yul\":1936:1968   */\n      swap1\n      pop\n        /* \"#utility.yul\":1884:1974   */\n      swap2\n      swap1\n      pop\n      jump\t// out\n        /* \"#utility.yul\":1980:2096   */\n    tag_229:\n        /* \"#utility.yul\":2050:2071   */\n      tag_298\n        /* \"#utility.yul\":2065:2070   */\n      dup2\n        /* \"#utility.yul\":2050:2071   */\n      tag_228\n      jump\t// in\n    tag_298:\n        /* \"#utility.yul\":2043:2048   */\n      dup2\n        /* \"#utility.yul\":2040:2072   */\n      eq\n        /* \"#utility.yul\":2030:2090   */\n      tag_299\n      jumpi\n        /* \"#utility.yul\":2086:2087   */\n      0x00\n        /* \"#utility.yul\":2083:2084   */\n      dup1\n        /* \"#utility.yul\":2076:2088   */\n      revert\n        /* \"#utility.yul\":2030:2090   */\n    tag_299:\n        /* \"#utility.yul\":1980:2096   */\n      pop\n      jump\t// out\n        /* \"#utility.yul\":2102:2235   */\n    tag_230:\n        /* \"#utility.yul\":2145:2150   */\n      0x00\n        /* \"#utility.yul\":2183:2189   */\n      dup2\n        /* \"#utility.yul\":2170:2190   */\n      calldataload\n        /* \"#utility.yul\":2161:2190   */\n      swap1\n      pop\n        /* \"#utility.yul\":2199:2229   */\n      tag_301\n        /* \"#utility.yul\":2223:2228   */\n      dup2\n        /* \"#utility.yul\":2199:2229   */\n      tag_229\n      jump\t// in\n    tag_301:\n        /* \"#utility.yul\":2102:2235   */\n      swap3\n      swap2\n      pop\n      pop\n      jump\t// out\n        /* \"#utility.yul\":2241:2709   */\n    tag_28:\n        /* \"#utility.yul\":2306:2312   */\n      0x00\n        /* \"#utility.yul\":2314:2320   */\n      dup1\n        /* \"#utility.yul\":2363:2365   */\n      0x40\n        /* \"#utility.yul\":2351:2360   */\n      dup4\n        /* \"#utility.yul\":2342:2349   */\n      dup6\n        /* \"#utility.yul\":2338:2361   */\n      sub\n        /* \"#utility.yul\":2334:2366   */\n      slt\n        /* \"#utility.yul\":2331:2450   */\n      iszero\n      tag_303\n      jumpi\n        /* \"#utility.yul\":2369:2448   */\n      tag_304\n      tag_218\n      jump\t// in\n    tag_304:\n        /* \"#utility.yul\":2331:2450   */\n    tag_303:\n        /* \"#utility.yul\":2489:2490   */\n      0x00\n        /* \"#utility.yul\":2514:2567   */\n      tag_305\n        /* \"#utility.yul\":2559:2566   */\n      dup6\n        /* \"#utility.yul\":2550:2556   */\n      dup3\n        /* \"#utility.yul\":2539:2548   */\n      dup7\n        /* \"#utility.yul\":2535:2557   */\n      add\n        /* \"#utility.yul\":2514:2567   */\n      tag_227\n      jump\t// in\n    tag_305:\n        /* \"#utility.yul\":2504:2567   */\n      swap3\n      pop\n        /* \"#utility.yul\":2460:2577   */\n      pop\n        /* \"#utility.yul\":2616:2618   */\n      0x20\n        /* \"#utility.yul\":2642:2692   */\n      tag_306\n        /* \"#utility.yul\":2684:2691   */\n      dup6\n        /* \"#utility.yul\":2675:2681   */\n      dup3\n        /* \"#utility.yul\":2664:2673   */\n      dup7\n        /* \"#utility.yul\":2660:2682   */\n      add\n        /* \"#utility.yul\":2642:2692   */\n      tag_230\n      jump\t// in\n    tag_306:\n        /* \"#utility.yul\":2632:2692   */\n      swap2\n      pop\n        /* \"#utility.yul\":2587:2702   */\n      pop\n        /* \"#utility.yul\":2241:2709   */\n      swap3\n      pop\n      swap3\n      swap1\n      pop\n      jump\t// out\n        /* \"#utility.yul\":2715:2833   */\n    tag_231:\n        /* \"#utility.yul\":2802:2826   */\n      tag_308\n        /* \"#utility.yul\":2820:2825   */\n      dup2\n        /* \"#utility.yul\":2802:2826   */\n      tag_225\n      jump\t// in\n    tag_308:\n        /* \"#utility.yul\":2797:2800   */\n      dup3\n        /* \"#utility.yul\":2790:2827   */\n      mstore\n        /* \"#utility.yul\":2715:2833   */\n      pop\n      pop\n      jump\t// out\n        /* \"#utility.yul\":2839:3061   */\n    tag_33:\n        /* \"#utility.yul\":2932:2936   */\n      0x00\n        /* \"#utility.yul\":2970:2972   */\n      0x20\n        /* \"#utility.yul\":2959:2968   */\n      dup3\n        /* \"#utility.yul\":2955:2973   */\n      add\n        /* \"#utility.yul\":2947:2973   */\n      swap1\n      pop\n        /* \"#utility.yul\":2983:3054   */\n      tag_310\n        /* \"#utility.yul\":3051:3052   */\n      0x00\n        /* \"#utility.yul\":3040:3049   */\n      dup4\n        /* \"#utility.yul\":3036:3053   */\n      add\n        /* \"#utility.yul\":3027:3033   */\n      dup5\n        /* \"#utility.yul\":2983:3054   */\n      tag_231\n      jump\t// in\n    tag_310:\n        /* \"#utility.yul\":2839:3061   */\n      swap3\n      swap2\n      pop\n      pop\n      jump\t// out\n        /* \"#utility.yul\":3067:3541   */\n    tag_36:\n        /* \"#utility.yul\":3135:3141   */\n      0x00\n        /* \"#utility.yul\":3143:3149   */\n      dup1\n        /* \"#utility.yul\":3192:3194   */\n      0x40\n        /* \"#utility.yul\":3180:3189   */\n      dup4\n        /* \"#utility.yul\":3171:3178   */\n      dup6\n        /* \"#utility.yul\":3167:3190   */\n      sub\n        /* \"#utility.yul\":3163:3195   */\n      slt\n        /* \"#utility.yul\":3160:3279   */\n      iszero\n      tag_312\n      jumpi\n        /* \"#utility.yul\":3198:3277   */\n      tag_313\n      tag_218\n      jump\t// in\n    tag_313:\n        /* \"#utility.yul\":3160:3279   */\n    tag_312:\n        /* \"#utility.yul\":3318:3319   */\n      0x00\n        /* \"#utility.yul\":3343:3396   */\n      tag_314\n        /* \"#utility.yul\":3388:3395   */\n      dup6\n        /* \"#utility.yul\":3379:3385   */\n      dup3\n        /* \"#utility.yul\":3368:3377   */\n      dup7\n        /* \"#utility.yul\":3364:3386   */\n      add\n        /* \"#utility.yul\":3343:3396   */\n      tag_222\n      jump\t// in\n    tag_314:\n        /* \"#utility.yul\":3333:3396   */\n      swap3\n      pop\n        /* \"#utility.yul\":3289:3406   */\n      pop\n        /* \"#utility.yul\":3445:3447   */\n      0x20\n        /* \"#utility.yul\":3471:3524   */\n      tag_315\n        /* \"#utility.yul\":3516:3523   */\n      dup6\n        /* \"#utility.yul\":3507:3513   */\n      dup3\n        /* \"#utility.yul\":3496:3505   */\n      dup7\n        /* \"#utility.yul\":3492:3514   */\n      add\n        /* \"#utility.yul\":3471:3524   */\n      tag_222\n      jump\t// in\n    tag_315:\n        /* \"#utility.yul\":3461:3524   */\n      swap2\n      pop\n        /* \"#utility.yul\":3416:3534   */\n      pop\n        /* \"#utility.yul\":3067:3541   */\n      swap3\n      pop\n      swap3\n      swap1\n      pop\n      jump\t// out\n        /* \"#utility.yul\":3547:3607   */\n    tag_232:\n        /* \"#utility.yul\":3575:3578   */\n      0x00\n        /* \"#utility.yul\":3596:3601   */\n      dup2\n        /* \"#utility.yul\":3589:3601   */\n      swap1\n      pop\n        /* \"#utility.yul\":3547:3607   */\n      swap2\n      swap1\n      pop\n      jump\t// out\n        /* \"#utility.yul\":3613:3755   */\n    tag_233:\n        /* \"#utility.yul\":3663:3672   */\n      0x00\n        /* \"#utility.yul\":3696:3749   */\n      tag_318\n        /* \"#utility.yul\":3714:3748   */\n      tag_319\n        /* \"#utility.yul\":3723:3747   */\n      tag_320\n        /* \"#utility.yul\":3741:3746   */\n      dup5\n        /* \"#utility.yul\":3723:3747   */\n      tag_224\n      jump\t// in\n    tag_320:\n        /* \"#utility.yul\":3714:3748   */\n      tag_232\n      jump\t// in\n    tag_319:\n        /* \"#utility.yul\":3696:3749   */\n      tag_224\n      jump\t// in\n    tag_318:\n        /* \"#utility.yul\":3683:3749   */\n      swap1\n      pop\n        /* \"#utility.yul\":3613:3755   */\n      swap2\n      swap1\n      pop\n      jump\t// out\n        /* \"#utility.yul\":3761:3887   */\n    tag_234:\n        /* \"#utility.yul\":3811:3820   */\n      0x00\n        /* \"#utility.yul\":3844:3881   */\n      tag_322\n        /* \"#utility.yul\":3875:3880   */\n      dup3\n        /* \"#utility.yul\":3844:3881   */\n      tag_233\n      jump\t// in\n    tag_322:\n        /* \"#utility.yul\":3831:3881   */\n      swap1\n      pop\n        /* \"#utility.yul\":3761:3887   */\n      swap2\n      swap1\n      pop\n      jump\t// out\n        /* \"#utility.yul\":3893:4033   */\n    tag_235:\n        /* \"#utility.yul\":3957:3966   */\n      0x00\n        /* \"#utility.yul\":3990:4027   */\n      tag_324\n        /* \"#utility.yul\":4021:4026   */\n      dup3\n        /* \"#utility.yul\":3990:4027   */\n      tag_234\n      jump\t// in\n    tag_324:\n        /* \"#utility.yul\":3977:4027   */\n      swap1\n      pop\n        /* \"#utility.yul\":3893:4033   */\n      swap2\n      swap1\n      pop\n      jump\t// out\n        /* \"#utility.yul\":4039:4198   */\n    tag_236:\n        /* \"#utility.yul\":4140:4191   */\n      tag_326\n        /* \"#utility.yul\":4185:4190   */\n      dup2\n        /* \"#utility.yul\":4140:4191   */\n      tag_235\n      jump\t// in\n    tag_326:\n        /* \"#utility.yul\":4135:4138   */\n      dup3\n        /* \"#utility.yul\":4128:4192   */\n      mstore\n        /* \"#utility.yul\":4039:4198   */\n      pop\n      pop\n      jump\t// out\n        /* \"#utility.yul\":4204:4454   */\n    tag_44:\n        /* \"#utility.yul\":4311:4315   */\n      0x00\n        /* \"#utility.yul\":4349:4351   */\n      0x20\n        /* \"#utility.yul\":4338:4347   */\n      dup3\n        /* \"#utility.yul\":4334:4352   */\n      add\n        /* \"#utility.yul\":4326:4352   */\n      swap1\n      pop\n        /* \"#utility.yul\":4362:4447   */\n      tag_328\n        /* \"#utility.yul\":4444:4445   */\n      0x00\n        /* \"#utility.yul\":4433:4442   */\n      dup4\n        /* \"#utility.yul\":4429:4446   */\n      add\n        /* \"#utility.yul\":4420:4426   */\n      dup5\n        /* \"#utility.yul\":4362:4447   */\n      tag_236\n      jump\t// in\n    tag_328:\n        /* \"#utility.yul\":4204:4454   */\n      swap3\n      swap2\n      pop\n      pop\n      jump\t// out\n        /* \"#utility.yul\":4460:4789   */\n    tag_49:\n        /* \"#utility.yul\":4519:4525   */\n      0x00\n        /* \"#utility.yul\":4568:4570   */\n      0x20\n        /* \"#utility.yul\":4556:4565   */\n      dup3\n        /* \"#utility.yul\":4547:4554   */\n      dup5\n        /* \"#utility.yul\":4543:4566   */\n      sub\n        /* \"#utility.yul\":4539:4571   */\n      slt\n        /* \"#utility.yul\":4536:4655   */\n      iszero\n      tag_330\n      jumpi\n        /* \"#utility.yul\":4574:4653   */\n      tag_331\n      tag_218\n      jump\t// in\n    tag_331:\n        /* \"#utility.yul\":4536:4655   */\n    tag_330:\n        /* \"#utility.yul\":4694:4695   */\n      0x00\n        /* \"#utility.yul\":4719:4772   */\n      tag_332\n        /* \"#utility.yul\":4764:4771   */\n      dup5\n        /* \"#utility.yul\":4755:4761   */\n      dup3\n        /* \"#utility.yul\":4744:4753   */\n      dup6\n        /* \"#utility.yul\":4740:4762   */\n      add\n        /* \"#utility.yul\":4719:4772   */\n      tag_227\n      jump\t// in\n    tag_332:\n        /* \"#utility.yul\":4709:4772   */\n      swap2\n      pop\n        /* \"#utility.yul\":4665:4782   */\n      pop\n        /* \"#utility.yul\":4460:4789   */\n      swap3\n      swap2\n      pop\n      pop\n      jump\t// out\n        /* \"#utility.yul\":4795:4912   */\n    tag_237:\n        /* \"#utility.yul\":4904:4905   */\n      0x00\n        /* \"#utility.yul\":4901:4902   */\n      dup1\n        /* \"#utility.yul\":4894:4906   */\n      revert\n        /* \"#utility.yul\":4918:5035   */\n    tag_238:\n        /* \"#utility.yul\":5027:5028   */\n      0x00\n        /* \"#utility.yul\":5024:5025   */\n      dup1\n        /* \"#utility.yul\":5017:5029   */\n      revert\n        /* \"#utility.yul\":5041:5143   */\n    tag_239:\n        /* \"#utility.yul\":5082:5088   */\n      0x00\n        /* \"#utility.yul\":5133:5135   */\n      0x1f\n        /* \"#utility.yul\":5129:5136   */\n      not\n        /* \"#utility.yul\":5124:5126   */\n      0x1f\n        /* \"#utility.yul\":5117:5122   */\n      dup4\n        /* \"#utility.yul\":5113:5127   */\n      add\n        /* \"#utility.yul\":5109:5137   */\n      and\n        /* \"#utility.yul\":5099:5137   */\n      swap1\n      pop\n        /* \"#utility.yul\":5041:5143   */\n      swap2\n      swap1\n      pop\n      jump\t// out\n        /* \"#utility.yul\":5149:5329   */\n    tag_240:\n        /* \"#utility.yul\":5197:5274   */\n      0x4e487b7100000000000000000000000000000000000000000000000000000000\n        /* \"#utility.yul\":5194:5195   */\n      0x00\n        /* \"#utility.yul\":5187:5275   */\n      mstore\n        /* \"#utility.yul\":5294:5298   */\n      0x41\n        /* \"#utility.yul\":5291:5292   */\n      0x04\n        /* \"#utility.yul\":5284:5299   */\n      mstore\n        /* \"#utility.yul\":5318:5322   */\n      0x24\n        /* \"#utility.yul\":5315:5316   */\n      0x00\n        /* \"#utility.yul\":5308:5323   */\n      revert\n        /* \"#utility.yul\":5335:5616   */\n    tag_241:\n        /* \"#utility.yul\":5418:5445   */\n      tag_338\n        /* \"#utility.yul\":5440:5444   */\n      dup3\n        /* \"#utility.yul\":5418:5445   */\n      tag_239\n      jump\t// in\n    tag_338:\n        /* \"#utility.yul\":5410:5416   */\n      dup2\n        /* \"#utility.yul\":5406:5446   */\n      add\n        /* \"#utility.yul\":5548:5554   */\n      dup2\n        /* \"#utility.yul\":5536:5546   */\n      dup2\n        /* \"#utility.yul\":5533:5555   */\n      lt\n        /* \"#utility.yul\":5512:5530   */\n      0xffffffffffffffff\n        /* \"#utility.yul\":5500:5510   */\n      dup3\n        /* \"#utility.yul\":5497:5531   */\n      gt\n        /* \"#utility.yul\":5494:5556   */\n      or\n        /* \"#utility.yul\":5491:5579   */\n      iszero\n      tag_339\n      jumpi\n        /* \"#utility.yul\":5559:5577   */\n      tag_340\n      tag_240\n      jump\t// in\n    tag_340:\n        /* \"#utility.yul\":5491:5579   */\n    tag_339:\n        /* \"#utility.yul\":5599:5609   */\n      dup1\n        /* \"#utility.yul\":5595:5597   */\n      0x40\n        /* \"#utility.yul\":5588:5610   */\n      mstore\n        /* \"#utility.yul\":5378:5616   */\n      pop\n        /* \"#utility.yul\":5335:5616   */\n      pop\n      pop\n      jump\t// out\n        /* \"#utility.yul\":5622:5751   */\n    tag_242:\n        /* \"#utility.yul\":5656:5662   */\n      0x00\n        /* \"#utility.yul\":5683:5703   */\n      tag_342\n      tag_217\n      jump\t// in\n    tag_342:\n        /* \"#utility.yul\":5673:5703   */\n      swap1\n      pop\n        /* \"#utility.yul\":5712:5745   */\n      tag_343\n        /* \"#utility.yul\":5740:5744   */\n      dup3\n        /* \"#utility.yul\":5732:5738   */\n      dup3\n        /* \"#utility.yul\":5712:5745   */\n      tag_241\n      jump\t// in\n    tag_343:\n        /* \"#utility.yul\":5622:5751   */\n      swap2\n      swap1\n      pop\n      jump\t// out\n        /* \"#utility.yul\":5757:6064   */\n    tag_243:\n        /* \"#utility.yul\":5818:5822   */\n      0x00\n        /* \"#utility.yul\":5908:5926   */\n      0xffffffffffffffff\n        /* \"#utility.yul\":5900:5906   */\n      dup3\n        /* \"#utility.yul\":5897:5927   */\n      gt\n        /* \"#utility.yul\":5894:5950   */\n      iszero\n      tag_345\n      jumpi\n        /* \"#utility.yul\":5930:5948   */\n      tag_346\n      tag_240\n      jump\t// in\n    tag_346:\n        /* \"#utility.yul\":5894:5950   */\n    tag_345:\n        /* \"#utility.yul\":5968:5997   */\n      tag_347\n        /* \"#utility.yul\":5990:5996   */\n      dup3\n        /* \"#utility.yul\":5968:5997   */\n      tag_239\n      jump\t// in\n    tag_347:\n        /* \"#utility.yul\":5960:5997   */\n      swap1\n      pop\n        /* \"#utility.yul\":6052:6056   */\n      0x20\n        /* \"#utility.yul\":6046:6050   */\n      dup2\n        /* \"#utility.yul\":6042:6057   */\n      add\n        /* \"#utility.yul\":6034:6057   */\n      swap1\n      pop\n        /* \"#utility.yul\":5757:6064   */\n      swap2\n      swap1\n      pop\n      jump\t// out\n        /* \"#utility.yul\":6070:6218   */\n    tag_244:\n        /* \"#utility.yul\":6168:6174   */\n      dup3\n        /* \"#utility.yul\":6163:6166   */\n      dup2\n        /* \"#utility.yul\":6158:6161   */\n      dup4\n        /* \"#utility.yul\":6145:6175   */\n      calldatacopy\n        /* \"#utility.yul\":6209:6210   */\n      0x00\n        /* \"#utility.yul\":6200:6206   */\n      dup4\n        /* \"#utility.yul\":6195:6198   */\n      dup4\n        /* \"#utility.yul\":6191:6207   */\n      add\n        /* \"#utility.yul\":6184:6211   */\n      mstore\n        /* \"#utility.yul\":6070:6218   */\n      pop\n      pop\n      pop\n      jump\t// out\n        /* \"#utility.yul\":6224:6647   */\n    tag_245:\n        /* \"#utility.yul\":6301:6306   */\n      0x00\n        /* \"#utility.yul\":6326:6391   */\n      tag_350\n        /* \"#utility.yul\":6342:6390   */\n      tag_351\n        /* \"#utility.yul\":6383:6389   */\n      dup5\n        /* \"#utility.yul\":6342:6390   */\n      tag_243\n      jump\t// in\n    tag_351:\n        /* \"#utility.yul\":6326:6391   */\n      tag_242\n      jump\t// in\n    tag_350:\n        /* \"#utility.yul\":6317:6391   */\n      swap1\n      pop\n        /* \"#utility.yul\":6414:6420   */\n      dup3\n        /* \"#utility.yul\":6407:6412   */\n      dup2\n        /* \"#utility.yul\":6400:6421   */\n      mstore\n        /* \"#utility.yul\":6452:6456   */\n      0x20\n        /* \"#utility.yul\":6445:6450   */\n      dup2\n        /* \"#utility.yul\":6441:6457   */\n      add\n        /* \"#utility.yul\":6490:6493   */\n      dup5\n        /* \"#utility.yul\":6481:6487   */\n      dup5\n        /* \"#utility.yul\":6476:6479   */\n      dup5\n        /* \"#utility.yul\":6472:6488   */\n      add\n        /* \"#utility.yul\":6469:6494   */\n      gt\n        /* \"#utility.yul\":6466:6578   */\n      iszero\n      tag_352\n      jumpi\n        /* \"#utility.yul\":6497:6576   */\n      tag_353\n      tag_238\n      jump\t// in\n    tag_353:\n        /* \"#utility.yul\":6466:6578   */\n    tag_352:\n        /* \"#utility.yul\":6587:6641   */\n      tag_354\n        /* \"#utility.yul\":6634:6640   */\n      dup5\n        /* \"#utility.yul\":6629:6632   */\n      dup3\n        /* \"#utility.yul\":6624:6627   */\n      dup6\n        /* \"#utility.yul\":6587:6641   */\n      tag_244\n      jump\t// in\n    tag_354:\n        /* \"#utility.yul\":6307:6647   */\n      pop\n        /* \"#utility.yul\":6224:6647   */\n      swap4\n      swap3\n      pop\n      pop\n      pop\n      jump\t// out\n        /* \"#utility.yul\":6666:7004   */\n    tag_246:\n        /* \"#utility.yul\":6721:6726   */\n      0x00\n        /* \"#utility.yul\":6770:6773   */\n      dup3\n        /* \"#utility.yul\":6763:6767   */\n      0x1f\n        /* \"#utility.yul\":6755:6761   */\n      dup4\n        /* \"#utility.yul\":6751:6768   */\n      add\n        /* \"#utility.yul\":6747:6774   */\n      slt\n        /* \"#utility.yul\":6737:6859   */\n      tag_356\n      jumpi\n        /* \"#utility.yul\":6778:6857   */\n      tag_357\n      tag_237\n      jump\t// in\n    tag_357:\n        /* \"#utility.yul\":6737:6859   */\n    tag_356:\n        /* \"#utility.yul\":6895:6901   */\n      dup2\n        /* \"#utility.yul\":6882:6902   */\n      calldataload\n        /* \"#utility.yul\":6920:6998   */\n      tag_358\n        /* \"#utility.yul\":6994:6997   */\n      dup5\n        /* \"#utility.yul\":6986:6992   */\n      dup3\n        /* \"#utility.yul\":6979:6983   */\n      0x20\n        /* \"#utility.yul\":6971:6977   */\n      dup7\n        /* \"#utility.yul\":6967:6984   */\n      add\n        /* \"#utility.yul\":6920:6998   */\n      tag_245\n      jump\t// in\n    tag_358:\n        /* \"#utility.yul\":6911:6998   */\n      swap2\n      pop\n        /* \"#utility.yul\":6727:7004   */\n      pop\n        /* \"#utility.yul\":6666:7004   */\n      swap3\n      swap2\n      pop\n      pop\n      jump\t// out\n        /* \"#utility.yul\":7010:7953   */\n    tag_60:\n        /* \"#utility.yul\":7105:7111   */\n      0x00\n        /* \"#utility.yul\":7113:7119   */\n      dup1\n        /* \"#utility.yul\":7121:7127   */\n      0x00\n        /* \"#utility.yul\":7129:7135   */\n      dup1\n        /* \"#utility.yul\":7178:7181   */\n      0x80\n        /* \"#utility.yul\":7166:7175   */\n      dup6\n        /* \"#utility.yul\":7157:7164   */\n      dup8\n        /* \"#utility.yul\":7153:7176   */\n      sub\n        /* \"#utility.yul\":7149:7182   */\n      slt\n        /* \"#utility.yul\":7146:7266   */\n      iszero\n      tag_360\n      jumpi\n        /* \"#utility.yul\":7185:7264   */\n      tag_361\n      tag_218\n      jump\t// in\n    tag_361:\n        /* \"#utility.yul\":7146:7266   */\n    tag_360:\n        /* \"#utility.yul\":7305:7306   */\n      0x00\n        /* \"#utility.yul\":7330:7383   */\n      tag_362\n        /* \"#utility.yul\":7375:7382   */\n      dup8\n        /* \"#utility.yul\":7366:7372   */\n      dup3\n        /* \"#utility.yul\":7355:7364   */\n      dup9\n        /* \"#utility.yul\":7351:7373   */\n      add\n        /* \"#utility.yul\":7330:7383   */\n      tag_222\n      jump\t// in\n    tag_362:\n        /* \"#utility.yul\":7320:7383   */\n      swap5\n      pop\n        /* \"#utility.yul\":7276:7393   */\n      pop\n        /* \"#utility.yul\":7432:7434   */\n      0x20\n        /* \"#utility.yul\":7458:7511   */\n      tag_363\n        /* \"#utility.yul\":7503:7510   */\n      dup8\n        /* \"#utility.yul\":7494:7500   */\n      dup3\n        /* \"#utility.yul\":7483:7492   */\n      dup9\n        /* \"#utility.yul\":7479:7501   */\n      add\n        /* \"#utility.yul\":7458:7511   */\n      tag_222\n      jump\t// in\n    tag_363:\n        /* \"#utility.yul\":7448:7511   */\n      swap4\n      pop\n        /* \"#utility.yul\":7403:7521   */\n      pop\n        /* \"#utility.yul\":7560:7562   */\n      0x40\n        /* \"#utility.yul\":7586:7639   */\n      tag_364\n        /* \"#utility.yul\":7631:7638   */\n      dup8\n        /* \"#utility.yul\":7622:7628   */\n      dup3\n        /* \"#utility.yul\":7611:7620   */\n      dup9\n        /* \"#utility.yul\":7607:7629   */\n      add\n        /* \"#utility.yul\":7586:7639   */\n      tag_227\n      jump\t// in\n    tag_364:\n        /* \"#utility.yul\":7576:7639   */\n      swap3\n      pop\n        /* \"#utility.yul\":7531:7649   */\n      pop\n        /* \"#utility.yul\":7716:7718   */\n      0x60\n        /* \"#utility.yul\":7705:7714   */\n      dup6\n        /* \"#utility.yul\":7701:7719   */\n      add\n        /* \"#utility.yul\":7688:7720   */\n      calldataload\n        /* \"#utility.yul\":7747:7765   */\n      0xffffffffffffffff\n        /* \"#utility.yul\":7739:7745   */\n      dup2\n        /* \"#utility.yul\":7736:7766   */\n      gt\n        /* \"#utility.yul\":7733:7850   */\n      iszero\n      tag_365\n      jumpi\n        /* \"#utility.yul\":7769:7848   */\n      tag_366\n      tag_219\n      jump\t// in\n    tag_366:\n        /* \"#utility.yul\":7733:7850   */\n    tag_365:\n        /* \"#utility.yul\":7874:7936   */\n      tag_367\n        /* \"#utility.yul\":7928:7935   */\n      dup8\n        /* \"#utility.yul\":7919:7925   */\n      dup3\n        /* \"#utility.yul\":7908:7917   */\n      dup9\n        /* \"#utility.yul\":7904:7926   */\n      add\n        /* \"#utility.yul\":7874:7936   */\n      tag_246\n      jump\t// in\n    tag_367:\n        /* \"#utility.yul\":7864:7936   */\n      swap2\n      pop\n        /* \"#utility.yul\":7659:7946   */\n      pop\n        /* \"#utility.yul\":7010:7953   */\n      swap3\n      swap6\n      swap2\n      swap5\n      pop\n      swap3\n      pop\n      jump\t// out\n        /* \"#utility.yul\":7959:8100   */\n    tag_247:\n        /* \"#utility.yul\":8024:8033   */\n      0x00\n        /* \"#utility.yul\":8057:8094   */\n      tag_369\n        /* \"#utility.yul\":8088:8093   */\n      dup3\n        /* \"#utility.yul\":8057:8094   */\n      tag_234\n      jump\t// in\n    tag_369:\n        /* \"#utility.yul\":8044:8094   */\n      swap1\n      pop\n        /* \"#utility.yul\":7959:8100   */\n      swap2\n      swap1\n      pop\n      jump\t// out\n        /* \"#utility.yul\":8106:8267   */\n    tag_248:\n        /* \"#utility.yul\":8208:8260   */\n      tag_371\n        /* \"#utility.yul\":8254:8259   */\n      dup2\n        /* \"#utility.yul\":8208:8260   */\n      tag_247\n      jump\t// in\n    tag_371:\n        /* \"#utility.yul\":8203:8206   */\n      dup3\n        /* \"#utility.yul\":8196:8261   */\n      mstore\n        /* \"#utility.yul\":8106:8267   */\n      pop\n      pop\n      jump\t// out\n        /* \"#utility.yul\":8273:8525   */\n    tag_71:\n        /* \"#utility.yul\":8381:8385   */\n      0x00\n        /* \"#utility.yul\":8419:8421   */\n      0x20\n        /* \"#utility.yul\":8408:8417   */\n      dup3\n        /* \"#utility.yul\":8404:8422   */\n      add\n        /* \"#utility.yul\":8396:8422   */\n      swap1\n      pop\n        /* \"#utility.yul\":8432:8518   */\n      tag_373\n        /* \"#utility.yul\":8515:8516   */\n      0x00\n        /* \"#utility.yul\":8504:8513   */\n      dup4\n        /* \"#utility.yul\":8500:8517   */\n      add\n        /* \"#utility.yul\":8491:8497   */\n      dup5\n        /* \"#utility.yul\":8432:8518   */\n      tag_248\n      jump\t// in\n    tag_373:\n        /* \"#utility.yul\":8273:8525   */\n      swap3\n      swap2\n      pop\n      pop\n      jump\t// out\n        /* \"#utility.yul\":8531:8640   */\n    tag_249:\n        /* \"#utility.yul\":8612:8633   */\n      tag_375\n        /* \"#utility.yul\":8627:8632   */\n      dup2\n        /* \"#utility.yul\":8612:8633   */\n      tag_228\n      jump\t// in\n    tag_375:\n        /* \"#utility.yul\":8607:8610   */\n      dup3\n        /* \"#utility.yul\":8600:8634   */\n      mstore\n        /* \"#utility.yul\":8531:8640   */\n      pop\n      pop\n      jump\t// out\n        /* \"#utility.yul\":8646:8856   */\n    tag_79:\n        /* \"#utility.yul\":8733:8737   */\n      0x00\n        /* \"#utility.yul\":8771:8773   */\n      0x20\n        /* \"#utility.yul\":8760:8769   */\n      dup3\n        /* \"#utility.yul\":8756:8774   */\n      add\n        /* \"#utility.yul\":8748:8774   */\n      swap1\n      pop\n        /* \"#utility.yul\":8784:8849   */\n      tag_377\n        /* \"#utility.yul\":8846:8847   */\n      0x00\n        /* \"#utility.yul\":8835:8844   */\n      dup4\n        /* \"#utility.yul\":8831:8848   */\n      add\n        /* \"#utility.yul\":8822:8828   */\n      dup5\n        /* \"#utility.yul\":8784:8849   */\n      tag_249\n      jump\t// in\n    tag_377:\n        /* \"#utility.yul\":8646:8856   */\n      swap3\n      swap2\n      pop\n      pop\n      jump\t// out\n        /* \"#utility.yul\":8862:9042   */\n    tag_250:\n        /* \"#utility.yul\":8910:8987   */\n      0x4e487b7100000000000000000000000000000000000000000000000000000000\n        /* \"#utility.yul\":8907:8908   */\n      0x00\n        /* \"#utility.yul\":8900:8988   */\n      mstore\n        /* \"#utility.yul\":9007:9011   */\n      0x11\n        /* \"#utility.yul\":9004:9005   */\n      0x04\n        /* \"#utility.yul\":8997:9012   */\n      mstore\n        /* \"#utility.yul\":9031:9035   */\n      0x24\n        /* \"#utility.yul\":9028:9029   */\n      0x00\n        /* \"#utility.yul\":9021:9036   */\n      revert\n        /* \"#utility.yul\":9048:9239   */\n    tag_83:\n        /* \"#utility.yul\":9088:9091   */\n      0x00\n        /* \"#utility.yul\":9107:9127   */\n      tag_380\n        /* \"#utility.yul\":9125:9126   */\n      dup3\n        /* \"#utility.yul\":9107:9127   */\n      tag_220\n      jump\t// in\n    tag_380:\n        /* \"#utility.yul\":9102:9127   */\n      swap2\n      pop\n        /* \"#utility.yul\":9141:9161   */\n      tag_381\n        /* \"#utility.yul\":9159:9160   */\n      dup4\n        /* \"#utility.yul\":9141:9161   */\n      tag_220\n      jump\t// in\n    tag_381:\n        /* \"#utility.yul\":9136:9161   */\n      swap3\n      pop\n        /* \"#utility.yul\":9184:9185   */\n      dup3\n        /* \"#utility.yul\":9181:9182   */\n      dup3\n        /* \"#utility.yul\":9177:9186   */\n      add\n        /* \"#utility.yul\":9170:9186   */\n      swap1\n      pop\n        /* \"#utility.yul\":9205:9208   */\n      dup1\n        /* \"#utility.yul\":9202:9203   */\n      dup3\n        /* \"#utility.yul\":9199:9209   */\n      gt\n        /* \"#utility.yul\":9196:9232   */\n      iszero\n      tag_382\n      jumpi\n        /* \"#utility.yul\":9212:9230   */\n      tag_383\n      tag_250\n      jump\t// in\n    tag_383:\n        /* \"#utility.yul\":9196:9232   */\n    tag_382:\n        /* \"#utility.yul\":9048:9239   */\n      swap3\n      swap2\n      pop\n      pop\n      jump\t// out\n        /* \"#utility.yul\":9245:9414   */\n    tag_251:\n        /* \"#utility.yul\":9329:9340   */\n      0x00\n        /* \"#utility.yul\":9363:9369   */\n      dup3\n        /* \"#utility.yul\":9358:9361   */\n      dup3\n        /* \"#utility.yul\":9351:9370   */\n      mstore\n        /* \"#utility.yul\":9403:9407   */\n      0x20\n        /* \"#utility.yul\":9398:9401   */\n      dup3\n        /* \"#utility.yul\":9394:9408   */\n      add\n        /* \"#utility.yul\":9379:9408   */\n      swap1\n      pop\n        /* \"#utility.yul\":9245:9414   */\n      swap3\n      swap2\n      pop\n      pop\n      jump\t// out\n        /* \"#utility.yul\":9420:9588   */\n    tag_252:\n        /* \"#utility.yul\":9560:9580   */\n      0x43616e2774207769746864726177207965740000000000000000000000000000\n        /* \"#utility.yul\":9556:9557   */\n      0x00\n        /* \"#utility.yul\":9548:9554   */\n      dup3\n        /* \"#utility.yul\":9544:9558   */\n      add\n        /* \"#utility.yul\":9537:9581   */\n      mstore\n        /* \"#utility.yul\":9420:9588   */\n      pop\n      jump\t// out\n        /* \"#utility.yul\":9594:9960   */\n    tag_253:\n        /* \"#utility.yul\":9736:9739   */\n      0x00\n        /* \"#utility.yul\":9757:9824   */\n      tag_387\n        /* \"#utility.yul\":9821:9823   */\n      0x12\n        /* \"#utility.yul\":9816:9819   */\n      dup4\n        /* \"#utility.yul\":9757:9824   */\n      tag_251\n      jump\t// in\n    tag_387:\n        /* \"#utility.yul\":9750:9824   */\n      swap2\n      pop\n        /* \"#utility.yul\":9833:9926   */\n      tag_388\n        /* \"#utility.yul\":9922:9925   */\n      dup3\n        /* \"#utility.yul\":9833:9926   */\n      tag_252\n      jump\t// in\n    tag_388:\n        /* \"#utility.yul\":9951:9953   */\n      0x20\n        /* \"#utility.yul\":9946:9949   */\n      dup3\n        /* \"#utility.yul\":9942:9954   */\n      add\n        /* \"#utility.yul\":9935:9954   */\n      swap1\n      pop\n        /* \"#utility.yul\":9594:9960   */\n      swap2\n      swap1\n      pop\n      jump\t// out\n        /* \"#utility.yul\":9966:10385   */\n    tag_86:\n        /* \"#utility.yul\":10132:10136   */\n      0x00\n        /* \"#utility.yul\":10170:10172   */\n      0x20\n        /* \"#utility.yul\":10159:10168   */\n      dup3\n        /* \"#utility.yul\":10155:10173   */\n      add\n        /* \"#utility.yul\":10147:10173   */\n      swap1\n      pop\n        /* \"#utility.yul\":10219:10228   */\n      dup2\n        /* \"#utility.yul\":10213:10217   */\n      dup2\n        /* \"#utility.yul\":10209:10229   */\n      sub\n        /* \"#utility.yul\":10205:10206   */\n      0x00\n        /* \"#utility.yul\":10194:10203   */\n      dup4\n        /* \"#utility.yul\":10190:10207   */\n      add\n        /* \"#utility.yul\":10183:10230   */\n      mstore\n        /* \"#utility.yul\":10247:10378   */\n      tag_390\n        /* \"#utility.yul\":10373:10377   */\n      dup2\n        /* \"#utility.yul\":10247:10378   */\n      tag_253\n      jump\t// in\n    tag_390:\n        /* \"#utility.yul\":10239:10378   */\n      swap1\n      pop\n        /* \"#utility.yul\":9966:10385   */\n      swap2\n      swap1\n      pop\n      jump\t// out\n        /* \"#utility.yul\":10391:10534   */\n    tag_254:\n        /* \"#utility.yul\":10448:10453   */\n      0x00\n        /* \"#utility.yul\":10479:10485   */\n      dup2\n        /* \"#utility.yul\":10473:10486   */\n      mload\n        /* \"#utility.yul\":10464:10486   */\n      swap1\n      pop\n        /* \"#utility.yul\":10495:10528   */\n      tag_392\n        /* \"#utility.yul\":10522:10527   */\n      dup2\n        /* \"#utility.yul\":10495:10528   */\n      tag_226\n      jump\t// in\n    tag_392:\n        /* \"#utility.yul\":10391:10534   */\n      swap3\n      swap2\n      pop\n      pop\n      jump\t// out\n        /* \"#utility.yul\":10540:10891   */\n    tag_92:\n        /* \"#utility.yul\":10610:10616   */\n      0x00\n        /* \"#utility.yul\":10659:10661   */\n      0x20\n        /* \"#utility.yul\":10647:10656   */\n      dup3\n        /* \"#utility.yul\":10638:10645   */\n      dup5\n        /* \"#utility.yul\":10634:10657   */\n      sub\n        /* \"#utility.yul\":10630:10662   */\n      slt\n        /* \"#utility.yul\":10627:10746   */\n      iszero\n      tag_394\n      jumpi\n        /* \"#utility.yul\":10665:10744   */\n      tag_395\n      tag_218\n      jump\t// in\n    tag_395:\n        /* \"#utility.yul\":10627:10746   */\n    tag_394:\n        /* \"#utility.yul\":10785:10786   */\n      0x00\n        /* \"#utility.yul\":10810:10874   */\n      tag_396\n        /* \"#utility.yul\":10866:10873   */\n      dup5\n        /* \"#utility.yul\":10857:10863   */\n      dup3\n        /* \"#utility.yul\":10846:10855   */\n      dup6\n        /* \"#utility.yul\":10842:10864   */\n      add\n        /* \"#utility.yul\":10810:10874   */\n      tag_254\n      jump\t// in\n    tag_396:\n        /* \"#utility.yul\":10800:10874   */\n      swap2\n      pop\n        /* \"#utility.yul\":10756:10884   */\n      pop\n        /* \"#utility.yul\":10540:10891   */\n      swap3\n      swap2\n      pop\n      pop\n      jump\t// out\n        /* \"#utility.yul\":10897:11076   */\n    tag_255:\n        /* \"#utility.yul\":11037:11068   */\n      0x43616c6c6572206973206e6f742074686520746f6b656e206f776e6572000000\n        /* \"#utility.yul\":11033:11034   */\n      0x00\n        /* \"#utility.yul\":11025:11031   */\n      dup3\n        /* \"#utility.yul\":11021:11035   */\n      add\n        /* \"#utility.yul\":11014:11069   */\n      mstore\n        /* \"#utility.yul\":10897:11076   */\n      pop\n      jump\t// out\n        /* \"#utility.yul\":11082:11448   */\n    tag_256:\n        /* \"#utility.yul\":11224:11227   */\n      0x00\n        /* \"#utility.yul\":11245:11312   */\n      tag_399\n        /* \"#utility.yul\":11309:11311   */\n      0x1d\n        /* \"#utility.yul\":11304:11307   */\n      dup4\n        /* \"#utility.yul\":11245:11312   */\n      tag_251\n      jump\t// in\n    tag_399:\n        /* \"#utility.yul\":11238:11312   */\n      swap2\n      pop\n        /* \"#utility.yul\":11321:11414   */\n      tag_400\n        /* \"#utility.yul\":11410:11413   */\n      dup3\n        /* \"#utility.yul\":11321:11414   */\n      tag_255\n      jump\t// in\n    tag_400:\n        /* \"#utility.yul\":11439:11441   */\n      0x20\n        /* \"#utility.yul\":11434:11437   */\n      dup3\n        /* \"#utility.yul\":11430:11442   */\n      add\n        /* \"#utility.yul\":11423:11442   */\n      swap1\n      pop\n        /* \"#utility.yul\":11082:11448   */\n      swap2\n      swap1\n      pop\n      jump\t// out\n        /* \"#utility.yul\":11454:11873   */\n    tag_95:\n        /* \"#utility.yul\":11620:11624   */\n      0x00\n        /* \"#utility.yul\":11658:11660   */\n      0x20\n        /* \"#utility.yul\":11647:11656   */\n      dup3\n        /* \"#utility.yul\":11643:11661   */\n      add\n        /* \"#utility.yul\":11635:11661   */\n      swap1\n      pop\n        /* \"#utility.yul\":11707:11716   */\n      dup2\n        /* \"#utility.yul\":11701:11705   */\n      dup2\n        /* \"#utility.yul\":11697:11717   */\n      sub\n        /* \"#utility.yul\":11693:11694   */\n      0x00\n        /* \"#utility.yul\":11682:11691   */\n      dup4\n        /* \"#utility.yul\":11678:11695   */\n      add\n        /* \"#utility.yul\":11671:11718   */\n      mstore\n        /* \"#utility.yul\":11735:11866   */\n      tag_402\n        /* \"#utility.yul\":11861:11865   */\n      dup2\n        /* \"#utility.yul\":11735:11866   */\n      tag_256\n      jump\t// in\n    tag_402:\n        /* \"#utility.yul\":11727:11866   */\n      swap1\n      pop\n        /* \"#utility.yul\":11454:11873   */\n      swap2\n      swap1\n      pop\n      jump\t// out\n        /* \"#utility.yul\":11879:12049   */\n    tag_257:\n        /* \"#utility.yul\":12019:12041   */\n      0x416d6f756e742063616e2774206265207a65726f000000000000000000000000\n        /* \"#utility.yul\":12015:12016   */\n      0x00\n        /* \"#utility.yul\":12007:12013   */\n      dup3\n        /* \"#utility.yul\":12003:12017   */\n      add\n        /* \"#utility.yul\":11996:12042   */\n      mstore\n        /* \"#utility.yul\":11879:12049   */\n      pop\n      jump\t// out\n        /* \"#utility.yul\":12055:12421   */\n    tag_258:\n        /* \"#utility.yul\":12197:12200   */\n      0x00\n        /* \"#utility.yul\":12218:12285   */\n      tag_405\n        /* \"#utility.yul\":12282:12284   */\n      0x14\n        /* \"#utility.yul\":12277:12280   */\n      dup4\n        /* \"#utility.yul\":12218:12285   */\n      tag_251\n      jump\t// in\n    tag_405:\n        /* \"#utility.yul\":12211:12285   */\n      swap2\n      pop\n        /* \"#utility.yul\":12294:12387   */\n      tag_406\n        /* \"#utility.yul\":12383:12386   */\n      dup3\n        /* \"#utility.yul\":12294:12387   */\n      tag_257\n      jump\t// in\n    tag_406:\n        /* \"#utility.yul\":12412:12414   */\n      0x20\n        /* \"#utility.yul\":12407:12410   */\n      dup3\n        /* \"#utility.yul\":12403:12415   */\n      add\n        /* \"#utility.yul\":12396:12415   */\n      swap1\n      pop\n        /* \"#utility.yul\":12055:12421   */\n      swap2\n      swap1\n      pop\n      jump\t// out\n        /* \"#utility.yul\":12427:12846   */\n    tag_98:\n        /* \"#utility.yul\":12593:12597   */\n      0x00\n        /* \"#utility.yul\":12631:12633   */\n      0x20\n        /* \"#utility.yul\":12620:12629   */\n      dup3\n        /* \"#utility.yul\":12616:12634   */\n      add\n        /* \"#utility.yul\":12608:12634   */\n      swap1\n      pop\n        /* \"#utility.yul\":12680:12689   */\n      dup2\n        /* \"#utility.yul\":12674:12678   */\n      dup2\n        /* \"#utility.yul\":12670:12690   */\n      sub\n        /* \"#utility.yul\":12666:12667   */\n      0x00\n        /* \"#utility.yul\":12655:12664   */\n      dup4\n        /* \"#utility.yul\":12651:12668   */\n      add\n        /* \"#utility.yul\":12644:12691   */\n      mstore\n        /* \"#utility.yul\":12708:12839   */\n      tag_408\n        /* \"#utility.yul\":12834:12838   */\n      dup2\n        /* \"#utility.yul\":12708:12839   */\n      tag_258\n      jump\t// in\n    tag_408:\n        /* \"#utility.yul\":12700:12839   */\n      swap1\n      pop\n        /* \"#utility.yul\":12427:12846   */\n      swap2\n      swap1\n      pop\n      jump\t// out\n        /* \"#utility.yul\":12852:13046   */\n    tag_101:\n        /* \"#utility.yul\":12892:12896   */\n      0x00\n        /* \"#utility.yul\":12912:12932   */\n      tag_410\n        /* \"#utility.yul\":12930:12931   */\n      dup3\n        /* \"#utility.yul\":12912:12932   */\n      tag_220\n      jump\t// in\n    tag_410:\n        /* \"#utility.yul\":12907:12932   */\n      swap2\n      pop\n        /* \"#utility.yul\":12946:12966   */\n      tag_411\n        /* \"#utility.yul\":12964:12965   */\n      dup4\n        /* \"#utility.yul\":12946:12966   */\n      tag_220\n      jump\t// in\n    tag_411:\n        /* \"#utility.yul\":12941:12966   */\n      swap3\n      pop\n        /* \"#utility.yul\":12990:12991   */\n      dup3\n        /* \"#utility.yul\":12987:12988   */\n      dup3\n        /* \"#utility.yul\":12983:12992   */\n      sub\n        /* \"#utility.yul\":12975:12992   */\n      swap1\n      pop\n        /* \"#utility.yul\":13014:13015   */\n      dup2\n        /* \"#utility.yul\":13008:13012   */\n      dup2\n        /* \"#utility.yul\":13005:13016   */\n      gt\n        /* \"#utility.yul\":13002:13039   */\n      iszero\n      tag_412\n      jumpi\n        /* \"#utility.yul\":13019:13037   */\n      tag_413\n      tag_250\n      jump\t// in\n    tag_413:\n        /* \"#utility.yul\":13002:13039   */\n    tag_412:\n        /* \"#utility.yul\":12852:13046   */\n      swap3\n      swap2\n      pop\n      pop\n      jump\t// out\n        /* \"#utility.yul\":13052:13222   */\n    tag_259:\n        /* \"#utility.yul\":13192:13214   */\n      0x596f75206d6f6e6579206e6f7420656e6f756768000000000000000000000000\n        /* \"#utility.yul\":13188:13189   */\n      0x00\n        /* \"#utility.yul\":13180:13186   */\n      dup3\n        /* \"#utility.yul\":13176:13190   */\n      add\n        /* \"#utility.yul\":13169:13215   */\n      mstore\n        /* \"#utility.yul\":13052:13222   */\n      pop\n      jump\t// out\n        /* \"#utility.yul\":13228:13594   */\n    tag_260:\n        /* \"#utility.yul\":13370:13373   */\n      0x00\n        /* \"#utility.yul\":13391:13458   */\n      tag_416\n        /* \"#utility.yul\":13455:13457   */\n      0x14\n        /* \"#utility.yul\":13450:13453   */\n      dup4\n        /* \"#utility.yul\":13391:13458   */\n      tag_251\n      jump\t// in\n    tag_416:\n        /* \"#utility.yul\":13384:13458   */\n      swap2\n      pop\n        /* \"#utility.yul\":13467:13560   */\n      tag_417\n        /* \"#utility.yul\":13556:13559   */\n      dup3\n        /* \"#utility.yul\":13467:13560   */\n      tag_259\n      jump\t// in\n    tag_417:\n        /* \"#utility.yul\":13585:13587   */\n      0x20\n        /* \"#utility.yul\":13580:13583   */\n      dup3\n        /* \"#utility.yul\":13576:13588   */\n      add\n        /* \"#utility.yul\":13569:13588   */\n      swap1\n      pop\n        /* \"#utility.yul\":13228:13594   */\n      swap2\n      swap1\n      pop\n      jump\t// out\n        /* \"#utility.yul\":13600:14019   */\n    tag_104:\n        /* \"#utility.yul\":13766:13770   */\n      0x00\n        /* \"#utility.yul\":13804:13806   */\n      0x20\n        /* \"#utility.yul\":13793:13802   */\n      dup3\n        /* \"#utility.yul\":13789:13807   */\n      add\n        /* \"#utility.yul\":13781:13807   */\n      swap1\n      pop\n        /* \"#utility.yul\":13853:13862   */\n      dup2\n        /* \"#utility.yul\":13847:13851   */\n      dup2\n        /* \"#utility.yul\":13843:13863   */\n      sub\n        /* \"#utility.yul\":13839:13840   */\n      0x00\n        /* \"#utility.yul\":13828:13837   */\n      dup4\n        /* \"#utility.yul\":13824:13841   */\n      add\n        /* \"#utility.yul\":13817:13864   */\n      mstore\n        /* \"#utility.yul\":13881:14012   */\n      tag_419\n        /* \"#utility.yul\":14007:14011   */\n      dup2\n        /* \"#utility.yul\":13881:14012   */\n      tag_260\n      jump\t// in\n    tag_419:\n        /* \"#utility.yul\":13873:14012   */\n      swap1\n      pop\n        /* \"#utility.yul\":13600:14019   */\n      swap2\n      swap1\n      pop\n      jump\t// out\n        /* \"#utility.yul\":14025:14467   */\n    tag_107:\n        /* \"#utility.yul\":14174:14178   */\n      0x00\n        /* \"#utility.yul\":14212:14214   */\n      0x60\n        /* \"#utility.yul\":14201:14210   */\n      dup3\n        /* \"#utility.yul\":14197:14215   */\n      add\n        /* \"#utility.yul\":14189:14215   */\n      swap1\n      pop\n        /* \"#utility.yul\":14225:14296   */\n      tag_421\n        /* \"#utility.yul\":14293:14294   */\n      0x00\n        /* \"#utility.yul\":14282:14291   */\n      dup4\n        /* \"#utility.yul\":14278:14295   */\n      add\n        /* \"#utility.yul\":14269:14275   */\n      dup7\n        /* \"#utility.yul\":14225:14296   */\n      tag_231\n      jump\t// in\n    tag_421:\n        /* \"#utility.yul\":14306:14378   */\n      tag_422\n        /* \"#utility.yul\":14374:14376   */\n      0x20\n        /* \"#utility.yul\":14363:14372   */\n      dup4\n        /* \"#utility.yul\":14359:14377   */\n      add\n        /* \"#utility.yul\":14350:14356   */\n      dup6\n        /* \"#utility.yul\":14306:14378   */\n      tag_231\n      jump\t// in\n    tag_422:\n        /* \"#utility.yul\":14388:14460   */\n      tag_423\n        /* \"#utility.yul\":14456:14458   */\n      0x40\n        /* \"#utility.yul\":14445:14454   */\n      dup4\n        /* \"#utility.yul\":14441:14459   */\n      add\n        /* \"#utility.yul\":14432:14438   */\n      dup5\n        /* \"#utility.yul\":14388:14460   */\n      tag_223\n      jump\t// in\n    tag_423:\n        /* \"#utility.yul\":14025:14467   */\n      swap5\n      swap4\n      pop\n      pop\n      pop\n      pop\n      jump\t// out\n        /* \"#utility.yul\":14473:14610   */\n    tag_261:\n        /* \"#utility.yul\":14527:14532   */\n      0x00\n        /* \"#utility.yul\":14558:14564   */\n      dup2\n        /* \"#utility.yul\":14552:14565   */\n      mload\n        /* \"#utility.yul\":14543:14565   */\n      swap1\n      pop\n        /* \"#utility.yul\":14574:14604   */\n      tag_425\n        /* \"#utility.yul\":14598:14603   */\n      dup2\n        /* \"#utility.yul\":14574:14604   */\n      tag_229\n      jump\t// in\n    tag_425:\n        /* \"#utility.yul\":14473:14610   */\n      swap3\n      swap2\n      pop\n      pop\n      jump\t// out\n        /* \"#utility.yul\":14616:14961   */\n    tag_111:\n        /* \"#utility.yul\":14683:14689   */\n      0x00\n        /* \"#utility.yul\":14732:14734   */\n      0x20\n        /* \"#utility.yul\":14720:14729   */\n      dup3\n        /* \"#utility.yul\":14711:14718   */\n      dup5\n        /* \"#utility.yul\":14707:14730   */\n      sub\n        /* \"#utility.yul\":14703:14735   */\n      slt\n        /* \"#utility.yul\":14700:14819   */\n      iszero\n      tag_427\n      jumpi\n        /* \"#utility.yul\":14738:14817   */\n      tag_428\n      tag_218\n      jump\t// in\n    tag_428:\n        /* \"#utility.yul\":14700:14819   */\n    tag_427:\n        /* \"#utility.yul\":14858:14859   */\n      0x00\n        /* \"#utility.yul\":14883:14944   */\n      tag_429\n        /* \"#utility.yul\":14936:14943   */\n      dup5\n        /* \"#utility.yul\":14927:14933   */\n      dup3\n        /* \"#utility.yul\":14916:14925   */\n      dup6\n        /* \"#utility.yul\":14912:14934   */\n      add\n        /* \"#utility.yul\":14883:14944   */\n      tag_261\n      jump\t// in\n    tag_429:\n        /* \"#utility.yul\":14873:14944   */\n      swap2\n      pop\n        /* \"#utility.yul\":14829:14954   */\n      pop\n        /* \"#utility.yul\":14616:14961   */\n      swap3\n      swap2\n      pop\n      pop\n      jump\t// out\n        /* \"#utility.yul\":14967:15299   */\n    tag_115:\n        /* \"#utility.yul\":15088:15092   */\n      0x00\n        /* \"#utility.yul\":15126:15128   */\n      0x40\n        /* \"#utility.yul\":15115:15124   */\n      dup3\n        /* \"#utility.yul\":15111:15129   */\n      add\n        /* \"#utility.yul\":15103:15129   */\n      swap1\n      pop\n        /* \"#utility.yul\":15139:15210   */\n      tag_431\n        /* \"#utility.yul\":15207:15208   */\n      0x00\n        /* \"#utility.yul\":15196:15205   */\n      dup4\n        /* \"#utility.yul\":15192:15209   */\n      add\n        /* \"#utility.yul\":15183:15189   */\n      dup6\n        /* \"#utility.yul\":15139:15210   */\n      tag_223\n      jump\t// in\n    tag_431:\n        /* \"#utility.yul\":15220:15292   */\n      tag_432\n        /* \"#utility.yul\":15288:15290   */\n      0x20\n        /* \"#utility.yul\":15277:15286   */\n      dup4\n        /* \"#utility.yul\":15273:15291   */\n      add\n        /* \"#utility.yul\":15264:15270   */\n      dup5\n        /* \"#utility.yul\":15220:15292   */\n      tag_223\n      jump\t// in\n    tag_432:\n        /* \"#utility.yul\":14967:15299   */\n      swap4\n      swap3\n      pop\n      pop\n      pop\n      jump\t// out\n        /* \"#utility.yul\":15305:15474   */\n    tag_262:\n        /* \"#utility.yul\":15445:15466   */\n      0x596f75206172652774207061796d617374657200000000000000000000000000\n        /* \"#utility.yul\":15441:15442   */\n      0x00\n        /* \"#utility.yul\":15433:15439   */\n      dup3\n        /* \"#utility.yul\":15429:15443   */\n      add\n        /* \"#utility.yul\":15422:15467   */\n      mstore\n        /* \"#utility.yul\":15305:15474   */\n      pop\n      jump\t// out\n        /* \"#utility.yul\":15480:15846   */\n    tag_263:\n        /* \"#utility.yul\":15622:15625   */\n      0x00\n        /* \"#utility.yul\":15643:15710   */\n      tag_435\n        /* \"#utility.yul\":15707:15709   */\n      0x13\n        /* \"#utility.yul\":15702:15705   */\n      dup4\n        /* \"#utility.yul\":15643:15710   */\n      tag_251\n      jump\t// in\n    tag_435:\n        /* \"#utility.yul\":15636:15710   */\n      swap2\n      pop\n        /* \"#utility.yul\":15719:15812   */\n      tag_436\n        /* \"#utility.yul\":15808:15811   */\n      dup3\n        /* \"#utility.yul\":15719:15812   */\n      tag_262\n      jump\t// in\n    tag_436:\n        /* \"#utility.yul\":15837:15839   */\n      0x20\n        /* \"#utility.yul\":15832:15835   */\n      dup3\n        /* \"#utility.yul\":15828:15840   */\n      add\n        /* \"#utility.yul\":15821:15840   */\n      swap1\n      pop\n        /* \"#utility.yul\":15480:15846   */\n      swap2\n      swap1\n      pop\n      jump\t// out\n        /* \"#utility.yul\":15852:16271   */\n    tag_120:\n        /* \"#utility.yul\":16018:16022   */\n      0x00\n        /* \"#utility.yul\":16056:16058   */\n      0x20\n        /* \"#utility.yul\":16045:16054   */\n      dup3\n        /* \"#utility.yul\":16041:16059   */\n      add\n        /* \"#utility.yul\":16033:16059   */\n      swap1\n      pop\n        /* \"#utility.yul\":16105:16114   */\n      dup2\n        /* \"#utility.yul\":16099:16103   */\n      dup2\n        /* \"#utility.yul\":16095:16115   */\n      sub\n        /* \"#utility.yul\":16091:16092   */\n      0x00\n        /* \"#utility.yul\":16080:16089   */\n      dup4\n        /* \"#utility.yul\":16076:16093   */\n      add\n        /* \"#utility.yul\":16069:16116   */\n      mstore\n        /* \"#utility.yul\":16133:16264   */\n      tag_438\n        /* \"#utility.yul\":16259:16263   */\n      dup2\n        /* \"#utility.yul\":16133:16264   */\n      tag_263\n      jump\t// in\n    tag_438:\n        /* \"#utility.yul\":16125:16264   */\n      swap1\n      pop\n        /* \"#utility.yul\":15852:16271   */\n      swap2\n      swap1\n      pop\n      jump\t// out\n        /* \"#utility.yul\":16277:16830   */\n    tag_149:\n        /* \"#utility.yul\":16454:16458   */\n      0x00\n        /* \"#utility.yul\":16492:16495   */\n      0x80\n        /* \"#utility.yul\":16481:16490   */\n      dup3\n        /* \"#utility.yul\":16477:16496   */\n      add\n        /* \"#utility.yul\":16469:16496   */\n      swap1\n      pop\n        /* \"#utility.yul\":16506:16577   */\n      tag_440\n        /* \"#utility.yul\":16574:16575   */\n      0x00\n        /* \"#utility.yul\":16563:16572   */\n      dup4\n        /* \"#utility.yul\":16559:16576   */\n      add\n        /* \"#utility.yul\":16550:16556   */\n      dup8\n        /* \"#utility.yul\":16506:16577   */\n      tag_223\n      jump\t// in\n    tag_440:\n        /* \"#utility.yul\":16587:16659   */\n      tag_441\n        /* \"#utility.yul\":16655:16657   */\n      0x20\n        /* \"#utility.yul\":16644:16653   */\n      dup4\n        /* \"#utility.yul\":16640:16658   */\n      add\n        /* \"#utility.yul\":16631:16637   */\n      dup7\n        /* \"#utility.yul\":16587:16659   */\n      tag_223\n      jump\t// in\n    tag_441:\n        /* \"#utility.yul\":16669:16741   */\n      tag_442\n        /* \"#utility.yul\":16737:16739   */\n      0x40\n        /* \"#utility.yul\":16726:16735   */\n      dup4\n        /* \"#utility.yul\":16722:16740   */\n      add\n        /* \"#utility.yul\":16713:16719   */\n      dup6\n        /* \"#utility.yul\":16669:16741   */\n      tag_223\n      jump\t// in\n    tag_442:\n        /* \"#utility.yul\":16751:16823   */\n      tag_443\n        /* \"#utility.yul\":16819:16821   */\n      0x60\n        /* \"#utility.yul\":16808:16817   */\n      dup4\n        /* \"#utility.yul\":16804:16822   */\n      add\n        /* \"#utility.yul\":16795:16801   */\n      dup5\n        /* \"#utility.yul\":16751:16823   */\n      tag_231\n      jump\t// in\n    tag_443:\n        /* \"#utility.yul\":16277:16830   */\n      swap6\n      swap5\n      pop\n      pop\n      pop\n      pop\n      pop\n      jump\t// out\n        /* \"#utility.yul\":16836:17003   */\n    tag_264:\n        /* \"#utility.yul\":16976:16995   */\n      0x496e76616c6964205369676e6174757265000000000000000000000000000000\n        /* \"#utility.yul\":16972:16973   */\n      0x00\n        /* \"#utility.yul\":16964:16970   */\n      dup3\n        /* \"#utility.yul\":16960:16974   */\n      add\n        /* \"#utility.yul\":16953:16996   */\n      mstore\n        /* \"#utility.yul\":16836:17003   */\n      pop\n      jump\t// out\n        /* \"#utility.yul\":17009:17375   */\n    tag_265:\n        /* \"#utility.yul\":17151:17154   */\n      0x00\n        /* \"#utility.yul\":17172:17239   */\n      tag_446\n        /* \"#utility.yul\":17236:17238   */\n      0x11\n        /* \"#utility.yul\":17231:17234   */\n      dup4\n        /* \"#utility.yul\":17172:17239   */\n      tag_251\n      jump\t// in\n    tag_446:\n        /* \"#utility.yul\":17165:17239   */\n      swap2\n      pop\n        /* \"#utility.yul\":17248:17341   */\n      tag_447\n        /* \"#utility.yul\":17337:17340   */\n      dup3\n        /* \"#utility.yul\":17248:17341   */\n      tag_264\n      jump\t// in\n    tag_447:\n        /* \"#utility.yul\":17366:17368   */\n      0x20\n        /* \"#utility.yul\":17361:17364   */\n      dup3\n        /* \"#utility.yul\":17357:17369   */\n      add\n        /* \"#utility.yul\":17350:17369   */\n      swap1\n      pop\n        /* \"#utility.yul\":17009:17375   */\n      swap2\n      swap1\n      pop\n      jump\t// out\n        /* \"#utility.yul\":17381:17800   */\n    tag_154:\n        /* \"#utility.yul\":17547:17551   */\n      0x00\n        /* \"#utility.yul\":17585:17587   */\n      0x20\n        /* \"#utility.yul\":17574:17583   */\n      dup3\n        /* \"#utility.yul\":17570:17588   */\n      add\n        /* \"#utility.yul\":17562:17588   */\n      swap1\n      pop\n        /* \"#utility.yul\":17634:17643   */\n      dup2\n        /* \"#utility.yul\":17628:17632   */\n      dup2\n        /* \"#utility.yul\":17624:17644   */\n      sub\n        /* \"#utility.yul\":17620:17621   */\n      0x00\n        /* \"#utility.yul\":17609:17618   */\n      dup4\n        /* \"#utility.yul\":17605:17622   */\n      add\n        /* \"#utility.yul\":17598:17645   */\n      mstore\n        /* \"#utility.yul\":17662:17793   */\n      tag_449\n        /* \"#utility.yul\":17788:17792   */\n      dup2\n        /* \"#utility.yul\":17662:17793   */\n      tag_265\n      jump\t// in\n    tag_449:\n        /* \"#utility.yul\":17654:17793   */\n      swap1\n      pop\n        /* \"#utility.yul\":17381:17800   */\n      swap2\n      swap1\n      pop\n      jump\t// out\n        /* \"#utility.yul\":17806:17986   */\n    tag_185:\n        /* \"#utility.yul\":17854:17931   */\n      0x4e487b7100000000000000000000000000000000000000000000000000000000\n        /* \"#utility.yul\":17851:17852   */\n      0x00\n        /* \"#utility.yul\":17844:17932   */\n      mstore\n        /* \"#utility.yul\":17951:17955   */\n      0x21\n        /* \"#utility.yul\":17948:17949   */\n      0x04\n        /* \"#utility.yul\":17941:17956   */\n      mstore\n        /* \"#utility.yul\":17975:17979   */\n      0x24\n        /* \"#utility.yul\":17972:17973   */\n      0x00\n        /* \"#utility.yul\":17965:17980   */\n      revert\n        /* \"#utility.yul\":17992:18069   */\n    tag_266:\n        /* \"#utility.yul\":18029:18036   */\n      0x00\n        /* \"#utility.yul\":18058:18063   */\n      dup2\n        /* \"#utility.yul\":18047:18063   */\n      swap1\n      pop\n        /* \"#utility.yul\":17992:18069   */\n      swap2\n      swap1\n      pop\n      jump\t// out\n        /* \"#utility.yul\":18075:18193   */\n    tag_267:\n        /* \"#utility.yul\":18162:18186   */\n      tag_453\n        /* \"#utility.yul\":18180:18185   */\n      dup2\n        /* \"#utility.yul\":18162:18186   */\n      tag_266\n      jump\t// in\n    tag_453:\n        /* \"#utility.yul\":18157:18160   */\n      dup3\n        /* \"#utility.yul\":18150:18187   */\n      mstore\n        /* \"#utility.yul\":18075:18193   */\n      pop\n      pop\n      jump\t// out\n        /* \"#utility.yul\":18199:18421   */\n    tag_209:\n        /* \"#utility.yul\":18292:18296   */\n      0x00\n        /* \"#utility.yul\":18330:18332   */\n      0x20\n        /* \"#utility.yul\":18319:18328   */\n      dup3\n        /* \"#utility.yul\":18315:18333   */\n      add\n        /* \"#utility.yul\":18307:18333   */\n      swap1\n      pop\n        /* \"#utility.yul\":18343:18414   */\n      tag_455\n        /* \"#utility.yul\":18411:18412   */\n      0x00\n        /* \"#utility.yul\":18400:18409   */\n      dup4\n        /* \"#utility.yul\":18396:18413   */\n      add\n        /* \"#utility.yul\":18387:18393   */\n      dup5\n        /* \"#utility.yul\":18343:18414   */\n      tag_267\n      jump\t// in\n    tag_455:\n        /* \"#utility.yul\":18199:18421   */\n      swap3\n      swap2\n      pop\n      pop\n      jump\t// out\n        /* \"#utility.yul\":18427:18513   */\n    tag_268:\n        /* \"#utility.yul\":18462:18469   */\n      0x00\n        /* \"#utility.yul\":18502:18506   */\n      0xff\n        /* \"#utility.yul\":18495:18500   */\n      dup3\n        /* \"#utility.yul\":18491:18507   */\n      and\n        /* \"#utility.yul\":18480:18507   */\n      swap1\n      pop\n        /* \"#utility.yul\":18427:18513   */\n      swap2\n      swap1\n      pop\n      jump\t// out\n        /* \"#utility.yul\":18519:18631   */\n    tag_269:\n        /* \"#utility.yul\":18602:18624   */\n      tag_458\n        /* \"#utility.yul\":18618:18623   */\n      dup2\n        /* \"#utility.yul\":18602:18624   */\n      tag_268\n      jump\t// in\n    tag_458:\n        /* \"#utility.yul\":18597:18600   */\n      dup3\n        /* \"#utility.yul\":18590:18625   */\n      mstore\n        /* \"#utility.yul\":18519:18631   */\n      pop\n      pop\n      jump\t// out\n        /* \"#utility.yul\":18637:19182   */\n    tag_213:\n        /* \"#utility.yul\":18810:18814   */\n      0x00\n        /* \"#utility.yul\":18848:18851   */\n      0x80\n        /* \"#utility.yul\":18837:18846   */\n      dup3\n        /* \"#utility.yul\":18833:18852   */\n      add\n        /* \"#utility.yul\":18825:18852   */\n      swap1\n      pop\n        /* \"#utility.yul\":18862:18933   */\n      tag_460\n        /* \"#utility.yul\":18930:18931   */\n      0x00\n        /* \"#utility.yul\":18919:18928   */\n      dup4\n        /* \"#utility.yul\":18915:18932   */\n      add\n        /* \"#utility.yul\":18906:18912   */\n      dup8\n        /* \"#utility.yul\":18862:18933   */\n      tag_267\n      jump\t// in\n    tag_460:\n        /* \"#utility.yul\":18943:19011   */\n      tag_461\n        /* \"#utility.yul\":19007:19009   */\n      0x20\n        /* \"#utility.yul\":18996:19005   */\n      dup4\n        /* \"#utility.yul\":18992:19010   */\n      add\n        /* \"#utility.yul\":18983:18989   */\n      dup7\n        /* \"#utility.yul\":18943:19011   */\n      tag_269\n      jump\t// in\n    tag_461:\n        /* \"#utility.yul\":19021:19093   */\n      tag_462\n        /* \"#utility.yul\":19089:19091   */\n      0x40\n        /* \"#utility.yul\":19078:19087   */\n      dup4\n        /* \"#utility.yul\":19074:19092   */\n      add\n        /* \"#utility.yul\":19065:19071   */\n      dup6\n        /* \"#utility.yul\":19021:19093   */\n      tag_267\n      jump\t// in\n    tag_462:\n        /* \"#utility.yul\":19103:19175   */\n      tag_463\n        /* \"#utility.yul\":19171:19173   */\n      0x60\n        /* \"#utility.yul\":19160:19169   */\n      dup4\n        /* \"#utility.yul\":19156:19174   */\n      add\n        /* \"#utility.yul\":19147:19153   */\n      dup5\n        /* \"#utility.yul\":19103:19175   */\n      tag_267\n      jump\t// in\n    tag_463:\n        /* \"#utility.yul\":18637:19182   */\n      swap6\n      swap5\n      pop\n      pop\n      pop\n      pop\n      pop\n      jump\t// out\n\n    auxdata: 0xa2646970667358221220979813157bde9579b2394daf382cc9a4e302bb5da08f2105a0e1d73b73d616a864736f6c63430008190033\n}\n",
				"bytecode": {
					"linkReferences": {},
					"object": "608060405262278d00600455348015610016575f80fd5b50604051611e4c380380611e4c833981810160405281019061003891906102a1565b835f73ffffffffffffffffffffffffffffffffffffffff168173ffffffffffffffffffffffffffffffffffffffff16036100a9575f6040517f1e4fbdf70000000000000000000000000000000000000000000000000000000081526004016100a09190610314565b60405180910390fd5b6100b88161018260201b60201c565b508260015f6101000a81548173ffffffffffffffffffffffffffffffffffffffff021916908373ffffffffffffffffffffffffffffffffffffffff1602179055508160025f6101000a81548173ffffffffffffffffffffffffffffffffffffffff021916908373ffffffffffffffffffffffffffffffffffffffff1602179055508060035f6101000a81548173ffffffffffffffffffffffffffffffffffffffff021916908373ffffffffffffffffffffffffffffffffffffffff1602179055505050505061032d565b5f805f9054906101000a900473ffffffffffffffffffffffffffffffffffffffff169050815f806101000a81548173ffffffffffffffffffffffffffffffffffffffff021916908373ffffffffffffffffffffffffffffffffffffffff1602179055508173ffffffffffffffffffffffffffffffffffffffff168173ffffffffffffffffffffffffffffffffffffffff167f8be0079c531659141344cd1fd0a4f28419497f9722a3daafe3b4186f6b6457e060405160405180910390a35050565b5f80fd5b5f73ffffffffffffffffffffffffffffffffffffffff82169050919050565b5f61027082610247565b9050919050565b61028081610266565b811461028a575f80fd5b50565b5f8151905061029b81610277565b92915050565b5f805f80608085870312156102b9576102b8610243565b5b5f6102c68782880161028d565b94505060206102d78782880161028d565b93505060406102e88782880161028d565b92505060606102f98782880161028d565b91505092959194509250565b61030e81610266565b82525050565b5f6020820190506103275f830184610305565b92915050565b611b128061033a5f395ff3fe608060405234801561000f575f80fd5b50600436106100e8575f3560e01c806385dc30041161008a578063d44b647811610064578063d44b647814610220578063e767c7981461023c578063f2fde38b1461025a578063f9e58b2814610276576100e8565b806385dc3004146101b65780638da5cb5b146101d25780639f666d84146101f0576100e8565b8063441a3e70116100c6578063441a3e701461015657806351cdb77b1461017257806356f738cf1461018e578063715018a6146101ac576100e8565b80630f20b94c146100ec5780631573f6881461011c57806318afe17014610138575b5f80fd5b610106600480360381019061010191906111ae565b610294565b60405161011391906111e8565b60405180910390f35b61013660048036038101906101319190611290565b6102a9565b005b610140610375565b60405161014d91906112dd565b60405180910390f35b610170600480360381019061016b91906112f6565b61039a565b005b61018c600480360381019061018791906112f6565b610750565b005b6101966108a4565b6040516101a3919061138f565b60405180910390f35b6101b46108c9565b005b6101d060048036038101906101cb91906113a8565b6108dc565b005b6101da610927565b6040516101e791906112dd565b60405180910390f35b61020a600480360381019061020591906111ae565b61094e565b60405161021791906111e8565b60405180910390f35b61023a6004803603810190610235919061150f565b610963565b005b610244610ca4565b60405161025191906111e8565b60405180910390f35b610274600480360381019061026f91906113a8565b610caa565b005b61027e610d2e565b60405161028b91906115af565b60405180910390f35b6009602052805f5260405f205f915090505481565b6102b1610d53565b8060055f8473ffffffffffffffffffffffffffffffffffffffff1673ffffffffffffffffffffffffffffffffffffffff1681526020019081526020015f205f6101000a81548160ff0219169083151502179055508173ffffffffffffffffffffffffffffffffffffffff16610324610dda565b73ffffffffffffffffffffffffffffffffffffffff167f6acf3afc37630e6f3e6b7176f7c4f8a3fd260b3f52fbca69f34d6db2d4fbd8978360405161036991906115d7565b60405180910390a35050565b60035f9054906101000a900473ffffffffffffffffffffffffffffffffffffffff1681565b5f60065f8481526020019081526020015f20541480156103d757504260045460065f8581526020019081526020015f20546103d5919061161d565b115b610416576040517f08c379a000000000000000000000000000000000000000000000000000000000815260040161040d906116aa565b60405180910390fd5b61041e610dda565b73ffffffffffffffffffffffffffffffffffffffff1660015f9054906101000a900473ffffffffffffffffffffffffffffffffffffffff1673ffffffffffffffffffffffffffffffffffffffff16636352211e846040518263ffffffff1660e01b815260040161048e91906111e8565b602060405180830381865afa1580156104a9573d5f803e3d5ffd5b505050506040513d601f19601f820116820180604052508101906104cd91906116dc565b73ffffffffffffffffffffffffffffffffffffffff1614610523576040517f08c379a000000000000000000000000000000000000000000000000000000000815260040161051a90611751565b60405180910390fd5b5f8111610565576040517f08c379a000000000000000000000000000000000000000000000000000000000815260040161055c906117b9565b60405180910390fd5b8060095f8481526020019081526020015f2054610582919061161d565b60075f8481526020019081526020015f205460085f8581526020019081526020015f20546105b091906117d7565b10156105f1576040517f08c379a00000000000000000000000000000000000000000000000000000000081526004016105e890611854565b60405180910390fd5b60025f9054906101000a900473ffffffffffffffffffffffffffffffffffffffff1673ffffffffffffffffffffffffffffffffffffffff166323b872dd60035f9054906101000a900473ffffffffffffffffffffffffffffffffffffffff16610658610dda565b846040518463ffffffff1660e01b815260040161067793929190611872565b6020604051808303815f875af1158015610693573d5f803e3d5ffd5b505050506040513d601f19601f820116820180604052508101906106b791906118bb565b504260065f8481526020019081526020015f20819055508060095f8481526020019081526020015f205f8282546106ee919061161d565b925050819055506106fd610dda565b73ffffffffffffffffffffffffffffffffffffffff167ff279e6a1f5e320cca91135676d9cb6e44ca8a08c0b88342bcdb1144f6511b56883836040516107449291906118e6565b60405180910390a25050565b60055f61075b610dda565b73ffffffffffffffffffffffffffffffffffffffff1673ffffffffffffffffffffffffffffffffffffffff1681526020019081526020015f205f9054906101000a900460ff166107e0576040517f08c379a00000000000000000000000000000000000000000000000000000000081526004016107d790611957565b60405180910390fd5b5f8111610822576040517f08c379a0000000000000000000000000000000000000000000000000000000008152600401610819906117b9565b60405180910390fd5b8060075f8481526020019081526020015f205f828254610842919061161d565b92505081905550610851610dda565b73ffffffffffffffffffffffffffffffffffffffff167fc25dcb745945a227e2139cc3f70645f2b61a352fe9e7f8d44ac19571f4b89eff83836040516108989291906118e6565b60405180910390a25050565b60025f9054906101000a900473ffffffffffffffffffffffffffffffffffffffff1681565b6108d1610d53565b6108da5f610de1565b565b6108e4610d53565b8060035f6101000a81548173ffffffffffffffffffffffffffffffffffffffff021916908373ffffffffffffffffffffffffffffffffffffffff16021790555050565b5f805f9054906101000a900473ffffffffffffffffffffffffffffffffffffffff16905090565b6008602052805f5260405f205f915090505481565b5f83116109a5576040517f08c379a000000000000000000000000000000000000000000000000000000000815260040161099c906117b9565b60405180910390fd5b60055f8373ffffffffffffffffffffffffffffffffffffffff1673ffffffffffffffffffffffffffffffffffffffff1681526020019081526020015f205f9054906101000a900460ff16610a2e576040517f08c379a0000000000000000000000000000000000000000000000000000000008152600401610a2590611957565b60405180910390fd5b610a36610dda565b73ffffffffffffffffffffffffffffffffffffffff1660015f9054906101000a900473ffffffffffffffffffffffffffffffffffffffff1673ffffffffffffffffffffffffffffffffffffffff16636352211e866040518263ffffffff1660e01b8152600401610aa691906111e8565b602060405180830381865afa158015610ac1573d5f803e3d5ffd5b505050506040513d601f19601f82011682018060405250810190610ae591906116dc565b73ffffffffffffffffffffffffffffffffffffffff1614610b3b576040517f08c379a0000000000000000000000000000000000000000000000000000000008152600401610b3290611751565b60405180910390fd5b5f60085f8681526020019081526020015f20548585610b58610dda565b604051602001610b6b9493929190611975565b6040516020818303038152906040528051906020012090505f610b978383610ea290919063ffffffff16565b90508373ffffffffffffffffffffffffffffffffffffffff168173ffffffffffffffffffffffffffffffffffffffff1614610c07576040517f08c379a0000000000000000000000000000000000000000000000000000000008152600401610bfe90611a02565b60405180910390fd5b8460085f8881526020019081526020015f205f828254610c27919061161d565b925050819055508373ffffffffffffffffffffffffffffffffffffffff16610c4d610dda565b73ffffffffffffffffffffffffffffffffffffffff167fca8bf70624ec0ecfc925e5746a0e4625afe01129043c1c7201c7ce01075ea3ac8888604051610c949291906118e6565b60405180910390a3505050505050565b60045481565b610cb2610d53565b5f73ffffffffffffffffffffffffffffffffffffffff168173ffffffffffffffffffffffffffffffffffffffff1603610d22575f6040517f1e4fbdf7000000000000000000000000000000000000000000000000000000008152600401610d1991906112dd565b60405180910390fd5b610d2b81610de1565b50565b60015f9054906101000a900473ffffffffffffffffffffffffffffffffffffffff1681565b610d5b610dda565b73ffffffffffffffffffffffffffffffffffffffff16610d79610927565b73ffffffffffffffffffffffffffffffffffffffff1614610dd857610d9c610dda565b6040517f118cdaa7000000000000000000000000000000000000000000000000000000008152600401610dcf91906112dd565b60405180910390fd5b565b5f33905090565b5f805f9054906101000a900473ffffffffffffffffffffffffffffffffffffffff169050815f806101000a81548173ffffffffffffffffffffffffffffffffffffffff021916908373ffffffffffffffffffffffffffffffffffffffff1602179055508173ffffffffffffffffffffffffffffffffffffffff168173ffffffffffffffffffffffffffffffffffffffff167f8be0079c531659141344cd1fd0a4f28419497f9722a3daafe3b4186f6b6457e060405160405180910390a35050565b5f805f80610eb08686610ecc565b925092509250610ec08282610f21565b82935050505092915050565b5f805f6041845103610f0c575f805f602087015192506040870151915060608701515f1a9050610efe88828585611083565b955095509550505050610f1a565b5f600285515f1b9250925092505b9250925092565b5f6003811115610f3457610f33611a20565b5b826003811115610f4757610f46611a20565b5b031561107f5760016003811115610f6157610f60611a20565b5b826003811115610f7457610f73611a20565b5b03610fab576040517ff645eedf00000000000000000000000000000000000000000000000000000000815260040160405180910390fd5b60026003811115610fbf57610fbe611a20565b5b826003811115610fd257610fd1611a20565b5b0361101657805f1c6040517ffce698f700000000000000000000000000000000000000000000000000000000815260040161100d91906111e8565b60405180910390fd5b60038081111561102957611028611a20565b5b82600381111561103c5761103b611a20565b5b0361107e57806040517fd78bce0c0000000000000000000000000000000000000000000000000000000081526004016110759190611a65565b60405180910390fd5b5b5050565b5f805f7f7fffffffffffffffffffffffffffffff5d576e7357a4501ddfe92f46681b20a0845f1c11156110bf575f600385925092509250611160565b5f6001888888886040515f81526020016040526040516110e29493929190611a99565b6020604051602081039080840390855afa158015611102573d5f803e3d5ffd5b5050506020604051035190505f73ffffffffffffffffffffffffffffffffffffffff168173ffffffffffffffffffffffffffffffffffffffff1603611153575f60015f801b93509350935050611160565b805f805f1b935093509350505b9450945094915050565b5f604051905090565b5f80fd5b5f80fd5b5f819050919050565b61118d8161117b565b8114611197575f80fd5b50565b5f813590506111a881611184565b92915050565b5f602082840312156111c3576111c2611173565b5b5f6111d08482850161119a565b91505092915050565b6111e28161117b565b82525050565b5f6020820190506111fb5f8301846111d9565b92915050565b5f73ffffffffffffffffffffffffffffffffffffffff82169050919050565b5f61122a82611201565b9050919050565b61123a81611220565b8114611244575f80fd5b50565b5f8135905061125581611231565b92915050565b5f8115159050919050565b61126f8161125b565b8114611279575f80fd5b50565b5f8135905061128a81611266565b92915050565b5f80604083850312156112a6576112a5611173565b5b5f6112b385828601611247565b92505060206112c48582860161127c565b9150509250929050565b6112d781611220565b82525050565b5f6020820190506112f05f8301846112ce565b92915050565b5f806040838503121561130c5761130b611173565b5b5f6113198582860161119a565b925050602061132a8582860161119a565b9150509250929050565b5f819050919050565b5f61135761135261134d84611201565b611334565b611201565b9050919050565b5f6113688261133d565b9050919050565b5f6113798261135e565b9050919050565b6113898161136f565b82525050565b5f6020820190506113a25f830184611380565b92915050565b5f602082840312156113bd576113bc611173565b5b5f6113ca84828501611247565b91505092915050565b5f80fd5b5f80fd5b5f601f19601f8301169050919050565b7f4e487b71000000000000000000000000000000000000000000000000000000005f52604160045260245ffd5b611421826113db565b810181811067ffffffffffffffff821117156114405761143f6113eb565b5b80604052505050565b5f61145261116a565b905061145e8282611418565b919050565b5f67ffffffffffffffff82111561147d5761147c6113eb565b5b611486826113db565b9050602081019050919050565b828183375f83830152505050565b5f6114b36114ae84611463565b611449565b9050828152602081018484840111156114cf576114ce6113d7565b5b6114da848285611493565b509392505050565b5f82601f8301126114f6576114f56113d3565b5b81356115068482602086016114a1565b91505092915050565b5f805f806080858703121561152757611526611173565b5b5f6115348782880161119a565b94505060206115458782880161119a565b935050604061155687828801611247565b925050606085013567ffffffffffffffff81111561157757611576611177565b5b611583878288016114e2565b91505092959194509250565b5f6115998261135e565b9050919050565b6115a98161158f565b82525050565b5f6020820190506115c25f8301846115a0565b92915050565b6115d18161125b565b82525050565b5f6020820190506115ea5f8301846115c8565b92915050565b7f4e487b71000000000000000000000000000000000000000000000000000000005f52601160045260245ffd5b5f6116278261117b565b91506116328361117b565b925082820190508082111561164a576116496115f0565b5b92915050565b5f82825260208201905092915050565b7f43616e27742077697468647261772079657400000000000000000000000000005f82015250565b5f611694601283611650565b915061169f82611660565b602082019050919050565b5f6020820190508181035f8301526116c181611688565b9050919050565b5f815190506116d681611231565b92915050565b5f602082840312156116f1576116f0611173565b5b5f6116fe848285016116c8565b91505092915050565b7f43616c6c6572206973206e6f742074686520746f6b656e206f776e65720000005f82015250565b5f61173b601d83611650565b915061174682611707565b602082019050919050565b5f6020820190508181035f8301526117688161172f565b9050919050565b7f416d6f756e742063616e2774206265207a65726f0000000000000000000000005f82015250565b5f6117a3601483611650565b91506117ae8261176f565b602082019050919050565b5f6020820190508181035f8301526117d081611797565b9050919050565b5f6117e18261117b565b91506117ec8361117b565b9250828203905081811115611804576118036115f0565b5b92915050565b7f596f75206d6f6e6579206e6f7420656e6f7567680000000000000000000000005f82015250565b5f61183e601483611650565b91506118498261180a565b602082019050919050565b5f6020820190508181035f83015261186b81611832565b9050919050565b5f6060820190506118855f8301866112ce565b61189260208301856112ce565b61189f60408301846111d9565b949350505050565b5f815190506118b581611266565b92915050565b5f602082840312156118d0576118cf611173565b5b5f6118dd848285016118a7565b91505092915050565b5f6040820190506118f95f8301856111d9565b61190660208301846111d9565b9392505050565b7f596f75206172652774207061796d6173746572000000000000000000000000005f82015250565b5f611941601383611650565b915061194c8261190d565b602082019050919050565b5f6020820190508181035f83015261196e81611935565b9050919050565b5f6080820190506119885f8301876111d9565b61199560208301866111d9565b6119a260408301856111d9565b6119af60608301846112ce565b95945050505050565b7f496e76616c6964205369676e61747572650000000000000000000000000000005f82015250565b5f6119ec601183611650565b91506119f7826119b8565b602082019050919050565b5f6020820190508181035f830152611a19816119e0565b9050919050565b7f4e487b71000000000000000000000000000000000000000000000000000000005f52602160045260245ffd5b5f819050919050565b611a5f81611a4d565b82525050565b5f602082019050611a785f830184611a56565b92915050565b5f60ff82169050919050565b611a9381611a7e565b82525050565b5f608082019050611aac5f830187611a56565b611ab96020830186611a8a565b611ac66040830185611a56565b611ad36060830184611a56565b9594505050505056fea2646970667358221220979813157bde9579b2394daf382cc9a4e302bb5da08f2105a0e1d73b73d616a864736f6c63430008190033",
					"opcodes": "PUSH1 0x80 PUSH1 0x40 MSTORE PUSH3 0x278D00 PUSH1 0x4 SSTORE CALLVALUE DUP1 ISZERO PUSH2 0x16 JUMPI PUSH0 DUP1 REVERT JUMPDEST POP PUSH1 0x40 MLOAD PUSH2 0x1E4C CODESIZE SUB DUP1 PUSH2 0x1E4C DUP4 CODECOPY DUP2 DUP2 ADD PUSH1 0x40 MSTORE DUP2 ADD SWAP1 PUSH2 0x38 SWAP2 SWAP1 PUSH2 0x2A1 JUMP JUMPDEST DUP4 PUSH0 PUSH20 0xFFFFFFFFFFFFFFFFFFFFFFFFFFFFFFFFFFFFFFFF AND DUP2 PUSH20 0xFFFFFFFFFFFFFFFFFFFFFFFFFFFFFFFFFFFFFFFF AND SUB PUSH2 0xA9 JUMPI PUSH0 PUSH1 0x40 MLOAD PUSH32 0x1E4FBDF700000000000000000000000000000000000000000000000000000000 DUP2 MSTORE PUSH1 0x4 ADD PUSH2 0xA0 SWAP2 SWAP1 PUSH2 0x314 JUMP JUMPDEST PUSH1 0x40 MLOAD DUP1 SWAP2 SUB SWAP1 REVERT JUMPDEST PUSH2 0xB8 DUP2 PUSH2 0x182 PUSH1 0x20 SHL PUSH1 0x20 SHR JUMP JUMPDEST POP DUP3 PUSH1 0x1 PUSH0 PUSH2 0x100 EXP DUP2 SLOAD DUP2 PUSH20 0xFFFFFFFFFFFFFFFFFFFFFFFFFFFFFFFFFFFFFFFF MUL NOT AND SWAP1 DUP4 PUSH20 0xFFFFFFFFFFFFFFFFFFFFFFFFFFFFFFFFFFFFFFFF AND MUL OR SWAP1 SSTORE POP DUP2 PUSH1 0x2 PUSH0 PUSH2 0x100 EXP DUP2 SLOAD DUP2 PUSH20 0xFFFFFFFFFFFFFFFFFFFFFFFFFFFFFFFFFFFFFFFF MUL NOT AND SWAP1 DUP4 PUSH20 0xFFFFFFFFFFFFFFFFFFFFFFFFFFFFFFFFFFFFFFFF AND MUL OR SWAP1 SSTORE POP DUP1 PUSH1 0x3 PUSH0 PUSH2 0x100 EXP DUP2 SLOAD DUP2 PUSH20 0xFFFFFFFFFFFFFFFFFFFFFFFFFFFFFFFFFFFFFFFF MUL NOT AND SWAP1 DUP4 PUSH20 0xFFFFFFFFFFFFFFFFFFFFFFFFFFFFFFFFFFFFFFFF AND MUL OR SWAP1 SSTORE POP POP POP POP POP PUSH2 0x32D JUMP JUMPDEST PUSH0 DUP1 PUSH0 SWAP1 SLOAD SWAP1 PUSH2 0x100 EXP SWAP1 DIV PUSH20 0xFFFFFFFFFFFFFFFFFFFFFFFFFFFFFFFFFFFFFFFF AND SWAP1 POP DUP2 PUSH0 DUP1 PUSH2 0x100 EXP DUP2 SLOAD DUP2 PUSH20 0xFFFFFFFFFFFFFFFFFFFFFFFFFFFFFFFFFFFFFFFF MUL NOT AND SWAP1 DUP4 PUSH20 0xFFFFFFFFFFFFFFFFFFFFFFFFFFFFFFFFFFFFFFFF AND MUL OR SWAP1 SSTORE POP DUP2 PUSH20 0xFFFFFFFFFFFFFFFFFFFFFFFFFFFFFFFFFFFFFFFF AND DUP2 PUSH20 0xFFFFFFFFFFFFFFFFFFFFFFFFFFFFFFFFFFFFFFFF AND PUSH32 0x8BE0079C531659141344CD1FD0A4F28419497F9722A3DAAFE3B4186F6B6457E0 PUSH1 0x40 MLOAD PUSH1 0x40 MLOAD DUP1 SWAP2 SUB SWAP1 LOG3 POP POP JUMP JUMPDEST PUSH0 DUP1 REVERT JUMPDEST PUSH0 PUSH20 0xFFFFFFFFFFFFFFFFFFFFFFFFFFFFFFFFFFFFFFFF DUP3 AND SWAP1 POP SWAP2 SWAP1 POP JUMP JUMPDEST PUSH0 PUSH2 0x270 DUP3 PUSH2 0x247 JUMP JUMPDEST SWAP1 POP SWAP2 SWAP1 POP JUMP JUMPDEST PUSH2 0x280 DUP2 PUSH2 0x266 JUMP JUMPDEST DUP2 EQ PUSH2 0x28A JUMPI PUSH0 DUP1 REVERT JUMPDEST POP JUMP JUMPDEST PUSH0 DUP2 MLOAD SWAP1 POP PUSH2 0x29B DUP2 PUSH2 0x277 JUMP JUMPDEST SWAP3 SWAP2 POP POP JUMP JUMPDEST PUSH0 DUP1 PUSH0 DUP1 PUSH1 0x80 DUP6 DUP8 SUB SLT ISZERO PUSH2 0x2B9 JUMPI PUSH2 0x2B8 PUSH2 0x243 JUMP JUMPDEST JUMPDEST PUSH0 PUSH2 0x2C6 DUP8 DUP3 DUP9 ADD PUSH2 0x28D JUMP JUMPDEST SWAP5 POP POP PUSH1 0x20 PUSH2 0x2D7 DUP8 DUP3 DUP9 ADD PUSH2 0x28D JUMP JUMPDEST SWAP4 POP POP PUSH1 0x40 PUSH2 0x2E8 DUP8 DUP3 DUP9 ADD PUSH2 0x28D JUMP JUMPDEST SWAP3 POP POP PUSH1 0x60 PUSH2 0x2F9 DUP8 DUP3 DUP9 ADD PUSH2 0x28D JUMP JUMPDEST SWAP2 POP POP SWAP3 SWAP6 SWAP2 SWAP5 POP SWAP3 POP JUMP JUMPDEST PUSH2 0x30E DUP2 PUSH2 0x266 JUMP JUMPDEST DUP3 MSTORE POP POP JUMP JUMPDEST PUSH0 PUSH1 0x20 DUP3 ADD SWAP1 POP PUSH2 0x327 PUSH0 DUP4 ADD DUP5 PUSH2 0x305 JUMP JUMPDEST SWAP3 SWAP2 POP POP JUMP JUMPDEST PUSH2 0x1B12 DUP1 PUSH2 0x33A PUSH0 CODECOPY PUSH0 RETURN INVALID PUSH1 0x80 PUSH1 0x40 MSTORE CALLVALUE DUP1 ISZERO PUSH2 0xF JUMPI PUSH0 DUP1 REVERT JUMPDEST POP PUSH1 0x4 CALLDATASIZE LT PUSH2 0xE8 JUMPI PUSH0 CALLDATALOAD PUSH1 0xE0 SHR DUP1 PUSH4 0x85DC3004 GT PUSH2 0x8A JUMPI DUP1 PUSH4 0xD44B6478 GT PUSH2 0x64 JUMPI DUP1 PUSH4 0xD44B6478 EQ PUSH2 0x220 JUMPI DUP1 PUSH4 0xE767C798 EQ PUSH2 0x23C JUMPI DUP1 PUSH4 0xF2FDE38B EQ PUSH2 0x25A JUMPI DUP1 PUSH4 0xF9E58B28 EQ PUSH2 0x276 JUMPI PUSH2 0xE8 JUMP JUMPDEST DUP1 PUSH4 0x85DC3004 EQ PUSH2 0x1B6 JUMPI DUP1 PUSH4 0x8DA5CB5B EQ PUSH2 0x1D2 JUMPI DUP1 PUSH4 0x9F666D84 EQ PUSH2 0x1F0 JUMPI PUSH2 0xE8 JUMP JUMPDEST DUP1 PUSH4 0x441A3E70 GT PUSH2 0xC6 JUMPI DUP1 PUSH4 0x441A3E70 EQ PUSH2 0x156 JUMPI DUP1 PUSH4 0x51CDB77B EQ PUSH2 0x172 JUMPI DUP1 PUSH4 0x56F738CF EQ PUSH2 0x18E JUMPI DUP1 PUSH4 0x715018A6 EQ PUSH2 0x1AC JUMPI PUSH2 0xE8 JUMP JUMPDEST DUP1 PUSH4 0xF20B94C EQ PUSH2 0xEC JUMPI DUP1 PUSH4 0x1573F688 EQ PUSH2 0x11C JUMPI DUP1 PUSH4 0x18AFE170 EQ PUSH2 0x138 JUMPI JUMPDEST PUSH0 DUP1 REVERT JUMPDEST PUSH2 0x106 PUSH1 0x4 DUP1 CALLDATASIZE SUB DUP2 ADD SWAP1 PUSH2 0x101 SWAP2 SWAP1 PUSH2 0x11AE JUMP JUMPDEST PUSH2 0x294 JUMP JUMPDEST PUSH1 0x40 MLOAD PUSH2 0x113 SWAP2 SWAP1 PUSH2 0x11E8 JUMP JUMPDEST PUSH1 0x40 MLOAD DUP1 SWAP2 SUB SWAP1 RETURN JUMPDEST PUSH2 0x136 PUSH1 0x4 DUP1 CALLDATASIZE SUB DUP2 ADD SWAP1 PUSH2 0x131 SWAP2 SWAP1 PUSH2 0x1290 JUMP JUMPDEST PUSH2 0x2A9 JUMP JUMPDEST STOP JUMPDEST PUSH2 0x140 PUSH2 0x375 JUMP JUMPDEST PUSH1 0x40 MLOAD PUSH2 0x14D SWAP2 SWAP1 PUSH2 0x12DD JUMP JUMPDEST PUSH1 0x40 MLOAD DUP1 SWAP2 SUB SWAP1 RETURN JUMPDEST PUSH2 0x170 PUSH1 0x4 DUP1 CALLDATASIZE SUB DUP2 ADD SWAP1 PUSH2 0x16B SWAP2 SWAP1 PUSH2 0x12F6 JUMP JUMPDEST PUSH2 0x39A JUMP JUMPDEST STOP JUMPDEST PUSH2 0x18C PUSH1 0x4 DUP1 CALLDATASIZE SUB DUP2 ADD SWAP1 PUSH2 0x187 SWAP2 SWAP1 PUSH2 0x12F6 JUMP JUMPDEST PUSH2 0x750 JUMP JUMPDEST STOP JUMPDEST PUSH2 0x196 PUSH2 0x8A4 JUMP JUMPDEST PUSH1 0x40 MLOAD PUSH2 0x1A3 SWAP2 SWAP1 PUSH2 0x138F JUMP JUMPDEST PUSH1 0x40 MLOAD DUP1 SWAP2 SUB SWAP1 RETURN JUMPDEST PUSH2 0x1B4 PUSH2 0x8C9 JUMP JUMPDEST STOP JUMPDEST PUSH2 0x1D0 PUSH1 0x4 DUP1 CALLDATASIZE SUB DUP2 ADD SWAP1 PUSH2 0x1CB SWAP2 SWAP1 PUSH2 0x13A8 JUMP JUMPDEST PUSH2 0x8DC JUMP JUMPDEST STOP JUMPDEST PUSH2 0x1DA PUSH2 0x927 JUMP JUMPDEST PUSH1 0x40 MLOAD PUSH2 0x1E7 SWAP2 SWAP1 PUSH2 0x12DD JUMP JUMPDEST PUSH1 0x40 MLOAD DUP1 SWAP2 SUB SWAP1 RETURN JUMPDEST PUSH2 0x20A PUSH1 0x4 DUP1 CALLDATASIZE SUB DUP2 ADD SWAP1 PUSH2 0x205 SWAP2 SWAP1 PUSH2 0x11AE JUMP JUMPDEST PUSH2 0x94E JUMP JUMPDEST PUSH1 0x40 MLOAD PUSH2 0x217 SWAP2 SWAP1 PUSH2 0x11E8 JUMP JUMPDEST PUSH1 0x40 MLOAD DUP1 SWAP2 SUB SWAP1 RETURN JUMPDEST PUSH2 0x23A PUSH1 0x4 DUP1 CALLDATASIZE SUB DUP2 ADD SWAP1 PUSH2 0x235 SWAP2 SWAP1 PUSH2 0x150F JUMP JUMPDEST PUSH2 0x963 JUMP JUMPDEST STOP JUMPDEST PUSH2 0x244 PUSH2 0xCA4 JUMP JUMPDEST PUSH1 0x40 MLOAD PUSH2 0x251 SWAP2 SWAP1 PUSH2 0x11E8 JUMP JUMPDEST PUSH1 0x40 MLOAD DUP1 SWAP2 SUB SWAP1 RETURN JUMPDEST PUSH2 0x274 PUSH1 0x4 DUP1 CALLDATASIZE SUB DUP2 ADD SWAP1 PUSH2 0x26F SWAP2 SWAP1 PUSH2 0x13A8 JUMP JUMPDEST PUSH2 0xCAA JUMP JUMPDEST STOP JUMPDEST PUSH2 0x27E PUSH2 0xD2E JUMP JUMPDEST PUSH1 0x40 MLOAD PUSH2 0x28B SWAP2 SWAP1 PUSH2 0x15AF JUMP JUMPDEST PUSH1 0x40 MLOAD DUP1 SWAP2 SUB SWAP1 RETURN JUMPDEST PUSH1 0x9 PUSH1 0x20 MSTORE DUP1 PUSH0 MSTORE PUSH1 0x40 PUSH0 KECCAK256 PUSH0 SWAP2 POP SWAP1 POP SLOAD DUP2 JUMP JUMPDEST PUSH2 0x2B1 PUSH2 0xD53 JUMP JUMPDEST DUP1 PUSH1 0x5 PUSH0 DUP5 PUSH20 0xFFFFFFFFFFFFFFFFFFFFFFFFFFFFFFFFFFFFFFFF AND PUSH20 0xFFFFFFFFFFFFFFFFFFFFFFFFFFFFFFFFFFFFFFFF AND DUP2 MSTORE PUSH1 0x20 ADD SWAP1 DUP2 MSTORE PUSH1 0x20 ADD PUSH0 KECCAK256 PUSH0 PUSH2 0x100 EXP DUP2 SLOAD DUP2 PUSH1 0xFF MUL NOT AND SWAP1 DUP4 ISZERO ISZERO MUL OR SWAP1 SSTORE POP DUP2 PUSH20 0xFFFFFFFFFFFFFFFFFFFFFFFFFFFFFFFFFFFFFFFF AND PUSH2 0x324 PUSH2 0xDDA JUMP JUMPDEST PUSH20 0xFFFFFFFFFFFFFFFFFFFFFFFFFFFFFFFFFFFFFFFF AND PUSH32 0x6ACF3AFC37630E6F3E6B7176F7C4F8A3FD260B3F52FBCA69F34D6DB2D4FBD897 DUP4 PUSH1 0x40 MLOAD PUSH2 0x369 SWAP2 SWAP1 PUSH2 0x15D7 JUMP JUMPDEST PUSH1 0x40 MLOAD DUP1 SWAP2 SUB SWAP1 LOG3 POP POP JUMP JUMPDEST PUSH1 0x3 PUSH0 SWAP1 SLOAD SWAP1 PUSH2 0x100 EXP SWAP1 DIV PUSH20 0xFFFFFFFFFFFFFFFFFFFFFFFFFFFFFFFFFFFFFFFF AND DUP2 JUMP JUMPDEST PUSH0 PUSH1 0x6 PUSH0 DUP5 DUP2 MSTORE PUSH1 0x20 ADD SWAP1 DUP2 MSTORE PUSH1 0x20 ADD PUSH0 KECCAK256 SLOAD EQ DUP1 ISZERO PUSH2 0x3D7 JUMPI POP TIMESTAMP PUSH1 0x4 SLOAD PUSH1 0x6 PUSH0 DUP6 DUP2 MSTORE PUSH1 0x20 ADD SWAP1 DUP2 MSTORE PUSH1 0x20 ADD PUSH0 KECCAK256 SLOAD PUSH2 0x3D5 SWAP2 SWAP1 PUSH2 0x161D JUMP JUMPDEST GT JUMPDEST PUSH2 0x416 JUMPI PUSH1 0x40 MLOAD PUSH32 0x8C379A000000000000000000000000000000000000000000000000000000000 DUP2 MSTORE PUSH1 0x4 ADD PUSH2 0x40D SWAP1 PUSH2 0x16AA JUMP JUMPDEST PUSH1 0x40 MLOAD DUP1 SWAP2 SUB SWAP1 REVERT JUMPDEST PUSH2 0x41E PUSH2 0xDDA JUMP JUMPDEST PUSH20 0xFFFFFFFFFFFFFFFFFFFFFFFFFFFFFFFFFFFFFFFF AND PUSH1 0x1 PUSH0 SWAP1 SLOAD SWAP1 PUSH2 0x100 EXP SWAP1 DIV PUSH20 0xFFFFFFFFFFFFFFFFFFFFFFFFFFFFFFFFFFFFFFFF AND PUSH20 0xFFFFFFFFFFFFFFFFFFFFFFFFFFFFFFFFFFFFFFFF AND PUSH4 0x6352211E DUP5 PUSH1 0x40 MLOAD DUP3 PUSH4 0xFFFFFFFF AND PUSH1 0xE0 SHL DUP2 MSTORE PUSH1 0x4 ADD PUSH2 0x48E SWAP2 SWAP1 PUSH2 0x11E8 JUMP JUMPDEST PUSH1 0x20 PUSH1 0x40 MLOAD DUP1 DUP4 SUB DUP2 DUP7 GAS STATICCALL ISZERO DUP1 ISZERO PUSH2 0x4A9 JUMPI RETURNDATASIZE PUSH0 DUP1 RETURNDATACOPY RETURNDATASIZE PUSH0 REVERT JUMPDEST POP POP POP POP PUSH1 0x40 MLOAD RETURNDATASIZE PUSH1 0x1F NOT PUSH1 0x1F DUP3 ADD AND DUP3 ADD DUP1 PUSH1 0x40 MSTORE POP DUP2 ADD SWAP1 PUSH2 0x4CD SWAP2 SWAP1 PUSH2 0x16DC JUMP JUMPDEST PUSH20 0xFFFFFFFFFFFFFFFFFFFFFFFFFFFFFFFFFFFFFFFF AND EQ PUSH2 0x523 JUMPI PUSH1 0x40 MLOAD PUSH32 0x8C379A000000000000000000000000000000000000000000000000000000000 DUP2 MSTORE PUSH1 0x4 ADD PUSH2 0x51A SWAP1 PUSH2 0x1751 JUMP JUMPDEST PUSH1 0x40 MLOAD DUP1 SWAP2 SUB SWAP1 REVERT JUMPDEST PUSH0 DUP2 GT PUSH2 0x565 JUMPI PUSH1 0x40 MLOAD PUSH32 0x8C379A000000000000000000000000000000000000000000000000000000000 DUP2 MSTORE PUSH1 0x4 ADD PUSH2 0x55C SWAP1 PUSH2 0x17B9 JUMP JUMPDEST PUSH1 0x40 MLOAD DUP1 SWAP2 SUB SWAP1 REVERT JUMPDEST DUP1 PUSH1 0x9 PUSH0 DUP5 DUP2 MSTORE PUSH1 0x20 ADD SWAP1 DUP2 MSTORE PUSH1 0x20 ADD PUSH0 KECCAK256 SLOAD PUSH2 0x582 SWAP2 SWAP1 PUSH2 0x161D JUMP JUMPDEST PUSH1 0x7 PUSH0 DUP5 DUP2 MSTORE PUSH1 0x20 ADD SWAP1 DUP2 MSTORE PUSH1 0x20 ADD PUSH0 KECCAK256 SLOAD PUSH1 0x8 PUSH0 DUP6 DUP2 MSTORE PUSH1 0x20 ADD SWAP1 DUP2 MSTORE PUSH1 0x20 ADD PUSH0 KECCAK256 SLOAD PUSH2 0x5B0 SWAP2 SWAP1 PUSH2 0x17D7 JUMP JUMPDEST LT ISZERO PUSH2 0x5F1 JUMPI PUSH1 0x40 MLOAD PUSH32 0x8C379A000000000000000000000000000000000000000000000000000000000 DUP2 MSTORE PUSH1 0x4 ADD PUSH2 0x5E8 SWAP1 PUSH2 0x1854 JUMP JUMPDEST PUSH1 0x40 MLOAD DUP1 SWAP2 SUB SWAP1 REVERT JUMPDEST PUSH1 0x2 PUSH0 SWAP1 SLOAD SWAP1 PUSH2 0x100 EXP SWAP1 DIV PUSH20 0xFFFFFFFFFFFFFFFFFFFFFFFFFFFFFFFFFFFFFFFF AND PUSH20 0xFFFFFFFFFFFFFFFFFFFFFFFFFFFFFFFFFFFFFFFF AND PUSH4 0x23B872DD PUSH1 0x3 PUSH0 SWAP1 SLOAD SWAP1 PUSH2 0x100 EXP SWAP1 DIV PUSH20 0xFFFFFFFFFFFFFFFFFFFFFFFFFFFFFFFFFFFFFFFF AND PUSH2 0x658 PUSH2 0xDDA JUMP JUMPDEST DUP5 PUSH1 0x40 MLOAD DUP5 PUSH4 0xFFFFFFFF AND PUSH1 0xE0 SHL DUP2 MSTORE PUSH1 0x4 ADD PUSH2 0x677 SWAP4 SWAP3 SWAP2 SWAP1 PUSH2 0x1872 JUMP JUMPDEST PUSH1 0x20 PUSH1 0x40 MLOAD DUP1 DUP4 SUB DUP2 PUSH0 DUP8 GAS CALL ISZERO DUP1 ISZERO PUSH2 0x693 JUMPI RETURNDATASIZE PUSH0 DUP1 RETURNDATACOPY RETURNDATASIZE PUSH0 REVERT JUMPDEST POP POP POP POP PUSH1 0x40 MLOAD RETURNDATASIZE PUSH1 0x1F NOT PUSH1 0x1F DUP3 ADD AND DUP3 ADD DUP1 PUSH1 0x40 MSTORE POP DUP2 ADD SWAP1 PUSH2 0x6B7 SWAP2 SWAP1 PUSH2 0x18BB JUMP JUMPDEST POP TIMESTAMP PUSH1 0x6 PUSH0 DUP5 DUP2 MSTORE PUSH1 0x20 ADD SWAP1 DUP2 MSTORE PUSH1 0x20 ADD PUSH0 KECCAK256 DUP2 SWAP1 SSTORE POP DUP1 PUSH1 0x9 PUSH0 DUP5 DUP2 MSTORE PUSH1 0x20 ADD SWAP1 DUP2 MSTORE PUSH1 0x20 ADD PUSH0 KECCAK256 PUSH0 DUP3 DUP3 SLOAD PUSH2 0x6EE SWAP2 SWAP1 PUSH2 0x161D JUMP JUMPDEST SWAP3 POP POP DUP2 SWAP1 SSTORE POP PUSH2 0x6FD PUSH2 0xDDA JUMP JUMPDEST PUSH20 0xFFFFFFFFFFFFFFFFFFFFFFFFFFFFFFFFFFFFFFFF AND PUSH32 0xF279E6A1F5E320CCA91135676D9CB6E44CA8A08C0B88342BCDB1144F6511B568 DUP4 DUP4 PUSH1 0x40 MLOAD PUSH2 0x744 SWAP3 SWAP2 SWAP1 PUSH2 0x18E6 JUMP JUMPDEST PUSH1 0x40 MLOAD DUP1 SWAP2 SUB SWAP1 LOG2 POP POP JUMP JUMPDEST PUSH1 0x5 PUSH0 PUSH2 0x75B PUSH2 0xDDA JUMP JUMPDEST PUSH20 0xFFFFFFFFFFFFFFFFFFFFFFFFFFFFFFFFFFFFFFFF AND PUSH20 0xFFFFFFFFFFFFFFFFFFFFFFFFFFFFFFFFFFFFFFFF AND DUP2 MSTORE PUSH1 0x20 ADD SWAP1 DUP2 MSTORE PUSH1 0x20 ADD PUSH0 KECCAK256 PUSH0 SWAP1 SLOAD SWAP1 PUSH2 0x100 EXP SWAP1 DIV PUSH1 0xFF AND PUSH2 0x7E0 JUMPI PUSH1 0x40 MLOAD PUSH32 0x8C379A000000000000000000000000000000000000000000000000000000000 DUP2 MSTORE PUSH1 0x4 ADD PUSH2 0x7D7 SWAP1 PUSH2 0x1957 JUMP JUMPDEST PUSH1 0x40 MLOAD DUP1 SWAP2 SUB SWAP1 REVERT JUMPDEST PUSH0 DUP2 GT PUSH2 0x822 JUMPI PUSH1 0x40 MLOAD PUSH32 0x8C379A000000000000000000000000000000000000000000000000000000000 DUP2 MSTORE PUSH1 0x4 ADD PUSH2 0x819 SWAP1 PUSH2 0x17B9 JUMP JUMPDEST PUSH1 0x40 MLOAD DUP1 SWAP2 SUB SWAP1 REVERT JUMPDEST DUP1 PUSH1 0x7 PUSH0 DUP5 DUP2 MSTORE PUSH1 0x20 ADD SWAP1 DUP2 MSTORE PUSH1 0x20 ADD PUSH0 KECCAK256 PUSH0 DUP3 DUP3 SLOAD PUSH2 0x842 SWAP2 SWAP1 PUSH2 0x161D JUMP JUMPDEST SWAP3 POP POP DUP2 SWAP1 SSTORE POP PUSH2 0x851 PUSH2 0xDDA JUMP JUMPDEST PUSH20 0xFFFFFFFFFFFFFFFFFFFFFFFFFFFFFFFFFFFFFFFF AND PUSH32 0xC25DCB745945A227E2139CC3F70645F2B61A352FE9E7F8D44AC19571F4B89EFF DUP4 DUP4 PUSH1 0x40 MLOAD PUSH2 0x898 SWAP3 SWAP2 SWAP1 PUSH2 0x18E6 JUMP JUMPDEST PUSH1 0x40 MLOAD DUP1 SWAP2 SUB SWAP1 LOG2 POP POP JUMP JUMPDEST PUSH1 0x2 PUSH0 SWAP1 SLOAD SWAP1 PUSH2 0x100 EXP SWAP1 DIV PUSH20 0xFFFFFFFFFFFFFFFFFFFFFFFFFFFFFFFFFFFFFFFF AND DUP2 JUMP JUMPDEST PUSH2 0x8D1 PUSH2 0xD53 JUMP JUMPDEST PUSH2 0x8DA PUSH0 PUSH2 0xDE1 JUMP JUMPDEST JUMP JUMPDEST PUSH2 0x8E4 PUSH2 0xD53 JUMP JUMPDEST DUP1 PUSH1 0x3 PUSH0 PUSH2 0x100 EXP DUP2 SLOAD DUP2 PUSH20 0xFFFFFFFFFFFFFFFFFFFFFFFFFFFFFFFFFFFFFFFF MUL NOT AND SWAP1 DUP4 PUSH20 0xFFFFFFFFFFFFFFFFFFFFFFFFFFFFFFFFFFFFFFFF AND MUL OR SWAP1 SSTORE POP POP JUMP JUMPDEST PUSH0 DUP1 PUSH0 SWAP1 SLOAD SWAP1 PUSH2 0x100 EXP SWAP1 DIV PUSH20 0xFFFFFFFFFFFFFFFFFFFFFFFFFFFFFFFFFFFFFFFF AND SWAP1 POP SWAP1 JUMP JUMPDEST PUSH1 0x8 PUSH1 0x20 MSTORE DUP1 PUSH0 MSTORE PUSH1 0x40 PUSH0 KECCAK256 PUSH0 SWAP2 POP SWAP1 POP SLOAD DUP2 JUMP JUMPDEST PUSH0 DUP4 GT PUSH2 0x9A5 JUMPI PUSH1 0x40 MLOAD PUSH32 0x8C379A000000000000000000000000000000000000000000000000000000000 DUP2 MSTORE PUSH1 0x4 ADD PUSH2 0x99C SWAP1 PUSH2 0x17B9 JUMP JUMPDEST PUSH1 0x40 MLOAD DUP1 SWAP2 SUB SWAP1 REVERT JUMPDEST PUSH1 0x5 PUSH0 DUP4 PUSH20 0xFFFFFFFFFFFFFFFFFFFFFFFFFFFFFFFFFFFFFFFF AND PUSH20 0xFFFFFFFFFFFFFFFFFFFFFFFFFFFFFFFFFFFFFFFF AND DUP2 MSTORE PUSH1 0x20 ADD SWAP1 DUP2 MSTORE PUSH1 0x20 ADD PUSH0 KECCAK256 PUSH0 SWAP1 SLOAD SWAP1 PUSH2 0x100 EXP SWAP1 DIV PUSH1 0xFF AND PUSH2 0xA2E JUMPI PUSH1 0x40 MLOAD PUSH32 0x8C379A000000000000000000000000000000000000000000000000000000000 DUP2 MSTORE PUSH1 0x4 ADD PUSH2 0xA25 SWAP1 PUSH2 0x1957 JUMP JUMPDEST PUSH1 0x40 MLOAD DUP1 SWAP2 SUB SWAP1 REVERT JUMPDEST PUSH2 0xA36 PUSH2 0xDDA JUMP JUMPDEST PUSH20 0xFFFFFFFFFFFFFFFFFFFFFFFFFFFFFFFFFFFFFFFF AND PUSH1 0x1 PUSH0 SWAP1 SLOAD SWAP1 PUSH2 0x100 EXP SWAP1 DIV PUSH20 0xFFFFFFFFFFFFFFFFFFFFFFFFFFFFFFFFFFFFFFFF AND PUSH20 0xFFFFFFFFFFFFFFFFFFFFFFFFFFFFFFFFFFFFFFFF AND PUSH4 0x6352211E DUP7 PUSH1 0x40 MLOAD DUP3 PUSH4 0xFFFFFFFF AND PUSH1 0xE0 SHL DUP2 MSTORE PUSH1 0x4 ADD PUSH2 0xAA6 SWAP2 SWAP1 PUSH2 0x11E8 JUMP JUMPDEST PUSH1 0x20 PUSH1 0x40 MLOAD DUP1 DUP4 SUB DUP2 DUP7 GAS STATICCALL ISZERO DUP1 ISZERO PUSH2 0xAC1 JUMPI RETURNDATASIZE PUSH0 DUP1 RETURNDATACOPY RETURNDATASIZE PUSH0 REVERT JUMPDEST POP POP POP POP PUSH1 0x40 MLOAD RETURNDATASIZE PUSH1 0x1F NOT PUSH1 0x1F DUP3 ADD AND DUP3 ADD DUP1 PUSH1 0x40 MSTORE POP DUP2 ADD SWAP1 PUSH2 0xAE5 SWAP2 SWAP1 PUSH2 0x16DC JUMP JUMPDEST PUSH20 0xFFFFFFFFFFFFFFFFFFFFFFFFFFFFFFFFFFFFFFFF AND EQ PUSH2 0xB3B JUMPI PUSH1 0x40 MLOAD PUSH32 0x8C379A000000000000000000000000000000000000000000000000000000000 DUP2 MSTORE PUSH1 0x4 ADD PUSH2 0xB32 SWAP1 PUSH2 0x1751 JUMP JUMPDEST PUSH1 0x40 MLOAD DUP1 SWAP2 SUB SWAP1 REVERT JUMPDEST PUSH0 PUSH1 0x8 PUSH0 DUP7 DUP2 MSTORE PUSH1 0x20 ADD SWAP1 DUP2 MSTORE PUSH1 0x20 ADD PUSH0 KECCAK256 SLOAD DUP6 DUP6 PUSH2 0xB58 PUSH2 0xDDA JUMP JUMPDEST PUSH1 0x40 MLOAD PUSH1 0x20 ADD PUSH2 0xB6B SWAP5 SWAP4 SWAP3 SWAP2 SWAP1 PUSH2 0x1975 JUMP JUMPDEST PUSH1 0x40 MLOAD PUSH1 0x20 DUP2 DUP4 SUB SUB DUP2 MSTORE SWAP1 PUSH1 0x40 MSTORE DUP1 MLOAD SWAP1 PUSH1 0x20 ADD KECCAK256 SWAP1 POP PUSH0 PUSH2 0xB97 DUP4 DUP4 PUSH2 0xEA2 SWAP1 SWAP2 SWAP1 PUSH4 0xFFFFFFFF AND JUMP JUMPDEST SWAP1 POP DUP4 PUSH20 0xFFFFFFFFFFFFFFFFFFFFFFFFFFFFFFFFFFFFFFFF AND DUP2 PUSH20 0xFFFFFFFFFFFFFFFFFFFFFFFFFFFFFFFFFFFFFFFF AND EQ PUSH2 0xC07 JUMPI PUSH1 0x40 MLOAD PUSH32 0x8C379A000000000000000000000000000000000000000000000000000000000 DUP2 MSTORE PUSH1 0x4 ADD PUSH2 0xBFE SWAP1 PUSH2 0x1A02 JUMP JUMPDEST PUSH1 0x40 MLOAD DUP1 SWAP2 SUB SWAP1 REVERT JUMPDEST DUP5 PUSH1 0x8 PUSH0 DUP9 DUP2 MSTORE PUSH1 0x20 ADD SWAP1 DUP2 MSTORE PUSH1 0x20 ADD PUSH0 KECCAK256 PUSH0 DUP3 DUP3 SLOAD PUSH2 0xC27 SWAP2 SWAP1 PUSH2 0x161D JUMP JUMPDEST SWAP3 POP POP DUP2 SWAP1 SSTORE POP DUP4 PUSH20 0xFFFFFFFFFFFFFFFFFFFFFFFFFFFFFFFFFFFFFFFF AND PUSH2 0xC4D PUSH2 0xDDA JUMP JUMPDEST PUSH20 0xFFFFFFFFFFFFFFFFFFFFFFFFFFFFFFFFFFFFFFFF AND PUSH32 0xCA8BF70624EC0ECFC925E5746A0E4625AFE01129043C1C7201C7CE01075EA3AC DUP9 DUP9 PUSH1 0x40 MLOAD PUSH2 0xC94 SWAP3 SWAP2 SWAP1 PUSH2 0x18E6 JUMP JUMPDEST PUSH1 0x40 MLOAD DUP1 SWAP2 SUB SWAP1 LOG3 POP POP POP POP POP POP JUMP JUMPDEST PUSH1 0x4 SLOAD DUP2 JUMP JUMPDEST PUSH2 0xCB2 PUSH2 0xD53 JUMP JUMPDEST PUSH0 PUSH20 0xFFFFFFFFFFFFFFFFFFFFFFFFFFFFFFFFFFFFFFFF AND DUP2 PUSH20 0xFFFFFFFFFFFFFFFFFFFFFFFFFFFFFFFFFFFFFFFF AND SUB PUSH2 0xD22 JUMPI PUSH0 PUSH1 0x40 MLOAD PUSH32 0x1E4FBDF700000000000000000000000000000000000000000000000000000000 DUP2 MSTORE PUSH1 0x4 ADD PUSH2 0xD19 SWAP2 SWAP1 PUSH2 0x12DD JUMP JUMPDEST PUSH1 0x40 MLOAD DUP1 SWAP2 SUB SWAP1 REVERT JUMPDEST PUSH2 0xD2B DUP2 PUSH2 0xDE1 JUMP JUMPDEST POP JUMP JUMPDEST PUSH1 0x1 PUSH0 SWAP1 SLOAD SWAP1 PUSH2 0x100 EXP SWAP1 DIV PUSH20 0xFFFFFFFFFFFFFFFFFFFFFFFFFFFFFFFFFFFFFFFF AND DUP2 JUMP JUMPDEST PUSH2 0xD5B PUSH2 0xDDA JUMP JUMPDEST PUSH20 0xFFFFFFFFFFFFFFFFFFFFFFFFFFFFFFFFFFFFFFFF AND PUSH2 0xD79 PUSH2 0x927 JUMP JUMPDEST PUSH20 0xFFFFFFFFFFFFFFFFFFFFFFFFFFFFFFFFFFFFFFFF AND EQ PUSH2 0xDD8 JUMPI PUSH2 0xD9C PUSH2 0xDDA JUMP JUMPDEST PUSH1 0x40 MLOAD PUSH32 0x118CDAA700000000000000000000000000000000000000000000000000000000 DUP2 MSTORE PUSH1 0x4 ADD PUSH2 0xDCF SWAP2 SWAP1 PUSH2 0x12DD JUMP JUMPDEST PUSH1 0x40 MLOAD DUP1 SWAP2 SUB SWAP1 REVERT JUMPDEST JUMP JUMPDEST PUSH0 CALLER SWAP1 POP SWAP1 JUMP JUMPDEST PUSH0 DUP1 PUSH0 SWAP1 SLOAD SWAP1 PUSH2 0x100 EXP SWAP1 DIV PUSH20 0xFFFFFFFFFFFFFFFFFFFFFFFFFFFFFFFFFFFFFFFF AND SWAP1 POP DUP2 PUSH0 DUP1 PUSH2 0x100 EXP DUP2 SLOAD DUP2 PUSH20 0xFFFFFFFFFFFFFFFFFFFFFFFFFFFFFFFFFFFFFFFF MUL NOT AND SWAP1 DUP4 PUSH20 0xFFFFFFFFFFFFFFFFFFFFFFFFFFFFFFFFFFFFFFFF AND MUL OR SWAP1 SSTORE POP DUP2 PUSH20 0xFFFFFFFFFFFFFFFFFFFFFFFFFFFFFFFFFFFFFFFF AND DUP2 PUSH20 0xFFFFFFFFFFFFFFFFFFFFFFFFFFFFFFFFFFFFFFFF AND PUSH32 0x8BE0079C531659141344CD1FD0A4F28419497F9722A3DAAFE3B4186F6B6457E0 PUSH1 0x40 MLOAD PUSH1 0x40 MLOAD DUP1 SWAP2 SUB SWAP1 LOG3 POP POP JUMP JUMPDEST PUSH0 DUP1 PUSH0 DUP1 PUSH2 0xEB0 DUP7 DUP7 PUSH2 0xECC JUMP JUMPDEST SWAP3 POP SWAP3 POP SWAP3 POP PUSH2 0xEC0 DUP3 DUP3 PUSH2 0xF21 JUMP JUMPDEST DUP3 SWAP4 POP POP POP POP SWAP3 SWAP2 POP POP JUMP JUMPDEST PUSH0 DUP1 PUSH0 PUSH1 0x41 DUP5 MLOAD SUB PUSH2 0xF0C JUMPI PUSH0 DUP1 PUSH0 PUSH1 0x20 DUP8 ADD MLOAD SWAP3 POP PUSH1 0x40 DUP8 ADD MLOAD SWAP2 POP PUSH1 0x60 DUP8 ADD MLOAD PUSH0 BYTE SWAP1 POP PUSH2 0xEFE DUP9 DUP3 DUP6 DUP6 PUSH2 0x1083 JUMP JUMPDEST SWAP6 POP SWAP6 POP SWAP6 POP POP POP POP PUSH2 0xF1A JUMP JUMPDEST PUSH0 PUSH1 0x2 DUP6 MLOAD PUSH0 SHL SWAP3 POP SWAP3 POP SWAP3 POP JUMPDEST SWAP3 POP SWAP3 POP SWAP3 JUMP JUMPDEST PUSH0 PUSH1 0x3 DUP2 GT ISZERO PUSH2 0xF34 JUMPI PUSH2 0xF33 PUSH2 0x1A20 JUMP JUMPDEST JUMPDEST DUP3 PUSH1 0x3 DUP2 GT ISZERO PUSH2 0xF47 JUMPI PUSH2 0xF46 PUSH2 0x1A20 JUMP JUMPDEST JUMPDEST SUB ISZERO PUSH2 0x107F JUMPI PUSH1 0x1 PUSH1 0x3 DUP2 GT ISZERO PUSH2 0xF61 JUMPI PUSH2 0xF60 PUSH2 0x1A20 JUMP JUMPDEST JUMPDEST DUP3 PUSH1 0x3 DUP2 GT ISZERO PUSH2 0xF74 JUMPI PUSH2 0xF73 PUSH2 0x1A20 JUMP JUMPDEST JUMPDEST SUB PUSH2 0xFAB JUMPI PUSH1 0x40 MLOAD PUSH32 0xF645EEDF00000000000000000000000000000000000000000000000000000000 DUP2 MSTORE PUSH1 0x4 ADD PUSH1 0x40 MLOAD DUP1 SWAP2 SUB SWAP1 REVERT JUMPDEST PUSH1 0x2 PUSH1 0x3 DUP2 GT ISZERO PUSH2 0xFBF JUMPI PUSH2 0xFBE PUSH2 0x1A20 JUMP JUMPDEST JUMPDEST DUP3 PUSH1 0x3 DUP2 GT ISZERO PUSH2 0xFD2 JUMPI PUSH2 0xFD1 PUSH2 0x1A20 JUMP JUMPDEST JUMPDEST SUB PUSH2 0x1016 JUMPI DUP1 PUSH0 SHR PUSH1 0x40 MLOAD PUSH32 0xFCE698F700000000000000000000000000000000000000000000000000000000 DUP2 MSTORE PUSH1 0x4 ADD PUSH2 0x100D SWAP2 SWAP1 PUSH2 0x11E8 JUMP JUMPDEST PUSH1 0x40 MLOAD DUP1 SWAP2 SUB SWAP1 REVERT JUMPDEST PUSH1 0x3 DUP1 DUP2 GT ISZERO PUSH2 0x1029 JUMPI PUSH2 0x1028 PUSH2 0x1A20 JUMP JUMPDEST JUMPDEST DUP3 PUSH1 0x3 DUP2 GT ISZERO PUSH2 0x103C JUMPI PUSH2 0x103B PUSH2 0x1A20 JUMP JUMPDEST JUMPDEST SUB PUSH2 0x107E JUMPI DUP1 PUSH1 0x40 MLOAD PUSH32 0xD78BCE0C00000000000000000000000000000000000000000000000000000000 DUP2 MSTORE PUSH1 0x4 ADD PUSH2 0x1075 SWAP2 SWAP1 PUSH2 0x1A65 JUMP JUMPDEST PUSH1 0x40 MLOAD DUP1 SWAP2 SUB SWAP1 REVERT JUMPDEST JUMPDEST POP POP JUMP JUMPDEST PUSH0 DUP1 PUSH0 PUSH32 0x7FFFFFFFFFFFFFFFFFFFFFFFFFFFFFFF5D576E7357A4501DDFE92F46681B20A0 DUP5 PUSH0 SHR GT ISZERO PUSH2 0x10BF JUMPI PUSH0 PUSH1 0x3 DUP6 SWAP3 POP SWAP3 POP SWAP3 POP PUSH2 0x1160 JUMP JUMPDEST PUSH0 PUSH1 0x1 DUP9 DUP9 DUP9 DUP9 PUSH1 0x40 MLOAD PUSH0 DUP2 MSTORE PUSH1 0x20 ADD PUSH1 0x40 MSTORE PUSH1 0x40 MLOAD PUSH2 0x10E2 SWAP5 SWAP4 SWAP3 SWAP2 SWAP1 PUSH2 0x1A99 JUMP JUMPDEST PUSH1 0x20 PUSH1 0x40 MLOAD PUSH1 0x20 DUP2 SUB SWAP1 DUP1 DUP5 SUB SWAP1 DUP6 GAS STATICCALL ISZERO DUP1 ISZERO PUSH2 0x1102 JUMPI RETURNDATASIZE PUSH0 DUP1 RETURNDATACOPY RETURNDATASIZE PUSH0 REVERT JUMPDEST POP POP POP PUSH1 0x20 PUSH1 0x40 MLOAD SUB MLOAD SWAP1 POP PUSH0 PUSH20 0xFFFFFFFFFFFFFFFFFFFFFFFFFFFFFFFFFFFFFFFF AND DUP2 PUSH20 0xFFFFFFFFFFFFFFFFFFFFFFFFFFFFFFFFFFFFFFFF AND SUB PUSH2 0x1153 JUMPI PUSH0 PUSH1 0x1 PUSH0 DUP1 SHL SWAP4 POP SWAP4 POP SWAP4 POP POP PUSH2 0x1160 JUMP JUMPDEST DUP1 PUSH0 DUP1 PUSH0 SHL SWAP4 POP SWAP4 POP SWAP4 POP POP JUMPDEST SWAP5 POP SWAP5 POP SWAP5 SWAP2 POP POP JUMP JUMPDEST PUSH0 PUSH1 0x40 MLOAD SWAP1 POP SWAP1 JUMP JUMPDEST PUSH0 DUP1 REVERT JUMPDEST PUSH0 DUP1 REVERT JUMPDEST PUSH0 DUP2 SWAP1 POP SWAP2 SWAP1 POP JUMP JUMPDEST PUSH2 0x118D DUP2 PUSH2 0x117B JUMP JUMPDEST DUP2 EQ PUSH2 0x1197 JUMPI PUSH0 DUP1 REVERT JUMPDEST POP JUMP JUMPDEST PUSH0 DUP2 CALLDATALOAD SWAP1 POP PUSH2 0x11A8 DUP2 PUSH2 0x1184 JUMP JUMPDEST SWAP3 SWAP2 POP POP JUMP JUMPDEST PUSH0 PUSH1 0x20 DUP3 DUP5 SUB SLT ISZERO PUSH2 0x11C3 JUMPI PUSH2 0x11C2 PUSH2 0x1173 JUMP JUMPDEST JUMPDEST PUSH0 PUSH2 0x11D0 DUP5 DUP3 DUP6 ADD PUSH2 0x119A JUMP JUMPDEST SWAP2 POP POP SWAP3 SWAP2 POP POP JUMP JUMPDEST PUSH2 0x11E2 DUP2 PUSH2 0x117B JUMP JUMPDEST DUP3 MSTORE POP POP JUMP JUMPDEST PUSH0 PUSH1 0x20 DUP3 ADD SWAP1 POP PUSH2 0x11FB PUSH0 DUP4 ADD DUP5 PUSH2 0x11D9 JUMP JUMPDEST SWAP3 SWAP2 POP POP JUMP JUMPDEST PUSH0 PUSH20 0xFFFFFFFFFFFFFFFFFFFFFFFFFFFFFFFFFFFFFFFF DUP3 AND SWAP1 POP SWAP2 SWAP1 POP JUMP JUMPDEST PUSH0 PUSH2 0x122A DUP3 PUSH2 0x1201 JUMP JUMPDEST SWAP1 POP SWAP2 SWAP1 POP JUMP JUMPDEST PUSH2 0x123A DUP2 PUSH2 0x1220 JUMP JUMPDEST DUP2 EQ PUSH2 0x1244 JUMPI PUSH0 DUP1 REVERT JUMPDEST POP JUMP JUMPDEST PUSH0 DUP2 CALLDATALOAD SWAP1 POP PUSH2 0x1255 DUP2 PUSH2 0x1231 JUMP JUMPDEST SWAP3 SWAP2 POP POP JUMP JUMPDEST PUSH0 DUP2 ISZERO ISZERO SWAP1 POP SWAP2 SWAP1 POP JUMP JUMPDEST PUSH2 0x126F DUP2 PUSH2 0x125B JUMP JUMPDEST DUP2 EQ PUSH2 0x1279 JUMPI PUSH0 DUP1 REVERT JUMPDEST POP JUMP JUMPDEST PUSH0 DUP2 CALLDATALOAD SWAP1 POP PUSH2 0x128A DUP2 PUSH2 0x1266 JUMP JUMPDEST SWAP3 SWAP2 POP POP JUMP JUMPDEST PUSH0 DUP1 PUSH1 0x40 DUP4 DUP6 SUB SLT ISZERO PUSH2 0x12A6 JUMPI PUSH2 0x12A5 PUSH2 0x1173 JUMP JUMPDEST JUMPDEST PUSH0 PUSH2 0x12B3 DUP6 DUP3 DUP7 ADD PUSH2 0x1247 JUMP JUMPDEST SWAP3 POP POP PUSH1 0x20 PUSH2 0x12C4 DUP6 DUP3 DUP7 ADD PUSH2 0x127C JUMP JUMPDEST SWAP2 POP POP SWAP3 POP SWAP3 SWAP1 POP JUMP JUMPDEST PUSH2 0x12D7 DUP2 PUSH2 0x1220 JUMP JUMPDEST DUP3 MSTORE POP POP JUMP JUMPDEST PUSH0 PUSH1 0x20 DUP3 ADD SWAP1 POP PUSH2 0x12F0 PUSH0 DUP4 ADD DUP5 PUSH2 0x12CE JUMP JUMPDEST SWAP3 SWAP2 POP POP JUMP JUMPDEST PUSH0 DUP1 PUSH1 0x40 DUP4 DUP6 SUB SLT ISZERO PUSH2 0x130C JUMPI PUSH2 0x130B PUSH2 0x1173 JUMP JUMPDEST JUMPDEST PUSH0 PUSH2 0x1319 DUP6 DUP3 DUP7 ADD PUSH2 0x119A JUMP JUMPDEST SWAP3 POP POP PUSH1 0x20 PUSH2 0x132A DUP6 DUP3 DUP7 ADD PUSH2 0x119A JUMP JUMPDEST SWAP2 POP POP SWAP3 POP SWAP3 SWAP1 POP JUMP JUMPDEST PUSH0 DUP2 SWAP1 POP SWAP2 SWAP1 POP JUMP JUMPDEST PUSH0 PUSH2 0x1357 PUSH2 0x1352 PUSH2 0x134D DUP5 PUSH2 0x1201 JUMP JUMPDEST PUSH2 0x1334 JUMP JUMPDEST PUSH2 0x1201 JUMP JUMPDEST SWAP1 POP SWAP2 SWAP1 POP JUMP JUMPDEST PUSH0 PUSH2 0x1368 DUP3 PUSH2 0x133D JUMP JUMPDEST SWAP1 POP SWAP2 SWAP1 POP JUMP JUMPDEST PUSH0 PUSH2 0x1379 DUP3 PUSH2 0x135E JUMP JUMPDEST SWAP1 POP SWAP2 SWAP1 POP JUMP JUMPDEST PUSH2 0x1389 DUP2 PUSH2 0x136F JUMP JUMPDEST DUP3 MSTORE POP POP JUMP JUMPDEST PUSH0 PUSH1 0x20 DUP3 ADD SWAP1 POP PUSH2 0x13A2 PUSH0 DUP4 ADD DUP5 PUSH2 0x1380 JUMP JUMPDEST SWAP3 SWAP2 POP POP JUMP JUMPDEST PUSH0 PUSH1 0x20 DUP3 DUP5 SUB SLT ISZERO PUSH2 0x13BD JUMPI PUSH2 0x13BC PUSH2 0x1173 JUMP JUMPDEST JUMPDEST PUSH0 PUSH2 0x13CA DUP5 DUP3 DUP6 ADD PUSH2 0x1247 JUMP JUMPDEST SWAP2 POP POP SWAP3 SWAP2 POP POP JUMP JUMPDEST PUSH0 DUP1 REVERT JUMPDEST PUSH0 DUP1 REVERT JUMPDEST PUSH0 PUSH1 0x1F NOT PUSH1 0x1F DUP4 ADD AND SWAP1 POP SWAP2 SWAP1 POP JUMP JUMPDEST PUSH32 0x4E487B7100000000000000000000000000000000000000000000000000000000 PUSH0 MSTORE PUSH1 0x41 PUSH1 0x4 MSTORE PUSH1 0x24 PUSH0 REVERT JUMPDEST PUSH2 0x1421 DUP3 PUSH2 0x13DB JUMP JUMPDEST DUP2 ADD DUP2 DUP2 LT PUSH8 0xFFFFFFFFFFFFFFFF DUP3 GT OR ISZERO PUSH2 0x1440 JUMPI PUSH2 0x143F PUSH2 0x13EB JUMP JUMPDEST JUMPDEST DUP1 PUSH1 0x40 MSTORE POP POP POP JUMP JUMPDEST PUSH0 PUSH2 0x1452 PUSH2 0x116A JUMP JUMPDEST SWAP1 POP PUSH2 0x145E DUP3 DUP3 PUSH2 0x1418 JUMP JUMPDEST SWAP2 SWAP1 POP JUMP JUMPDEST PUSH0 PUSH8 0xFFFFFFFFFFFFFFFF DUP3 GT ISZERO PUSH2 0x147D JUMPI PUSH2 0x147C PUSH2 0x13EB JUMP JUMPDEST JUMPDEST PUSH2 0x1486 DUP3 PUSH2 0x13DB JUMP JUMPDEST SWAP1 POP PUSH1 0x20 DUP2 ADD SWAP1 POP SWAP2 SWAP1 POP JUMP JUMPDEST DUP3 DUP2 DUP4 CALLDATACOPY PUSH0 DUP4 DUP4 ADD MSTORE POP POP POP JUMP JUMPDEST PUSH0 PUSH2 0x14B3 PUSH2 0x14AE DUP5 PUSH2 0x1463 JUMP JUMPDEST PUSH2 0x1449 JUMP JUMPDEST SWAP1 POP DUP3 DUP2 MSTORE PUSH1 0x20 DUP2 ADD DUP5 DUP5 DUP5 ADD GT ISZERO PUSH2 0x14CF JUMPI PUSH2 0x14CE PUSH2 0x13D7 JUMP JUMPDEST JUMPDEST PUSH2 0x14DA DUP5 DUP3 DUP6 PUSH2 0x1493 JUMP JUMPDEST POP SWAP4 SWAP3 POP POP POP JUMP JUMPDEST PUSH0 DUP3 PUSH1 0x1F DUP4 ADD SLT PUSH2 0x14F6 JUMPI PUSH2 0x14F5 PUSH2 0x13D3 JUMP JUMPDEST JUMPDEST DUP2 CALLDATALOAD PUSH2 0x1506 DUP5 DUP3 PUSH1 0x20 DUP7 ADD PUSH2 0x14A1 JUMP JUMPDEST SWAP2 POP POP SWAP3 SWAP2 POP POP JUMP JUMPDEST PUSH0 DUP1 PUSH0 DUP1 PUSH1 0x80 DUP6 DUP8 SUB SLT ISZERO PUSH2 0x1527 JUMPI PUSH2 0x1526 PUSH2 0x1173 JUMP JUMPDEST JUMPDEST PUSH0 PUSH2 0x1534 DUP8 DUP3 DUP9 ADD PUSH2 0x119A JUMP JUMPDEST SWAP5 POP POP PUSH1 0x20 PUSH2 0x1545 DUP8 DUP3 DUP9 ADD PUSH2 0x119A JUMP JUMPDEST SWAP4 POP POP PUSH1 0x40 PUSH2 0x1556 DUP8 DUP3 DUP9 ADD PUSH2 0x1247 JUMP JUMPDEST SWAP3 POP POP PUSH1 0x60 DUP6 ADD CALLDATALOAD PUSH8 0xFFFFFFFFFFFFFFFF DUP2 GT ISZERO PUSH2 0x1577 JUMPI PUSH2 0x1576 PUSH2 0x1177 JUMP JUMPDEST JUMPDEST PUSH2 0x1583 DUP8 DUP3 DUP9 ADD PUSH2 0x14E2 JUMP JUMPDEST SWAP2 POP POP SWAP3 SWAP6 SWAP2 SWAP5 POP SWAP3 POP JUMP JUMPDEST PUSH0 PUSH2 0x1599 DUP3 PUSH2 0x135E JUMP JUMPDEST SWAP1 POP SWAP2 SWAP1 POP JUMP JUMPDEST PUSH2 0x15A9 DUP2 PUSH2 0x158F JUMP JUMPDEST DUP3 MSTORE POP POP JUMP JUMPDEST PUSH0 PUSH1 0x20 DUP3 ADD SWAP1 POP PUSH2 0x15C2 PUSH0 DUP4 ADD DUP5 PUSH2 0x15A0 JUMP JUMPDEST SWAP3 SWAP2 POP POP JUMP JUMPDEST PUSH2 0x15D1 DUP2 PUSH2 0x125B JUMP JUMPDEST DUP3 MSTORE POP POP JUMP JUMPDEST PUSH0 PUSH1 0x20 DUP3 ADD SWAP1 POP PUSH2 0x15EA PUSH0 DUP4 ADD DUP5 PUSH2 0x15C8 JUMP JUMPDEST SWAP3 SWAP2 POP POP JUMP JUMPDEST PUSH32 0x4E487B7100000000000000000000000000000000000000000000000000000000 PUSH0 MSTORE PUSH1 0x11 PUSH1 0x4 MSTORE PUSH1 0x24 PUSH0 REVERT JUMPDEST PUSH0 PUSH2 0x1627 DUP3 PUSH2 0x117B JUMP JUMPDEST SWAP2 POP PUSH2 0x1632 DUP4 PUSH2 0x117B JUMP JUMPDEST SWAP3 POP DUP3 DUP3 ADD SWAP1 POP DUP1 DUP3 GT ISZERO PUSH2 0x164A JUMPI PUSH2 0x1649 PUSH2 0x15F0 JUMP JUMPDEST JUMPDEST SWAP3 SWAP2 POP POP JUMP JUMPDEST PUSH0 DUP3 DUP3 MSTORE PUSH1 0x20 DUP3 ADD SWAP1 POP SWAP3 SWAP2 POP POP JUMP JUMPDEST PUSH32 0x43616E2774207769746864726177207965740000000000000000000000000000 PUSH0 DUP3 ADD MSTORE POP JUMP JUMPDEST PUSH0 PUSH2 0x1694 PUSH1 0x12 DUP4 PUSH2 0x1650 JUMP JUMPDEST SWAP2 POP PUSH2 0x169F DUP3 PUSH2 0x1660 JUMP JUMPDEST PUSH1 0x20 DUP3 ADD SWAP1 POP SWAP2 SWAP1 POP JUMP JUMPDEST PUSH0 PUSH1 0x20 DUP3 ADD SWAP1 POP DUP2 DUP2 SUB PUSH0 DUP4 ADD MSTORE PUSH2 0x16C1 DUP2 PUSH2 0x1688 JUMP JUMPDEST SWAP1 POP SWAP2 SWAP1 POP JUMP JUMPDEST PUSH0 DUP2 MLOAD SWAP1 POP PUSH2 0x16D6 DUP2 PUSH2 0x1231 JUMP JUMPDEST SWAP3 SWAP2 POP POP JUMP JUMPDEST PUSH0 PUSH1 0x20 DUP3 DUP5 SUB SLT ISZERO PUSH2 0x16F1 JUMPI PUSH2 0x16F0 PUSH2 0x1173 JUMP JUMPDEST JUMPDEST PUSH0 PUSH2 0x16FE DUP5 DUP3 DUP6 ADD PUSH2 0x16C8 JUMP JUMPDEST SWAP2 POP POP SWAP3 SWAP2 POP POP JUMP JUMPDEST PUSH32 0x43616C6C6572206973206E6F742074686520746F6B656E206F776E6572000000 PUSH0 DUP3 ADD MSTORE POP JUMP JUMPDEST PUSH0 PUSH2 0x173B PUSH1 0x1D DUP4 PUSH2 0x1650 JUMP JUMPDEST SWAP2 POP PUSH2 0x1746 DUP3 PUSH2 0x1707 JUMP JUMPDEST PUSH1 0x20 DUP3 ADD SWAP1 POP SWAP2 SWAP1 POP JUMP JUMPDEST PUSH0 PUSH1 0x20 DUP3 ADD SWAP1 POP DUP2 DUP2 SUB PUSH0 DUP4 ADD MSTORE PUSH2 0x1768 DUP2 PUSH2 0x172F JUMP JUMPDEST SWAP1 POP SWAP2 SWAP1 POP JUMP JUMPDEST PUSH32 0x416D6F756E742063616E2774206265207A65726F000000000000000000000000 PUSH0 DUP3 ADD MSTORE POP JUMP JUMPDEST PUSH0 PUSH2 0x17A3 PUSH1 0x14 DUP4 PUSH2 0x1650 JUMP JUMPDEST SWAP2 POP PUSH2 0x17AE DUP3 PUSH2 0x176F JUMP JUMPDEST PUSH1 0x20 DUP3 ADD SWAP1 POP SWAP2 SWAP1 POP JUMP JUMPDEST PUSH0 PUSH1 0x20 DUP3 ADD SWAP1 POP DUP2 DUP2 SUB PUSH0 DUP4 ADD MSTORE PUSH2 0x17D0 DUP2 PUSH2 0x1797 JUMP JUMPDEST SWAP1 POP SWAP2 SWAP1 POP JUMP JUMPDEST PUSH0 PUSH2 0x17E1 DUP3 PUSH2 0x117B JUMP JUMPDEST SWAP2 POP PUSH2 0x17EC DUP4 PUSH2 0x117B JUMP JUMPDEST SWAP3 POP DUP3 DUP3 SUB SWAP1 POP DUP2 DUP2 GT ISZERO PUSH2 0x1804 JUMPI PUSH2 0x1803 PUSH2 0x15F0 JUMP JUMPDEST JUMPDEST SWAP3 SWAP2 POP POP JUMP JUMPDEST PUSH32 0x596F75206D6F6E6579206E6F7420656E6F756768000000000000000000000000 PUSH0 DUP3 ADD MSTORE POP JUMP JUMPDEST PUSH0 PUSH2 0x183E PUSH1 0x14 DUP4 PUSH2 0x1650 JUMP JUMPDEST SWAP2 POP PUSH2 0x1849 DUP3 PUSH2 0x180A JUMP JUMPDEST PUSH1 0x20 DUP3 ADD SWAP1 POP SWAP2 SWAP1 POP JUMP JUMPDEST PUSH0 PUSH1 0x20 DUP3 ADD SWAP1 POP DUP2 DUP2 SUB PUSH0 DUP4 ADD MSTORE PUSH2 0x186B DUP2 PUSH2 0x1832 JUMP JUMPDEST SWAP1 POP SWAP2 SWAP1 POP JUMP JUMPDEST PUSH0 PUSH1 0x60 DUP3 ADD SWAP1 POP PUSH2 0x1885 PUSH0 DUP4 ADD DUP7 PUSH2 0x12CE JUMP JUMPDEST PUSH2 0x1892 PUSH1 0x20 DUP4 ADD DUP6 PUSH2 0x12CE JUMP JUMPDEST PUSH2 0x189F PUSH1 0x40 DUP4 ADD DUP5 PUSH2 0x11D9 JUMP JUMPDEST SWAP5 SWAP4 POP POP POP POP JUMP JUMPDEST PUSH0 DUP2 MLOAD SWAP1 POP PUSH2 0x18B5 DUP2 PUSH2 0x1266 JUMP JUMPDEST SWAP3 SWAP2 POP POP JUMP JUMPDEST PUSH0 PUSH1 0x20 DUP3 DUP5 SUB SLT ISZERO PUSH2 0x18D0 JUMPI PUSH2 0x18CF PUSH2 0x1173 JUMP JUMPDEST JUMPDEST PUSH0 PUSH2 0x18DD DUP5 DUP3 DUP6 ADD PUSH2 0x18A7 JUMP JUMPDEST SWAP2 POP POP SWAP3 SWAP2 POP POP JUMP JUMPDEST PUSH0 PUSH1 0x40 DUP3 ADD SWAP1 POP PUSH2 0x18F9 PUSH0 DUP4 ADD DUP6 PUSH2 0x11D9 JUMP JUMPDEST PUSH2 0x1906 PUSH1 0x20 DUP4 ADD DUP5 PUSH2 0x11D9 JUMP JUMPDEST SWAP4 SWAP3 POP POP POP JUMP JUMPDEST PUSH32 0x596F75206172652774207061796D617374657200000000000000000000000000 PUSH0 DUP3 ADD MSTORE POP JUMP JUMPDEST PUSH0 PUSH2 0x1941 PUSH1 0x13 DUP4 PUSH2 0x1650 JUMP JUMPDEST SWAP2 POP PUSH2 0x194C DUP3 PUSH2 0x190D JUMP JUMPDEST PUSH1 0x20 DUP3 ADD SWAP1 POP SWAP2 SWAP1 POP JUMP JUMPDEST PUSH0 PUSH1 0x20 DUP3 ADD SWAP1 POP DUP2 DUP2 SUB PUSH0 DUP4 ADD MSTORE PUSH2 0x196E DUP2 PUSH2 0x1935 JUMP JUMPDEST SWAP1 POP SWAP2 SWAP1 POP JUMP JUMPDEST PUSH0 PUSH1 0x80 DUP3 ADD SWAP1 POP PUSH2 0x1988 PUSH0 DUP4 ADD DUP8 PUSH2 0x11D9 JUMP JUMPDEST PUSH2 0x1995 PUSH1 0x20 DUP4 ADD DUP7 PUSH2 0x11D9 JUMP JUMPDEST PUSH2 0x19A2 PUSH1 0x40 DUP4 ADD DUP6 PUSH2 0x11D9 JUMP JUMPDEST PUSH2 0x19AF PUSH1 0x60 DUP4 ADD DUP5 PUSH2 0x12CE JUMP JUMPDEST SWAP6 SWAP5 POP POP POP POP POP JUMP JUMPDEST PUSH32 0x496E76616C6964205369676E6174757265000000000000000000000000000000 PUSH0 DUP3 ADD MSTORE POP JUMP JUMPDEST PUSH0 PUSH2 0x19EC PUSH1 0x11 DUP4 PUSH2 0x1650 JUMP JUMPDEST SWAP2 POP PUSH2 0x19F7 DUP3 PUSH2 0x19B8 JUMP JUMPDEST PUSH1 0x20 DUP3 ADD SWAP1 POP SWAP2 SWAP1 POP JUMP JUMPDEST PUSH0 PUSH1 0x20 DUP3 ADD SWAP1 POP DUP2 DUP2 SUB PUSH0 DUP4 ADD MSTORE PUSH2 0x1A19 DUP2 PUSH2 0x19E0 JUMP JUMPDEST SWAP1 POP SWAP2 SWAP1 POP JUMP JUMPDEST PUSH32 0x4E487B7100000000000000000000000000000000000000000000000000000000 PUSH0 MSTORE PUSH1 0x21 PUSH1 0x4 MSTORE PUSH1 0x24 PUSH0 REVERT JUMPDEST PUSH0 DUP2 SWAP1 POP SWAP2 SWAP1 POP JUMP JUMPDEST PUSH2 0x1A5F DUP2 PUSH2 0x1A4D JUMP JUMPDEST DUP3 MSTORE POP POP JUMP JUMPDEST PUSH0 PUSH1 0x20 DUP3 ADD SWAP1 POP PUSH2 0x1A78 PUSH0 DUP4 ADD DUP5 PUSH2 0x1A56 JUMP JUMPDEST SWAP3 SWAP2 POP POP JUMP JUMPDEST PUSH0 PUSH1 0xFF DUP3 AND SWAP1 POP SWAP2 SWAP1 POP JUMP JUMPDEST PUSH2 0x1A93 DUP2 PUSH2 0x1A7E JUMP JUMPDEST DUP3 MSTORE POP POP JUMP JUMPDEST PUSH0 PUSH1 0x80 DUP3 ADD SWAP1 POP PUSH2 0x1AAC PUSH0 DUP4 ADD DUP8 PUSH2 0x1A56 JUMP JUMPDEST PUSH2 0x1AB9 PUSH1 0x20 DUP4 ADD DUP7 PUSH2 0x1A8A JUMP JUMPDEST PUSH2 0x1AC6 PUSH1 0x40 DUP4 ADD DUP6 PUSH2 0x1A56 JUMP JUMPDEST PUSH2 0x1AD3 PUSH1 0x60 DUP4 ADD DUP5 PUSH2 0x1A56 JUMP JUMPDEST SWAP6 SWAP5 POP POP POP POP POP JUMP INVALID LOG2 PUSH5 0x6970667358 0x22 SLT KECCAK256 SWAP8 SWAP9 SGT ISZERO PUSH28 0xDE9579B2394DAF382CC9A4E302BB5DA08F2105A0E1D73B73D616A864 PUSH20 0x6F6C634300081900330000000000000000000000 "
				},
				"gasEstimates": {
					"creation": {
						"codeDepositCost": "1386000",
						"executionCost": "infinite",
						"totalCost": "infinite"
					},
					"external": {
						"cKIP()": "infinite",
						"claim(uint256,uint256,address,bytes)": "infinite",
						"claimedAmounts(uint256)": "infinite",
						"fund_address()": "2576",
						"license_nft()": "infinite",
						"owner()": "2560",
						"penalty(uint256,uint256)": "infinite",
						"renounceOwnership()": "infinite",
						"setFundAddress(address)": "infinite",
						"setPaymaster(address,bool)": "infinite",
						"transferOwnership(address)": "infinite",
						"withdraw(uint256,uint256)": "infinite",
						"withdrawAmounts(uint256)": "infinite",
						"withdraw_interval()": "2469"
					}
				},
				"methodIdentifiers": {
					"cKIP()": "56f738cf",
					"claim(uint256,uint256,address,bytes)": "d44b6478",
					"claimedAmounts(uint256)": "9f666d84",
					"fund_address()": "18afe170",
					"license_nft()": "f9e58b28",
					"owner()": "8da5cb5b",
					"penalty(uint256,uint256)": "51cdb77b",
					"renounceOwnership()": "715018a6",
					"setFundAddress(address)": "85dc3004",
					"setPaymaster(address,bool)": "1573f688",
					"transferOwnership(address)": "f2fde38b",
					"withdraw(uint256,uint256)": "441a3e70",
					"withdrawAmounts(uint256)": "0f20b94c",
					"withdraw_interval()": "e767c798"
				}
			},
			"storageLayout": {
				"storage": [
					{
						"astId": 8,
						"contract": "contracts/NodeReward.sol:CheckerReward",
						"label": "_owner",
						"offset": 0,
						"slot": "0",
						"type": "t_address"
					},
					{
						"astId": 746,
						"contract": "contracts/NodeReward.sol:CheckerReward",
						"label": "license_nft",
						"offset": 0,
						"slot": "1",
						"type": "t_contract(IERC721)342"
					},
					{
						"astId": 749,
						"contract": "contracts/NodeReward.sol:CheckerReward",
						"label": "cKIP",
						"offset": 0,
						"slot": "2",
						"type": "t_contract(IERC20)225"
					},
					{
						"astId": 751,
						"contract": "contracts/NodeReward.sol:CheckerReward",
						"label": "fund_address",
						"offset": 0,
						"slot": "3",
						"type": "t_address"
					},
					{
						"astId": 754,
						"contract": "contracts/NodeReward.sol:CheckerReward",
						"label": "withdraw_interval",
						"offset": 0,
						"slot": "4",
						"type": "t_uint256"
					},
					{
						"astId": 758,
						"contract": "contracts/NodeReward.sol:CheckerReward",
						"label": "paymaster",
						"offset": 0,
						"slot": "5",
						"type": "t_mapping(t_address,t_bool)"
					},
					{
						"astId": 762,
						"contract": "contracts/NodeReward.sol:CheckerReward",
						"label": "last_withdraw_time",
						"offset": 0,
						"slot": "6",
						"type": "t_mapping(t_uint256,t_uint256)"
					},
					{
						"astId": 766,
						"contract": "contracts/NodeReward.sol:CheckerReward",
						"label": "fines",
						"offset": 0,
						"slot": "7",
						"type": "t_mapping(t_uint256,t_uint256)"
					},
					{
						"astId": 770,
						"contract": "contracts/NodeReward.sol:CheckerReward",
						"label": "claimedAmounts",
						"offset": 0,
						"slot": "8",
						"type": "t_mapping(t_uint256,t_uint256)"
					},
					{
						"astId": 774,
						"contract": "contracts/NodeReward.sol:CheckerReward",
						"label": "withdrawAmounts",
						"offset": 0,
						"slot": "9",
						"type": "t_mapping(t_uint256,t_uint256)"
					}
				],
				"types": {
					"t_address": {
						"encoding": "inplace",
						"label": "address",
						"numberOfBytes": "20"
					},
					"t_bool": {
						"encoding": "inplace",
						"label": "bool",
						"numberOfBytes": "1"
					},
					"t_contract(IERC20)225": {
						"encoding": "inplace",
						"label": "contract IERC20",
						"numberOfBytes": "20"
					},
					"t_contract(IERC721)342": {
						"encoding": "inplace",
						"label": "contract IERC721",
						"numberOfBytes": "20"
					},
					"t_mapping(t_address,t_bool)": {
						"encoding": "mapping",
						"key": "t_address",
						"label": "mapping(address => bool)",
						"numberOfBytes": "32",
						"value": "t_bool"
					},
					"t_mapping(t_uint256,t_uint256)": {
						"encoding": "mapping",
						"key": "t_uint256",
						"label": "mapping(uint256 => uint256)",
						"numberOfBytes": "32",
						"value": "t_uint256"
					},
					"t_uint256": {
						"encoding": "inplace",
						"label": "uint256",
						"numberOfBytes": "32"
					}
				}
			},
			"userdoc": {
				"kind": "user",
				"methods": {},
				"version": 1
			}
		}
	}
}