{
	"contracts/NodeReward.sol": {
		"CheckerReward": {
			"abi": [
				{
					"inputs": [
						{
							"internalType": "address",
							"name": "initialOwner",
							"type": "address"
						},
						{
							"internalType": "address",
							"name": "checkerLicenseAddress",
							"type": "address"
						},
						{
							"internalType": "address",
							"name": "cKIP_token",
							"type": "address"
						},
						{
							"internalType": "address",
							"name": "fundAddress",
							"type": "address"
						}
					],
					"stateMutability": "nonpayable",
					"type": "constructor"
				},
				{
					"inputs": [],
					"name": "ECDSAInvalidSignature",
					"type": "error"
				},
				{
					"inputs": [
						{
							"internalType": "uint256",
							"name": "length",
							"type": "uint256"
						}
					],
					"name": "ECDSAInvalidSignatureLength",
					"type": "error"
				},
				{
					"inputs": [
						{
							"internalType": "bytes32",
							"name": "s",
							"type": "bytes32"
						}
					],
					"name": "ECDSAInvalidSignatureS",
					"type": "error"
				},
				{
					"inputs": [
						{
							"internalType": "address",
							"name": "owner",
							"type": "address"
						}
					],
					"name": "OwnableInvalidOwner",
					"type": "error"
				},
				{
					"inputs": [
						{
							"internalType": "address",
							"name": "account",
							"type": "address"
						}
					],
					"name": "OwnableUnauthorizedAccount",
					"type": "error"
				},
				{
					"anonymous": false,
					"inputs": [
						{
							"indexed": true,
							"internalType": "address",
							"name": "sender",
							"type": "address"
						},
						{
							"indexed": false,
							"internalType": "uint256",
							"name": "token_id",
							"type": "uint256"
						},
						{
							"indexed": false,
							"internalType": "uint256",
							"name": "amount",
							"type": "uint256"
						},
						{
							"indexed": true,
							"internalType": "address",
							"name": "paymaster",
							"type": "address"
						},
						{
							"indexed": false,
							"internalType": "bytes32",
							"name": "reference_id",
							"type": "bytes32"
						}
					],
					"name": "Claimed",
					"type": "event"
				},
				{
					"anonymous": false,
					"inputs": [
						{
							"indexed": true,
							"internalType": "address",
							"name": "sender",
							"type": "address"
						},
						{
							"indexed": false,
							"internalType": "uint256",
							"name": "token_id",
							"type": "uint256"
						},
						{
							"indexed": true,
							"internalType": "address",
							"name": "delegation",
							"type": "address"
						}
					],
					"name": "DelegationChanged",
					"type": "event"
				},
				{
					"anonymous": false,
					"inputs": [
						{
							"indexed": true,
							"internalType": "address",
							"name": "previousOwner",
							"type": "address"
						},
						{
							"indexed": true,
							"internalType": "address",
							"name": "newOwner",
							"type": "address"
						}
					],
					"name": "OwnershipTransferred",
					"type": "event"
				},
				{
					"anonymous": false,
					"inputs": [
						{
							"indexed": true,
							"internalType": "address",
							"name": "sender",
							"type": "address"
						},
						{
							"indexed": true,
							"internalType": "address",
							"name": "paymaster",
							"type": "address"
						},
						{
							"indexed": false,
							"internalType": "bool",
							"name": "enabled",
							"type": "bool"
						}
					],
					"name": "PaymasterChanged",
					"type": "event"
				},
				{
					"anonymous": false,
					"inputs": [
						{
							"indexed": true,
							"internalType": "address",
							"name": "paymaster",
							"type": "address"
						},
						{
							"indexed": false,
							"internalType": "uint256",
							"name": "token_id",
							"type": "uint256"
						},
						{
							"indexed": false,
							"internalType": "uint256",
							"name": "amount",
							"type": "uint256"
						},
						{
							"indexed": false,
							"internalType": "bytes32",
							"name": "reference_id",
							"type": "bytes32"
						}
					],
					"name": "Penalty",
					"type": "event"
				},
				{
					"anonymous": false,
					"inputs": [
						{
							"indexed": true,
							"internalType": "address",
							"name": "sender",
							"type": "address"
						},
						{
							"indexed": false,
							"internalType": "uint256",
							"name": "token_id",
							"type": "uint256"
						},
						{
							"indexed": false,
							"internalType": "uint256",
							"name": "amount",
							"type": "uint256"
						}
					],
					"name": "Withdraw",
					"type": "event"
				},
				{
					"inputs": [],
					"name": "cKIP",
					"outputs": [
						{
							"internalType": "contract IERC20",
							"name": "",
							"type": "address"
						}
					],
					"stateMutability": "view",
					"type": "function"
				},
				{
					"inputs": [
						{
							"internalType": "uint256",
							"name": "token_id",
							"type": "uint256"
						},
						{
							"internalType": "uint256",
							"name": "amount",
							"type": "uint256"
						},
						{
							"internalType": "address",
							"name": "_paymaster",
							"type": "address"
						},
						{
							"internalType": "bytes32",
							"name": "reference_id",
							"type": "bytes32"
						},
						{
							"internalType": "bytes",
							"name": "signature",
							"type": "bytes"
						}
					],
					"name": "claim",
					"outputs": [],
					"stateMutability": "nonpayable",
					"type": "function"
				},
				{
					"inputs": [
						{
							"internalType": "uint256",
							"name": "",
							"type": "uint256"
						}
					],
					"name": "claimedAmounts",
					"outputs": [
						{
							"internalType": "uint256",
							"name": "",
							"type": "uint256"
						}
					],
					"stateMutability": "view",
					"type": "function"
				},
				{
					"inputs": [
						{
							"internalType": "uint256",
							"name": "",
							"type": "uint256"
						}
					],
					"name": "delegations",
					"outputs": [
						{
							"internalType": "address",
							"name": "",
							"type": "address"
						}
					],
					"stateMutability": "view",
					"type": "function"
				},
				{
					"inputs": [],
					"name": "fund_address",
					"outputs": [
						{
							"internalType": "address",
							"name": "",
							"type": "address"
						}
					],
					"stateMutability": "view",
					"type": "function"
				},
				{
					"inputs": [
						{
							"internalType": "uint256",
							"name": "token_id",
							"type": "uint256"
						}
					],
					"name": "getDelegation",
					"outputs": [
						{
							"internalType": "address",
							"name": "",
							"type": "address"
						}
					],
					"stateMutability": "view",
					"type": "function"
				},
				{
					"inputs": [],
					"name": "license_nft",
					"outputs": [
						{
							"internalType": "contract IERC721",
							"name": "",
							"type": "address"
						}
					],
					"stateMutability": "view",
					"type": "function"
				},
				{
					"inputs": [],
					"name": "owner",
					"outputs": [
						{
							"internalType": "address",
							"name": "",
							"type": "address"
						}
					],
					"stateMutability": "view",
					"type": "function"
				},
				{
					"inputs": [
						{
							"internalType": "uint256",
							"name": "token_id",
							"type": "uint256"
						},
						{
							"internalType": "uint256",
							"name": "amount",
							"type": "uint256"
						},
						{
							"internalType": "bytes32",
							"name": "reference_id",
							"type": "bytes32"
						}
					],
					"name": "penalty",
					"outputs": [],
					"stateMutability": "nonpayable",
					"type": "function"
				},
				{
					"inputs": [],
					"name": "renounceOwnership",
					"outputs": [],
					"stateMutability": "nonpayable",
					"type": "function"
				},
				{
					"inputs": [
						{
							"internalType": "uint256",
							"name": "token_id",
							"type": "uint256"
						},
						{
							"internalType": "address",
							"name": "_address",
							"type": "address"
						}
					],
					"name": "setDelegation",
					"outputs": [],
					"stateMutability": "nonpayable",
					"type": "function"
				},
				{
					"inputs": [
						{
							"internalType": "address",
							"name": "_address",
							"type": "address"
						}
					],
					"name": "setFundAddress",
					"outputs": [],
					"stateMutability": "nonpayable",
					"type": "function"
				},
				{
					"inputs": [
						{
							"internalType": "address",
							"name": "_address",
							"type": "address"
						},
						{
							"internalType": "bool",
							"name": "enabled",
							"type": "bool"
						}
					],
					"name": "setPaymaster",
					"outputs": [],
					"stateMutability": "nonpayable",
					"type": "function"
				},
				{
					"inputs": [
						{
							"internalType": "address",
							"name": "newOwner",
							"type": "address"
						}
					],
					"name": "transferOwnership",
					"outputs": [],
					"stateMutability": "nonpayable",
					"type": "function"
				},
				{
					"inputs": [
						{
							"internalType": "uint256",
							"name": "token_id",
							"type": "uint256"
						},
						{
							"internalType": "uint256",
							"name": "amount",
							"type": "uint256"
						}
					],
					"name": "withdraw",
					"outputs": [],
					"stateMutability": "nonpayable",
					"type": "function"
				},
				{
					"inputs": [
						{
							"internalType": "uint256",
							"name": "",
							"type": "uint256"
						}
					],
					"name": "withdrawAmounts",
					"outputs": [
						{
							"internalType": "uint256",
							"name": "",
							"type": "uint256"
						}
					],
					"stateMutability": "view",
					"type": "function"
				},
				{
					"inputs": [],
					"name": "withdraw_interval",
					"outputs": [
						{
							"internalType": "uint256",
							"name": "",
							"type": "uint256"
						}
					],
					"stateMutability": "view",
					"type": "function"
				}
			],
			"devdoc": {
				"errors": {
					"ECDSAInvalidSignature()": [
						{
							"details": "The signature derives the `address(0)`."
						}
					],
					"ECDSAInvalidSignatureLength(uint256)": [
						{
							"details": "The signature has an invalid length."
						}
					],
					"ECDSAInvalidSignatureS(bytes32)": [
						{
							"details": "The signature has an S value that is in the upper half order."
						}
					],
					"OwnableInvalidOwner(address)": [
						{
							"details": "The owner is not a valid owner account. (eg. `address(0)`)"
						}
					],
					"OwnableUnauthorizedAccount(address)": [
						{
							"details": "The caller account is not authorized to perform an operation."
						}
					]
				},
				"kind": "dev",
				"methods": {
					"owner()": {
						"details": "Returns the address of the current owner."
					},
					"renounceOwnership()": {
						"details": "Leaves the contract without owner. It will not be possible to call `onlyOwner` functions. Can only be called by the current owner. NOTE: Renouncing ownership will leave the contract without an owner, thereby disabling any functionality that is only available to the owner."
					},
					"transferOwnership(address)": {
						"details": "Transfers ownership of the contract to a new account (`newOwner`). Can only be called by the current owner."
					}
				},
				"version": 1
			},
			"evm": {
				"assembly": "    /* \"contracts/NodeReward.sol\":298:4132  contract CheckerReward is Ownable {... */\n  mstore(0x40, 0x80)\n    /* \"contracts/NodeReward.sol\":500:507  2592000 */\n  0x278d00\n    /* \"contracts/NodeReward.sol\":465:507  uint256 public withdraw_interval = 2592000 */\n  0x04\n  sstore\n    /* \"contracts/NodeReward.sol\":1365:1629  constructor(address initialOwner, address checkerLicenseAddress, address cKIP_token, address fundAddress) Ownable(initialOwner) {... */\n  callvalue\n  dup1\n  iszero\n  tag_1\n  jumpi\n  0x00\n  dup1\n  revert\ntag_1:\n  pop\n  mload(0x40)\n  sub(codesize, bytecodeSize)\n  dup1\n  bytecodeSize\n  dup4\n  codecopy\n  dup2\n  dup2\n  add\n  0x40\n  mstore\n  dup2\n  add\n  swap1\n  tag_2\n  swap2\n  swap1\n  tag_3\n  jump\t// in\ntag_2:\n    /* \"contracts/NodeReward.sol\":1479:1491  initialOwner */\n  dup4\n    /* \"@openzeppelin/contracts/access/Ownable.sol\":1297:1298  0 */\n  0x00\n    /* \"@openzeppelin/contracts/access/Ownable.sol\":1273:1299  initialOwner == address(0) */\n  0xffffffffffffffffffffffffffffffffffffffff\n  and\n    /* \"@openzeppelin/contracts/access/Ownable.sol\":1273:1285  initialOwner */\n  dup2\n    /* \"@openzeppelin/contracts/access/Ownable.sol\":1273:1299  initialOwner == address(0) */\n  0xffffffffffffffffffffffffffffffffffffffff\n  and\n  sub\n    /* \"@openzeppelin/contracts/access/Ownable.sol\":1269:1364  if (initialOwner == address(0)) {... */\n  tag_7\n  jumpi\n    /* \"@openzeppelin/contracts/access/Ownable.sol\":1350:1351  0 */\n  0x00\n    /* \"@openzeppelin/contracts/access/Ownable.sol\":1322:1353  OwnableInvalidOwner(address(0)) */\n  mload(0x40)\n  0x1e4fbdf700000000000000000000000000000000000000000000000000000000\n  dup2\n  mstore\n  0x04\n  add\n  tag_8\n  swap2\n  swap1\n  tag_9\n  jump\t// in\ntag_8:\n  mload(0x40)\n  dup1\n  swap2\n  sub\n  swap1\n  revert\n    /* \"@openzeppelin/contracts/access/Ownable.sol\":1269:1364  if (initialOwner == address(0)) {... */\ntag_7:\n    /* \"@openzeppelin/contracts/access/Ownable.sol\":1373:1405  _transferOwnership(initialOwner) */\n  tag_10\n    /* \"@openzeppelin/contracts/access/Ownable.sol\":1392:1404  initialOwner */\n  dup2\n    /* \"@openzeppelin/contracts/access/Ownable.sol\":1373:1391  _transferOwnership */\n  shl(0x20, tag_11)\n    /* \"@openzeppelin/contracts/access/Ownable.sol\":1373:1405  _transferOwnership(initialOwner) */\n  0x20\n  shr\n  jump\t// in\ntag_10:\n    /* \"@openzeppelin/contracts/access/Ownable.sol\":1225:1412  constructor(address initialOwner) {... */\n  pop\n    /* \"contracts/NodeReward.sol\":1526:1547  checkerLicenseAddress */\n  dup3\n    /* \"contracts/NodeReward.sol\":1504:1515  license_nft */\n  0x01\n  0x00\n    /* \"contracts/NodeReward.sol\":1504:1548  license_nft = IERC721(checkerLicenseAddress) */\n  0x0100\n  exp\n  dup2\n  sload\n  dup2\n  0xffffffffffffffffffffffffffffffffffffffff\n  mul\n  not\n  and\n  swap1\n  dup4\n  0xffffffffffffffffffffffffffffffffffffffff\n  and\n  mul\n  or\n  swap1\n  sstore\n  pop\n    /* \"contracts/NodeReward.sol\":1573:1583  cKIP_token */\n  dup2\n    /* \"contracts/NodeReward.sol\":1559:1563  cKIP */\n  0x02\n  0x00\n    /* \"contracts/NodeReward.sol\":1559:1584  cKIP = IERC20(cKIP_token) */\n  0x0100\n  exp\n  dup2\n  sload\n  dup2\n  0xffffffffffffffffffffffffffffffffffffffff\n  mul\n  not\n  and\n  swap1\n  dup4\n  0xffffffffffffffffffffffffffffffffffffffff\n  and\n  mul\n  or\n  swap1\n  sstore\n  pop\n    /* \"contracts/NodeReward.sol\":1610:1621  fundAddress */\n  dup1\n    /* \"contracts/NodeReward.sol\":1595:1607  fund_address */\n  0x03\n  0x00\n    /* \"contracts/NodeReward.sol\":1595:1621  fund_address = fundAddress */\n  0x0100\n  exp\n  dup2\n  sload\n  dup2\n  0xffffffffffffffffffffffffffffffffffffffff\n  mul\n  not\n  and\n  swap1\n  dup4\n  0xffffffffffffffffffffffffffffffffffffffff\n  and\n  mul\n  or\n  swap1\n  sstore\n  pop\n    /* \"contracts/NodeReward.sol\":1365:1629  constructor(address initialOwner, address checkerLicenseAddress, address cKIP_token, address fundAddress) Ownable(initialOwner) {... */\n  pop\n  pop\n  pop\n  pop\n    /* \"contracts/NodeReward.sol\":298:4132  contract CheckerReward is Ownable {... */\n  jump(tag_13)\n    /* \"@openzeppelin/contracts/access/Ownable.sol\":2912:3099  function _transferOwnership(address newOwner) internal virtual {... */\ntag_11:\n    /* \"@openzeppelin/contracts/access/Ownable.sol\":2985:3001  address oldOwner */\n  0x00\n    /* \"@openzeppelin/contracts/access/Ownable.sol\":3004:3010  _owner */\n  dup1\n  0x00\n  swap1\n  sload\n  swap1\n  0x0100\n  exp\n  swap1\n  div\n  0xffffffffffffffffffffffffffffffffffffffff\n  and\n    /* \"@openzeppelin/contracts/access/Ownable.sol\":2985:3010  address oldOwner = _owner */\n  swap1\n  pop\n    /* \"@openzeppelin/contracts/access/Ownable.sol\":3029:3037  newOwner */\n  dup2\n    /* \"@openzeppelin/contracts/access/Ownable.sol\":3020:3026  _owner */\n  0x00\n  dup1\n    /* \"@openzeppelin/contracts/access/Ownable.sol\":3020:3037  _owner = newOwner */\n  0x0100\n  exp\n  dup2\n  sload\n  dup2\n  0xffffffffffffffffffffffffffffffffffffffff\n  mul\n  not\n  and\n  swap1\n  dup4\n  0xffffffffffffffffffffffffffffffffffffffff\n  and\n  mul\n  or\n  swap1\n  sstore\n  pop\n    /* \"@openzeppelin/contracts/access/Ownable.sol\":3083:3091  newOwner */\n  dup2\n    /* \"@openzeppelin/contracts/access/Ownable.sol\":3052:3092  OwnershipTransferred(oldOwner, newOwner) */\n  0xffffffffffffffffffffffffffffffffffffffff\n  and\n    /* \"@openzeppelin/contracts/access/Ownable.sol\":3073:3081  oldOwner */\n  dup2\n    /* \"@openzeppelin/contracts/access/Ownable.sol\":3052:3092  OwnershipTransferred(oldOwner, newOwner) */\n  0xffffffffffffffffffffffffffffffffffffffff\n  and\n  0x8be0079c531659141344cd1fd0a4f28419497f9722a3daafe3b4186f6b6457e0\n  mload(0x40)\n  mload(0x40)\n  dup1\n  swap2\n  sub\n  swap1\n  log3\n    /* \"@openzeppelin/contracts/access/Ownable.sol\":2975:3099  {... */\n  pop\n    /* \"@openzeppelin/contracts/access/Ownable.sol\":2912:3099  function _transferOwnership(address newOwner) internal virtual {... */\n  pop\n  jump\t// out\n    /* \"#utility.yul\":88:205   */\ntag_16:\n    /* \"#utility.yul\":197:198   */\n  0x00\n    /* \"#utility.yul\":194:195   */\n  dup1\n    /* \"#utility.yul\":187:199   */\n  revert\n    /* \"#utility.yul\":334:460   */\ntag_18:\n    /* \"#utility.yul\":371:378   */\n  0x00\n    /* \"#utility.yul\":411:453   */\n  0xffffffffffffffffffffffffffffffffffffffff\n    /* \"#utility.yul\":404:409   */\n  dup3\n    /* \"#utility.yul\":400:454   */\n  and\n    /* \"#utility.yul\":389:454   */\n  swap1\n  pop\n    /* \"#utility.yul\":334:460   */\n  swap2\n  swap1\n  pop\n  jump\t// out\n    /* \"#utility.yul\":466:562   */\ntag_19:\n    /* \"#utility.yul\":503:510   */\n  0x00\n    /* \"#utility.yul\":532:556   */\n  tag_29\n    /* \"#utility.yul\":550:555   */\n  dup3\n    /* \"#utility.yul\":532:556   */\n  tag_18\n  jump\t// in\ntag_29:\n    /* \"#utility.yul\":521:556   */\n  swap1\n  pop\n    /* \"#utility.yul\":466:562   */\n  swap2\n  swap1\n  pop\n  jump\t// out\n    /* \"#utility.yul\":568:690   */\ntag_20:\n    /* \"#utility.yul\":641:665   */\n  tag_31\n    /* \"#utility.yul\":659:664   */\n  dup2\n    /* \"#utility.yul\":641:665   */\n  tag_19\n  jump\t// in\ntag_31:\n    /* \"#utility.yul\":634:639   */\n  dup2\n    /* \"#utility.yul\":631:666   */\n  eq\n    /* \"#utility.yul\":621:684   */\n  tag_32\n  jumpi\n    /* \"#utility.yul\":680:681   */\n  0x00\n    /* \"#utility.yul\":677:678   */\n  dup1\n    /* \"#utility.yul\":670:682   */\n  revert\n    /* \"#utility.yul\":621:684   */\ntag_32:\n    /* \"#utility.yul\":568:690   */\n  pop\n  jump\t// out\n    /* \"#utility.yul\":696:839   */\ntag_21:\n    /* \"#utility.yul\":753:758   */\n  0x00\n    /* \"#utility.yul\":784:790   */\n  dup2\n    /* \"#utility.yul\":778:791   */\n  mload\n    /* \"#utility.yul\":769:791   */\n  swap1\n  pop\n    /* \"#utility.yul\":800:833   */\n  tag_34\n    /* \"#utility.yul\":827:832   */\n  dup2\n    /* \"#utility.yul\":800:833   */\n  tag_20\n  jump\t// in\ntag_34:\n    /* \"#utility.yul\":696:839   */\n  swap3\n  swap2\n  pop\n  pop\n  jump\t// out\n    /* \"#utility.yul\":845:1665   */\ntag_3:\n    /* \"#utility.yul\":942:948   */\n  0x00\n    /* \"#utility.yul\":950:956   */\n  dup1\n    /* \"#utility.yul\":958:964   */\n  0x00\n    /* \"#utility.yul\":966:972   */\n  dup1\n    /* \"#utility.yul\":1015:1018   */\n  0x80\n    /* \"#utility.yul\":1003:1012   */\n  dup6\n    /* \"#utility.yul\":994:1001   */\n  dup8\n    /* \"#utility.yul\":990:1013   */\n  sub\n    /* \"#utility.yul\":986:1019   */\n  slt\n    /* \"#utility.yul\":983:1103   */\n  iszero\n  tag_36\n  jumpi\n    /* \"#utility.yul\":1022:1101   */\n  tag_37\n  tag_16\n  jump\t// in\ntag_37:\n    /* \"#utility.yul\":983:1103   */\ntag_36:\n    /* \"#utility.yul\":1142:1143   */\n  0x00\n    /* \"#utility.yul\":1167:1231   */\n  tag_38\n    /* \"#utility.yul\":1223:1230   */\n  dup8\n    /* \"#utility.yul\":1214:1220   */\n  dup3\n    /* \"#utility.yul\":1203:1212   */\n  dup9\n    /* \"#utility.yul\":1199:1221   */\n  add\n    /* \"#utility.yul\":1167:1231   */\n  tag_21\n  jump\t// in\ntag_38:\n    /* \"#utility.yul\":1157:1231   */\n  swap5\n  pop\n    /* \"#utility.yul\":1113:1241   */\n  pop\n    /* \"#utility.yul\":1280:1282   */\n  0x20\n    /* \"#utility.yul\":1306:1370   */\n  tag_39\n    /* \"#utility.yul\":1362:1369   */\n  dup8\n    /* \"#utility.yul\":1353:1359   */\n  dup3\n    /* \"#utility.yul\":1342:1351   */\n  dup9\n    /* \"#utility.yul\":1338:1360   */\n  add\n    /* \"#utility.yul\":1306:1370   */\n  tag_21\n  jump\t// in\ntag_39:\n    /* \"#utility.yul\":1296:1370   */\n  swap4\n  pop\n    /* \"#utility.yul\":1251:1380   */\n  pop\n    /* \"#utility.yul\":1419:1421   */\n  0x40\n    /* \"#utility.yul\":1445:1509   */\n  tag_40\n    /* \"#utility.yul\":1501:1508   */\n  dup8\n    /* \"#utility.yul\":1492:1498   */\n  dup3\n    /* \"#utility.yul\":1481:1490   */\n  dup9\n    /* \"#utility.yul\":1477:1499   */\n  add\n    /* \"#utility.yul\":1445:1509   */\n  tag_21\n  jump\t// in\ntag_40:\n    /* \"#utility.yul\":1435:1509   */\n  swap3\n  pop\n    /* \"#utility.yul\":1390:1519   */\n  pop\n    /* \"#utility.yul\":1558:1560   */\n  0x60\n    /* \"#utility.yul\":1584:1648   */\n  tag_41\n    /* \"#utility.yul\":1640:1647   */\n  dup8\n    /* \"#utility.yul\":1631:1637   */\n  dup3\n    /* \"#utility.yul\":1620:1629   */\n  dup9\n    /* \"#utility.yul\":1616:1638   */\n  add\n    /* \"#utility.yul\":1584:1648   */\n  tag_21\n  jump\t// in\ntag_41:\n    /* \"#utility.yul\":1574:1648   */\n  swap2\n  pop\n    /* \"#utility.yul\":1529:1658   */\n  pop\n    /* \"#utility.yul\":845:1665   */\n  swap3\n  swap6\n  swap2\n  swap5\n  pop\n  swap3\n  pop\n  jump\t// out\n    /* \"#utility.yul\":1671:1789   */\ntag_22:\n    /* \"#utility.yul\":1758:1782   */\n  tag_43\n    /* \"#utility.yul\":1776:1781   */\n  dup2\n    /* \"#utility.yul\":1758:1782   */\n  tag_19\n  jump\t// in\ntag_43:\n    /* \"#utility.yul\":1753:1756   */\n  dup3\n    /* \"#utility.yul\":1746:1783   */\n  mstore\n    /* \"#utility.yul\":1671:1789   */\n  pop\n  pop\n  jump\t// out\n    /* \"#utility.yul\":1795:2017   */\ntag_9:\n    /* \"#utility.yul\":1888:1892   */\n  0x00\n    /* \"#utility.yul\":1926:1928   */\n  0x20\n    /* \"#utility.yul\":1915:1924   */\n  dup3\n    /* \"#utility.yul\":1911:1929   */\n  add\n    /* \"#utility.yul\":1903:1929   */\n  swap1\n  pop\n    /* \"#utility.yul\":1939:2010   */\n  tag_45\n    /* \"#utility.yul\":2007:2008   */\n  0x00\n    /* \"#utility.yul\":1996:2005   */\n  dup4\n    /* \"#utility.yul\":1992:2009   */\n  add\n    /* \"#utility.yul\":1983:1989   */\n  dup5\n    /* \"#utility.yul\":1939:2010   */\n  tag_22\n  jump\t// in\ntag_45:\n    /* \"#utility.yul\":1795:2017   */\n  swap3\n  swap2\n  pop\n  pop\n  jump\t// out\n    /* \"contracts/NodeReward.sol\":298:4132  contract CheckerReward is Ownable {... */\ntag_13:\n  dataSize(sub_0)\n  dup1\n  dataOffset(sub_0)\n  0x00\n  codecopy\n  0x00\n  return\nstop\n\nsub_0: assembly {\n        /* \"contracts/NodeReward.sol\":298:4132  contract CheckerReward is Ownable {... */\n      mstore(0x40, 0x80)\n      callvalue\n      dup1\n      iszero\n      tag_1\n      jumpi\n      0x00\n      dup1\n      revert\n    tag_1:\n      pop\n      jumpi(tag_2, lt(calldatasize, 0x04))\n      shr(0xe0, calldataload(0x00))\n      dup1\n      0x7ea3253b\n      gt\n      tag_20\n      jumpi\n      dup1\n      0x9f666d84\n      gt\n      tag_21\n      jumpi\n      dup1\n      0x9f666d84\n      eq\n      tag_15\n      jumpi\n      dup1\n      0xc4336c1c\n      eq\n      tag_16\n      jumpi\n      dup1\n      0xe767c798\n      eq\n      tag_17\n      jumpi\n      dup1\n      0xf2fde38b\n      eq\n      tag_18\n      jumpi\n      dup1\n      0xf9e58b28\n      eq\n      tag_19\n      jumpi\n      jump(tag_2)\n    tag_21:\n      dup1\n      0x7ea3253b\n      eq\n      tag_11\n      jumpi\n      dup1\n      0x85dc3004\n      eq\n      tag_12\n      jumpi\n      dup1\n      0x89ae9bce\n      eq\n      tag_13\n      jumpi\n      dup1\n      0x8da5cb5b\n      eq\n      tag_14\n      jumpi\n      jump(tag_2)\n    tag_20:\n      dup1\n      0x1c0552e8\n      gt\n      tag_22\n      jumpi\n      dup1\n      0x1c0552e8\n      eq\n      tag_7\n      jumpi\n      dup1\n      0x441a3e70\n      eq\n      tag_8\n      jumpi\n      dup1\n      0x56f738cf\n      eq\n      tag_9\n      jumpi\n      dup1\n      0x715018a6\n      eq\n      tag_10\n      jumpi\n      jump(tag_2)\n    tag_22:\n      dup1\n      0x0dd35701\n      eq\n      tag_3\n      jumpi\n      dup1\n      0x0f20b94c\n      eq\n      tag_4\n      jumpi\n      dup1\n      0x1573f688\n      eq\n      tag_5\n      jumpi\n      dup1\n      0x18afe170\n      eq\n      tag_6\n      jumpi\n    tag_2:\n      0x00\n      dup1\n      revert\n        /* \"contracts/NodeReward.sol\":1637:1756  function getDelegation(uint256 token_id) public view returns (address)  {... */\n    tag_3:\n      tag_23\n      0x04\n      dup1\n      calldatasize\n      sub\n      dup2\n      add\n      swap1\n      tag_24\n      swap2\n      swap1\n      tag_25\n      jump\t// in\n    tag_24:\n      tag_26\n      jump\t// in\n    tag_23:\n      mload(0x40)\n      tag_27\n      swap2\n      swap1\n      tag_28\n      jump\t// in\n    tag_27:\n      mload(0x40)\n      dup1\n      swap2\n      sub\n      swap1\n      return\n        /* \"contracts/NodeReward.sol\":742:792  mapping(uint256 => uint256) public withdrawAmounts */\n    tag_4:\n      tag_29\n      0x04\n      dup1\n      calldatasize\n      sub\n      dup2\n      add\n      swap1\n      tag_30\n      swap2\n      swap1\n      tag_25\n      jump\t// in\n    tag_30:\n      tag_31\n      jump\t// in\n    tag_29:\n      mload(0x40)\n      tag_32\n      swap2\n      swap1\n      tag_33\n      jump\t// in\n    tag_32:\n      mload(0x40)\n      dup1\n      swap2\n      sub\n      swap1\n      return\n        /* \"contracts/NodeReward.sol\":2056:2242  function setPaymaster(address _address, bool enabled) external onlyOwner {... */\n    tag_5:\n      tag_34\n      0x04\n      dup1\n      calldatasize\n      sub\n      dup2\n      add\n      swap1\n      tag_35\n      swap2\n      swap1\n      tag_36\n      jump\t// in\n    tag_35:\n      tag_37\n      jump\t// in\n    tag_34:\n      stop\n        /* \"contracts/NodeReward.sol\":429:456  address public fund_address */\n    tag_6:\n      tag_38\n      tag_39\n      jump\t// in\n    tag_38:\n      mload(0x40)\n      tag_40\n      swap2\n      swap1\n      tag_28\n      jump\t// in\n    tag_40:\n      mload(0x40)\n      dup1\n      swap2\n      sub\n      swap1\n      return\n        /* \"contracts/NodeReward.sol\":3816:4129  function penalty(uint256 token_id, uint256 amount, bytes32 reference_id) external {... */\n    tag_7:\n      tag_41\n      0x04\n      dup1\n      calldatasize\n      sub\n      dup2\n      add\n      swap1\n      tag_42\n      swap2\n      swap1\n      tag_43\n      jump\t// in\n    tag_42:\n      tag_44\n      jump\t// in\n    tag_41:\n      stop\n        /* \"contracts/NodeReward.sol\":3105:3808  function withdraw(uint256 token_id, uint256 amount) external {... */\n    tag_8:\n      tag_45\n      0x04\n      dup1\n      calldatasize\n      sub\n      dup2\n      add\n      swap1\n      tag_46\n      swap2\n      swap1\n      tag_47\n      jump\t// in\n    tag_46:\n      tag_48\n      jump\t// in\n    tag_45:\n      stop\n        /* \"contracts/NodeReward.sol\":404:422  IERC20 public cKIP */\n    tag_9:\n      tag_49\n      tag_50\n      jump\t// in\n    tag_49:\n      mload(0x40)\n      tag_51\n      swap2\n      swap1\n      tag_52\n      jump\t// in\n    tag_51:\n      mload(0x40)\n      dup1\n      swap2\n      sub\n      swap1\n      return\n        /* \"@openzeppelin/contracts/access/Ownable.sol\":2293:2394  function renounceOwnership() public virtual onlyOwner {... */\n    tag_10:\n      tag_53\n      tag_54\n      jump\t// in\n    tag_53:\n      stop\n        /* \"contracts/NodeReward.sol\":2361:3097  function claim(uint256 token_id, uint256 amount, address _paymaster, bytes32 reference_id, bytes memory signature) external {... */\n    tag_11:\n      tag_55\n      0x04\n      dup1\n      calldatasize\n      sub\n      dup2\n      add\n      swap1\n      tag_56\n      swap2\n      swap1\n      tag_57\n      jump\t// in\n    tag_56:\n      tag_58\n      jump\t// in\n    tag_55:\n      stop\n        /* \"contracts/NodeReward.sol\":2250:2353  function setFundAddress(address _address) external onlyOwner {... */\n    tag_12:\n      tag_59\n      0x04\n      dup1\n      calldatasize\n      sub\n      dup2\n      add\n      swap1\n      tag_60\n      swap2\n      swap1\n      tag_61\n      jump\t// in\n    tag_60:\n      tag_62\n      jump\t// in\n    tag_59:\n      stop\n        /* \"contracts/NodeReward.sol\":1764:2048  function setDelegation(uint256 token_id, address _address) external {... */\n    tag_13:\n      tag_63\n      0x04\n      dup1\n      calldatasize\n      sub\n      dup2\n      add\n      swap1\n      tag_64\n      swap2\n      swap1\n      tag_65\n      jump\t// in\n    tag_64:\n      tag_66\n      jump\t// in\n    tag_63:\n      stop\n        /* \"@openzeppelin/contracts/access/Ownable.sol\":1638:1723  function owner() public view virtual returns (address) {... */\n    tag_14:\n      tag_67\n      tag_68\n      jump\t// in\n    tag_67:\n      mload(0x40)\n      tag_69\n      swap2\n      swap1\n      tag_28\n      jump\t// in\n    tag_69:\n      mload(0x40)\n      dup1\n      swap2\n      sub\n      swap1\n      return\n        /* \"contracts/NodeReward.sol\":686:735  mapping(uint256 => uint256) public claimedAmounts */\n    tag_15:\n      tag_70\n      0x04\n      dup1\n      calldatasize\n      sub\n      dup2\n      add\n      swap1\n      tag_71\n      swap2\n      swap1\n      tag_25\n      jump\t// in\n    tag_71:\n      tag_72\n      jump\t// in\n    tag_70:\n      mload(0x40)\n      tag_73\n      swap2\n      swap1\n      tag_33\n      jump\t// in\n    tag_73:\n      mload(0x40)\n      dup1\n      swap2\n      sub\n      swap1\n      return\n        /* \"contracts/NodeReward.sol\":799:845  mapping(uint256 => address) public delegations */\n    tag_16:\n      tag_74\n      0x04\n      dup1\n      calldatasize\n      sub\n      dup2\n      add\n      swap1\n      tag_75\n      swap2\n      swap1\n      tag_25\n      jump\t// in\n    tag_75:\n      tag_76\n      jump\t// in\n    tag_74:\n      mload(0x40)\n      tag_77\n      swap2\n      swap1\n      tag_28\n      jump\t// in\n    tag_77:\n      mload(0x40)\n      dup1\n      swap2\n      sub\n      swap1\n      return\n        /* \"contracts/NodeReward.sol\":465:507  uint256 public withdraw_interval = 2592000 */\n    tag_17:\n      tag_78\n      tag_79\n      jump\t// in\n    tag_78:\n      mload(0x40)\n      tag_80\n      swap2\n      swap1\n      tag_33\n      jump\t// in\n    tag_80:\n      mload(0x40)\n      dup1\n      swap2\n      sub\n      swap1\n      return\n        /* \"@openzeppelin/contracts/access/Ownable.sol\":2543:2758  function transferOwnership(address newOwner) public virtual onlyOwner {... */\n    tag_18:\n      tag_81\n      0x04\n      dup1\n      calldatasize\n      sub\n      dup2\n      add\n      swap1\n      tag_82\n      swap2\n      swap1\n      tag_61\n      jump\t// in\n    tag_82:\n      tag_83\n      jump\t// in\n    tag_81:\n      stop\n        /* \"contracts/NodeReward.sol\":371:397  IERC721 public license_nft */\n    tag_19:\n      tag_84\n      tag_85\n      jump\t// in\n    tag_84:\n      mload(0x40)\n      tag_86\n      swap2\n      swap1\n      tag_87\n      jump\t// in\n    tag_86:\n      mload(0x40)\n      dup1\n      swap2\n      sub\n      swap1\n      return\n        /* \"contracts/NodeReward.sol\":1637:1756  function getDelegation(uint256 token_id) public view returns (address)  {... */\n    tag_26:\n        /* \"contracts/NodeReward.sol\":1699:1706  address */\n      0x00\n        /* \"contracts/NodeReward.sol\":1727:1738  delegations */\n      0x0a\n        /* \"contracts/NodeReward.sol\":1727:1748  delegations[token_id] */\n      0x00\n        /* \"contracts/NodeReward.sol\":1739:1747  token_id */\n      dup4\n        /* \"contracts/NodeReward.sol\":1727:1748  delegations[token_id] */\n      dup2\n      mstore\n      0x20\n      add\n      swap1\n      dup2\n      mstore\n      0x20\n      add\n      0x00\n      keccak256\n      0x00\n      swap1\n      sload\n      swap1\n      0x0100\n      exp\n      swap1\n      div\n      0xffffffffffffffffffffffffffffffffffffffff\n      and\n        /* \"contracts/NodeReward.sol\":1720:1748  return delegations[token_id] */\n      swap1\n      pop\n        /* \"contracts/NodeReward.sol\":1637:1756  function getDelegation(uint256 token_id) public view returns (address)  {... */\n      swap2\n      swap1\n      pop\n      jump\t// out\n        /* \"contracts/NodeReward.sol\":742:792  mapping(uint256 => uint256) public withdrawAmounts */\n    tag_31:\n      mstore(0x20, 0x09)\n      dup1\n      0x00\n      mstore\n      keccak256(0x00, 0x40)\n      0x00\n      swap2\n      pop\n      swap1\n      pop\n      sload\n      dup2\n      jump\t// out\n        /* \"contracts/NodeReward.sol\":2056:2242  function setPaymaster(address _address, bool enabled) external onlyOwner {... */\n    tag_37:\n        /* \"@openzeppelin/contracts/access/Ownable.sol\":1531:1544  _checkOwner() */\n      tag_90\n        /* \"@openzeppelin/contracts/access/Ownable.sol\":1531:1542  _checkOwner */\n      tag_91\n        /* \"@openzeppelin/contracts/access/Ownable.sol\":1531:1544  _checkOwner() */\n      jump\t// in\n    tag_90:\n        /* \"contracts/NodeReward.sol\":2162:2169  enabled */\n      dup1\n        /* \"contracts/NodeReward.sol\":2140:2149  paymaster */\n      0x05\n        /* \"contracts/NodeReward.sol\":2140:2159  paymaster[_address] */\n      0x00\n        /* \"contracts/NodeReward.sol\":2150:2158  _address */\n      dup5\n        /* \"contracts/NodeReward.sol\":2140:2159  paymaster[_address] */\n      0xffffffffffffffffffffffffffffffffffffffff\n      and\n      0xffffffffffffffffffffffffffffffffffffffff\n      and\n      dup2\n      mstore\n      0x20\n      add\n      swap1\n      dup2\n      mstore\n      0x20\n      add\n      0x00\n      keccak256\n      0x00\n        /* \"contracts/NodeReward.sol\":2140:2169  paymaster[_address] = enabled */\n      0x0100\n      exp\n      dup2\n      sload\n      dup2\n      0xff\n      mul\n      not\n      and\n      swap1\n      dup4\n      iszero\n      iszero\n      mul\n      or\n      swap1\n      sstore\n      pop\n        /* \"contracts/NodeReward.sol\":2216:2224  _address */\n      dup2\n        /* \"contracts/NodeReward.sol\":2185:2234  PaymasterChanged(_msgSender(), _address, enabled) */\n      0xffffffffffffffffffffffffffffffffffffffff\n      and\n        /* \"contracts/NodeReward.sol\":2202:2214  _msgSender() */\n      tag_93\n        /* \"contracts/NodeReward.sol\":2202:2212  _msgSender */\n      tag_94\n        /* \"contracts/NodeReward.sol\":2202:2214  _msgSender() */\n      jump\t// in\n    tag_93:\n        /* \"contracts/NodeReward.sol\":2185:2234  PaymasterChanged(_msgSender(), _address, enabled) */\n      0xffffffffffffffffffffffffffffffffffffffff\n      and\n      0x6acf3afc37630e6f3e6b7176f7c4f8a3fd260b3f52fbca69f34d6db2d4fbd897\n        /* \"contracts/NodeReward.sol\":2226:2233  enabled */\n      dup4\n        /* \"contracts/NodeReward.sol\":2185:2234  PaymasterChanged(_msgSender(), _address, enabled) */\n      mload(0x40)\n      tag_95\n      swap2\n      swap1\n      tag_96\n      jump\t// in\n    tag_95:\n      mload(0x40)\n      dup1\n      swap2\n      sub\n      swap1\n      log3\n        /* \"contracts/NodeReward.sol\":2056:2242  function setPaymaster(address _address, bool enabled) external onlyOwner {... */\n      pop\n      pop\n      jump\t// out\n        /* \"contracts/NodeReward.sol\":429:456  address public fund_address */\n    tag_39:\n      0x03\n      0x00\n      swap1\n      sload\n      swap1\n      0x0100\n      exp\n      swap1\n      div\n      0xffffffffffffffffffffffffffffffffffffffff\n      and\n      dup2\n      jump\t// out\n        /* \"contracts/NodeReward.sol\":3816:4129  function penalty(uint256 token_id, uint256 amount, bytes32 reference_id) external {... */\n    tag_44:\n        /* \"contracts/NodeReward.sol\":3917:3926  paymaster */\n      0x05\n        /* \"contracts/NodeReward.sol\":3917:3940  paymaster[_msgSender()] */\n      0x00\n        /* \"contracts/NodeReward.sol\":3927:3939  _msgSender() */\n      tag_98\n        /* \"contracts/NodeReward.sol\":3927:3937  _msgSender */\n      tag_94\n        /* \"contracts/NodeReward.sol\":3927:3939  _msgSender() */\n      jump\t// in\n    tag_98:\n        /* \"contracts/NodeReward.sol\":3917:3940  paymaster[_msgSender()] */\n      0xffffffffffffffffffffffffffffffffffffffff\n      and\n      0xffffffffffffffffffffffffffffffffffffffff\n      and\n      dup2\n      mstore\n      0x20\n      add\n      swap1\n      dup2\n      mstore\n      0x20\n      add\n      0x00\n      keccak256\n      0x00\n      swap1\n      sload\n      swap1\n      0x0100\n      exp\n      swap1\n      div\n      0xff\n      and\n        /* \"contracts/NodeReward.sol\":3909:3964  require(paymaster[_msgSender()], \"You are't paymaster\") */\n      tag_99\n      jumpi\n      mload(0x40)\n      0x08c379a000000000000000000000000000000000000000000000000000000000\n      dup2\n      mstore\n      0x04\n      add\n      tag_100\n      swap1\n      tag_101\n      jump\t// in\n    tag_100:\n      mload(0x40)\n      dup1\n      swap2\n      sub\n      swap1\n      revert\n    tag_99:\n        /* \"contracts/NodeReward.sol\":3990:3991  0 */\n      0x00\n        /* \"contracts/NodeReward.sol\":3983:3989  amount */\n      dup3\n        /* \"contracts/NodeReward.sol\":3983:3991  amount>0 */\n      gt\n        /* \"contracts/NodeReward.sol\":3975:4016  require(amount>0, \"Amount can't be zero\") */\n      tag_102\n      jumpi\n      mload(0x40)\n      0x08c379a000000000000000000000000000000000000000000000000000000000\n      dup2\n      mstore\n      0x04\n      add\n      tag_103\n      swap1\n      tag_104\n      jump\t// in\n    tag_103:\n      mload(0x40)\n      dup1\n      swap2\n      sub\n      swap1\n      revert\n    tag_102:\n        /* \"contracts/NodeReward.sol\":4046:4052  amount */\n      dup2\n        /* \"contracts/NodeReward.sol\":4027:4032  fines */\n      0x07\n        /* \"contracts/NodeReward.sol\":4027:4042  fines[token_id] */\n      0x00\n        /* \"contracts/NodeReward.sol\":4033:4041  token_id */\n      dup6\n        /* \"contracts/NodeReward.sol\":4027:4042  fines[token_id] */\n      dup2\n      mstore\n      0x20\n      add\n      swap1\n      dup2\n      mstore\n      0x20\n      add\n      0x00\n      keccak256\n      0x00\n        /* \"contracts/NodeReward.sol\":4027:4052  fines[token_id] += amount */\n      dup3\n      dup3\n      sload\n      tag_105\n      swap2\n      swap1\n      tag_106\n      jump\t// in\n    tag_105:\n      swap3\n      pop\n      pop\n      dup2\n      swap1\n      sstore\n      pop\n        /* \"contracts/NodeReward.sol\":4076:4088  _msgSender() */\n      tag_107\n        /* \"contracts/NodeReward.sol\":4076:4086  _msgSender */\n      tag_94\n        /* \"contracts/NodeReward.sol\":4076:4088  _msgSender() */\n      jump\t// in\n    tag_107:\n        /* \"contracts/NodeReward.sol\":4068:4121  Penalty(_msgSender(), token_id, amount, reference_id) */\n      0xffffffffffffffffffffffffffffffffffffffff\n      and\n      0x798fa367d6ccdf9c7b8053da94322c18e668af50cd7469b5f5a3c0e720f2cb2e\n        /* \"contracts/NodeReward.sol\":4090:4098  token_id */\n      dup5\n        /* \"contracts/NodeReward.sol\":4100:4106  amount */\n      dup5\n        /* \"contracts/NodeReward.sol\":4108:4120  reference_id */\n      dup5\n        /* \"contracts/NodeReward.sol\":4068:4121  Penalty(_msgSender(), token_id, amount, reference_id) */\n      mload(0x40)\n      tag_108\n      swap4\n      swap3\n      swap2\n      swap1\n      tag_109\n      jump\t// in\n    tag_108:\n      mload(0x40)\n      dup1\n      swap2\n      sub\n      swap1\n      log2\n        /* \"contracts/NodeReward.sol\":3816:4129  function penalty(uint256 token_id, uint256 amount, bytes32 reference_id) external {... */\n      pop\n      pop\n      pop\n      jump\t// out\n        /* \"contracts/NodeReward.sol\":3105:3808  function withdraw(uint256 token_id, uint256 amount) external {... */\n    tag_48:\n        /* \"contracts/NodeReward.sol\":3215:3216  0 */\n      0x00\n        /* \"contracts/NodeReward.sol\":3185:3203  last_withdraw_time */\n      0x06\n        /* \"contracts/NodeReward.sol\":3185:3213  last_withdraw_time[token_id] */\n      0x00\n        /* \"contracts/NodeReward.sol\":3204:3212  token_id */\n      dup5\n        /* \"contracts/NodeReward.sol\":3185:3213  last_withdraw_time[token_id] */\n      dup2\n      mstore\n      0x20\n      add\n      swap1\n      dup2\n      mstore\n      0x20\n      add\n      0x00\n      keccak256\n      sload\n        /* \"contracts/NodeReward.sol\":3185:3216  last_withdraw_time[token_id]==0 */\n      eq\n        /* \"contracts/NodeReward.sol\":3185:3282  last_withdraw_time[token_id]==0 && last_withdraw_time[token_id]+withdraw_interval>block.timestamp */\n      dup1\n      iszero\n      tag_111\n      jumpi\n      pop\n        /* \"contracts/NodeReward.sol\":3267:3282  block.timestamp */\n      timestamp\n        /* \"contracts/NodeReward.sol\":3249:3266  withdraw_interval */\n      sload(0x04)\n        /* \"contracts/NodeReward.sol\":3220:3238  last_withdraw_time */\n      0x06\n        /* \"contracts/NodeReward.sol\":3220:3248  last_withdraw_time[token_id] */\n      0x00\n        /* \"contracts/NodeReward.sol\":3239:3247  token_id */\n      dup6\n        /* \"contracts/NodeReward.sol\":3220:3248  last_withdraw_time[token_id] */\n      dup2\n      mstore\n      0x20\n      add\n      swap1\n      dup2\n      mstore\n      0x20\n      add\n      0x00\n      keccak256\n      sload\n        /* \"contracts/NodeReward.sol\":3220:3266  last_withdraw_time[token_id]+withdraw_interval */\n      tag_112\n      swap2\n      swap1\n      tag_106\n      jump\t// in\n    tag_112:\n        /* \"contracts/NodeReward.sol\":3220:3282  last_withdraw_time[token_id]+withdraw_interval>block.timestamp */\n      gt\n        /* \"contracts/NodeReward.sol\":3185:3282  last_withdraw_time[token_id]==0 && last_withdraw_time[token_id]+withdraw_interval>block.timestamp */\n    tag_111:\n        /* \"contracts/NodeReward.sol\":3177:3305  require(last_withdraw_time[token_id]==0 && last_withdraw_time[token_id]+withdraw_interval>block.timestamp, \"Can't withdraw yet\") */\n      tag_113\n      jumpi\n      mload(0x40)\n      0x08c379a000000000000000000000000000000000000000000000000000000000\n      dup2\n      mstore\n      0x04\n      add\n      tag_114\n      swap1\n      tag_115\n      jump\t// in\n    tag_114:\n      mload(0x40)\n      dup1\n      swap2\n      sub\n      swap1\n      revert\n    tag_113:\n        /* \"contracts/NodeReward.sol\":3361:3373  _msgSender() */\n      tag_116\n        /* \"contracts/NodeReward.sol\":3361:3371  _msgSender */\n      tag_94\n        /* \"contracts/NodeReward.sol\":3361:3373  _msgSender() */\n      jump\t// in\n    tag_116:\n        /* \"contracts/NodeReward.sol\":3328:3373  license_nft.ownerOf(token_id) == _msgSender() */\n      0xffffffffffffffffffffffffffffffffffffffff\n      and\n        /* \"contracts/NodeReward.sol\":3328:3339  license_nft */\n      0x01\n      0x00\n      swap1\n      sload\n      swap1\n      0x0100\n      exp\n      swap1\n      div\n      0xffffffffffffffffffffffffffffffffffffffff\n      and\n        /* \"contracts/NodeReward.sol\":3328:3347  license_nft.ownerOf */\n      0xffffffffffffffffffffffffffffffffffffffff\n      and\n      0x6352211e\n        /* \"contracts/NodeReward.sol\":3348:3356  token_id */\n      dup5\n        /* \"contracts/NodeReward.sol\":3328:3357  license_nft.ownerOf(token_id) */\n      mload(0x40)\n      dup3\n      0xffffffff\n      and\n      0xe0\n      shl\n      dup2\n      mstore\n      0x04\n      add\n      tag_117\n      swap2\n      swap1\n      tag_33\n      jump\t// in\n    tag_117:\n      0x20\n      mload(0x40)\n      dup1\n      dup4\n      sub\n      dup2\n      dup7\n      gas\n      staticcall\n      iszero\n      dup1\n      iszero\n      tag_119\n      jumpi\n      returndatasize\n      0x00\n      dup1\n      returndatacopy\n      revert(0x00, returndatasize)\n    tag_119:\n      pop\n      pop\n      pop\n      pop\n      mload(0x40)\n      returndatasize\n      not(0x1f)\n      0x1f\n      dup3\n      add\n      and\n      dup3\n      add\n      dup1\n      0x40\n      mstore\n      pop\n      dup2\n      add\n      swap1\n      tag_120\n      swap2\n      swap1\n      tag_121\n      jump\t// in\n    tag_120:\n        /* \"contracts/NodeReward.sol\":3328:3373  license_nft.ownerOf(token_id) == _msgSender() */\n      0xffffffffffffffffffffffffffffffffffffffff\n      and\n      eq\n        /* \"contracts/NodeReward.sol\":3320:3407  require(license_nft.ownerOf(token_id) == _msgSender(), \"Caller is not the token owner\") */\n      tag_122\n      jumpi\n      mload(0x40)\n      0x08c379a000000000000000000000000000000000000000000000000000000000\n      dup2\n      mstore\n      0x04\n      add\n      tag_123\n      swap1\n      tag_124\n      jump\t// in\n    tag_123:\n      mload(0x40)\n      dup1\n      swap2\n      sub\n      swap1\n      revert\n    tag_122:\n        /* \"contracts/NodeReward.sol\":3433:3434  0 */\n      0x00\n        /* \"contracts/NodeReward.sol\":3426:3432  amount */\n      dup2\n        /* \"contracts/NodeReward.sol\":3426:3434  amount>0 */\n      gt\n        /* \"contracts/NodeReward.sol\":3418:3459  require(amount>0, \"Amount can't be zero\") */\n      tag_125\n      jumpi\n      mload(0x40)\n      0x08c379a000000000000000000000000000000000000000000000000000000000\n      dup2\n      mstore\n      0x04\n      add\n      tag_126\n      swap1\n      tag_104\n      jump\t// in\n    tag_126:\n      mload(0x40)\n      dup1\n      swap2\n      sub\n      swap1\n      revert\n    tag_125:\n        /* \"contracts/NodeReward.sol\":3546:3552  amount */\n      dup1\n        /* \"contracts/NodeReward.sol\":3520:3535  withdrawAmounts */\n      0x09\n        /* \"contracts/NodeReward.sol\":3520:3545  withdrawAmounts[token_id] */\n      0x00\n        /* \"contracts/NodeReward.sol\":3536:3544  token_id */\n      dup5\n        /* \"contracts/NodeReward.sol\":3520:3545  withdrawAmounts[token_id] */\n      dup2\n      mstore\n      0x20\n      add\n      swap1\n      dup2\n      mstore\n      0x20\n      add\n      0x00\n      keccak256\n      sload\n        /* \"contracts/NodeReward.sol\":3520:3552  withdrawAmounts[token_id]+amount */\n      tag_127\n      swap2\n      swap1\n      tag_106\n      jump\t// in\n    tag_127:\n        /* \"contracts/NodeReward.sol\":3503:3508  fines */\n      0x07\n        /* \"contracts/NodeReward.sol\":3503:3518  fines[token_id] */\n      0x00\n        /* \"contracts/NodeReward.sol\":3509:3517  token_id */\n      dup5\n        /* \"contracts/NodeReward.sol\":3503:3518  fines[token_id] */\n      dup2\n      mstore\n      0x20\n      add\n      swap1\n      dup2\n      mstore\n      0x20\n      add\n      0x00\n      keccak256\n      sload\n        /* \"contracts/NodeReward.sol\":3478:3492  claimedAmounts */\n      0x08\n        /* \"contracts/NodeReward.sol\":3478:3502  claimedAmounts[token_id] */\n      0x00\n        /* \"contracts/NodeReward.sol\":3493:3501  token_id */\n      dup6\n        /* \"contracts/NodeReward.sol\":3478:3502  claimedAmounts[token_id] */\n      dup2\n      mstore\n      0x20\n      add\n      swap1\n      dup2\n      mstore\n      0x20\n      add\n      0x00\n      keccak256\n      sload\n        /* \"contracts/NodeReward.sol\":3478:3518  claimedAmounts[token_id]-fines[token_id] */\n      tag_128\n      swap2\n      swap1\n      tag_129\n      jump\t// in\n    tag_128:\n        /* \"contracts/NodeReward.sol\":3478:3552  claimedAmounts[token_id]-fines[token_id]>=withdrawAmounts[token_id]+amount */\n      lt\n      iszero\n        /* \"contracts/NodeReward.sol\":3470:3577  require(claimedAmounts[token_id]-fines[token_id]>=withdrawAmounts[token_id]+amount, \"You money not enough\") */\n      tag_130\n      jumpi\n      mload(0x40)\n      0x08c379a000000000000000000000000000000000000000000000000000000000\n      dup2\n      mstore\n      0x04\n      add\n      tag_131\n      swap1\n      tag_132\n      jump\t// in\n    tag_131:\n      mload(0x40)\n      dup1\n      swap2\n      sub\n      swap1\n      revert\n    tag_130:\n        /* \"contracts/NodeReward.sol\":3588:3592  cKIP */\n      0x02\n      0x00\n      swap1\n      sload\n      swap1\n      0x0100\n      exp\n      swap1\n      div\n      0xffffffffffffffffffffffffffffffffffffffff\n      and\n        /* \"contracts/NodeReward.sol\":3588:3605  cKIP.transferFrom */\n      0xffffffffffffffffffffffffffffffffffffffff\n      and\n      0x23b872dd\n        /* \"contracts/NodeReward.sol\":3606:3618  fund_address */\n      0x03\n      0x00\n      swap1\n      sload\n      swap1\n      0x0100\n      exp\n      swap1\n      div\n      0xffffffffffffffffffffffffffffffffffffffff\n      and\n        /* \"contracts/NodeReward.sol\":3620:3632  _msgSender() */\n      tag_133\n        /* \"contracts/NodeReward.sol\":3620:3630  _msgSender */\n      tag_94\n        /* \"contracts/NodeReward.sol\":3620:3632  _msgSender() */\n      jump\t// in\n    tag_133:\n        /* \"contracts/NodeReward.sol\":3634:3640  amount */\n      dup5\n        /* \"contracts/NodeReward.sol\":3588:3641  cKIP.transferFrom(fund_address, _msgSender(), amount) */\n      mload(0x40)\n      dup5\n      0xffffffff\n      and\n      0xe0\n      shl\n      dup2\n      mstore\n      0x04\n      add\n      tag_134\n      swap4\n      swap3\n      swap2\n      swap1\n      tag_135\n      jump\t// in\n    tag_134:\n      0x20\n      mload(0x40)\n      dup1\n      dup4\n      sub\n      dup2\n      0x00\n      dup8\n      gas\n      call\n      iszero\n      dup1\n      iszero\n      tag_137\n      jumpi\n      returndatasize\n      0x00\n      dup1\n      returndatacopy\n      revert(0x00, returndatasize)\n    tag_137:\n      pop\n      pop\n      pop\n      pop\n      mload(0x40)\n      returndatasize\n      not(0x1f)\n      0x1f\n      dup3\n      add\n      and\n      dup3\n      add\n      dup1\n      0x40\n      mstore\n      pop\n      dup2\n      add\n      swap1\n      tag_138\n      swap2\n      swap1\n      tag_139\n      jump\t// in\n    tag_138:\n      pop\n        /* \"contracts/NodeReward.sol\":3683:3698  block.timestamp */\n      timestamp\n        /* \"contracts/NodeReward.sol\":3652:3670  last_withdraw_time */\n      0x06\n        /* \"contracts/NodeReward.sol\":3652:3680  last_withdraw_time[token_id] */\n      0x00\n        /* \"contracts/NodeReward.sol\":3671:3679  token_id */\n      dup5\n        /* \"contracts/NodeReward.sol\":3652:3680  last_withdraw_time[token_id] */\n      dup2\n      mstore\n      0x20\n      add\n      swap1\n      dup2\n      mstore\n      0x20\n      add\n      0x00\n      keccak256\n        /* \"contracts/NodeReward.sol\":3652:3698  last_withdraw_time[token_id] = block.timestamp */\n      dup2\n      swap1\n      sstore\n      pop\n        /* \"contracts/NodeReward.sol\":3738:3744  amount */\n      dup1\n        /* \"contracts/NodeReward.sol\":3709:3724  withdrawAmounts */\n      0x09\n        /* \"contracts/NodeReward.sol\":3709:3734  withdrawAmounts[token_id] */\n      0x00\n        /* \"contracts/NodeReward.sol\":3725:3733  token_id */\n      dup5\n        /* \"contracts/NodeReward.sol\":3709:3734  withdrawAmounts[token_id] */\n      dup2\n      mstore\n      0x20\n      add\n      swap1\n      dup2\n      mstore\n      0x20\n      add\n      0x00\n      keccak256\n      0x00\n        /* \"contracts/NodeReward.sol\":3709:3744  withdrawAmounts[token_id] += amount */\n      dup3\n      dup3\n      sload\n      tag_140\n      swap2\n      swap1\n      tag_106\n      jump\t// in\n    tag_140:\n      swap3\n      pop\n      pop\n      dup2\n      swap1\n      sstore\n      pop\n        /* \"contracts/NodeReward.sol\":3769:3781  _msgSender() */\n      tag_141\n        /* \"contracts/NodeReward.sol\":3769:3779  _msgSender */\n      tag_94\n        /* \"contracts/NodeReward.sol\":3769:3781  _msgSender() */\n      jump\t// in\n    tag_141:\n        /* \"contracts/NodeReward.sol\":3760:3800  Withdraw(_msgSender(), token_id, amount) */\n      0xffffffffffffffffffffffffffffffffffffffff\n      and\n      0xf279e6a1f5e320cca91135676d9cb6e44ca8a08c0b88342bcdb1144f6511b568\n        /* \"contracts/NodeReward.sol\":3783:3791  token_id */\n      dup4\n        /* \"contracts/NodeReward.sol\":3793:3799  amount */\n      dup4\n        /* \"contracts/NodeReward.sol\":3760:3800  Withdraw(_msgSender(), token_id, amount) */\n      mload(0x40)\n      tag_142\n      swap3\n      swap2\n      swap1\n      tag_143\n      jump\t// in\n    tag_142:\n      mload(0x40)\n      dup1\n      swap2\n      sub\n      swap1\n      log2\n        /* \"contracts/NodeReward.sol\":3105:3808  function withdraw(uint256 token_id, uint256 amount) external {... */\n      pop\n      pop\n      jump\t// out\n        /* \"contracts/NodeReward.sol\":404:422  IERC20 public cKIP */\n    tag_50:\n      0x02\n      0x00\n      swap1\n      sload\n      swap1\n      0x0100\n      exp\n      swap1\n      div\n      0xffffffffffffffffffffffffffffffffffffffff\n      and\n      dup2\n      jump\t// out\n        /* \"@openzeppelin/contracts/access/Ownable.sol\":2293:2394  function renounceOwnership() public virtual onlyOwner {... */\n    tag_54:\n        /* \"@openzeppelin/contracts/access/Ownable.sol\":1531:1544  _checkOwner() */\n      tag_145\n        /* \"@openzeppelin/contracts/access/Ownable.sol\":1531:1542  _checkOwner */\n      tag_91\n        /* \"@openzeppelin/contracts/access/Ownable.sol\":1531:1544  _checkOwner() */\n      jump\t// in\n    tag_145:\n        /* \"@openzeppelin/contracts/access/Ownable.sol\":2357:2387  _transferOwnership(address(0)) */\n      tag_147\n        /* \"@openzeppelin/contracts/access/Ownable.sol\":2384:2385  0 */\n      0x00\n        /* \"@openzeppelin/contracts/access/Ownable.sol\":2357:2375  _transferOwnership */\n      tag_148\n        /* \"@openzeppelin/contracts/access/Ownable.sol\":2357:2387  _transferOwnership(address(0)) */\n      jump\t// in\n    tag_147:\n        /* \"@openzeppelin/contracts/access/Ownable.sol\":2293:2394  function renounceOwnership() public virtual onlyOwner {... */\n      jump\t// out\n        /* \"contracts/NodeReward.sol\":2361:3097  function claim(uint256 token_id, uint256 amount, address _paymaster, bytes32 reference_id, bytes memory signature) external {... */\n    tag_58:\n        /* \"contracts/NodeReward.sol\":2511:2512  0 */\n      0x00\n        /* \"contracts/NodeReward.sol\":2504:2510  amount */\n      dup5\n        /* \"contracts/NodeReward.sol\":2504:2512  amount>0 */\n      gt\n        /* \"contracts/NodeReward.sol\":2496:2537  require(amount>0, \"Amount can't be zero\") */\n      tag_150\n      jumpi\n      mload(0x40)\n      0x08c379a000000000000000000000000000000000000000000000000000000000\n      dup2\n      mstore\n      0x04\n      add\n      tag_151\n      swap1\n      tag_104\n      jump\t// in\n    tag_151:\n      mload(0x40)\n      dup1\n      swap2\n      sub\n      swap1\n      revert\n    tag_150:\n        /* \"contracts/NodeReward.sol\":2560:2569  paymaster */\n      0x05\n        /* \"contracts/NodeReward.sol\":2560:2581  paymaster[_paymaster] */\n      0x00\n        /* \"contracts/NodeReward.sol\":2570:2580  _paymaster */\n      dup5\n        /* \"contracts/NodeReward.sol\":2560:2581  paymaster[_paymaster] */\n      0xffffffffffffffffffffffffffffffffffffffff\n      and\n      0xffffffffffffffffffffffffffffffffffffffff\n      and\n      dup2\n      mstore\n      0x20\n      add\n      swap1\n      dup2\n      mstore\n      0x20\n      add\n      0x00\n      keccak256\n      0x00\n      swap1\n      sload\n      swap1\n      0x0100\n      exp\n      swap1\n      div\n      0xff\n      and\n        /* \"contracts/NodeReward.sol\":2552:2605  require(paymaster[_paymaster], \"You are't paymaster\") */\n      tag_152\n      jumpi\n      mload(0x40)\n      0x08c379a000000000000000000000000000000000000000000000000000000000\n      dup2\n      mstore\n      0x04\n      add\n      tag_153\n      swap1\n      tag_101\n      jump\t// in\n    tag_153:\n      mload(0x40)\n      dup1\n      swap2\n      sub\n      swap1\n      revert\n    tag_152:\n        /* \"contracts/NodeReward.sol\":2661:2673  _msgSender() */\n      tag_154\n        /* \"contracts/NodeReward.sol\":2661:2671  _msgSender */\n      tag_94\n        /* \"contracts/NodeReward.sol\":2661:2673  _msgSender() */\n      jump\t// in\n    tag_154:\n        /* \"contracts/NodeReward.sol\":2628:2673  license_nft.ownerOf(token_id) == _msgSender() */\n      0xffffffffffffffffffffffffffffffffffffffff\n      and\n        /* \"contracts/NodeReward.sol\":2628:2639  license_nft */\n      0x01\n      0x00\n      swap1\n      sload\n      swap1\n      0x0100\n      exp\n      swap1\n      div\n      0xffffffffffffffffffffffffffffffffffffffff\n      and\n        /* \"contracts/NodeReward.sol\":2628:2647  license_nft.ownerOf */\n      0xffffffffffffffffffffffffffffffffffffffff\n      and\n      0x6352211e\n        /* \"contracts/NodeReward.sol\":2648:2656  token_id */\n      dup8\n        /* \"contracts/NodeReward.sol\":2628:2657  license_nft.ownerOf(token_id) */\n      mload(0x40)\n      dup3\n      0xffffffff\n      and\n      0xe0\n      shl\n      dup2\n      mstore\n      0x04\n      add\n      tag_155\n      swap2\n      swap1\n      tag_33\n      jump\t// in\n    tag_155:\n      0x20\n      mload(0x40)\n      dup1\n      dup4\n      sub\n      dup2\n      dup7\n      gas\n      staticcall\n      iszero\n      dup1\n      iszero\n      tag_157\n      jumpi\n      returndatasize\n      0x00\n      dup1\n      returndatacopy\n      revert(0x00, returndatasize)\n    tag_157:\n      pop\n      pop\n      pop\n      pop\n      mload(0x40)\n      returndatasize\n      not(0x1f)\n      0x1f\n      dup3\n      add\n      and\n      dup3\n      add\n      dup1\n      0x40\n      mstore\n      pop\n      dup2\n      add\n      swap1\n      tag_158\n      swap2\n      swap1\n      tag_121\n      jump\t// in\n    tag_158:\n        /* \"contracts/NodeReward.sol\":2628:2673  license_nft.ownerOf(token_id) == _msgSender() */\n      0xffffffffffffffffffffffffffffffffffffffff\n      and\n      eq\n        /* \"contracts/NodeReward.sol\":2620:2707  require(license_nft.ownerOf(token_id) == _msgSender(), \"Caller is not the token owner\") */\n      tag_159\n      jumpi\n      mload(0x40)\n      0x08c379a000000000000000000000000000000000000000000000000000000000\n      dup2\n      mstore\n      0x04\n      add\n      tag_160\n      swap1\n      tag_124\n      jump\t// in\n    tag_160:\n      mload(0x40)\n      dup1\n      swap2\n      sub\n      swap1\n      revert\n    tag_159:\n        /* \"contracts/NodeReward.sol\":2718:2733  bytes32 message */\n      0x00\n        /* \"contracts/NodeReward.sol\":2757:2771  claimedAmounts */\n      0x08\n        /* \"contracts/NodeReward.sol\":2757:2781  claimedAmounts[token_id] */\n      0x00\n        /* \"contracts/NodeReward.sol\":2772:2780  token_id */\n      dup8\n        /* \"contracts/NodeReward.sol\":2757:2781  claimedAmounts[token_id] */\n      dup2\n      mstore\n      0x20\n      add\n      swap1\n      dup2\n      mstore\n      0x20\n      add\n      0x00\n      keccak256\n      sload\n        /* \"contracts/NodeReward.sol\":2782:2790  token_id */\n      dup7\n        /* \"contracts/NodeReward.sol\":2792:2798  amount */\n      dup7\n        /* \"contracts/NodeReward.sol\":2800:2812  _msgSender() */\n      tag_161\n        /* \"contracts/NodeReward.sol\":2800:2810  _msgSender */\n      tag_94\n        /* \"contracts/NodeReward.sol\":2800:2812  _msgSender() */\n      jump\t// in\n    tag_161:\n        /* \"contracts/NodeReward.sol\":2814:2826  reference_id */\n      dup7\n        /* \"contracts/NodeReward.sol\":2746:2827  abi.encode(claimedAmounts[token_id],token_id, amount, _msgSender(), reference_id) */\n      add(0x20, mload(0x40))\n      tag_162\n      swap6\n      swap5\n      swap4\n      swap3\n      swap2\n      swap1\n      tag_163\n      jump\t// in\n    tag_162:\n      mload(0x40)\n      0x20\n      dup2\n      dup4\n      sub\n      sub\n      dup2\n      mstore\n      swap1\n      0x40\n      mstore\n        /* \"contracts/NodeReward.sol\":2736:2828  keccak256(abi.encode(claimedAmounts[token_id],token_id, amount, _msgSender(), reference_id)) */\n      dup1\n      mload\n      swap1\n      0x20\n      add\n      keccak256\n        /* \"contracts/NodeReward.sol\":2718:2828  bytes32 message = keccak256(abi.encode(claimedAmounts[token_id],token_id, amount, _msgSender(), reference_id)) */\n      swap1\n      pop\n        /* \"contracts/NodeReward.sol\":2839:2863  address recoveredAddress */\n      0x00\n        /* \"contracts/NodeReward.sol\":2866:2892  message.recover(signature) */\n      tag_164\n        /* \"contracts/NodeReward.sol\":2882:2891  signature */\n      dup4\n        /* \"contracts/NodeReward.sol\":2866:2873  message */\n      dup4\n        /* \"contracts/NodeReward.sol\":2866:2881  message.recover */\n      tag_165\n      swap1\n        /* \"contracts/NodeReward.sol\":2866:2892  message.recover(signature) */\n      swap2\n      swap1\n      0xffffffff\n      and\n      jump\t// in\n    tag_164:\n        /* \"contracts/NodeReward.sol\":2839:2892  address recoveredAddress = message.recover(signature) */\n      swap1\n      pop\n        /* \"contracts/NodeReward.sol\":2931:2941  _paymaster */\n      dup5\n        /* \"contracts/NodeReward.sol\":2911:2941  recoveredAddress == _paymaster */\n      0xffffffffffffffffffffffffffffffffffffffff\n      and\n        /* \"contracts/NodeReward.sol\":2911:2927  recoveredAddress */\n      dup2\n        /* \"contracts/NodeReward.sol\":2911:2941  recoveredAddress == _paymaster */\n      0xffffffffffffffffffffffffffffffffffffffff\n      and\n      eq\n        /* \"contracts/NodeReward.sol\":2903:2963  require(recoveredAddress == _paymaster, \"Invalid Signature\") */\n      tag_166\n      jumpi\n      mload(0x40)\n      0x08c379a000000000000000000000000000000000000000000000000000000000\n      dup2\n      mstore\n      0x04\n      add\n      tag_167\n      swap1\n      tag_168\n      jump\t// in\n    tag_167:\n      mload(0x40)\n      dup1\n      swap2\n      sub\n      swap1\n      revert\n    tag_166:\n        /* \"contracts/NodeReward.sol\":3002:3008  amount */\n      dup6\n        /* \"contracts/NodeReward.sol\":2974:2988  claimedAmounts */\n      0x08\n        /* \"contracts/NodeReward.sol\":2974:2998  claimedAmounts[token_id] */\n      0x00\n        /* \"contracts/NodeReward.sol\":2989:2997  token_id */\n      dup10\n        /* \"contracts/NodeReward.sol\":2974:2998  claimedAmounts[token_id] */\n      dup2\n      mstore\n      0x20\n      add\n      swap1\n      dup2\n      mstore\n      0x20\n      add\n      0x00\n      keccak256\n      0x00\n        /* \"contracts/NodeReward.sol\":2974:3008  claimedAmounts[token_id] += amount */\n      dup3\n      dup3\n      sload\n      tag_169\n      swap2\n      swap1\n      tag_106\n      jump\t// in\n    tag_169:\n      swap3\n      pop\n      pop\n      dup2\n      swap1\n      sstore\n      pop\n        /* \"contracts/NodeReward.sol\":3064:3074  _paymaster */\n      dup5\n        /* \"contracts/NodeReward.sol\":3024:3089  Claimed(_msgSender(), token_id, amount, _paymaster, reference_id) */\n      0xffffffffffffffffffffffffffffffffffffffff\n      and\n        /* \"contracts/NodeReward.sol\":3032:3044  _msgSender() */\n      tag_170\n        /* \"contracts/NodeReward.sol\":3032:3042  _msgSender */\n      tag_94\n        /* \"contracts/NodeReward.sol\":3032:3044  _msgSender() */\n      jump\t// in\n    tag_170:\n        /* \"contracts/NodeReward.sol\":3024:3089  Claimed(_msgSender(), token_id, amount, _paymaster, reference_id) */\n      0xffffffffffffffffffffffffffffffffffffffff\n      and\n      0xbfeca4b40cfe4b2290f947b0600f588f69e9387ebf4ed295ca0ac0dcf879e059\n        /* \"contracts/NodeReward.sol\":3046:3054  token_id */\n      dup10\n        /* \"contracts/NodeReward.sol\":3056:3062  amount */\n      dup10\n        /* \"contracts/NodeReward.sol\":3076:3088  reference_id */\n      dup9\n        /* \"contracts/NodeReward.sol\":3024:3089  Claimed(_msgSender(), token_id, amount, _paymaster, reference_id) */\n      mload(0x40)\n      tag_171\n      swap4\n      swap3\n      swap2\n      swap1\n      tag_109\n      jump\t// in\n    tag_171:\n      mload(0x40)\n      dup1\n      swap2\n      sub\n      swap1\n      log3\n        /* \"contracts/NodeReward.sol\":2485:3097  {... */\n      pop\n      pop\n        /* \"contracts/NodeReward.sol\":2361:3097  function claim(uint256 token_id, uint256 amount, address _paymaster, bytes32 reference_id, bytes memory signature) external {... */\n      pop\n      pop\n      pop\n      pop\n      pop\n      jump\t// out\n        /* \"contracts/NodeReward.sol\":2250:2353  function setFundAddress(address _address) external onlyOwner {... */\n    tag_62:\n        /* \"@openzeppelin/contracts/access/Ownable.sol\":1531:1544  _checkOwner() */\n      tag_173\n        /* \"@openzeppelin/contracts/access/Ownable.sol\":1531:1542  _checkOwner */\n      tag_91\n        /* \"@openzeppelin/contracts/access/Ownable.sol\":1531:1544  _checkOwner() */\n      jump\t// in\n    tag_173:\n        /* \"contracts/NodeReward.sol\":2337:2345  _address */\n      dup1\n        /* \"contracts/NodeReward.sol\":2322:2334  fund_address */\n      0x03\n      0x00\n        /* \"contracts/NodeReward.sol\":2322:2345  fund_address = _address */\n      0x0100\n      exp\n      dup2\n      sload\n      dup2\n      0xffffffffffffffffffffffffffffffffffffffff\n      mul\n      not\n      and\n      swap1\n      dup4\n      0xffffffffffffffffffffffffffffffffffffffff\n      and\n      mul\n      or\n      swap1\n      sstore\n      pop\n        /* \"contracts/NodeReward.sol\":2250:2353  function setFundAddress(address _address) external onlyOwner {... */\n      pop\n      jump\t// out\n        /* \"contracts/NodeReward.sol\":1764:2048  function setDelegation(uint256 token_id, address _address) external {... */\n    tag_66:\n        /* \"contracts/NodeReward.sol\":1884:1896  _msgSender() */\n      tag_176\n        /* \"contracts/NodeReward.sol\":1884:1894  _msgSender */\n      tag_94\n        /* \"contracts/NodeReward.sol\":1884:1896  _msgSender() */\n      jump\t// in\n    tag_176:\n        /* \"contracts/NodeReward.sol\":1851:1896  license_nft.ownerOf(token_id) == _msgSender() */\n      0xffffffffffffffffffffffffffffffffffffffff\n      and\n        /* \"contracts/NodeReward.sol\":1851:1862  license_nft */\n      0x01\n      0x00\n      swap1\n      sload\n      swap1\n      0x0100\n      exp\n      swap1\n      div\n      0xffffffffffffffffffffffffffffffffffffffff\n      and\n        /* \"contracts/NodeReward.sol\":1851:1870  license_nft.ownerOf */\n      0xffffffffffffffffffffffffffffffffffffffff\n      and\n      0x6352211e\n        /* \"contracts/NodeReward.sol\":1871:1879  token_id */\n      dup5\n        /* \"contracts/NodeReward.sol\":1851:1880  license_nft.ownerOf(token_id) */\n      mload(0x40)\n      dup3\n      0xffffffff\n      and\n      0xe0\n      shl\n      dup2\n      mstore\n      0x04\n      add\n      tag_177\n      swap2\n      swap1\n      tag_33\n      jump\t// in\n    tag_177:\n      0x20\n      mload(0x40)\n      dup1\n      dup4\n      sub\n      dup2\n      dup7\n      gas\n      staticcall\n      iszero\n      dup1\n      iszero\n      tag_179\n      jumpi\n      returndatasize\n      0x00\n      dup1\n      returndatacopy\n      revert(0x00, returndatasize)\n    tag_179:\n      pop\n      pop\n      pop\n      pop\n      mload(0x40)\n      returndatasize\n      not(0x1f)\n      0x1f\n      dup3\n      add\n      and\n      dup3\n      add\n      dup1\n      0x40\n      mstore\n      pop\n      dup2\n      add\n      swap1\n      tag_180\n      swap2\n      swap1\n      tag_121\n      jump\t// in\n    tag_180:\n        /* \"contracts/NodeReward.sol\":1851:1896  license_nft.ownerOf(token_id) == _msgSender() */\n      0xffffffffffffffffffffffffffffffffffffffff\n      and\n      eq\n        /* \"contracts/NodeReward.sol\":1843:1930  require(license_nft.ownerOf(token_id) == _msgSender(), \"Caller is not the token owner\") */\n      tag_181\n      jumpi\n      mload(0x40)\n      0x08c379a000000000000000000000000000000000000000000000000000000000\n      dup2\n      mstore\n      0x04\n      add\n      tag_182\n      swap1\n      tag_124\n      jump\t// in\n    tag_182:\n      mload(0x40)\n      dup1\n      swap2\n      sub\n      swap1\n      revert\n    tag_181:\n        /* \"contracts/NodeReward.sol\":1965:1973  _address */\n      dup1\n        /* \"contracts/NodeReward.sol\":1941:1952  delegations */\n      0x0a\n        /* \"contracts/NodeReward.sol\":1941:1962  delegations[token_id] */\n      0x00\n        /* \"contracts/NodeReward.sol\":1953:1961  token_id */\n      dup5\n        /* \"contracts/NodeReward.sol\":1941:1962  delegations[token_id] */\n      dup2\n      mstore\n      0x20\n      add\n      swap1\n      dup2\n      mstore\n      0x20\n      add\n      0x00\n      keccak256\n      0x00\n        /* \"contracts/NodeReward.sol\":1941:1973  delegations[token_id] = _address */\n      0x0100\n      exp\n      dup2\n      sload\n      dup2\n      0xffffffffffffffffffffffffffffffffffffffff\n      mul\n      not\n      and\n      swap1\n      dup4\n      0xffffffffffffffffffffffffffffffffffffffff\n      and\n      mul\n      or\n      swap1\n      sstore\n      pop\n        /* \"contracts/NodeReward.sol\":2031:2039  _address */\n      dup1\n        /* \"contracts/NodeReward.sol\":1989:2040  DelegationChanged(_msgSender(), token_id, _address) */\n      0xffffffffffffffffffffffffffffffffffffffff\n      and\n        /* \"contracts/NodeReward.sol\":2007:2019  _msgSender() */\n      tag_183\n        /* \"contracts/NodeReward.sol\":2007:2017  _msgSender */\n      tag_94\n        /* \"contracts/NodeReward.sol\":2007:2019  _msgSender() */\n      jump\t// in\n    tag_183:\n        /* \"contracts/NodeReward.sol\":1989:2040  DelegationChanged(_msgSender(), token_id, _address) */\n      0xffffffffffffffffffffffffffffffffffffffff\n      and\n      0xd4475e70caef6019d8fb1cd3096f7fe97b4b60b1fb693a1f6f517e3c252a7975\n        /* \"contracts/NodeReward.sol\":2021:2029  token_id */\n      dup5\n        /* \"contracts/NodeReward.sol\":1989:2040  DelegationChanged(_msgSender(), token_id, _address) */\n      mload(0x40)\n      tag_184\n      swap2\n      swap1\n      tag_33\n      jump\t// in\n    tag_184:\n      mload(0x40)\n      dup1\n      swap2\n      sub\n      swap1\n      log3\n        /* \"contracts/NodeReward.sol\":1764:2048  function setDelegation(uint256 token_id, address _address) external {... */\n      pop\n      pop\n      jump\t// out\n        /* \"@openzeppelin/contracts/access/Ownable.sol\":1638:1723  function owner() public view virtual returns (address) {... */\n    tag_68:\n        /* \"@openzeppelin/contracts/access/Ownable.sol\":1684:1691  address */\n      0x00\n        /* \"@openzeppelin/contracts/access/Ownable.sol\":1710:1716  _owner */\n      dup1\n      0x00\n      swap1\n      sload\n      swap1\n      0x0100\n      exp\n      swap1\n      div\n      0xffffffffffffffffffffffffffffffffffffffff\n      and\n        /* \"@openzeppelin/contracts/access/Ownable.sol\":1703:1716  return _owner */\n      swap1\n      pop\n        /* \"@openzeppelin/contracts/access/Ownable.sol\":1638:1723  function owner() public view virtual returns (address) {... */\n      swap1\n      jump\t// out\n        /* \"contracts/NodeReward.sol\":686:735  mapping(uint256 => uint256) public claimedAmounts */\n    tag_72:\n      mstore(0x20, 0x08)\n      dup1\n      0x00\n      mstore\n      keccak256(0x00, 0x40)\n      0x00\n      swap2\n      pop\n      swap1\n      pop\n      sload\n      dup2\n      jump\t// out\n        /* \"contracts/NodeReward.sol\":799:845  mapping(uint256 => address) public delegations */\n    tag_76:\n      mstore(0x20, 0x0a)\n      dup1\n      0x00\n      mstore\n      keccak256(0x00, 0x40)\n      0x00\n      swap2\n      pop\n      sload\n      swap1\n      0x0100\n      exp\n      swap1\n      div\n      0xffffffffffffffffffffffffffffffffffffffff\n      and\n      dup2\n      jump\t// out\n        /* \"contracts/NodeReward.sol\":465:507  uint256 public withdraw_interval = 2592000 */\n    tag_79:\n      sload(0x04)\n      dup2\n      jump\t// out\n        /* \"@openzeppelin/contracts/access/Ownable.sol\":2543:2758  function transferOwnership(address newOwner) public virtual onlyOwner {... */\n    tag_83:\n        /* \"@openzeppelin/contracts/access/Ownable.sol\":1531:1544  _checkOwner() */\n      tag_187\n        /* \"@openzeppelin/contracts/access/Ownable.sol\":1531:1542  _checkOwner */\n      tag_91\n        /* \"@openzeppelin/contracts/access/Ownable.sol\":1531:1544  _checkOwner() */\n      jump\t// in\n    tag_187:\n        /* \"@openzeppelin/contracts/access/Ownable.sol\":2647:2648  0 */\n      0x00\n        /* \"@openzeppelin/contracts/access/Ownable.sol\":2627:2649  newOwner == address(0) */\n      0xffffffffffffffffffffffffffffffffffffffff\n      and\n        /* \"@openzeppelin/contracts/access/Ownable.sol\":2627:2635  newOwner */\n      dup2\n        /* \"@openzeppelin/contracts/access/Ownable.sol\":2627:2649  newOwner == address(0) */\n      0xffffffffffffffffffffffffffffffffffffffff\n      and\n      sub\n        /* \"@openzeppelin/contracts/access/Ownable.sol\":2623:2714  if (newOwner == address(0)) {... */\n      tag_189\n      jumpi\n        /* \"@openzeppelin/contracts/access/Ownable.sol\":2700:2701  0 */\n      0x00\n        /* \"@openzeppelin/contracts/access/Ownable.sol\":2672:2703  OwnableInvalidOwner(address(0)) */\n      mload(0x40)\n      0x1e4fbdf700000000000000000000000000000000000000000000000000000000\n      dup2\n      mstore\n      0x04\n      add\n      tag_190\n      swap2\n      swap1\n      tag_28\n      jump\t// in\n    tag_190:\n      mload(0x40)\n      dup1\n      swap2\n      sub\n      swap1\n      revert\n        /* \"@openzeppelin/contracts/access/Ownable.sol\":2623:2714  if (newOwner == address(0)) {... */\n    tag_189:\n        /* \"@openzeppelin/contracts/access/Ownable.sol\":2723:2751  _transferOwnership(newOwner) */\n      tag_191\n        /* \"@openzeppelin/contracts/access/Ownable.sol\":2742:2750  newOwner */\n      dup2\n        /* \"@openzeppelin/contracts/access/Ownable.sol\":2723:2741  _transferOwnership */\n      tag_148\n        /* \"@openzeppelin/contracts/access/Ownable.sol\":2723:2751  _transferOwnership(newOwner) */\n      jump\t// in\n    tag_191:\n        /* \"@openzeppelin/contracts/access/Ownable.sol\":2543:2758  function transferOwnership(address newOwner) public virtual onlyOwner {... */\n      pop\n      jump\t// out\n        /* \"contracts/NodeReward.sol\":371:397  IERC721 public license_nft */\n    tag_85:\n      0x01\n      0x00\n      swap1\n      sload\n      swap1\n      0x0100\n      exp\n      swap1\n      div\n      0xffffffffffffffffffffffffffffffffffffffff\n      and\n      dup2\n      jump\t// out\n        /* \"@openzeppelin/contracts/access/Ownable.sol\":1796:1958  function _checkOwner() internal view virtual {... */\n    tag_91:\n        /* \"@openzeppelin/contracts/access/Ownable.sol\":1866:1878  _msgSender() */\n      tag_193\n        /* \"@openzeppelin/contracts/access/Ownable.sol\":1866:1876  _msgSender */\n      tag_94\n        /* \"@openzeppelin/contracts/access/Ownable.sol\":1866:1878  _msgSender() */\n      jump\t// in\n    tag_193:\n        /* \"@openzeppelin/contracts/access/Ownable.sol\":1855:1878  owner() != _msgSender() */\n      0xffffffffffffffffffffffffffffffffffffffff\n      and\n        /* \"@openzeppelin/contracts/access/Ownable.sol\":1855:1862  owner() */\n      tag_194\n        /* \"@openzeppelin/contracts/access/Ownable.sol\":1855:1860  owner */\n      tag_68\n        /* \"@openzeppelin/contracts/access/Ownable.sol\":1855:1862  owner() */\n      jump\t// in\n    tag_194:\n        /* \"@openzeppelin/contracts/access/Ownable.sol\":1855:1878  owner() != _msgSender() */\n      0xffffffffffffffffffffffffffffffffffffffff\n      and\n      eq\n        /* \"@openzeppelin/contracts/access/Ownable.sol\":1851:1952  if (owner() != _msgSender()) {... */\n      tag_195\n      jumpi\n        /* \"@openzeppelin/contracts/access/Ownable.sol\":1928:1940  _msgSender() */\n      tag_196\n        /* \"@openzeppelin/contracts/access/Ownable.sol\":1928:1938  _msgSender */\n      tag_94\n        /* \"@openzeppelin/contracts/access/Ownable.sol\":1928:1940  _msgSender() */\n      jump\t// in\n    tag_196:\n        /* \"@openzeppelin/contracts/access/Ownable.sol\":1901:1941  OwnableUnauthorizedAccount(_msgSender()) */\n      mload(0x40)\n      0x118cdaa700000000000000000000000000000000000000000000000000000000\n      dup2\n      mstore\n      0x04\n      add\n      tag_197\n      swap2\n      swap1\n      tag_28\n      jump\t// in\n    tag_197:\n      mload(0x40)\n      dup1\n      swap2\n      sub\n      swap1\n      revert\n        /* \"@openzeppelin/contracts/access/Ownable.sol\":1851:1952  if (owner() != _msgSender()) {... */\n    tag_195:\n        /* \"@openzeppelin/contracts/access/Ownable.sol\":1796:1958  function _checkOwner() internal view virtual {... */\n      jump\t// out\n        /* \"@openzeppelin/contracts/utils/Context.sol\":656:752  function _msgSender() internal view virtual returns (address) {... */\n    tag_94:\n        /* \"@openzeppelin/contracts/utils/Context.sol\":709:716  address */\n      0x00\n        /* \"@openzeppelin/contracts/utils/Context.sol\":735:745  msg.sender */\n      caller\n        /* \"@openzeppelin/contracts/utils/Context.sol\":728:745  return msg.sender */\n      swap1\n      pop\n        /* \"@openzeppelin/contracts/utils/Context.sol\":656:752  function _msgSender() internal view virtual returns (address) {... */\n      swap1\n      jump\t// out\n        /* \"@openzeppelin/contracts/access/Ownable.sol\":2912:3099  function _transferOwnership(address newOwner) internal virtual {... */\n    tag_148:\n        /* \"@openzeppelin/contracts/access/Ownable.sol\":2985:3001  address oldOwner */\n      0x00\n        /* \"@openzeppelin/contracts/access/Ownable.sol\":3004:3010  _owner */\n      dup1\n      0x00\n      swap1\n      sload\n      swap1\n      0x0100\n      exp\n      swap1\n      div\n      0xffffffffffffffffffffffffffffffffffffffff\n      and\n        /* \"@openzeppelin/contracts/access/Ownable.sol\":2985:3010  address oldOwner = _owner */\n      swap1\n      pop\n        /* \"@openzeppelin/contracts/access/Ownable.sol\":3029:3037  newOwner */\n      dup2\n        /* \"@openzeppelin/contracts/access/Ownable.sol\":3020:3026  _owner */\n      0x00\n      dup1\n        /* \"@openzeppelin/contracts/access/Ownable.sol\":3020:3037  _owner = newOwner */\n      0x0100\n      exp\n      dup2\n      sload\n      dup2\n      0xffffffffffffffffffffffffffffffffffffffff\n      mul\n      not\n      and\n      swap1\n      dup4\n      0xffffffffffffffffffffffffffffffffffffffff\n      and\n      mul\n      or\n      swap1\n      sstore\n      pop\n        /* \"@openzeppelin/contracts/access/Ownable.sol\":3083:3091  newOwner */\n      dup2\n        /* \"@openzeppelin/contracts/access/Ownable.sol\":3052:3092  OwnershipTransferred(oldOwner, newOwner) */\n      0xffffffffffffffffffffffffffffffffffffffff\n      and\n        /* \"@openzeppelin/contracts/access/Ownable.sol\":3073:3081  oldOwner */\n      dup2\n        /* \"@openzeppelin/contracts/access/Ownable.sol\":3052:3092  OwnershipTransferred(oldOwner, newOwner) */\n      0xffffffffffffffffffffffffffffffffffffffff\n      and\n      0x8be0079c531659141344cd1fd0a4f28419497f9722a3daafe3b4186f6b6457e0\n      mload(0x40)\n      mload(0x40)\n      dup1\n      swap2\n      sub\n      swap1\n      log3\n        /* \"@openzeppelin/contracts/access/Ownable.sol\":2975:3099  {... */\n      pop\n        /* \"@openzeppelin/contracts/access/Ownable.sol\":2912:3099  function _transferOwnership(address newOwner) internal virtual {... */\n      pop\n      jump\t// out\n        /* \"@openzeppelin/contracts/utils/cryptography/ECDSA.sol\":3702:3957  function recover(bytes32 hash, bytes memory signature) internal pure returns (address) {... */\n    tag_165:\n        /* \"@openzeppelin/contracts/utils/cryptography/ECDSA.sol\":3780:3787  address */\n      0x00\n        /* \"@openzeppelin/contracts/utils/cryptography/ECDSA.sol\":3800:3817  address recovered */\n      dup1\n        /* \"@openzeppelin/contracts/utils/cryptography/ECDSA.sol\":3819:3837  RecoverError error */\n      0x00\n        /* \"@openzeppelin/contracts/utils/cryptography/ECDSA.sol\":3839:3855  bytes32 errorArg */\n      dup1\n        /* \"@openzeppelin/contracts/utils/cryptography/ECDSA.sol\":3859:3886  tryRecover(hash, signature) */\n      tag_201\n        /* \"@openzeppelin/contracts/utils/cryptography/ECDSA.sol\":3870:3874  hash */\n      dup7\n        /* \"@openzeppelin/contracts/utils/cryptography/ECDSA.sol\":3876:3885  signature */\n      dup7\n        /* \"@openzeppelin/contracts/utils/cryptography/ECDSA.sol\":3859:3869  tryRecover */\n      tag_202\n        /* \"@openzeppelin/contracts/utils/cryptography/ECDSA.sol\":3859:3886  tryRecover(hash, signature) */\n      jump\t// in\n    tag_201:\n        /* \"@openzeppelin/contracts/utils/cryptography/ECDSA.sol\":3799:3886  (address recovered, RecoverError error, bytes32 errorArg) = tryRecover(hash, signature) */\n      swap3\n      pop\n      swap3\n      pop\n      swap3\n      pop\n        /* \"@openzeppelin/contracts/utils/cryptography/ECDSA.sol\":3896:3924  _throwError(error, errorArg) */\n      tag_203\n        /* \"@openzeppelin/contracts/utils/cryptography/ECDSA.sol\":3908:3913  error */\n      dup3\n        /* \"@openzeppelin/contracts/utils/cryptography/ECDSA.sol\":3915:3923  errorArg */\n      dup3\n        /* \"@openzeppelin/contracts/utils/cryptography/ECDSA.sol\":3896:3907  _throwError */\n      tag_204\n        /* \"@openzeppelin/contracts/utils/cryptography/ECDSA.sol\":3896:3924  _throwError(error, errorArg) */\n      jump\t// in\n    tag_203:\n        /* \"@openzeppelin/contracts/utils/cryptography/ECDSA.sol\":3941:3950  recovered */\n      dup3\n        /* \"@openzeppelin/contracts/utils/cryptography/ECDSA.sol\":3934:3950  return recovered */\n      swap4\n      pop\n      pop\n      pop\n      pop\n        /* \"@openzeppelin/contracts/utils/cryptography/ECDSA.sol\":3702:3957  function recover(bytes32 hash, bytes memory signature) internal pure returns (address) {... */\n      swap3\n      swap2\n      pop\n      pop\n      jump\t// out\n        /* \"@openzeppelin/contracts/utils/cryptography/ECDSA.sol\":2129:2895  function tryRecover(bytes32 hash, bytes memory signature) internal pure returns (address, RecoverError, bytes32) {... */\n    tag_202:\n        /* \"@openzeppelin/contracts/utils/cryptography/ECDSA.sol\":2210:2217  address */\n      0x00\n        /* \"@openzeppelin/contracts/utils/cryptography/ECDSA.sol\":2219:2231  RecoverError */\n      dup1\n        /* \"@openzeppelin/contracts/utils/cryptography/ECDSA.sol\":2233:2240  bytes32 */\n      0x00\n        /* \"@openzeppelin/contracts/utils/cryptography/ECDSA.sol\":2276:2278  65 */\n      0x41\n        /* \"@openzeppelin/contracts/utils/cryptography/ECDSA.sol\":2256:2265  signature */\n      dup5\n        /* \"@openzeppelin/contracts/utils/cryptography/ECDSA.sol\":2256:2272  signature.length */\n      mload\n        /* \"@openzeppelin/contracts/utils/cryptography/ECDSA.sol\":2256:2278  signature.length == 65 */\n      sub\n        /* \"@openzeppelin/contracts/utils/cryptography/ECDSA.sol\":2252:2889  if (signature.length == 65) {... */\n      tag_206\n      jumpi\n        /* \"@openzeppelin/contracts/utils/cryptography/ECDSA.sol\":2294:2303  bytes32 r */\n      0x00\n        /* \"@openzeppelin/contracts/utils/cryptography/ECDSA.sol\":2317:2326  bytes32 s */\n      dup1\n        /* \"@openzeppelin/contracts/utils/cryptography/ECDSA.sol\":2340:2347  uint8 v */\n      0x00\n        /* \"@openzeppelin/contracts/utils/cryptography/ECDSA.sol\":2592:2596  0x20 */\n      0x20\n        /* \"@openzeppelin/contracts/utils/cryptography/ECDSA.sol\":2581:2590  signature */\n      dup8\n        /* \"@openzeppelin/contracts/utils/cryptography/ECDSA.sol\":2577:2597  add(signature, 0x20) */\n      add\n        /* \"@openzeppelin/contracts/utils/cryptography/ECDSA.sol\":2571:2598  mload(add(signature, 0x20)) */\n      mload\n        /* \"@openzeppelin/contracts/utils/cryptography/ECDSA.sol\":2566:2598  r := mload(add(signature, 0x20)) */\n      swap3\n      pop\n        /* \"@openzeppelin/contracts/utils/cryptography/ECDSA.sol\":2641:2645  0x40 */\n      0x40\n        /* \"@openzeppelin/contracts/utils/cryptography/ECDSA.sol\":2630:2639  signature */\n      dup8\n        /* \"@openzeppelin/contracts/utils/cryptography/ECDSA.sol\":2626:2646  add(signature, 0x40) */\n      add\n        /* \"@openzeppelin/contracts/utils/cryptography/ECDSA.sol\":2620:2647  mload(add(signature, 0x40)) */\n      mload\n        /* \"@openzeppelin/contracts/utils/cryptography/ECDSA.sol\":2615:2647  s := mload(add(signature, 0x40)) */\n      swap2\n      pop\n        /* \"@openzeppelin/contracts/utils/cryptography/ECDSA.sol\":2698:2702  0x60 */\n      0x60\n        /* \"@openzeppelin/contracts/utils/cryptography/ECDSA.sol\":2687:2696  signature */\n      dup8\n        /* \"@openzeppelin/contracts/utils/cryptography/ECDSA.sol\":2683:2703  add(signature, 0x60) */\n      add\n        /* \"@openzeppelin/contracts/utils/cryptography/ECDSA.sol\":2677:2704  mload(add(signature, 0x60)) */\n      mload\n        /* \"@openzeppelin/contracts/utils/cryptography/ECDSA.sol\":2674:2675  0 */\n      0x00\n        /* \"@openzeppelin/contracts/utils/cryptography/ECDSA.sol\":2669:2705  byte(0, mload(add(signature, 0x60))) */\n      byte\n        /* \"@openzeppelin/contracts/utils/cryptography/ECDSA.sol\":2664:2705  v := byte(0, mload(add(signature, 0x60))) */\n      swap1\n      pop\n        /* \"@openzeppelin/contracts/utils/cryptography/ECDSA.sol\":2739:2764  tryRecover(hash, v, r, s) */\n      tag_207\n        /* \"@openzeppelin/contracts/utils/cryptography/ECDSA.sol\":2750:2754  hash */\n      dup9\n        /* \"@openzeppelin/contracts/utils/cryptography/ECDSA.sol\":2756:2757  v */\n      dup3\n        /* \"@openzeppelin/contracts/utils/cryptography/ECDSA.sol\":2759:2760  r */\n      dup6\n        /* \"@openzeppelin/contracts/utils/cryptography/ECDSA.sol\":2762:2763  s */\n      dup6\n        /* \"@openzeppelin/contracts/utils/cryptography/ECDSA.sol\":2739:2749  tryRecover */\n      tag_208\n        /* \"@openzeppelin/contracts/utils/cryptography/ECDSA.sol\":2739:2764  tryRecover(hash, v, r, s) */\n      jump\t// in\n    tag_207:\n        /* \"@openzeppelin/contracts/utils/cryptography/ECDSA.sol\":2732:2764  return tryRecover(hash, v, r, s) */\n      swap6\n      pop\n      swap6\n      pop\n      swap6\n      pop\n      pop\n      pop\n      pop\n      jump(tag_205)\n        /* \"@openzeppelin/contracts/utils/cryptography/ECDSA.sol\":2252:2889  if (signature.length == 65) {... */\n    tag_206:\n        /* \"@openzeppelin/contracts/utils/cryptography/ECDSA.sol\":2811:2812  0 */\n      0x00\n        /* \"@openzeppelin/contracts/utils/cryptography/ECDSA.sol\":2815:2850  RecoverError.InvalidSignatureLength */\n      0x02\n        /* \"@openzeppelin/contracts/utils/cryptography/ECDSA.sol\":2860:2869  signature */\n      dup6\n        /* \"@openzeppelin/contracts/utils/cryptography/ECDSA.sol\":2860:2876  signature.length */\n      mload\n        /* \"@openzeppelin/contracts/utils/cryptography/ECDSA.sol\":2852:2877  bytes32(signature.length) */\n      0x00\n      shl\n        /* \"@openzeppelin/contracts/utils/cryptography/ECDSA.sol\":2795:2878  return (address(0), RecoverError.InvalidSignatureLength, bytes32(signature.length)) */\n      swap3\n      pop\n      swap3\n      pop\n      swap3\n      pop\n        /* \"@openzeppelin/contracts/utils/cryptography/ECDSA.sol\":2129:2895  function tryRecover(bytes32 hash, bytes memory signature) internal pure returns (address, RecoverError, bytes32) {... */\n    tag_205:\n      swap3\n      pop\n      swap3\n      pop\n      swap3\n      jump\t// out\n        /* \"@openzeppelin/contracts/utils/cryptography/ECDSA.sol\":7196:7728  function _throwError(RecoverError error, bytes32 errorArg) private pure {... */\n    tag_204:\n        /* \"@openzeppelin/contracts/utils/cryptography/ECDSA.sol\":7291:7311  RecoverError.NoError */\n      0x00\n        /* \"@openzeppelin/contracts/utils/cryptography/ECDSA.sol\":7282:7311  error == RecoverError.NoError */\n      0x03\n      dup2\n      gt\n      iszero\n      tag_211\n      jumpi\n      tag_212\n      tag_213\n      jump\t// in\n    tag_212:\n    tag_211:\n        /* \"@openzeppelin/contracts/utils/cryptography/ECDSA.sol\":7282:7287  error */\n      dup3\n        /* \"@openzeppelin/contracts/utils/cryptography/ECDSA.sol\":7282:7311  error == RecoverError.NoError */\n      0x03\n      dup2\n      gt\n      iszero\n      tag_214\n      jumpi\n      tag_215\n      tag_213\n      jump\t// in\n    tag_215:\n    tag_214:\n      sub\n        /* \"@openzeppelin/contracts/utils/cryptography/ECDSA.sol\":7278:7722  if (error == RecoverError.NoError) {... */\n      iszero\n        /* \"@openzeppelin/contracts/utils/cryptography/ECDSA.sol\":7327:7334  return; */\n      tag_210\n        /* \"@openzeppelin/contracts/utils/cryptography/ECDSA.sol\":7278:7722  if (error == RecoverError.NoError) {... */\n      jumpi\n        /* \"@openzeppelin/contracts/utils/cryptography/ECDSA.sol\":7387:7416  RecoverError.InvalidSignature */\n      0x01\n        /* \"@openzeppelin/contracts/utils/cryptography/ECDSA.sol\":7378:7416  error == RecoverError.InvalidSignature */\n      0x03\n      dup2\n      gt\n      iszero\n      tag_218\n      jumpi\n      tag_219\n      tag_213\n      jump\t// in\n    tag_219:\n    tag_218:\n        /* \"@openzeppelin/contracts/utils/cryptography/ECDSA.sol\":7378:7383  error */\n      dup3\n        /* \"@openzeppelin/contracts/utils/cryptography/ECDSA.sol\":7378:7416  error == RecoverError.InvalidSignature */\n      0x03\n      dup2\n      gt\n      iszero\n      tag_220\n      jumpi\n      tag_221\n      tag_213\n      jump\t// in\n    tag_221:\n    tag_220:\n      sub\n        /* \"@openzeppelin/contracts/utils/cryptography/ECDSA.sol\":7374:7722  if (error == RecoverError.InvalidSignature) {... */\n      tag_222\n      jumpi\n        /* \"@openzeppelin/contracts/utils/cryptography/ECDSA.sol\":7439:7462  ECDSAInvalidSignature() */\n      mload(0x40)\n      0xf645eedf00000000000000000000000000000000000000000000000000000000\n      dup2\n      mstore\n      0x04\n      add\n      mload(0x40)\n      dup1\n      swap2\n      sub\n      swap1\n      revert\n        /* \"@openzeppelin/contracts/utils/cryptography/ECDSA.sol\":7374:7722  if (error == RecoverError.InvalidSignature) {... */\n    tag_222:\n        /* \"@openzeppelin/contracts/utils/cryptography/ECDSA.sol\":7492:7527  RecoverError.InvalidSignatureLength */\n      0x02\n        /* \"@openzeppelin/contracts/utils/cryptography/ECDSA.sol\":7483:7527  error == RecoverError.InvalidSignatureLength */\n      0x03\n      dup2\n      gt\n      iszero\n      tag_224\n      jumpi\n      tag_225\n      tag_213\n      jump\t// in\n    tag_225:\n    tag_224:\n        /* \"@openzeppelin/contracts/utils/cryptography/ECDSA.sol\":7483:7488  error */\n      dup3\n        /* \"@openzeppelin/contracts/utils/cryptography/ECDSA.sol\":7483:7527  error == RecoverError.InvalidSignatureLength */\n      0x03\n      dup2\n      gt\n      iszero\n      tag_226\n      jumpi\n      tag_227\n      tag_213\n      jump\t// in\n    tag_227:\n    tag_226:\n      sub\n        /* \"@openzeppelin/contracts/utils/cryptography/ECDSA.sol\":7479:7722  if (error == RecoverError.InvalidSignatureLength) {... */\n      tag_228\n      jumpi\n        /* \"@openzeppelin/contracts/utils/cryptography/ECDSA.sol\":7586:7594  errorArg */\n      dup1\n        /* \"@openzeppelin/contracts/utils/cryptography/ECDSA.sol\":7578:7595  uint256(errorArg) */\n      0x00\n      shr\n        /* \"@openzeppelin/contracts/utils/cryptography/ECDSA.sol\":7550:7596  ECDSAInvalidSignatureLength(uint256(errorArg)) */\n      mload(0x40)\n      0xfce698f700000000000000000000000000000000000000000000000000000000\n      dup2\n      mstore\n      0x04\n      add\n      tag_229\n      swap2\n      swap1\n      tag_33\n      jump\t// in\n    tag_229:\n      mload(0x40)\n      dup1\n      swap2\n      sub\n      swap1\n      revert\n        /* \"@openzeppelin/contracts/utils/cryptography/ECDSA.sol\":7479:7722  if (error == RecoverError.InvalidSignatureLength) {... */\n    tag_228:\n        /* \"@openzeppelin/contracts/utils/cryptography/ECDSA.sol\":7626:7656  RecoverError.InvalidSignatureS */\n      0x03\n        /* \"@openzeppelin/contracts/utils/cryptography/ECDSA.sol\":7617:7656  error == RecoverError.InvalidSignatureS */\n      dup1\n      dup2\n      gt\n      iszero\n      tag_231\n      jumpi\n      tag_232\n      tag_213\n      jump\t// in\n    tag_232:\n    tag_231:\n        /* \"@openzeppelin/contracts/utils/cryptography/ECDSA.sol\":7617:7622  error */\n      dup3\n        /* \"@openzeppelin/contracts/utils/cryptography/ECDSA.sol\":7617:7656  error == RecoverError.InvalidSignatureS */\n      0x03\n      dup2\n      gt\n      iszero\n      tag_233\n      jumpi\n      tag_234\n      tag_213\n      jump\t// in\n    tag_234:\n    tag_233:\n      sub\n        /* \"@openzeppelin/contracts/utils/cryptography/ECDSA.sol\":7613:7722  if (error == RecoverError.InvalidSignatureS) {... */\n      tag_235\n      jumpi\n        /* \"@openzeppelin/contracts/utils/cryptography/ECDSA.sol\":7702:7710  errorArg */\n      dup1\n        /* \"@openzeppelin/contracts/utils/cryptography/ECDSA.sol\":7679:7711  ECDSAInvalidSignatureS(errorArg) */\n      mload(0x40)\n      0xd78bce0c00000000000000000000000000000000000000000000000000000000\n      dup2\n      mstore\n      0x04\n      add\n      tag_236\n      swap2\n      swap1\n      tag_237\n      jump\t// in\n    tag_236:\n      mload(0x40)\n      dup1\n      swap2\n      sub\n      swap1\n      revert\n        /* \"@openzeppelin/contracts/utils/cryptography/ECDSA.sol\":7613:7722  if (error == RecoverError.InvalidSignatureS) {... */\n    tag_235:\n        /* \"@openzeppelin/contracts/utils/cryptography/ECDSA.sol\":7196:7728  function _throwError(RecoverError error, bytes32 errorArg) private pure {... */\n    tag_210:\n      pop\n      pop\n      jump\t// out\n        /* \"@openzeppelin/contracts/utils/cryptography/ECDSA.sol\":5140:6670  function tryRecover(... */\n    tag_208:\n        /* \"@openzeppelin/contracts/utils/cryptography/ECDSA.sol\":5266:5273  address */\n      0x00\n        /* \"@openzeppelin/contracts/utils/cryptography/ECDSA.sol\":5275:5287  RecoverError */\n      dup1\n        /* \"@openzeppelin/contracts/utils/cryptography/ECDSA.sol\":5289:5296  bytes32 */\n      0x00\n        /* \"@openzeppelin/contracts/utils/cryptography/ECDSA.sol\":6199:6265  0x7FFFFFFFFFFFFFFFFFFFFFFFFFFFFFFF5D576E7357A4501DDFE92F46681B20A0 */\n      0x7fffffffffffffffffffffffffffffff5d576e7357a4501ddfe92f46681b20a0\n        /* \"@openzeppelin/contracts/utils/cryptography/ECDSA.sol\":6194:6195  s */\n      dup5\n        /* \"@openzeppelin/contracts/utils/cryptography/ECDSA.sol\":6186:6196  uint256(s) */\n      0x00\n      shr\n        /* \"@openzeppelin/contracts/utils/cryptography/ECDSA.sol\":6186:6265  uint256(s) > 0x7FFFFFFFFFFFFFFFFFFFFFFFFFFFFFFF5D576E7357A4501DDFE92F46681B20A0 */\n      gt\n        /* \"@openzeppelin/contracts/utils/cryptography/ECDSA.sol\":6182:6346  if (uint256(s) > 0x7FFFFFFFFFFFFFFFFFFFFFFFFFFFFFFF5D576E7357A4501DDFE92F46681B20A0) {... */\n      iszero\n      tag_239\n      jumpi\n        /* \"@openzeppelin/contracts/utils/cryptography/ECDSA.sol\":6297:6298  0 */\n      0x00\n        /* \"@openzeppelin/contracts/utils/cryptography/ECDSA.sol\":6301:6331  RecoverError.InvalidSignatureS */\n      0x03\n        /* \"@openzeppelin/contracts/utils/cryptography/ECDSA.sol\":6333:6334  s */\n      dup6\n        /* \"@openzeppelin/contracts/utils/cryptography/ECDSA.sol\":6281:6335  return (address(0), RecoverError.InvalidSignatureS, s) */\n      swap3\n      pop\n      swap3\n      pop\n      swap3\n      pop\n      jump(tag_238)\n        /* \"@openzeppelin/contracts/utils/cryptography/ECDSA.sol\":6182:6346  if (uint256(s) > 0x7FFFFFFFFFFFFFFFFFFFFFFFFFFFFFFF5D576E7357A4501DDFE92F46681B20A0) {... */\n    tag_239:\n        /* \"@openzeppelin/contracts/utils/cryptography/ECDSA.sol\":6440:6454  address signer */\n      0x00\n        /* \"@openzeppelin/contracts/utils/cryptography/ECDSA.sol\":6457:6481  ecrecover(hash, v, r, s) */\n      0x01\n        /* \"@openzeppelin/contracts/utils/cryptography/ECDSA.sol\":6467:6471  hash */\n      dup9\n        /* \"@openzeppelin/contracts/utils/cryptography/ECDSA.sol\":6473:6474  v */\n      dup9\n        /* \"@openzeppelin/contracts/utils/cryptography/ECDSA.sol\":6476:6477  r */\n      dup9\n        /* \"@openzeppelin/contracts/utils/cryptography/ECDSA.sol\":6479:6480  s */\n      dup9\n        /* \"@openzeppelin/contracts/utils/cryptography/ECDSA.sol\":6457:6481  ecrecover(hash, v, r, s) */\n      mload(0x40)\n      0x00\n      dup2\n      mstore\n      0x20\n      add\n      0x40\n      mstore\n      mload(0x40)\n      tag_240\n      swap5\n      swap4\n      swap3\n      swap2\n      swap1\n      tag_241\n      jump\t// in\n    tag_240:\n      0x20\n      mload(0x40)\n      0x20\n      dup2\n      sub\n      swap1\n      dup1\n      dup5\n      sub\n      swap1\n      dup6\n      gas\n      staticcall\n      iszero\n      dup1\n      iszero\n      tag_243\n      jumpi\n      returndatasize\n      0x00\n      dup1\n      returndatacopy\n      revert(0x00, returndatasize)\n    tag_243:\n      pop\n      pop\n      pop\n      mload(sub(mload(0x40), 0x20))\n        /* \"@openzeppelin/contracts/utils/cryptography/ECDSA.sol\":6440:6481  address signer = ecrecover(hash, v, r, s) */\n      swap1\n      pop\n        /* \"@openzeppelin/contracts/utils/cryptography/ECDSA.sol\":6513:6514  0 */\n      0x00\n        /* \"@openzeppelin/contracts/utils/cryptography/ECDSA.sol\":6495:6515  signer == address(0) */\n      0xffffffffffffffffffffffffffffffffffffffff\n      and\n        /* \"@openzeppelin/contracts/utils/cryptography/ECDSA.sol\":6495:6501  signer */\n      dup2\n        /* \"@openzeppelin/contracts/utils/cryptography/ECDSA.sol\":6495:6515  signer == address(0) */\n      0xffffffffffffffffffffffffffffffffffffffff\n      and\n      sub\n        /* \"@openzeppelin/contracts/utils/cryptography/ECDSA.sol\":6491:6604  if (signer == address(0)) {... */\n      tag_244\n      jumpi\n        /* \"@openzeppelin/contracts/utils/cryptography/ECDSA.sol\":6547:6548  0 */\n      0x00\n        /* \"@openzeppelin/contracts/utils/cryptography/ECDSA.sol\":6551:6580  RecoverError.InvalidSignature */\n      0x01\n        /* \"@openzeppelin/contracts/utils/cryptography/ECDSA.sol\":6590:6591  0 */\n      0x00\n        /* \"@openzeppelin/contracts/utils/cryptography/ECDSA.sol\":6582:6592  bytes32(0) */\n      dup1\n      shl\n        /* \"@openzeppelin/contracts/utils/cryptography/ECDSA.sol\":6531:6593  return (address(0), RecoverError.InvalidSignature, bytes32(0)) */\n      swap4\n      pop\n      swap4\n      pop\n      swap4\n      pop\n      pop\n      jump(tag_238)\n        /* \"@openzeppelin/contracts/utils/cryptography/ECDSA.sol\":6491:6604  if (signer == address(0)) {... */\n    tag_244:\n        /* \"@openzeppelin/contracts/utils/cryptography/ECDSA.sol\":6622:6628  signer */\n      dup1\n        /* \"@openzeppelin/contracts/utils/cryptography/ECDSA.sol\":6630:6650  RecoverError.NoError */\n      0x00\n        /* \"@openzeppelin/contracts/utils/cryptography/ECDSA.sol\":6660:6661  0 */\n      dup1\n        /* \"@openzeppelin/contracts/utils/cryptography/ECDSA.sol\":6652:6662  bytes32(0) */\n      0x00\n      shl\n        /* \"@openzeppelin/contracts/utils/cryptography/ECDSA.sol\":6614:6663  return (signer, RecoverError.NoError, bytes32(0)) */\n      swap4\n      pop\n      swap4\n      pop\n      swap4\n      pop\n      pop\n        /* \"@openzeppelin/contracts/utils/cryptography/ECDSA.sol\":5140:6670  function tryRecover(... */\n    tag_238:\n      swap5\n      pop\n      swap5\n      pop\n      swap5\n      swap2\n      pop\n      pop\n      jump\t// out\n        /* \"#utility.yul\":7:82   */\n    tag_245:\n        /* \"#utility.yul\":40:46   */\n      0x00\n        /* \"#utility.yul\":73:75   */\n      0x40\n        /* \"#utility.yul\":67:76   */\n      mload\n        /* \"#utility.yul\":57:76   */\n      swap1\n      pop\n        /* \"#utility.yul\":7:82   */\n      swap1\n      jump\t// out\n        /* \"#utility.yul\":88:205   */\n    tag_246:\n        /* \"#utility.yul\":197:198   */\n      0x00\n        /* \"#utility.yul\":194:195   */\n      dup1\n        /* \"#utility.yul\":187:199   */\n      revert\n        /* \"#utility.yul\":211:328   */\n    tag_247:\n        /* \"#utility.yul\":320:321   */\n      0x00\n        /* \"#utility.yul\":317:318   */\n      dup1\n        /* \"#utility.yul\":310:322   */\n      revert\n        /* \"#utility.yul\":334:411   */\n    tag_248:\n        /* \"#utility.yul\":371:378   */\n      0x00\n        /* \"#utility.yul\":400:405   */\n      dup2\n        /* \"#utility.yul\":389:405   */\n      swap1\n      pop\n        /* \"#utility.yul\":334:411   */\n      swap2\n      swap1\n      pop\n      jump\t// out\n        /* \"#utility.yul\":417:539   */\n    tag_249:\n        /* \"#utility.yul\":490:514   */\n      tag_306\n        /* \"#utility.yul\":508:513   */\n      dup2\n        /* \"#utility.yul\":490:514   */\n      tag_248\n      jump\t// in\n    tag_306:\n        /* \"#utility.yul\":483:488   */\n      dup2\n        /* \"#utility.yul\":480:515   */\n      eq\n        /* \"#utility.yul\":470:533   */\n      tag_307\n      jumpi\n        /* \"#utility.yul\":529:530   */\n      0x00\n        /* \"#utility.yul\":526:527   */\n      dup1\n        /* \"#utility.yul\":519:531   */\n      revert\n        /* \"#utility.yul\":470:533   */\n    tag_307:\n        /* \"#utility.yul\":417:539   */\n      pop\n      jump\t// out\n        /* \"#utility.yul\":545:684   */\n    tag_250:\n        /* \"#utility.yul\":591:596   */\n      0x00\n        /* \"#utility.yul\":629:635   */\n      dup2\n        /* \"#utility.yul\":616:636   */\n      calldataload\n        /* \"#utility.yul\":607:636   */\n      swap1\n      pop\n        /* \"#utility.yul\":645:678   */\n      tag_309\n        /* \"#utility.yul\":672:677   */\n      dup2\n        /* \"#utility.yul\":645:678   */\n      tag_249\n      jump\t// in\n    tag_309:\n        /* \"#utility.yul\":545:684   */\n      swap3\n      swap2\n      pop\n      pop\n      jump\t// out\n        /* \"#utility.yul\":690:1019   */\n    tag_25:\n        /* \"#utility.yul\":749:755   */\n      0x00\n        /* \"#utility.yul\":798:800   */\n      0x20\n        /* \"#utility.yul\":786:795   */\n      dup3\n        /* \"#utility.yul\":777:784   */\n      dup5\n        /* \"#utility.yul\":773:796   */\n      sub\n        /* \"#utility.yul\":769:801   */\n      slt\n        /* \"#utility.yul\":766:885   */\n      iszero\n      tag_311\n      jumpi\n        /* \"#utility.yul\":804:883   */\n      tag_312\n      tag_246\n      jump\t// in\n    tag_312:\n        /* \"#utility.yul\":766:885   */\n    tag_311:\n        /* \"#utility.yul\":924:925   */\n      0x00\n        /* \"#utility.yul\":949:1002   */\n      tag_313\n        /* \"#utility.yul\":994:1001   */\n      dup5\n        /* \"#utility.yul\":985:991   */\n      dup3\n        /* \"#utility.yul\":974:983   */\n      dup6\n        /* \"#utility.yul\":970:992   */\n      add\n        /* \"#utility.yul\":949:1002   */\n      tag_250\n      jump\t// in\n    tag_313:\n        /* \"#utility.yul\":939:1002   */\n      swap2\n      pop\n        /* \"#utility.yul\":895:1012   */\n      pop\n        /* \"#utility.yul\":690:1019   */\n      swap3\n      swap2\n      pop\n      pop\n      jump\t// out\n        /* \"#utility.yul\":1025:1151   */\n    tag_251:\n        /* \"#utility.yul\":1062:1069   */\n      0x00\n        /* \"#utility.yul\":1102:1144   */\n      0xffffffffffffffffffffffffffffffffffffffff\n        /* \"#utility.yul\":1095:1100   */\n      dup3\n        /* \"#utility.yul\":1091:1145   */\n      and\n        /* \"#utility.yul\":1080:1145   */\n      swap1\n      pop\n        /* \"#utility.yul\":1025:1151   */\n      swap2\n      swap1\n      pop\n      jump\t// out\n        /* \"#utility.yul\":1157:1253   */\n    tag_252:\n        /* \"#utility.yul\":1194:1201   */\n      0x00\n        /* \"#utility.yul\":1223:1247   */\n      tag_316\n        /* \"#utility.yul\":1241:1246   */\n      dup3\n        /* \"#utility.yul\":1223:1247   */\n      tag_251\n      jump\t// in\n    tag_316:\n        /* \"#utility.yul\":1212:1247   */\n      swap1\n      pop\n        /* \"#utility.yul\":1157:1253   */\n      swap2\n      swap1\n      pop\n      jump\t// out\n        /* \"#utility.yul\":1259:1377   */\n    tag_253:\n        /* \"#utility.yul\":1346:1370   */\n      tag_318\n        /* \"#utility.yul\":1364:1369   */\n      dup2\n        /* \"#utility.yul\":1346:1370   */\n      tag_252\n      jump\t// in\n    tag_318:\n        /* \"#utility.yul\":1341:1344   */\n      dup3\n        /* \"#utility.yul\":1334:1371   */\n      mstore\n        /* \"#utility.yul\":1259:1377   */\n      pop\n      pop\n      jump\t// out\n        /* \"#utility.yul\":1383:1605   */\n    tag_28:\n        /* \"#utility.yul\":1476:1480   */\n      0x00\n        /* \"#utility.yul\":1514:1516   */\n      0x20\n        /* \"#utility.yul\":1503:1512   */\n      dup3\n        /* \"#utility.yul\":1499:1517   */\n      add\n        /* \"#utility.yul\":1491:1517   */\n      swap1\n      pop\n        /* \"#utility.yul\":1527:1598   */\n      tag_320\n        /* \"#utility.yul\":1595:1596   */\n      0x00\n        /* \"#utility.yul\":1584:1593   */\n      dup4\n        /* \"#utility.yul\":1580:1597   */\n      add\n        /* \"#utility.yul\":1571:1577   */\n      dup5\n        /* \"#utility.yul\":1527:1598   */\n      tag_253\n      jump\t// in\n    tag_320:\n        /* \"#utility.yul\":1383:1605   */\n      swap3\n      swap2\n      pop\n      pop\n      jump\t// out\n        /* \"#utility.yul\":1611:1729   */\n    tag_254:\n        /* \"#utility.yul\":1698:1722   */\n      tag_322\n        /* \"#utility.yul\":1716:1721   */\n      dup2\n        /* \"#utility.yul\":1698:1722   */\n      tag_248\n      jump\t// in\n    tag_322:\n        /* \"#utility.yul\":1693:1696   */\n      dup3\n        /* \"#utility.yul\":1686:1723   */\n      mstore\n        /* \"#utility.yul\":1611:1729   */\n      pop\n      pop\n      jump\t// out\n        /* \"#utility.yul\":1735:1957   */\n    tag_33:\n        /* \"#utility.yul\":1828:1832   */\n      0x00\n        /* \"#utility.yul\":1866:1868   */\n      0x20\n        /* \"#utility.yul\":1855:1864   */\n      dup3\n        /* \"#utility.yul\":1851:1869   */\n      add\n        /* \"#utility.yul\":1843:1869   */\n      swap1\n      pop\n        /* \"#utility.yul\":1879:1950   */\n      tag_324\n        /* \"#utility.yul\":1947:1948   */\n      0x00\n        /* \"#utility.yul\":1936:1945   */\n      dup4\n        /* \"#utility.yul\":1932:1949   */\n      add\n        /* \"#utility.yul\":1923:1929   */\n      dup5\n        /* \"#utility.yul\":1879:1950   */\n      tag_254\n      jump\t// in\n    tag_324:\n        /* \"#utility.yul\":1735:1957   */\n      swap3\n      swap2\n      pop\n      pop\n      jump\t// out\n        /* \"#utility.yul\":1963:2085   */\n    tag_255:\n        /* \"#utility.yul\":2036:2060   */\n      tag_326\n        /* \"#utility.yul\":2054:2059   */\n      dup2\n        /* \"#utility.yul\":2036:2060   */\n      tag_252\n      jump\t// in\n    tag_326:\n        /* \"#utility.yul\":2029:2034   */\n      dup2\n        /* \"#utility.yul\":2026:2061   */\n      eq\n        /* \"#utility.yul\":2016:2079   */\n      tag_327\n      jumpi\n        /* \"#utility.yul\":2075:2076   */\n      0x00\n        /* \"#utility.yul\":2072:2073   */\n      dup1\n        /* \"#utility.yul\":2065:2077   */\n      revert\n        /* \"#utility.yul\":2016:2079   */\n    tag_327:\n        /* \"#utility.yul\":1963:2085   */\n      pop\n      jump\t// out\n        /* \"#utility.yul\":2091:2230   */\n    tag_256:\n        /* \"#utility.yul\":2137:2142   */\n      0x00\n        /* \"#utility.yul\":2175:2181   */\n      dup2\n        /* \"#utility.yul\":2162:2182   */\n      calldataload\n        /* \"#utility.yul\":2153:2182   */\n      swap1\n      pop\n        /* \"#utility.yul\":2191:2224   */\n      tag_329\n        /* \"#utility.yul\":2218:2223   */\n      dup2\n        /* \"#utility.yul\":2191:2224   */\n      tag_255\n      jump\t// in\n    tag_329:\n        /* \"#utility.yul\":2091:2230   */\n      swap3\n      swap2\n      pop\n      pop\n      jump\t// out\n        /* \"#utility.yul\":2236:2326   */\n    tag_257:\n        /* \"#utility.yul\":2270:2277   */\n      0x00\n        /* \"#utility.yul\":2313:2318   */\n      dup2\n        /* \"#utility.yul\":2306:2319   */\n      iszero\n        /* \"#utility.yul\":2299:2320   */\n      iszero\n        /* \"#utility.yul\":2288:2320   */\n      swap1\n      pop\n        /* \"#utility.yul\":2236:2326   */\n      swap2\n      swap1\n      pop\n      jump\t// out\n        /* \"#utility.yul\":2332:2448   */\n    tag_258:\n        /* \"#utility.yul\":2402:2423   */\n      tag_332\n        /* \"#utility.yul\":2417:2422   */\n      dup2\n        /* \"#utility.yul\":2402:2423   */\n      tag_257\n      jump\t// in\n    tag_332:\n        /* \"#utility.yul\":2395:2400   */\n      dup2\n        /* \"#utility.yul\":2392:2424   */\n      eq\n        /* \"#utility.yul\":2382:2442   */\n      tag_333\n      jumpi\n        /* \"#utility.yul\":2438:2439   */\n      0x00\n        /* \"#utility.yul\":2435:2436   */\n      dup1\n        /* \"#utility.yul\":2428:2440   */\n      revert\n        /* \"#utility.yul\":2382:2442   */\n    tag_333:\n        /* \"#utility.yul\":2332:2448   */\n      pop\n      jump\t// out\n        /* \"#utility.yul\":2454:2587   */\n    tag_259:\n        /* \"#utility.yul\":2497:2502   */\n      0x00\n        /* \"#utility.yul\":2535:2541   */\n      dup2\n        /* \"#utility.yul\":2522:2542   */\n      calldataload\n        /* \"#utility.yul\":2513:2542   */\n      swap1\n      pop\n        /* \"#utility.yul\":2551:2581   */\n      tag_335\n        /* \"#utility.yul\":2575:2580   */\n      dup2\n        /* \"#utility.yul\":2551:2581   */\n      tag_258\n      jump\t// in\n    tag_335:\n        /* \"#utility.yul\":2454:2587   */\n      swap3\n      swap2\n      pop\n      pop\n      jump\t// out\n        /* \"#utility.yul\":2593:3061   */\n    tag_36:\n        /* \"#utility.yul\":2658:2664   */\n      0x00\n        /* \"#utility.yul\":2666:2672   */\n      dup1\n        /* \"#utility.yul\":2715:2717   */\n      0x40\n        /* \"#utility.yul\":2703:2712   */\n      dup4\n        /* \"#utility.yul\":2694:2701   */\n      dup6\n        /* \"#utility.yul\":2690:2713   */\n      sub\n        /* \"#utility.yul\":2686:2718   */\n      slt\n        /* \"#utility.yul\":2683:2802   */\n      iszero\n      tag_337\n      jumpi\n        /* \"#utility.yul\":2721:2800   */\n      tag_338\n      tag_246\n      jump\t// in\n    tag_338:\n        /* \"#utility.yul\":2683:2802   */\n    tag_337:\n        /* \"#utility.yul\":2841:2842   */\n      0x00\n        /* \"#utility.yul\":2866:2919   */\n      tag_339\n        /* \"#utility.yul\":2911:2918   */\n      dup6\n        /* \"#utility.yul\":2902:2908   */\n      dup3\n        /* \"#utility.yul\":2891:2900   */\n      dup7\n        /* \"#utility.yul\":2887:2909   */\n      add\n        /* \"#utility.yul\":2866:2919   */\n      tag_256\n      jump\t// in\n    tag_339:\n        /* \"#utility.yul\":2856:2919   */\n      swap3\n      pop\n        /* \"#utility.yul\":2812:2929   */\n      pop\n        /* \"#utility.yul\":2968:2970   */\n      0x20\n        /* \"#utility.yul\":2994:3044   */\n      tag_340\n        /* \"#utility.yul\":3036:3043   */\n      dup6\n        /* \"#utility.yul\":3027:3033   */\n      dup3\n        /* \"#utility.yul\":3016:3025   */\n      dup7\n        /* \"#utility.yul\":3012:3034   */\n      add\n        /* \"#utility.yul\":2994:3044   */\n      tag_259\n      jump\t// in\n    tag_340:\n        /* \"#utility.yul\":2984:3044   */\n      swap2\n      pop\n        /* \"#utility.yul\":2939:3054   */\n      pop\n        /* \"#utility.yul\":2593:3061   */\n      swap3\n      pop\n      swap3\n      swap1\n      pop\n      jump\t// out\n        /* \"#utility.yul\":3067:3144   */\n    tag_260:\n        /* \"#utility.yul\":3104:3111   */\n      0x00\n        /* \"#utility.yul\":3133:3138   */\n      dup2\n        /* \"#utility.yul\":3122:3138   */\n      swap1\n      pop\n        /* \"#utility.yul\":3067:3144   */\n      swap2\n      swap1\n      pop\n      jump\t// out\n        /* \"#utility.yul\":3150:3272   */\n    tag_261:\n        /* \"#utility.yul\":3223:3247   */\n      tag_343\n        /* \"#utility.yul\":3241:3246   */\n      dup2\n        /* \"#utility.yul\":3223:3247   */\n      tag_260\n      jump\t// in\n    tag_343:\n        /* \"#utility.yul\":3216:3221   */\n      dup2\n        /* \"#utility.yul\":3213:3248   */\n      eq\n        /* \"#utility.yul\":3203:3266   */\n      tag_344\n      jumpi\n        /* \"#utility.yul\":3262:3263   */\n      0x00\n        /* \"#utility.yul\":3259:3260   */\n      dup1\n        /* \"#utility.yul\":3252:3264   */\n      revert\n        /* \"#utility.yul\":3203:3266   */\n    tag_344:\n        /* \"#utility.yul\":3150:3272   */\n      pop\n      jump\t// out\n        /* \"#utility.yul\":3278:3417   */\n    tag_262:\n        /* \"#utility.yul\":3324:3329   */\n      0x00\n        /* \"#utility.yul\":3362:3368   */\n      dup2\n        /* \"#utility.yul\":3349:3369   */\n      calldataload\n        /* \"#utility.yul\":3340:3369   */\n      swap1\n      pop\n        /* \"#utility.yul\":3378:3411   */\n      tag_346\n        /* \"#utility.yul\":3405:3410   */\n      dup2\n        /* \"#utility.yul\":3378:3411   */\n      tag_261\n      jump\t// in\n    tag_346:\n        /* \"#utility.yul\":3278:3417   */\n      swap3\n      swap2\n      pop\n      pop\n      jump\t// out\n        /* \"#utility.yul\":3423:4042   */\n    tag_43:\n        /* \"#utility.yul\":3500:3506   */\n      0x00\n        /* \"#utility.yul\":3508:3514   */\n      dup1\n        /* \"#utility.yul\":3516:3522   */\n      0x00\n        /* \"#utility.yul\":3565:3567   */\n      0x60\n        /* \"#utility.yul\":3553:3562   */\n      dup5\n        /* \"#utility.yul\":3544:3551   */\n      dup7\n        /* \"#utility.yul\":3540:3563   */\n      sub\n        /* \"#utility.yul\":3536:3568   */\n      slt\n        /* \"#utility.yul\":3533:3652   */\n      iszero\n      tag_348\n      jumpi\n        /* \"#utility.yul\":3571:3650   */\n      tag_349\n      tag_246\n      jump\t// in\n    tag_349:\n        /* \"#utility.yul\":3533:3652   */\n    tag_348:\n        /* \"#utility.yul\":3691:3692   */\n      0x00\n        /* \"#utility.yul\":3716:3769   */\n      tag_350\n        /* \"#utility.yul\":3761:3768   */\n      dup7\n        /* \"#utility.yul\":3752:3758   */\n      dup3\n        /* \"#utility.yul\":3741:3750   */\n      dup8\n        /* \"#utility.yul\":3737:3759   */\n      add\n        /* \"#utility.yul\":3716:3769   */\n      tag_250\n      jump\t// in\n    tag_350:\n        /* \"#utility.yul\":3706:3769   */\n      swap4\n      pop\n        /* \"#utility.yul\":3662:3779   */\n      pop\n        /* \"#utility.yul\":3818:3820   */\n      0x20\n        /* \"#utility.yul\":3844:3897   */\n      tag_351\n        /* \"#utility.yul\":3889:3896   */\n      dup7\n        /* \"#utility.yul\":3880:3886   */\n      dup3\n        /* \"#utility.yul\":3869:3878   */\n      dup8\n        /* \"#utility.yul\":3865:3887   */\n      add\n        /* \"#utility.yul\":3844:3897   */\n      tag_250\n      jump\t// in\n    tag_351:\n        /* \"#utility.yul\":3834:3897   */\n      swap3\n      pop\n        /* \"#utility.yul\":3789:3907   */\n      pop\n        /* \"#utility.yul\":3946:3948   */\n      0x40\n        /* \"#utility.yul\":3972:4025   */\n      tag_352\n        /* \"#utility.yul\":4017:4024   */\n      dup7\n        /* \"#utility.yul\":4008:4014   */\n      dup3\n        /* \"#utility.yul\":3997:4006   */\n      dup8\n        /* \"#utility.yul\":3993:4015   */\n      add\n        /* \"#utility.yul\":3972:4025   */\n      tag_262\n      jump\t// in\n    tag_352:\n        /* \"#utility.yul\":3962:4025   */\n      swap2\n      pop\n        /* \"#utility.yul\":3917:4035   */\n      pop\n        /* \"#utility.yul\":3423:4042   */\n      swap3\n      pop\n      swap3\n      pop\n      swap3\n      jump\t// out\n        /* \"#utility.yul\":4048:4522   */\n    tag_47:\n        /* \"#utility.yul\":4116:4122   */\n      0x00\n        /* \"#utility.yul\":4124:4130   */\n      dup1\n        /* \"#utility.yul\":4173:4175   */\n      0x40\n        /* \"#utility.yul\":4161:4170   */\n      dup4\n        /* \"#utility.yul\":4152:4159   */\n      dup6\n        /* \"#utility.yul\":4148:4171   */\n      sub\n        /* \"#utility.yul\":4144:4176   */\n      slt\n        /* \"#utility.yul\":4141:4260   */\n      iszero\n      tag_354\n      jumpi\n        /* \"#utility.yul\":4179:4258   */\n      tag_355\n      tag_246\n      jump\t// in\n    tag_355:\n        /* \"#utility.yul\":4141:4260   */\n    tag_354:\n        /* \"#utility.yul\":4299:4300   */\n      0x00\n        /* \"#utility.yul\":4324:4377   */\n      tag_356\n        /* \"#utility.yul\":4369:4376   */\n      dup6\n        /* \"#utility.yul\":4360:4366   */\n      dup3\n        /* \"#utility.yul\":4349:4358   */\n      dup7\n        /* \"#utility.yul\":4345:4367   */\n      add\n        /* \"#utility.yul\":4324:4377   */\n      tag_250\n      jump\t// in\n    tag_356:\n        /* \"#utility.yul\":4314:4377   */\n      swap3\n      pop\n        /* \"#utility.yul\":4270:4387   */\n      pop\n        /* \"#utility.yul\":4426:4428   */\n      0x20\n        /* \"#utility.yul\":4452:4505   */\n      tag_357\n        /* \"#utility.yul\":4497:4504   */\n      dup6\n        /* \"#utility.yul\":4488:4494   */\n      dup3\n        /* \"#utility.yul\":4477:4486   */\n      dup7\n        /* \"#utility.yul\":4473:4495   */\n      add\n        /* \"#utility.yul\":4452:4505   */\n      tag_250\n      jump\t// in\n    tag_357:\n        /* \"#utility.yul\":4442:4505   */\n      swap2\n      pop\n        /* \"#utility.yul\":4397:4515   */\n      pop\n        /* \"#utility.yul\":4048:4522   */\n      swap3\n      pop\n      swap3\n      swap1\n      pop\n      jump\t// out\n        /* \"#utility.yul\":4528:4588   */\n    tag_263:\n        /* \"#utility.yul\":4556:4559   */\n      0x00\n        /* \"#utility.yul\":4577:4582   */\n      dup2\n        /* \"#utility.yul\":4570:4582   */\n      swap1\n      pop\n        /* \"#utility.yul\":4528:4588   */\n      swap2\n      swap1\n      pop\n      jump\t// out\n        /* \"#utility.yul\":4594:4736   */\n    tag_264:\n        /* \"#utility.yul\":4644:4653   */\n      0x00\n        /* \"#utility.yul\":4677:4730   */\n      tag_360\n        /* \"#utility.yul\":4695:4729   */\n      tag_361\n        /* \"#utility.yul\":4704:4728   */\n      tag_362\n        /* \"#utility.yul\":4722:4727   */\n      dup5\n        /* \"#utility.yul\":4704:4728   */\n      tag_251\n      jump\t// in\n    tag_362:\n        /* \"#utility.yul\":4695:4729   */\n      tag_263\n      jump\t// in\n    tag_361:\n        /* \"#utility.yul\":4677:4730   */\n      tag_251\n      jump\t// in\n    tag_360:\n        /* \"#utility.yul\":4664:4730   */\n      swap1\n      pop\n        /* \"#utility.yul\":4594:4736   */\n      swap2\n      swap1\n      pop\n      jump\t// out\n        /* \"#utility.yul\":4742:4868   */\n    tag_265:\n        /* \"#utility.yul\":4792:4801   */\n      0x00\n        /* \"#utility.yul\":4825:4862   */\n      tag_364\n        /* \"#utility.yul\":4856:4861   */\n      dup3\n        /* \"#utility.yul\":4825:4862   */\n      tag_264\n      jump\t// in\n    tag_364:\n        /* \"#utility.yul\":4812:4862   */\n      swap1\n      pop\n        /* \"#utility.yul\":4742:4868   */\n      swap2\n      swap1\n      pop\n      jump\t// out\n        /* \"#utility.yul\":4874:5014   */\n    tag_266:\n        /* \"#utility.yul\":4938:4947   */\n      0x00\n        /* \"#utility.yul\":4971:5008   */\n      tag_366\n        /* \"#utility.yul\":5002:5007   */\n      dup3\n        /* \"#utility.yul\":4971:5008   */\n      tag_265\n      jump\t// in\n    tag_366:\n        /* \"#utility.yul\":4958:5008   */\n      swap1\n      pop\n        /* \"#utility.yul\":4874:5014   */\n      swap2\n      swap1\n      pop\n      jump\t// out\n        /* \"#utility.yul\":5020:5179   */\n    tag_267:\n        /* \"#utility.yul\":5121:5172   */\n      tag_368\n        /* \"#utility.yul\":5166:5171   */\n      dup2\n        /* \"#utility.yul\":5121:5172   */\n      tag_266\n      jump\t// in\n    tag_368:\n        /* \"#utility.yul\":5116:5119   */\n      dup3\n        /* \"#utility.yul\":5109:5173   */\n      mstore\n        /* \"#utility.yul\":5020:5179   */\n      pop\n      pop\n      jump\t// out\n        /* \"#utility.yul\":5185:5435   */\n    tag_52:\n        /* \"#utility.yul\":5292:5296   */\n      0x00\n        /* \"#utility.yul\":5330:5332   */\n      0x20\n        /* \"#utility.yul\":5319:5328   */\n      dup3\n        /* \"#utility.yul\":5315:5333   */\n      add\n        /* \"#utility.yul\":5307:5333   */\n      swap1\n      pop\n        /* \"#utility.yul\":5343:5428   */\n      tag_370\n        /* \"#utility.yul\":5425:5426   */\n      0x00\n        /* \"#utility.yul\":5414:5423   */\n      dup4\n        /* \"#utility.yul\":5410:5427   */\n      add\n        /* \"#utility.yul\":5401:5407   */\n      dup5\n        /* \"#utility.yul\":5343:5428   */\n      tag_267\n      jump\t// in\n    tag_370:\n        /* \"#utility.yul\":5185:5435   */\n      swap3\n      swap2\n      pop\n      pop\n      jump\t// out\n        /* \"#utility.yul\":5441:5558   */\n    tag_268:\n        /* \"#utility.yul\":5550:5551   */\n      0x00\n        /* \"#utility.yul\":5547:5548   */\n      dup1\n        /* \"#utility.yul\":5540:5552   */\n      revert\n        /* \"#utility.yul\":5564:5681   */\n    tag_269:\n        /* \"#utility.yul\":5673:5674   */\n      0x00\n        /* \"#utility.yul\":5670:5671   */\n      dup1\n        /* \"#utility.yul\":5663:5675   */\n      revert\n        /* \"#utility.yul\":5687:5789   */\n    tag_270:\n        /* \"#utility.yul\":5728:5734   */\n      0x00\n        /* \"#utility.yul\":5779:5781   */\n      0x1f\n        /* \"#utility.yul\":5775:5782   */\n      not\n        /* \"#utility.yul\":5770:5772   */\n      0x1f\n        /* \"#utility.yul\":5763:5768   */\n      dup4\n        /* \"#utility.yul\":5759:5773   */\n      add\n        /* \"#utility.yul\":5755:5783   */\n      and\n        /* \"#utility.yul\":5745:5783   */\n      swap1\n      pop\n        /* \"#utility.yul\":5687:5789   */\n      swap2\n      swap1\n      pop\n      jump\t// out\n        /* \"#utility.yul\":5795:5975   */\n    tag_271:\n        /* \"#utility.yul\":5843:5920   */\n      0x4e487b7100000000000000000000000000000000000000000000000000000000\n        /* \"#utility.yul\":5840:5841   */\n      0x00\n        /* \"#utility.yul\":5833:5921   */\n      mstore\n        /* \"#utility.yul\":5940:5944   */\n      0x41\n        /* \"#utility.yul\":5937:5938   */\n      0x04\n        /* \"#utility.yul\":5930:5945   */\n      mstore\n        /* \"#utility.yul\":5964:5968   */\n      0x24\n        /* \"#utility.yul\":5961:5962   */\n      0x00\n        /* \"#utility.yul\":5954:5969   */\n      revert\n        /* \"#utility.yul\":5981:6262   */\n    tag_272:\n        /* \"#utility.yul\":6064:6091   */\n      tag_376\n        /* \"#utility.yul\":6086:6090   */\n      dup3\n        /* \"#utility.yul\":6064:6091   */\n      tag_270\n      jump\t// in\n    tag_376:\n        /* \"#utility.yul\":6056:6062   */\n      dup2\n        /* \"#utility.yul\":6052:6092   */\n      add\n        /* \"#utility.yul\":6194:6200   */\n      dup2\n        /* \"#utility.yul\":6182:6192   */\n      dup2\n        /* \"#utility.yul\":6179:6201   */\n      lt\n        /* \"#utility.yul\":6158:6176   */\n      0xffffffffffffffff\n        /* \"#utility.yul\":6146:6156   */\n      dup3\n        /* \"#utility.yul\":6143:6177   */\n      gt\n        /* \"#utility.yul\":6140:6202   */\n      or\n        /* \"#utility.yul\":6137:6225   */\n      iszero\n      tag_377\n      jumpi\n        /* \"#utility.yul\":6205:6223   */\n      tag_378\n      tag_271\n      jump\t// in\n    tag_378:\n        /* \"#utility.yul\":6137:6225   */\n    tag_377:\n        /* \"#utility.yul\":6245:6255   */\n      dup1\n        /* \"#utility.yul\":6241:6243   */\n      0x40\n        /* \"#utility.yul\":6234:6256   */\n      mstore\n        /* \"#utility.yul\":6024:6262   */\n      pop\n        /* \"#utility.yul\":5981:6262   */\n      pop\n      pop\n      jump\t// out\n        /* \"#utility.yul\":6268:6397   */\n    tag_273:\n        /* \"#utility.yul\":6302:6308   */\n      0x00\n        /* \"#utility.yul\":6329:6349   */\n      tag_380\n      tag_245\n      jump\t// in\n    tag_380:\n        /* \"#utility.yul\":6319:6349   */\n      swap1\n      pop\n        /* \"#utility.yul\":6358:6391   */\n      tag_381\n        /* \"#utility.yul\":6386:6390   */\n      dup3\n        /* \"#utility.yul\":6378:6384   */\n      dup3\n        /* \"#utility.yul\":6358:6391   */\n      tag_272\n      jump\t// in\n    tag_381:\n        /* \"#utility.yul\":6268:6397   */\n      swap2\n      swap1\n      pop\n      jump\t// out\n        /* \"#utility.yul\":6403:6710   */\n    tag_274:\n        /* \"#utility.yul\":6464:6468   */\n      0x00\n        /* \"#utility.yul\":6554:6572   */\n      0xffffffffffffffff\n        /* \"#utility.yul\":6546:6552   */\n      dup3\n        /* \"#utility.yul\":6543:6573   */\n      gt\n        /* \"#utility.yul\":6540:6596   */\n      iszero\n      tag_383\n      jumpi\n        /* \"#utility.yul\":6576:6594   */\n      tag_384\n      tag_271\n      jump\t// in\n    tag_384:\n        /* \"#utility.yul\":6540:6596   */\n    tag_383:\n        /* \"#utility.yul\":6614:6643   */\n      tag_385\n        /* \"#utility.yul\":6636:6642   */\n      dup3\n        /* \"#utility.yul\":6614:6643   */\n      tag_270\n      jump\t// in\n    tag_385:\n        /* \"#utility.yul\":6606:6643   */\n      swap1\n      pop\n        /* \"#utility.yul\":6698:6702   */\n      0x20\n        /* \"#utility.yul\":6692:6696   */\n      dup2\n        /* \"#utility.yul\":6688:6703   */\n      add\n        /* \"#utility.yul\":6680:6703   */\n      swap1\n      pop\n        /* \"#utility.yul\":6403:6710   */\n      swap2\n      swap1\n      pop\n      jump\t// out\n        /* \"#utility.yul\":6716:6864   */\n    tag_275:\n        /* \"#utility.yul\":6814:6820   */\n      dup3\n        /* \"#utility.yul\":6809:6812   */\n      dup2\n        /* \"#utility.yul\":6804:6807   */\n      dup4\n        /* \"#utility.yul\":6791:6821   */\n      calldatacopy\n        /* \"#utility.yul\":6855:6856   */\n      0x00\n        /* \"#utility.yul\":6846:6852   */\n      dup4\n        /* \"#utility.yul\":6841:6844   */\n      dup4\n        /* \"#utility.yul\":6837:6853   */\n      add\n        /* \"#utility.yul\":6830:6857   */\n      mstore\n        /* \"#utility.yul\":6716:6864   */\n      pop\n      pop\n      pop\n      jump\t// out\n        /* \"#utility.yul\":6870:7293   */\n    tag_276:\n        /* \"#utility.yul\":6947:6952   */\n      0x00\n        /* \"#utility.yul\":6972:7037   */\n      tag_388\n        /* \"#utility.yul\":6988:7036   */\n      tag_389\n        /* \"#utility.yul\":7029:7035   */\n      dup5\n        /* \"#utility.yul\":6988:7036   */\n      tag_274\n      jump\t// in\n    tag_389:\n        /* \"#utility.yul\":6972:7037   */\n      tag_273\n      jump\t// in\n    tag_388:\n        /* \"#utility.yul\":6963:7037   */\n      swap1\n      pop\n        /* \"#utility.yul\":7060:7066   */\n      dup3\n        /* \"#utility.yul\":7053:7058   */\n      dup2\n        /* \"#utility.yul\":7046:7067   */\n      mstore\n        /* \"#utility.yul\":7098:7102   */\n      0x20\n        /* \"#utility.yul\":7091:7096   */\n      dup2\n        /* \"#utility.yul\":7087:7103   */\n      add\n        /* \"#utility.yul\":7136:7139   */\n      dup5\n        /* \"#utility.yul\":7127:7133   */\n      dup5\n        /* \"#utility.yul\":7122:7125   */\n      dup5\n        /* \"#utility.yul\":7118:7134   */\n      add\n        /* \"#utility.yul\":7115:7140   */\n      gt\n        /* \"#utility.yul\":7112:7224   */\n      iszero\n      tag_390\n      jumpi\n        /* \"#utility.yul\":7143:7222   */\n      tag_391\n      tag_269\n      jump\t// in\n    tag_391:\n        /* \"#utility.yul\":7112:7224   */\n    tag_390:\n        /* \"#utility.yul\":7233:7287   */\n      tag_392\n        /* \"#utility.yul\":7280:7286   */\n      dup5\n        /* \"#utility.yul\":7275:7278   */\n      dup3\n        /* \"#utility.yul\":7270:7273   */\n      dup6\n        /* \"#utility.yul\":7233:7287   */\n      tag_275\n      jump\t// in\n    tag_392:\n        /* \"#utility.yul\":6953:7293   */\n      pop\n        /* \"#utility.yul\":6870:7293   */\n      swap4\n      swap3\n      pop\n      pop\n      pop\n      jump\t// out\n        /* \"#utility.yul\":7312:7650   */\n    tag_277:\n        /* \"#utility.yul\":7367:7372   */\n      0x00\n        /* \"#utility.yul\":7416:7419   */\n      dup3\n        /* \"#utility.yul\":7409:7413   */\n      0x1f\n        /* \"#utility.yul\":7401:7407   */\n      dup4\n        /* \"#utility.yul\":7397:7414   */\n      add\n        /* \"#utility.yul\":7393:7420   */\n      slt\n        /* \"#utility.yul\":7383:7505   */\n      tag_394\n      jumpi\n        /* \"#utility.yul\":7424:7503   */\n      tag_395\n      tag_268\n      jump\t// in\n    tag_395:\n        /* \"#utility.yul\":7383:7505   */\n    tag_394:\n        /* \"#utility.yul\":7541:7547   */\n      dup2\n        /* \"#utility.yul\":7528:7548   */\n      calldataload\n        /* \"#utility.yul\":7566:7644   */\n      tag_396\n        /* \"#utility.yul\":7640:7643   */\n      dup5\n        /* \"#utility.yul\":7632:7638   */\n      dup3\n        /* \"#utility.yul\":7625:7629   */\n      0x20\n        /* \"#utility.yul\":7617:7623   */\n      dup7\n        /* \"#utility.yul\":7613:7630   */\n      add\n        /* \"#utility.yul\":7566:7644   */\n      tag_276\n      jump\t// in\n    tag_396:\n        /* \"#utility.yul\":7557:7644   */\n      swap2\n      pop\n        /* \"#utility.yul\":7373:7650   */\n      pop\n        /* \"#utility.yul\":7312:7650   */\n      swap3\n      swap2\n      pop\n      pop\n      jump\t// out\n        /* \"#utility.yul\":7656:8745   */\n    tag_57:\n        /* \"#utility.yul\":7760:7766   */\n      0x00\n        /* \"#utility.yul\":7768:7774   */\n      dup1\n        /* \"#utility.yul\":7776:7782   */\n      0x00\n        /* \"#utility.yul\":7784:7790   */\n      dup1\n        /* \"#utility.yul\":7792:7798   */\n      0x00\n        /* \"#utility.yul\":7841:7844   */\n      0xa0\n        /* \"#utility.yul\":7829:7838   */\n      dup7\n        /* \"#utility.yul\":7820:7827   */\n      dup9\n        /* \"#utility.yul\":7816:7839   */\n      sub\n        /* \"#utility.yul\":7812:7845   */\n      slt\n        /* \"#utility.yul\":7809:7929   */\n      iszero\n      tag_398\n      jumpi\n        /* \"#utility.yul\":7848:7927   */\n      tag_399\n      tag_246\n      jump\t// in\n    tag_399:\n        /* \"#utility.yul\":7809:7929   */\n    tag_398:\n        /* \"#utility.yul\":7968:7969   */\n      0x00\n        /* \"#utility.yul\":7993:8046   */\n      tag_400\n        /* \"#utility.yul\":8038:8045   */\n      dup9\n        /* \"#utility.yul\":8029:8035   */\n      dup3\n        /* \"#utility.yul\":8018:8027   */\n      dup10\n        /* \"#utility.yul\":8014:8036   */\n      add\n        /* \"#utility.yul\":7993:8046   */\n      tag_250\n      jump\t// in\n    tag_400:\n        /* \"#utility.yul\":7983:8046   */\n      swap6\n      pop\n        /* \"#utility.yul\":7939:8056   */\n      pop\n        /* \"#utility.yul\":8095:8097   */\n      0x20\n        /* \"#utility.yul\":8121:8174   */\n      tag_401\n        /* \"#utility.yul\":8166:8173   */\n      dup9\n        /* \"#utility.yul\":8157:8163   */\n      dup3\n        /* \"#utility.yul\":8146:8155   */\n      dup10\n        /* \"#utility.yul\":8142:8164   */\n      add\n        /* \"#utility.yul\":8121:8174   */\n      tag_250\n      jump\t// in\n    tag_401:\n        /* \"#utility.yul\":8111:8174   */\n      swap5\n      pop\n        /* \"#utility.yul\":8066:8184   */\n      pop\n        /* \"#utility.yul\":8223:8225   */\n      0x40\n        /* \"#utility.yul\":8249:8302   */\n      tag_402\n        /* \"#utility.yul\":8294:8301   */\n      dup9\n        /* \"#utility.yul\":8285:8291   */\n      dup3\n        /* \"#utility.yul\":8274:8283   */\n      dup10\n        /* \"#utility.yul\":8270:8292   */\n      add\n        /* \"#utility.yul\":8249:8302   */\n      tag_256\n      jump\t// in\n    tag_402:\n        /* \"#utility.yul\":8239:8302   */\n      swap4\n      pop\n        /* \"#utility.yul\":8194:8312   */\n      pop\n        /* \"#utility.yul\":8351:8353   */\n      0x60\n        /* \"#utility.yul\":8377:8430   */\n      tag_403\n        /* \"#utility.yul\":8422:8429   */\n      dup9\n        /* \"#utility.yul\":8413:8419   */\n      dup3\n        /* \"#utility.yul\":8402:8411   */\n      dup10\n        /* \"#utility.yul\":8398:8420   */\n      add\n        /* \"#utility.yul\":8377:8430   */\n      tag_262\n      jump\t// in\n    tag_403:\n        /* \"#utility.yul\":8367:8430   */\n      swap3\n      pop\n        /* \"#utility.yul\":8322:8440   */\n      pop\n        /* \"#utility.yul\":8507:8510   */\n      0x80\n        /* \"#utility.yul\":8496:8505   */\n      dup7\n        /* \"#utility.yul\":8492:8511   */\n      add\n        /* \"#utility.yul\":8479:8512   */\n      calldataload\n        /* \"#utility.yul\":8539:8557   */\n      0xffffffffffffffff\n        /* \"#utility.yul\":8531:8537   */\n      dup2\n        /* \"#utility.yul\":8528:8558   */\n      gt\n        /* \"#utility.yul\":8525:8642   */\n      iszero\n      tag_404\n      jumpi\n        /* \"#utility.yul\":8561:8640   */\n      tag_405\n      tag_247\n      jump\t// in\n    tag_405:\n        /* \"#utility.yul\":8525:8642   */\n    tag_404:\n        /* \"#utility.yul\":8666:8728   */\n      tag_406\n        /* \"#utility.yul\":8720:8727   */\n      dup9\n        /* \"#utility.yul\":8711:8717   */\n      dup3\n        /* \"#utility.yul\":8700:8709   */\n      dup10\n        /* \"#utility.yul\":8696:8718   */\n      add\n        /* \"#utility.yul\":8666:8728   */\n      tag_277\n      jump\t// in\n    tag_406:\n        /* \"#utility.yul\":8656:8728   */\n      swap2\n      pop\n        /* \"#utility.yul\":8450:8738   */\n      pop\n        /* \"#utility.yul\":7656:8745   */\n      swap3\n      swap6\n      pop\n      swap3\n      swap6\n      swap1\n      swap4\n      pop\n      jump\t// out\n        /* \"#utility.yul\":8751:9080   */\n    tag_61:\n        /* \"#utility.yul\":8810:8816   */\n      0x00\n        /* \"#utility.yul\":8859:8861   */\n      0x20\n        /* \"#utility.yul\":8847:8856   */\n      dup3\n        /* \"#utility.yul\":8838:8845   */\n      dup5\n        /* \"#utility.yul\":8834:8857   */\n      sub\n        /* \"#utility.yul\":8830:8862   */\n      slt\n        /* \"#utility.yul\":8827:8946   */\n      iszero\n      tag_408\n      jumpi\n        /* \"#utility.yul\":8865:8944   */\n      tag_409\n      tag_246\n      jump\t// in\n    tag_409:\n        /* \"#utility.yul\":8827:8946   */\n    tag_408:\n        /* \"#utility.yul\":8985:8986   */\n      0x00\n        /* \"#utility.yul\":9010:9063   */\n      tag_410\n        /* \"#utility.yul\":9055:9062   */\n      dup5\n        /* \"#utility.yul\":9046:9052   */\n      dup3\n        /* \"#utility.yul\":9035:9044   */\n      dup6\n        /* \"#utility.yul\":9031:9053   */\n      add\n        /* \"#utility.yul\":9010:9063   */\n      tag_256\n      jump\t// in\n    tag_410:\n        /* \"#utility.yul\":9000:9063   */\n      swap2\n      pop\n        /* \"#utility.yul\":8956:9073   */\n      pop\n        /* \"#utility.yul\":8751:9080   */\n      swap3\n      swap2\n      pop\n      pop\n      jump\t// out\n        /* \"#utility.yul\":9086:9560   */\n    tag_65:\n        /* \"#utility.yul\":9154:9160   */\n      0x00\n        /* \"#utility.yul\":9162:9168   */\n      dup1\n        /* \"#utility.yul\":9211:9213   */\n      0x40\n        /* \"#utility.yul\":9199:9208   */\n      dup4\n        /* \"#utility.yul\":9190:9197   */\n      dup6\n        /* \"#utility.yul\":9186:9209   */\n      sub\n        /* \"#utility.yul\":9182:9214   */\n      slt\n        /* \"#utility.yul\":9179:9298   */\n      iszero\n      tag_412\n      jumpi\n        /* \"#utility.yul\":9217:9296   */\n      tag_413\n      tag_246\n      jump\t// in\n    tag_413:\n        /* \"#utility.yul\":9179:9298   */\n    tag_412:\n        /* \"#utility.yul\":9337:9338   */\n      0x00\n        /* \"#utility.yul\":9362:9415   */\n      tag_414\n        /* \"#utility.yul\":9407:9414   */\n      dup6\n        /* \"#utility.yul\":9398:9404   */\n      dup3\n        /* \"#utility.yul\":9387:9396   */\n      dup7\n        /* \"#utility.yul\":9383:9405   */\n      add\n        /* \"#utility.yul\":9362:9415   */\n      tag_250\n      jump\t// in\n    tag_414:\n        /* \"#utility.yul\":9352:9415   */\n      swap3\n      pop\n        /* \"#utility.yul\":9308:9425   */\n      pop\n        /* \"#utility.yul\":9464:9466   */\n      0x20\n        /* \"#utility.yul\":9490:9543   */\n      tag_415\n        /* \"#utility.yul\":9535:9542   */\n      dup6\n        /* \"#utility.yul\":9526:9532   */\n      dup3\n        /* \"#utility.yul\":9515:9524   */\n      dup7\n        /* \"#utility.yul\":9511:9533   */\n      add\n        /* \"#utility.yul\":9490:9543   */\n      tag_256\n      jump\t// in\n    tag_415:\n        /* \"#utility.yul\":9480:9543   */\n      swap2\n      pop\n        /* \"#utility.yul\":9435:9553   */\n      pop\n        /* \"#utility.yul\":9086:9560   */\n      swap3\n      pop\n      swap3\n      swap1\n      pop\n      jump\t// out\n        /* \"#utility.yul\":9566:9707   */\n    tag_278:\n        /* \"#utility.yul\":9631:9640   */\n      0x00\n        /* \"#utility.yul\":9664:9701   */\n      tag_417\n        /* \"#utility.yul\":9695:9700   */\n      dup3\n        /* \"#utility.yul\":9664:9701   */\n      tag_265\n      jump\t// in\n    tag_417:\n        /* \"#utility.yul\":9651:9701   */\n      swap1\n      pop\n        /* \"#utility.yul\":9566:9707   */\n      swap2\n      swap1\n      pop\n      jump\t// out\n        /* \"#utility.yul\":9713:9874   */\n    tag_279:\n        /* \"#utility.yul\":9815:9867   */\n      tag_419\n        /* \"#utility.yul\":9861:9866   */\n      dup2\n        /* \"#utility.yul\":9815:9867   */\n      tag_278\n      jump\t// in\n    tag_419:\n        /* \"#utility.yul\":9810:9813   */\n      dup3\n        /* \"#utility.yul\":9803:9868   */\n      mstore\n        /* \"#utility.yul\":9713:9874   */\n      pop\n      pop\n      jump\t// out\n        /* \"#utility.yul\":9880:10132   */\n    tag_87:\n        /* \"#utility.yul\":9988:9992   */\n      0x00\n        /* \"#utility.yul\":10026:10028   */\n      0x20\n        /* \"#utility.yul\":10015:10024   */\n      dup3\n        /* \"#utility.yul\":10011:10029   */\n      add\n        /* \"#utility.yul\":10003:10029   */\n      swap1\n      pop\n        /* \"#utility.yul\":10039:10125   */\n      tag_421\n        /* \"#utility.yul\":10122:10123   */\n      0x00\n        /* \"#utility.yul\":10111:10120   */\n      dup4\n        /* \"#utility.yul\":10107:10124   */\n      add\n        /* \"#utility.yul\":10098:10104   */\n      dup5\n        /* \"#utility.yul\":10039:10125   */\n      tag_279\n      jump\t// in\n    tag_421:\n        /* \"#utility.yul\":9880:10132   */\n      swap3\n      swap2\n      pop\n      pop\n      jump\t// out\n        /* \"#utility.yul\":10138:10247   */\n    tag_280:\n        /* \"#utility.yul\":10219:10240   */\n      tag_423\n        /* \"#utility.yul\":10234:10239   */\n      dup2\n        /* \"#utility.yul\":10219:10240   */\n      tag_257\n      jump\t// in\n    tag_423:\n        /* \"#utility.yul\":10214:10217   */\n      dup3\n        /* \"#utility.yul\":10207:10241   */\n      mstore\n        /* \"#utility.yul\":10138:10247   */\n      pop\n      pop\n      jump\t// out\n        /* \"#utility.yul\":10253:10463   */\n    tag_96:\n        /* \"#utility.yul\":10340:10344   */\n      0x00\n        /* \"#utility.yul\":10378:10380   */\n      0x20\n        /* \"#utility.yul\":10367:10376   */\n      dup3\n        /* \"#utility.yul\":10363:10381   */\n      add\n        /* \"#utility.yul\":10355:10381   */\n      swap1\n      pop\n        /* \"#utility.yul\":10391:10456   */\n      tag_425\n        /* \"#utility.yul\":10453:10454   */\n      0x00\n        /* \"#utility.yul\":10442:10451   */\n      dup4\n        /* \"#utility.yul\":10438:10455   */\n      add\n        /* \"#utility.yul\":10429:10435   */\n      dup5\n        /* \"#utility.yul\":10391:10456   */\n      tag_280\n      jump\t// in\n    tag_425:\n        /* \"#utility.yul\":10253:10463   */\n      swap3\n      swap2\n      pop\n      pop\n      jump\t// out\n        /* \"#utility.yul\":10469:10638   */\n    tag_281:\n        /* \"#utility.yul\":10553:10564   */\n      0x00\n        /* \"#utility.yul\":10587:10593   */\n      dup3\n        /* \"#utility.yul\":10582:10585   */\n      dup3\n        /* \"#utility.yul\":10575:10594   */\n      mstore\n        /* \"#utility.yul\":10627:10631   */\n      0x20\n        /* \"#utility.yul\":10622:10625   */\n      dup3\n        /* \"#utility.yul\":10618:10632   */\n      add\n        /* \"#utility.yul\":10603:10632   */\n      swap1\n      pop\n        /* \"#utility.yul\":10469:10638   */\n      swap3\n      swap2\n      pop\n      pop\n      jump\t// out\n        /* \"#utility.yul\":10644:10813   */\n    tag_282:\n        /* \"#utility.yul\":10784:10805   */\n      0x596f75206172652774207061796d617374657200000000000000000000000000\n        /* \"#utility.yul\":10780:10781   */\n      0x00\n        /* \"#utility.yul\":10772:10778   */\n      dup3\n        /* \"#utility.yul\":10768:10782   */\n      add\n        /* \"#utility.yul\":10761:10806   */\n      mstore\n        /* \"#utility.yul\":10644:10813   */\n      pop\n      jump\t// out\n        /* \"#utility.yul\":10819:11185   */\n    tag_283:\n        /* \"#utility.yul\":10961:10964   */\n      0x00\n        /* \"#utility.yul\":10982:11049   */\n      tag_429\n        /* \"#utility.yul\":11046:11048   */\n      0x13\n        /* \"#utility.yul\":11041:11044   */\n      dup4\n        /* \"#utility.yul\":10982:11049   */\n      tag_281\n      jump\t// in\n    tag_429:\n        /* \"#utility.yul\":10975:11049   */\n      swap2\n      pop\n        /* \"#utility.yul\":11058:11151   */\n      tag_430\n        /* \"#utility.yul\":11147:11150   */\n      dup3\n        /* \"#utility.yul\":11058:11151   */\n      tag_282\n      jump\t// in\n    tag_430:\n        /* \"#utility.yul\":11176:11178   */\n      0x20\n        /* \"#utility.yul\":11171:11174   */\n      dup3\n        /* \"#utility.yul\":11167:11179   */\n      add\n        /* \"#utility.yul\":11160:11179   */\n      swap1\n      pop\n        /* \"#utility.yul\":10819:11185   */\n      swap2\n      swap1\n      pop\n      jump\t// out\n        /* \"#utility.yul\":11191:11610   */\n    tag_101:\n        /* \"#utility.yul\":11357:11361   */\n      0x00\n        /* \"#utility.yul\":11395:11397   */\n      0x20\n        /* \"#utility.yul\":11384:11393   */\n      dup3\n        /* \"#utility.yul\":11380:11398   */\n      add\n        /* \"#utility.yul\":11372:11398   */\n      swap1\n      pop\n        /* \"#utility.yul\":11444:11453   */\n      dup2\n        /* \"#utility.yul\":11438:11442   */\n      dup2\n        /* \"#utility.yul\":11434:11454   */\n      sub\n        /* \"#utility.yul\":11430:11431   */\n      0x00\n        /* \"#utility.yul\":11419:11428   */\n      dup4\n        /* \"#utility.yul\":11415:11432   */\n      add\n        /* \"#utility.yul\":11408:11455   */\n      mstore\n        /* \"#utility.yul\":11472:11603   */\n      tag_432\n        /* \"#utility.yul\":11598:11602   */\n      dup2\n        /* \"#utility.yul\":11472:11603   */\n      tag_283\n      jump\t// in\n    tag_432:\n        /* \"#utility.yul\":11464:11603   */\n      swap1\n      pop\n        /* \"#utility.yul\":11191:11610   */\n      swap2\n      swap1\n      pop\n      jump\t// out\n        /* \"#utility.yul\":11616:11786   */\n    tag_284:\n        /* \"#utility.yul\":11756:11778   */\n      0x416d6f756e742063616e2774206265207a65726f000000000000000000000000\n        /* \"#utility.yul\":11752:11753   */\n      0x00\n        /* \"#utility.yul\":11744:11750   */\n      dup3\n        /* \"#utility.yul\":11740:11754   */\n      add\n        /* \"#utility.yul\":11733:11779   */\n      mstore\n        /* \"#utility.yul\":11616:11786   */\n      pop\n      jump\t// out\n        /* \"#utility.yul\":11792:12158   */\n    tag_285:\n        /* \"#utility.yul\":11934:11937   */\n      0x00\n        /* \"#utility.yul\":11955:12022   */\n      tag_435\n        /* \"#utility.yul\":12019:12021   */\n      0x14\n        /* \"#utility.yul\":12014:12017   */\n      dup4\n        /* \"#utility.yul\":11955:12022   */\n      tag_281\n      jump\t// in\n    tag_435:\n        /* \"#utility.yul\":11948:12022   */\n      swap2\n      pop\n        /* \"#utility.yul\":12031:12124   */\n      tag_436\n        /* \"#utility.yul\":12120:12123   */\n      dup3\n        /* \"#utility.yul\":12031:12124   */\n      tag_284\n      jump\t// in\n    tag_436:\n        /* \"#utility.yul\":12149:12151   */\n      0x20\n        /* \"#utility.yul\":12144:12147   */\n      dup3\n        /* \"#utility.yul\":12140:12152   */\n      add\n        /* \"#utility.yul\":12133:12152   */\n      swap1\n      pop\n        /* \"#utility.yul\":11792:12158   */\n      swap2\n      swap1\n      pop\n      jump\t// out\n        /* \"#utility.yul\":12164:12583   */\n    tag_104:\n        /* \"#utility.yul\":12330:12334   */\n      0x00\n        /* \"#utility.yul\":12368:12370   */\n      0x20\n        /* \"#utility.yul\":12357:12366   */\n      dup3\n        /* \"#utility.yul\":12353:12371   */\n      add\n        /* \"#utility.yul\":12345:12371   */\n      swap1\n      pop\n        /* \"#utility.yul\":12417:12426   */\n      dup2\n        /* \"#utility.yul\":12411:12415   */\n      dup2\n        /* \"#utility.yul\":12407:12427   */\n      sub\n        /* \"#utility.yul\":12403:12404   */\n      0x00\n        /* \"#utility.yul\":12392:12401   */\n      dup4\n        /* \"#utility.yul\":12388:12405   */\n      add\n        /* \"#utility.yul\":12381:12428   */\n      mstore\n        /* \"#utility.yul\":12445:12576   */\n      tag_438\n        /* \"#utility.yul\":12571:12575   */\n      dup2\n        /* \"#utility.yul\":12445:12576   */\n      tag_285\n      jump\t// in\n    tag_438:\n        /* \"#utility.yul\":12437:12576   */\n      swap1\n      pop\n        /* \"#utility.yul\":12164:12583   */\n      swap2\n      swap1\n      pop\n      jump\t// out\n        /* \"#utility.yul\":12589:12769   */\n    tag_286:\n        /* \"#utility.yul\":12637:12714   */\n      0x4e487b7100000000000000000000000000000000000000000000000000000000\n        /* \"#utility.yul\":12634:12635   */\n      0x00\n        /* \"#utility.yul\":12627:12715   */\n      mstore\n        /* \"#utility.yul\":12734:12738   */\n      0x11\n        /* \"#utility.yul\":12731:12732   */\n      0x04\n        /* \"#utility.yul\":12724:12739   */\n      mstore\n        /* \"#utility.yul\":12758:12762   */\n      0x24\n        /* \"#utility.yul\":12755:12756   */\n      0x00\n        /* \"#utility.yul\":12748:12763   */\n      revert\n        /* \"#utility.yul\":12775:12966   */\n    tag_106:\n        /* \"#utility.yul\":12815:12818   */\n      0x00\n        /* \"#utility.yul\":12834:12854   */\n      tag_441\n        /* \"#utility.yul\":12852:12853   */\n      dup3\n        /* \"#utility.yul\":12834:12854   */\n      tag_248\n      jump\t// in\n    tag_441:\n        /* \"#utility.yul\":12829:12854   */\n      swap2\n      pop\n        /* \"#utility.yul\":12868:12888   */\n      tag_442\n        /* \"#utility.yul\":12886:12887   */\n      dup4\n        /* \"#utility.yul\":12868:12888   */\n      tag_248\n      jump\t// in\n    tag_442:\n        /* \"#utility.yul\":12863:12888   */\n      swap3\n      pop\n        /* \"#utility.yul\":12911:12912   */\n      dup3\n        /* \"#utility.yul\":12908:12909   */\n      dup3\n        /* \"#utility.yul\":12904:12913   */\n      add\n        /* \"#utility.yul\":12897:12913   */\n      swap1\n      pop\n        /* \"#utility.yul\":12932:12935   */\n      dup1\n        /* \"#utility.yul\":12929:12930   */\n      dup3\n        /* \"#utility.yul\":12926:12936   */\n      gt\n        /* \"#utility.yul\":12923:12959   */\n      iszero\n      tag_443\n      jumpi\n        /* \"#utility.yul\":12939:12957   */\n      tag_444\n      tag_286\n      jump\t// in\n    tag_444:\n        /* \"#utility.yul\":12923:12959   */\n    tag_443:\n        /* \"#utility.yul\":12775:12966   */\n      swap3\n      swap2\n      pop\n      pop\n      jump\t// out\n        /* \"#utility.yul\":12972:13090   */\n    tag_287:\n        /* \"#utility.yul\":13059:13083   */\n      tag_446\n        /* \"#utility.yul\":13077:13082   */\n      dup2\n        /* \"#utility.yul\":13059:13083   */\n      tag_260\n      jump\t// in\n    tag_446:\n        /* \"#utility.yul\":13054:13057   */\n      dup3\n        /* \"#utility.yul\":13047:13084   */\n      mstore\n        /* \"#utility.yul\":12972:13090   */\n      pop\n      pop\n      jump\t// out\n        /* \"#utility.yul\":13096:13538   */\n    tag_109:\n        /* \"#utility.yul\":13245:13249   */\n      0x00\n        /* \"#utility.yul\":13283:13285   */\n      0x60\n        /* \"#utility.yul\":13272:13281   */\n      dup3\n        /* \"#utility.yul\":13268:13286   */\n      add\n        /* \"#utility.yul\":13260:13286   */\n      swap1\n      pop\n        /* \"#utility.yul\":13296:13367   */\n      tag_448\n        /* \"#utility.yul\":13364:13365   */\n      0x00\n        /* \"#utility.yul\":13353:13362   */\n      dup4\n        /* \"#utility.yul\":13349:13366   */\n      add\n        /* \"#utility.yul\":13340:13346   */\n      dup7\n        /* \"#utility.yul\":13296:13367   */\n      tag_254\n      jump\t// in\n    tag_448:\n        /* \"#utility.yul\":13377:13449   */\n      tag_449\n        /* \"#utility.yul\":13445:13447   */\n      0x20\n        /* \"#utility.yul\":13434:13443   */\n      dup4\n        /* \"#utility.yul\":13430:13448   */\n      add\n        /* \"#utility.yul\":13421:13427   */\n      dup6\n        /* \"#utility.yul\":13377:13449   */\n      tag_254\n      jump\t// in\n    tag_449:\n        /* \"#utility.yul\":13459:13531   */\n      tag_450\n        /* \"#utility.yul\":13527:13529   */\n      0x40\n        /* \"#utility.yul\":13516:13525   */\n      dup4\n        /* \"#utility.yul\":13512:13530   */\n      add\n        /* \"#utility.yul\":13503:13509   */\n      dup5\n        /* \"#utility.yul\":13459:13531   */\n      tag_287\n      jump\t// in\n    tag_450:\n        /* \"#utility.yul\":13096:13538   */\n      swap5\n      swap4\n      pop\n      pop\n      pop\n      pop\n      jump\t// out\n        /* \"#utility.yul\":13544:13712   */\n    tag_288:\n        /* \"#utility.yul\":13684:13704   */\n      0x43616e2774207769746864726177207965740000000000000000000000000000\n        /* \"#utility.yul\":13680:13681   */\n      0x00\n        /* \"#utility.yul\":13672:13678   */\n      dup3\n        /* \"#utility.yul\":13668:13682   */\n      add\n        /* \"#utility.yul\":13661:13705   */\n      mstore\n        /* \"#utility.yul\":13544:13712   */\n      pop\n      jump\t// out\n        /* \"#utility.yul\":13718:14084   */\n    tag_289:\n        /* \"#utility.yul\":13860:13863   */\n      0x00\n        /* \"#utility.yul\":13881:13948   */\n      tag_453\n        /* \"#utility.yul\":13945:13947   */\n      0x12\n        /* \"#utility.yul\":13940:13943   */\n      dup4\n        /* \"#utility.yul\":13881:13948   */\n      tag_281\n      jump\t// in\n    tag_453:\n        /* \"#utility.yul\":13874:13948   */\n      swap2\n      pop\n        /* \"#utility.yul\":13957:14050   */\n      tag_454\n        /* \"#utility.yul\":14046:14049   */\n      dup3\n        /* \"#utility.yul\":13957:14050   */\n      tag_288\n      jump\t// in\n    tag_454:\n        /* \"#utility.yul\":14075:14077   */\n      0x20\n        /* \"#utility.yul\":14070:14073   */\n      dup3\n        /* \"#utility.yul\":14066:14078   */\n      add\n        /* \"#utility.yul\":14059:14078   */\n      swap1\n      pop\n        /* \"#utility.yul\":13718:14084   */\n      swap2\n      swap1\n      pop\n      jump\t// out\n        /* \"#utility.yul\":14090:14509   */\n    tag_115:\n        /* \"#utility.yul\":14256:14260   */\n      0x00\n        /* \"#utility.yul\":14294:14296   */\n      0x20\n        /* \"#utility.yul\":14283:14292   */\n      dup3\n        /* \"#utility.yul\":14279:14297   */\n      add\n        /* \"#utility.yul\":14271:14297   */\n      swap1\n      pop\n        /* \"#utility.yul\":14343:14352   */\n      dup2\n        /* \"#utility.yul\":14337:14341   */\n      dup2\n        /* \"#utility.yul\":14333:14353   */\n      sub\n        /* \"#utility.yul\":14329:14330   */\n      0x00\n        /* \"#utility.yul\":14318:14327   */\n      dup4\n        /* \"#utility.yul\":14314:14331   */\n      add\n        /* \"#utility.yul\":14307:14354   */\n      mstore\n        /* \"#utility.yul\":14371:14502   */\n      tag_456\n        /* \"#utility.yul\":14497:14501   */\n      dup2\n        /* \"#utility.yul\":14371:14502   */\n      tag_289\n      jump\t// in\n    tag_456:\n        /* \"#utility.yul\":14363:14502   */\n      swap1\n      pop\n        /* \"#utility.yul\":14090:14509   */\n      swap2\n      swap1\n      pop\n      jump\t// out\n        /* \"#utility.yul\":14515:14658   */\n    tag_290:\n        /* \"#utility.yul\":14572:14577   */\n      0x00\n        /* \"#utility.yul\":14603:14609   */\n      dup2\n        /* \"#utility.yul\":14597:14610   */\n      mload\n        /* \"#utility.yul\":14588:14610   */\n      swap1\n      pop\n        /* \"#utility.yul\":14619:14652   */\n      tag_458\n        /* \"#utility.yul\":14646:14651   */\n      dup2\n        /* \"#utility.yul\":14619:14652   */\n      tag_255\n      jump\t// in\n    tag_458:\n        /* \"#utility.yul\":14515:14658   */\n      swap3\n      swap2\n      pop\n      pop\n      jump\t// out\n        /* \"#utility.yul\":14664:15015   */\n    tag_121:\n        /* \"#utility.yul\":14734:14740   */\n      0x00\n        /* \"#utility.yul\":14783:14785   */\n      0x20\n        /* \"#utility.yul\":14771:14780   */\n      dup3\n        /* \"#utility.yul\":14762:14769   */\n      dup5\n        /* \"#utility.yul\":14758:14781   */\n      sub\n        /* \"#utility.yul\":14754:14786   */\n      slt\n        /* \"#utility.yul\":14751:14870   */\n      iszero\n      tag_460\n      jumpi\n        /* \"#utility.yul\":14789:14868   */\n      tag_461\n      tag_246\n      jump\t// in\n    tag_461:\n        /* \"#utility.yul\":14751:14870   */\n    tag_460:\n        /* \"#utility.yul\":14909:14910   */\n      0x00\n        /* \"#utility.yul\":14934:14998   */\n      tag_462\n        /* \"#utility.yul\":14990:14997   */\n      dup5\n        /* \"#utility.yul\":14981:14987   */\n      dup3\n        /* \"#utility.yul\":14970:14979   */\n      dup6\n        /* \"#utility.yul\":14966:14988   */\n      add\n        /* \"#utility.yul\":14934:14998   */\n      tag_290\n      jump\t// in\n    tag_462:\n        /* \"#utility.yul\":14924:14998   */\n      swap2\n      pop\n        /* \"#utility.yul\":14880:15008   */\n      pop\n        /* \"#utility.yul\":14664:15015   */\n      swap3\n      swap2\n      pop\n      pop\n      jump\t// out\n        /* \"#utility.yul\":15021:15200   */\n    tag_291:\n        /* \"#utility.yul\":15161:15192   */\n      0x43616c6c6572206973206e6f742074686520746f6b656e206f776e6572000000\n        /* \"#utility.yul\":15157:15158   */\n      0x00\n        /* \"#utility.yul\":15149:15155   */\n      dup3\n        /* \"#utility.yul\":15145:15159   */\n      add\n        /* \"#utility.yul\":15138:15193   */\n      mstore\n        /* \"#utility.yul\":15021:15200   */\n      pop\n      jump\t// out\n        /* \"#utility.yul\":15206:15572   */\n    tag_292:\n        /* \"#utility.yul\":15348:15351   */\n      0x00\n        /* \"#utility.yul\":15369:15436   */\n      tag_465\n        /* \"#utility.yul\":15433:15435   */\n      0x1d\n        /* \"#utility.yul\":15428:15431   */\n      dup4\n        /* \"#utility.yul\":15369:15436   */\n      tag_281\n      jump\t// in\n    tag_465:\n        /* \"#utility.yul\":15362:15436   */\n      swap2\n      pop\n        /* \"#utility.yul\":15445:15538   */\n      tag_466\n        /* \"#utility.yul\":15534:15537   */\n      dup3\n        /* \"#utility.yul\":15445:15538   */\n      tag_291\n      jump\t// in\n    tag_466:\n        /* \"#utility.yul\":15563:15565   */\n      0x20\n        /* \"#utility.yul\":15558:15561   */\n      dup3\n        /* \"#utility.yul\":15554:15566   */\n      add\n        /* \"#utility.yul\":15547:15566   */\n      swap1\n      pop\n        /* \"#utility.yul\":15206:15572   */\n      swap2\n      swap1\n      pop\n      jump\t// out\n        /* \"#utility.yul\":15578:15997   */\n    tag_124:\n        /* \"#utility.yul\":15744:15748   */\n      0x00\n        /* \"#utility.yul\":15782:15784   */\n      0x20\n        /* \"#utility.yul\":15771:15780   */\n      dup3\n        /* \"#utility.yul\":15767:15785   */\n      add\n        /* \"#utility.yul\":15759:15785   */\n      swap1\n      pop\n        /* \"#utility.yul\":15831:15840   */\n      dup2\n        /* \"#utility.yul\":15825:15829   */\n      dup2\n        /* \"#utility.yul\":15821:15841   */\n      sub\n        /* \"#utility.yul\":15817:15818   */\n      0x00\n        /* \"#utility.yul\":15806:15815   */\n      dup4\n        /* \"#utility.yul\":15802:15819   */\n      add\n        /* \"#utility.yul\":15795:15842   */\n      mstore\n        /* \"#utility.yul\":15859:15990   */\n      tag_468\n        /* \"#utility.yul\":15985:15989   */\n      dup2\n        /* \"#utility.yul\":15859:15990   */\n      tag_292\n      jump\t// in\n    tag_468:\n        /* \"#utility.yul\":15851:15990   */\n      swap1\n      pop\n        /* \"#utility.yul\":15578:15997   */\n      swap2\n      swap1\n      pop\n      jump\t// out\n        /* \"#utility.yul\":16003:16197   */\n    tag_129:\n        /* \"#utility.yul\":16043:16047   */\n      0x00\n        /* \"#utility.yul\":16063:16083   */\n      tag_470\n        /* \"#utility.yul\":16081:16082   */\n      dup3\n        /* \"#utility.yul\":16063:16083   */\n      tag_248\n      jump\t// in\n    tag_470:\n        /* \"#utility.yul\":16058:16083   */\n      swap2\n      pop\n        /* \"#utility.yul\":16097:16117   */\n      tag_471\n        /* \"#utility.yul\":16115:16116   */\n      dup4\n        /* \"#utility.yul\":16097:16117   */\n      tag_248\n      jump\t// in\n    tag_471:\n        /* \"#utility.yul\":16092:16117   */\n      swap3\n      pop\n        /* \"#utility.yul\":16141:16142   */\n      dup3\n        /* \"#utility.yul\":16138:16139   */\n      dup3\n        /* \"#utility.yul\":16134:16143   */\n      sub\n        /* \"#utility.yul\":16126:16143   */\n      swap1\n      pop\n        /* \"#utility.yul\":16165:16166   */\n      dup2\n        /* \"#utility.yul\":16159:16163   */\n      dup2\n        /* \"#utility.yul\":16156:16167   */\n      gt\n        /* \"#utility.yul\":16153:16190   */\n      iszero\n      tag_472\n      jumpi\n        /* \"#utility.yul\":16170:16188   */\n      tag_473\n      tag_286\n      jump\t// in\n    tag_473:\n        /* \"#utility.yul\":16153:16190   */\n    tag_472:\n        /* \"#utility.yul\":16003:16197   */\n      swap3\n      swap2\n      pop\n      pop\n      jump\t// out\n        /* \"#utility.yul\":16203:16373   */\n    tag_293:\n        /* \"#utility.yul\":16343:16365   */\n      0x596f75206d6f6e6579206e6f7420656e6f756768000000000000000000000000\n        /* \"#utility.yul\":16339:16340   */\n      0x00\n        /* \"#utility.yul\":16331:16337   */\n      dup3\n        /* \"#utility.yul\":16327:16341   */\n      add\n        /* \"#utility.yul\":16320:16366   */\n      mstore\n        /* \"#utility.yul\":16203:16373   */\n      pop\n      jump\t// out\n        /* \"#utility.yul\":16379:16745   */\n    tag_294:\n        /* \"#utility.yul\":16521:16524   */\n      0x00\n        /* \"#utility.yul\":16542:16609   */\n      tag_476\n        /* \"#utility.yul\":16606:16608   */\n      0x14\n        /* \"#utility.yul\":16601:16604   */\n      dup4\n        /* \"#utility.yul\":16542:16609   */\n      tag_281\n      jump\t// in\n    tag_476:\n        /* \"#utility.yul\":16535:16609   */\n      swap2\n      pop\n        /* \"#utility.yul\":16618:16711   */\n      tag_477\n        /* \"#utility.yul\":16707:16710   */\n      dup3\n        /* \"#utility.yul\":16618:16711   */\n      tag_293\n      jump\t// in\n    tag_477:\n        /* \"#utility.yul\":16736:16738   */\n      0x20\n        /* \"#utility.yul\":16731:16734   */\n      dup3\n        /* \"#utility.yul\":16727:16739   */\n      add\n        /* \"#utility.yul\":16720:16739   */\n      swap1\n      pop\n        /* \"#utility.yul\":16379:16745   */\n      swap2\n      swap1\n      pop\n      jump\t// out\n        /* \"#utility.yul\":16751:17170   */\n    tag_132:\n        /* \"#utility.yul\":16917:16921   */\n      0x00\n        /* \"#utility.yul\":16955:16957   */\n      0x20\n        /* \"#utility.yul\":16944:16953   */\n      dup3\n        /* \"#utility.yul\":16940:16958   */\n      add\n        /* \"#utility.yul\":16932:16958   */\n      swap1\n      pop\n        /* \"#utility.yul\":17004:17013   */\n      dup2\n        /* \"#utility.yul\":16998:17002   */\n      dup2\n        /* \"#utility.yul\":16994:17014   */\n      sub\n        /* \"#utility.yul\":16990:16991   */\n      0x00\n        /* \"#utility.yul\":16979:16988   */\n      dup4\n        /* \"#utility.yul\":16975:16992   */\n      add\n        /* \"#utility.yul\":16968:17015   */\n      mstore\n        /* \"#utility.yul\":17032:17163   */\n      tag_479\n        /* \"#utility.yul\":17158:17162   */\n      dup2\n        /* \"#utility.yul\":17032:17163   */\n      tag_294\n      jump\t// in\n    tag_479:\n        /* \"#utility.yul\":17024:17163   */\n      swap1\n      pop\n        /* \"#utility.yul\":16751:17170   */\n      swap2\n      swap1\n      pop\n      jump\t// out\n        /* \"#utility.yul\":17176:17618   */\n    tag_135:\n        /* \"#utility.yul\":17325:17329   */\n      0x00\n        /* \"#utility.yul\":17363:17365   */\n      0x60\n        /* \"#utility.yul\":17352:17361   */\n      dup3\n        /* \"#utility.yul\":17348:17366   */\n      add\n        /* \"#utility.yul\":17340:17366   */\n      swap1\n      pop\n        /* \"#utility.yul\":17376:17447   */\n      tag_481\n        /* \"#utility.yul\":17444:17445   */\n      0x00\n        /* \"#utility.yul\":17433:17442   */\n      dup4\n        /* \"#utility.yul\":17429:17446   */\n      add\n        /* \"#utility.yul\":17420:17426   */\n      dup7\n        /* \"#utility.yul\":17376:17447   */\n      tag_253\n      jump\t// in\n    tag_481:\n        /* \"#utility.yul\":17457:17529   */\n      tag_482\n        /* \"#utility.yul\":17525:17527   */\n      0x20\n        /* \"#utility.yul\":17514:17523   */\n      dup4\n        /* \"#utility.yul\":17510:17528   */\n      add\n        /* \"#utility.yul\":17501:17507   */\n      dup6\n        /* \"#utility.yul\":17457:17529   */\n      tag_253\n      jump\t// in\n    tag_482:\n        /* \"#utility.yul\":17539:17611   */\n      tag_483\n        /* \"#utility.yul\":17607:17609   */\n      0x40\n        /* \"#utility.yul\":17596:17605   */\n      dup4\n        /* \"#utility.yul\":17592:17610   */\n      add\n        /* \"#utility.yul\":17583:17589   */\n      dup5\n        /* \"#utility.yul\":17539:17611   */\n      tag_254\n      jump\t// in\n    tag_483:\n        /* \"#utility.yul\":17176:17618   */\n      swap5\n      swap4\n      pop\n      pop\n      pop\n      pop\n      jump\t// out\n        /* \"#utility.yul\":17624:17761   */\n    tag_295:\n        /* \"#utility.yul\":17678:17683   */\n      0x00\n        /* \"#utility.yul\":17709:17715   */\n      dup2\n        /* \"#utility.yul\":17703:17716   */\n      mload\n        /* \"#utility.yul\":17694:17716   */\n      swap1\n      pop\n        /* \"#utility.yul\":17725:17755   */\n      tag_485\n        /* \"#utility.yul\":17749:17754   */\n      dup2\n        /* \"#utility.yul\":17725:17755   */\n      tag_258\n      jump\t// in\n    tag_485:\n        /* \"#utility.yul\":17624:17761   */\n      swap3\n      swap2\n      pop\n      pop\n      jump\t// out\n        /* \"#utility.yul\":17767:18112   */\n    tag_139:\n        /* \"#utility.yul\":17834:17840   */\n      0x00\n        /* \"#utility.yul\":17883:17885   */\n      0x20\n        /* \"#utility.yul\":17871:17880   */\n      dup3\n        /* \"#utility.yul\":17862:17869   */\n      dup5\n        /* \"#utility.yul\":17858:17881   */\n      sub\n        /* \"#utility.yul\":17854:17886   */\n      slt\n        /* \"#utility.yul\":17851:17970   */\n      iszero\n      tag_487\n      jumpi\n        /* \"#utility.yul\":17889:17968   */\n      tag_488\n      tag_246\n      jump\t// in\n    tag_488:\n        /* \"#utility.yul\":17851:17970   */\n    tag_487:\n        /* \"#utility.yul\":18009:18010   */\n      0x00\n        /* \"#utility.yul\":18034:18095   */\n      tag_489\n        /* \"#utility.yul\":18087:18094   */\n      dup5\n        /* \"#utility.yul\":18078:18084   */\n      dup3\n        /* \"#utility.yul\":18067:18076   */\n      dup6\n        /* \"#utility.yul\":18063:18085   */\n      add\n        /* \"#utility.yul\":18034:18095   */\n      tag_295\n      jump\t// in\n    tag_489:\n        /* \"#utility.yul\":18024:18095   */\n      swap2\n      pop\n        /* \"#utility.yul\":17980:18105   */\n      pop\n        /* \"#utility.yul\":17767:18112   */\n      swap3\n      swap2\n      pop\n      pop\n      jump\t// out\n        /* \"#utility.yul\":18118:18450   */\n    tag_143:\n        /* \"#utility.yul\":18239:18243   */\n      0x00\n        /* \"#utility.yul\":18277:18279   */\n      0x40\n        /* \"#utility.yul\":18266:18275   */\n      dup3\n        /* \"#utility.yul\":18262:18280   */\n      add\n        /* \"#utility.yul\":18254:18280   */\n      swap1\n      pop\n        /* \"#utility.yul\":18290:18361   */\n      tag_491\n        /* \"#utility.yul\":18358:18359   */\n      0x00\n        /* \"#utility.yul\":18347:18356   */\n      dup4\n        /* \"#utility.yul\":18343:18360   */\n      add\n        /* \"#utility.yul\":18334:18340   */\n      dup6\n        /* \"#utility.yul\":18290:18361   */\n      tag_254\n      jump\t// in\n    tag_491:\n        /* \"#utility.yul\":18371:18443   */\n      tag_492\n        /* \"#utility.yul\":18439:18441   */\n      0x20\n        /* \"#utility.yul\":18428:18437   */\n      dup4\n        /* \"#utility.yul\":18424:18442   */\n      add\n        /* \"#utility.yul\":18415:18421   */\n      dup5\n        /* \"#utility.yul\":18371:18443   */\n      tag_254\n      jump\t// in\n    tag_492:\n        /* \"#utility.yul\":18118:18450   */\n      swap4\n      swap3\n      pop\n      pop\n      pop\n      jump\t// out\n        /* \"#utility.yul\":18456:19120   */\n    tag_163:\n        /* \"#utility.yul\":18661:18665   */\n      0x00\n        /* \"#utility.yul\":18699:18702   */\n      0xa0\n        /* \"#utility.yul\":18688:18697   */\n      dup3\n        /* \"#utility.yul\":18684:18703   */\n      add\n        /* \"#utility.yul\":18676:18703   */\n      swap1\n      pop\n        /* \"#utility.yul\":18713:18784   */\n      tag_494\n        /* \"#utility.yul\":18781:18782   */\n      0x00\n        /* \"#utility.yul\":18770:18779   */\n      dup4\n        /* \"#utility.yul\":18766:18783   */\n      add\n        /* \"#utility.yul\":18757:18763   */\n      dup9\n        /* \"#utility.yul\":18713:18784   */\n      tag_254\n      jump\t// in\n    tag_494:\n        /* \"#utility.yul\":18794:18866   */\n      tag_495\n        /* \"#utility.yul\":18862:18864   */\n      0x20\n        /* \"#utility.yul\":18851:18860   */\n      dup4\n        /* \"#utility.yul\":18847:18865   */\n      add\n        /* \"#utility.yul\":18838:18844   */\n      dup8\n        /* \"#utility.yul\":18794:18866   */\n      tag_254\n      jump\t// in\n    tag_495:\n        /* \"#utility.yul\":18876:18948   */\n      tag_496\n        /* \"#utility.yul\":18944:18946   */\n      0x40\n        /* \"#utility.yul\":18933:18942   */\n      dup4\n        /* \"#utility.yul\":18929:18947   */\n      add\n        /* \"#utility.yul\":18920:18926   */\n      dup7\n        /* \"#utility.yul\":18876:18948   */\n      tag_254\n      jump\t// in\n    tag_496:\n        /* \"#utility.yul\":18958:19030   */\n      tag_497\n        /* \"#utility.yul\":19026:19028   */\n      0x60\n        /* \"#utility.yul\":19015:19024   */\n      dup4\n        /* \"#utility.yul\":19011:19029   */\n      add\n        /* \"#utility.yul\":19002:19008   */\n      dup6\n        /* \"#utility.yul\":18958:19030   */\n      tag_253\n      jump\t// in\n    tag_497:\n        /* \"#utility.yul\":19040:19113   */\n      tag_498\n        /* \"#utility.yul\":19108:19111   */\n      0x80\n        /* \"#utility.yul\":19097:19106   */\n      dup4\n        /* \"#utility.yul\":19093:19112   */\n      add\n        /* \"#utility.yul\":19084:19090   */\n      dup5\n        /* \"#utility.yul\":19040:19113   */\n      tag_287\n      jump\t// in\n    tag_498:\n        /* \"#utility.yul\":18456:19120   */\n      swap7\n      swap6\n      pop\n      pop\n      pop\n      pop\n      pop\n      pop\n      jump\t// out\n        /* \"#utility.yul\":19126:19293   */\n    tag_296:\n        /* \"#utility.yul\":19266:19285   */\n      0x496e76616c6964205369676e6174757265000000000000000000000000000000\n        /* \"#utility.yul\":19262:19263   */\n      0x00\n        /* \"#utility.yul\":19254:19260   */\n      dup3\n        /* \"#utility.yul\":19250:19264   */\n      add\n        /* \"#utility.yul\":19243:19286   */\n      mstore\n        /* \"#utility.yul\":19126:19293   */\n      pop\n      jump\t// out\n        /* \"#utility.yul\":19299:19665   */\n    tag_297:\n        /* \"#utility.yul\":19441:19444   */\n      0x00\n        /* \"#utility.yul\":19462:19529   */\n      tag_501\n        /* \"#utility.yul\":19526:19528   */\n      0x11\n        /* \"#utility.yul\":19521:19524   */\n      dup4\n        /* \"#utility.yul\":19462:19529   */\n      tag_281\n      jump\t// in\n    tag_501:\n        /* \"#utility.yul\":19455:19529   */\n      swap2\n      pop\n        /* \"#utility.yul\":19538:19631   */\n      tag_502\n        /* \"#utility.yul\":19627:19630   */\n      dup3\n        /* \"#utility.yul\":19538:19631   */\n      tag_296\n      jump\t// in\n    tag_502:\n        /* \"#utility.yul\":19656:19658   */\n      0x20\n        /* \"#utility.yul\":19651:19654   */\n      dup3\n        /* \"#utility.yul\":19647:19659   */\n      add\n        /* \"#utility.yul\":19640:19659   */\n      swap1\n      pop\n        /* \"#utility.yul\":19299:19665   */\n      swap2\n      swap1\n      pop\n      jump\t// out\n        /* \"#utility.yul\":19671:20090   */\n    tag_168:\n        /* \"#utility.yul\":19837:19841   */\n      0x00\n        /* \"#utility.yul\":19875:19877   */\n      0x20\n        /* \"#utility.yul\":19864:19873   */\n      dup3\n        /* \"#utility.yul\":19860:19878   */\n      add\n        /* \"#utility.yul\":19852:19878   */\n      swap1\n      pop\n        /* \"#utility.yul\":19924:19933   */\n      dup2\n        /* \"#utility.yul\":19918:19922   */\n      dup2\n        /* \"#utility.yul\":19914:19934   */\n      sub\n        /* \"#utility.yul\":19910:19911   */\n      0x00\n        /* \"#utility.yul\":19899:19908   */\n      dup4\n        /* \"#utility.yul\":19895:19912   */\n      add\n        /* \"#utility.yul\":19888:19935   */\n      mstore\n        /* \"#utility.yul\":19952:20083   */\n      tag_504\n        /* \"#utility.yul\":20078:20082   */\n      dup2\n        /* \"#utility.yul\":19952:20083   */\n      tag_297\n      jump\t// in\n    tag_504:\n        /* \"#utility.yul\":19944:20083   */\n      swap1\n      pop\n        /* \"#utility.yul\":19671:20090   */\n      swap2\n      swap1\n      pop\n      jump\t// out\n        /* \"#utility.yul\":20096:20276   */\n    tag_213:\n        /* \"#utility.yul\":20144:20221   */\n      0x4e487b7100000000000000000000000000000000000000000000000000000000\n        /* \"#utility.yul\":20141:20142   */\n      0x00\n        /* \"#utility.yul\":20134:20222   */\n      mstore\n        /* \"#utility.yul\":20241:20245   */\n      0x21\n        /* \"#utility.yul\":20238:20239   */\n      0x04\n        /* \"#utility.yul\":20231:20246   */\n      mstore\n        /* \"#utility.yul\":20265:20269   */\n      0x24\n        /* \"#utility.yul\":20262:20263   */\n      0x00\n        /* \"#utility.yul\":20255:20270   */\n      revert\n        /* \"#utility.yul\":20282:20504   */\n    tag_237:\n        /* \"#utility.yul\":20375:20379   */\n      0x00\n        /* \"#utility.yul\":20413:20415   */\n      0x20\n        /* \"#utility.yul\":20402:20411   */\n      dup3\n        /* \"#utility.yul\":20398:20416   */\n      add\n        /* \"#utility.yul\":20390:20416   */\n      swap1\n      pop\n        /* \"#utility.yul\":20426:20497   */\n      tag_507\n        /* \"#utility.yul\":20494:20495   */\n      0x00\n        /* \"#utility.yul\":20483:20492   */\n      dup4\n        /* \"#utility.yul\":20479:20496   */\n      add\n        /* \"#utility.yul\":20470:20476   */\n      dup5\n        /* \"#utility.yul\":20426:20497   */\n      tag_287\n      jump\t// in\n    tag_507:\n        /* \"#utility.yul\":20282:20504   */\n      swap3\n      swap2\n      pop\n      pop\n      jump\t// out\n        /* \"#utility.yul\":20510:20596   */\n    tag_298:\n        /* \"#utility.yul\":20545:20552   */\n      0x00\n        /* \"#utility.yul\":20585:20589   */\n      0xff\n        /* \"#utility.yul\":20578:20583   */\n      dup3\n        /* \"#utility.yul\":20574:20590   */\n      and\n        /* \"#utility.yul\":20563:20590   */\n      swap1\n      pop\n        /* \"#utility.yul\":20510:20596   */\n      swap2\n      swap1\n      pop\n      jump\t// out\n        /* \"#utility.yul\":20602:20714   */\n    tag_299:\n        /* \"#utility.yul\":20685:20707   */\n      tag_510\n        /* \"#utility.yul\":20701:20706   */\n      dup2\n        /* \"#utility.yul\":20685:20707   */\n      tag_298\n      jump\t// in\n    tag_510:\n        /* \"#utility.yul\":20680:20683   */\n      dup3\n        /* \"#utility.yul\":20673:20708   */\n      mstore\n        /* \"#utility.yul\":20602:20714   */\n      pop\n      pop\n      jump\t// out\n        /* \"#utility.yul\":20720:21265   */\n    tag_241:\n        /* \"#utility.yul\":20893:20897   */\n      0x00\n        /* \"#utility.yul\":20931:20934   */\n      0x80\n        /* \"#utility.yul\":20920:20929   */\n      dup3\n        /* \"#utility.yul\":20916:20935   */\n      add\n        /* \"#utility.yul\":20908:20935   */\n      swap1\n      pop\n        /* \"#utility.yul\":20945:21016   */\n      tag_512\n        /* \"#utility.yul\":21013:21014   */\n      0x00\n        /* \"#utility.yul\":21002:21011   */\n      dup4\n        /* \"#utility.yul\":20998:21015   */\n      add\n        /* \"#utility.yul\":20989:20995   */\n      dup8\n        /* \"#utility.yul\":20945:21016   */\n      tag_287\n      jump\t// in\n    tag_512:\n        /* \"#utility.yul\":21026:21094   */\n      tag_513\n        /* \"#utility.yul\":21090:21092   */\n      0x20\n        /* \"#utility.yul\":21079:21088   */\n      dup4\n        /* \"#utility.yul\":21075:21093   */\n      add\n        /* \"#utility.yul\":21066:21072   */\n      dup7\n        /* \"#utility.yul\":21026:21094   */\n      tag_299\n      jump\t// in\n    tag_513:\n        /* \"#utility.yul\":21104:21176   */\n      tag_514\n        /* \"#utility.yul\":21172:21174   */\n      0x40\n        /* \"#utility.yul\":21161:21170   */\n      dup4\n        /* \"#utility.yul\":21157:21175   */\n      add\n        /* \"#utility.yul\":21148:21154   */\n      dup6\n        /* \"#utility.yul\":21104:21176   */\n      tag_287\n      jump\t// in\n    tag_514:\n        /* \"#utility.yul\":21186:21258   */\n      tag_515\n        /* \"#utility.yul\":21254:21256   */\n      0x60\n        /* \"#utility.yul\":21243:21252   */\n      dup4\n        /* \"#utility.yul\":21239:21257   */\n      add\n        /* \"#utility.yul\":21230:21236   */\n      dup5\n        /* \"#utility.yul\":21186:21258   */\n      tag_287\n      jump\t// in\n    tag_515:\n        /* \"#utility.yul\":20720:21265   */\n      swap6\n      swap5\n      pop\n      pop\n      pop\n      pop\n      pop\n      jump\t// out\n\n    auxdata: 0xa26469706673582212206f10e2a9c7b1fdafeee8102d1ee80ad5f651b17b81dda8541960b932cecb821d64736f6c63430008190033\n}\n",
				"bytecode": {
					"linkReferences": {},
					"object": "608060405262278d00600455348015610016575f80fd5b50604051612234380380612234833981810160405281019061003891906102a1565b835f73ffffffffffffffffffffffffffffffffffffffff168173ffffffffffffffffffffffffffffffffffffffff16036100a9575f6040517f1e4fbdf70000000000000000000000000000000000000000000000000000000081526004016100a09190610314565b60405180910390fd5b6100b88161018260201b60201c565b508260015f6101000a81548173ffffffffffffffffffffffffffffffffffffffff021916908373ffffffffffffffffffffffffffffffffffffffff1602179055508160025f6101000a81548173ffffffffffffffffffffffffffffffffffffffff021916908373ffffffffffffffffffffffffffffffffffffffff1602179055508060035f6101000a81548173ffffffffffffffffffffffffffffffffffffffff021916908373ffffffffffffffffffffffffffffffffffffffff1602179055505050505061032d565b5f805f9054906101000a900473ffffffffffffffffffffffffffffffffffffffff169050815f806101000a81548173ffffffffffffffffffffffffffffffffffffffff021916908373ffffffffffffffffffffffffffffffffffffffff1602179055508173ffffffffffffffffffffffffffffffffffffffff168173ffffffffffffffffffffffffffffffffffffffff167f8be0079c531659141344cd1fd0a4f28419497f9722a3daafe3b4186f6b6457e060405160405180910390a35050565b5f80fd5b5f73ffffffffffffffffffffffffffffffffffffffff82169050919050565b5f61027082610247565b9050919050565b61028081610266565b811461028a575f80fd5b50565b5f8151905061029b81610277565b92915050565b5f805f80608085870312156102b9576102b8610243565b5b5f6102c68782880161028d565b94505060206102d78782880161028d565b93505060406102e88782880161028d565b92505060606102f98782880161028d565b91505092959194509250565b61030e81610266565b82525050565b5f6020820190506103275f830184610305565b92915050565b611efa8061033a5f395ff3fe608060405234801561000f575f80fd5b5060043610610109575f3560e01c80637ea3253b116100a05780639f666d841161006f5780639f666d8414610279578063c4336c1c146102a9578063e767c798146102d9578063f2fde38b146102f7578063f9e58b281461031357610109565b80637ea3253b1461020757806385dc30041461022357806389ae9bce1461023f5780638da5cb5b1461025b57610109565b80631c0552e8116100dc5780631c0552e8146101a7578063441a3e70146101c357806356f738cf146101df578063715018a6146101fd57610109565b80630dd357011461010d5780630f20b94c1461013d5780631573f6881461016d57806318afe17014610189575b5f80fd5b61012760048036038101906101229190611488565b610331565b60405161013491906114f2565b60405180910390f35b61015760048036038101906101529190611488565b61036a565b604051610164919061151a565b60405180910390f35b61018760048036038101906101829190611592565b61037f565b005b61019161044b565b60405161019e91906114f2565b60405180910390f35b6101c160048036038101906101bc9190611603565b610470565b005b6101dd60048036038101906101d89190611653565b6105c7565b005b6101e761097d565b6040516101f491906116ec565b60405180910390f35b6102056109a2565b005b610221600480360381019061021c9190611841565b6109b5565b005b61023d600480360381019061023891906118d4565b610cfb565b005b610259600480360381019061025491906118ff565b610d46565b005b610263610f12565b60405161027091906114f2565b60405180910390f35b610293600480360381019061028e9190611488565b610f39565b6040516102a0919061151a565b60405180910390f35b6102c360048036038101906102be9190611488565b610f4e565b6040516102d091906114f2565b60405180910390f35b6102e1610f7e565b6040516102ee919061151a565b60405180910390f35b610311600480360381019061030c91906118d4565b610f84565b005b61031b611008565b604051610328919061195d565b60405180910390f35b5f600a5f8381526020019081526020015f205f9054906101000a900473ffffffffffffffffffffffffffffffffffffffff169050919050565b6009602052805f5260405f205f915090505481565b61038761102d565b8060055f8473ffffffffffffffffffffffffffffffffffffffff1673ffffffffffffffffffffffffffffffffffffffff1681526020019081526020015f205f6101000a81548160ff0219169083151502179055508173ffffffffffffffffffffffffffffffffffffffff166103fa6110b4565b73ffffffffffffffffffffffffffffffffffffffff167f6acf3afc37630e6f3e6b7176f7c4f8a3fd260b3f52fbca69f34d6db2d4fbd8978360405161043f9190611985565b60405180910390a35050565b60035f9054906101000a900473ffffffffffffffffffffffffffffffffffffffff1681565b60055f61047b6110b4565b73ffffffffffffffffffffffffffffffffffffffff1673ffffffffffffffffffffffffffffffffffffffff1681526020019081526020015f205f9054906101000a900460ff16610500576040517f08c379a00000000000000000000000000000000000000000000000000000000081526004016104f7906119f8565b60405180910390fd5b5f8211610542576040517f08c379a000000000000000000000000000000000000000000000000000000000815260040161053990611a60565b60405180910390fd5b8160075f8581526020019081526020015f205f8282546105629190611aab565b925050819055506105716110b4565b73ffffffffffffffffffffffffffffffffffffffff167f798fa367d6ccdf9c7b8053da94322c18e668af50cd7469b5f5a3c0e720f2cb2e8484846040516105ba93929190611aed565b60405180910390a2505050565b5f60065f8481526020019081526020015f205414801561060457504260045460065f8581526020019081526020015f20546106029190611aab565b115b610643576040517f08c379a000000000000000000000000000000000000000000000000000000000815260040161063a90611b6c565b60405180910390fd5b61064b6110b4565b73ffffffffffffffffffffffffffffffffffffffff1660015f9054906101000a900473ffffffffffffffffffffffffffffffffffffffff1673ffffffffffffffffffffffffffffffffffffffff16636352211e846040518263ffffffff1660e01b81526004016106bb919061151a565b602060405180830381865afa1580156106d6573d5f803e3d5ffd5b505050506040513d601f19601f820116820180604052508101906106fa9190611b9e565b73ffffffffffffffffffffffffffffffffffffffff1614610750576040517f08c379a000000000000000000000000000000000000000000000000000000000815260040161074790611c13565b60405180910390fd5b5f8111610792576040517f08c379a000000000000000000000000000000000000000000000000000000000815260040161078990611a60565b60405180910390fd5b8060095f8481526020019081526020015f20546107af9190611aab565b60075f8481526020019081526020015f205460085f8581526020019081526020015f20546107dd9190611c31565b101561081e576040517f08c379a000000000000000000000000000000000000000000000000000000000815260040161081590611cae565b60405180910390fd5b60025f9054906101000a900473ffffffffffffffffffffffffffffffffffffffff1673ffffffffffffffffffffffffffffffffffffffff166323b872dd60035f9054906101000a900473ffffffffffffffffffffffffffffffffffffffff166108856110b4565b846040518463ffffffff1660e01b81526004016108a493929190611ccc565b6020604051808303815f875af11580156108c0573d5f803e3d5ffd5b505050506040513d601f19601f820116820180604052508101906108e49190611d15565b504260065f8481526020019081526020015f20819055508060095f8481526020019081526020015f205f82825461091b9190611aab565b9250508190555061092a6110b4565b73ffffffffffffffffffffffffffffffffffffffff167ff279e6a1f5e320cca91135676d9cb6e44ca8a08c0b88342bcdb1144f6511b5688383604051610971929190611d40565b60405180910390a25050565b60025f9054906101000a900473ffffffffffffffffffffffffffffffffffffffff1681565b6109aa61102d565b6109b35f6110bb565b565b5f84116109f7576040517f08c379a00000000000000000000000000000000000000000000000000000000081526004016109ee90611a60565b60405180910390fd5b60055f8473ffffffffffffffffffffffffffffffffffffffff1673ffffffffffffffffffffffffffffffffffffffff1681526020019081526020015f205f9054906101000a900460ff16610a80576040517f08c379a0000000000000000000000000000000000000000000000000000000008152600401610a77906119f8565b60405180910390fd5b610a886110b4565b73ffffffffffffffffffffffffffffffffffffffff1660015f9054906101000a900473ffffffffffffffffffffffffffffffffffffffff1673ffffffffffffffffffffffffffffffffffffffff16636352211e876040518263ffffffff1660e01b8152600401610af8919061151a565b602060405180830381865afa158015610b13573d5f803e3d5ffd5b505050506040513d601f19601f82011682018060405250810190610b379190611b9e565b73ffffffffffffffffffffffffffffffffffffffff1614610b8d576040517f08c379a0000000000000000000000000000000000000000000000000000000008152600401610b8490611c13565b60405180910390fd5b5f60085f8781526020019081526020015f20548686610baa6110b4565b86604051602001610bbf959493929190611d67565b6040516020818303038152906040528051906020012090505f610beb838361117c90919063ffffffff16565b90508473ffffffffffffffffffffffffffffffffffffffff168173ffffffffffffffffffffffffffffffffffffffff1614610c5b576040517f08c379a0000000000000000000000000000000000000000000000000000000008152600401610c5290611e02565b60405180910390fd5b8560085f8981526020019081526020015f205f828254610c7b9190611aab565b925050819055508473ffffffffffffffffffffffffffffffffffffffff16610ca16110b4565b73ffffffffffffffffffffffffffffffffffffffff167fbfeca4b40cfe4b2290f947b0600f588f69e9387ebf4ed295ca0ac0dcf879e059898988604051610cea93929190611aed565b60405180910390a350505050505050565b610d0361102d565b8060035f6101000a81548173ffffffffffffffffffffffffffffffffffffffff021916908373ffffffffffffffffffffffffffffffffffffffff16021790555050565b610d4e6110b4565b73ffffffffffffffffffffffffffffffffffffffff1660015f9054906101000a900473ffffffffffffffffffffffffffffffffffffffff1673ffffffffffffffffffffffffffffffffffffffff16636352211e846040518263ffffffff1660e01b8152600401610dbe919061151a565b602060405180830381865afa158015610dd9573d5f803e3d5ffd5b505050506040513d601f19601f82011682018060405250810190610dfd9190611b9e565b73ffffffffffffffffffffffffffffffffffffffff1614610e53576040517f08c379a0000000000000000000000000000000000000000000000000000000008152600401610e4a90611c13565b60405180910390fd5b80600a5f8481526020019081526020015f205f6101000a81548173ffffffffffffffffffffffffffffffffffffffff021916908373ffffffffffffffffffffffffffffffffffffffff1602179055508073ffffffffffffffffffffffffffffffffffffffff16610ec16110b4565b73ffffffffffffffffffffffffffffffffffffffff167fd4475e70caef6019d8fb1cd3096f7fe97b4b60b1fb693a1f6f517e3c252a797584604051610f06919061151a565b60405180910390a35050565b5f805f9054906101000a900473ffffffffffffffffffffffffffffffffffffffff16905090565b6008602052805f5260405f205f915090505481565b600a602052805f5260405f205f915054906101000a900473ffffffffffffffffffffffffffffffffffffffff1681565b60045481565b610f8c61102d565b5f73ffffffffffffffffffffffffffffffffffffffff168173ffffffffffffffffffffffffffffffffffffffff1603610ffc575f6040517f1e4fbdf7000000000000000000000000000000000000000000000000000000008152600401610ff391906114f2565b60405180910390fd5b611005816110bb565b50565b60015f9054906101000a900473ffffffffffffffffffffffffffffffffffffffff1681565b6110356110b4565b73ffffffffffffffffffffffffffffffffffffffff16611053610f12565b73ffffffffffffffffffffffffffffffffffffffff16146110b2576110766110b4565b6040517f118cdaa70000000000000000000000000000000000000000000000000000000081526004016110a991906114f2565b60405180910390fd5b565b5f33905090565b5f805f9054906101000a900473ffffffffffffffffffffffffffffffffffffffff169050815f806101000a81548173ffffffffffffffffffffffffffffffffffffffff021916908373ffffffffffffffffffffffffffffffffffffffff1602179055508173ffffffffffffffffffffffffffffffffffffffff168173ffffffffffffffffffffffffffffffffffffffff167f8be0079c531659141344cd1fd0a4f28419497f9722a3daafe3b4186f6b6457e060405160405180910390a35050565b5f805f8061118a86866111a6565b92509250925061119a82826111fb565b82935050505092915050565b5f805f60418451036111e6575f805f602087015192506040870151915060608701515f1a90506111d88882858561135d565b9550955095505050506111f4565b5f600285515f1b9250925092505b9250925092565b5f600381111561120e5761120d611e20565b5b82600381111561122157611220611e20565b5b0315611359576001600381111561123b5761123a611e20565b5b82600381111561124e5761124d611e20565b5b03611285576040517ff645eedf00000000000000000000000000000000000000000000000000000000815260040160405180910390fd5b6002600381111561129957611298611e20565b5b8260038111156112ac576112ab611e20565b5b036112f057805f1c6040517ffce698f70000000000000000000000000000000000000000000000000000000081526004016112e7919061151a565b60405180910390fd5b60038081111561130357611302611e20565b5b82600381111561131657611315611e20565b5b0361135857806040517fd78bce0c00000000000000000000000000000000000000000000000000000000815260040161134f9190611e4d565b60405180910390fd5b5b5050565b5f805f7f7fffffffffffffffffffffffffffffff5d576e7357a4501ddfe92f46681b20a0845f1c1115611399575f60038592509250925061143a565b5f6001888888886040515f81526020016040526040516113bc9493929190611e81565b6020604051602081039080840390855afa1580156113dc573d5f803e3d5ffd5b5050506020604051035190505f73ffffffffffffffffffffffffffffffffffffffff168173ffffffffffffffffffffffffffffffffffffffff160361142d575f60015f801b9350935093505061143a565b805f805f1b935093509350505b9450945094915050565b5f604051905090565b5f80fd5b5f80fd5b5f819050919050565b61146781611455565b8114611471575f80fd5b50565b5f813590506114828161145e565b92915050565b5f6020828403121561149d5761149c61144d565b5b5f6114aa84828501611474565b91505092915050565b5f73ffffffffffffffffffffffffffffffffffffffff82169050919050565b5f6114dc826114b3565b9050919050565b6114ec816114d2565b82525050565b5f6020820190506115055f8301846114e3565b92915050565b61151481611455565b82525050565b5f60208201905061152d5f83018461150b565b92915050565b61153c816114d2565b8114611546575f80fd5b50565b5f8135905061155781611533565b92915050565b5f8115159050919050565b6115718161155d565b811461157b575f80fd5b50565b5f8135905061158c81611568565b92915050565b5f80604083850312156115a8576115a761144d565b5b5f6115b585828601611549565b92505060206115c68582860161157e565b9150509250929050565b5f819050919050565b6115e2816115d0565b81146115ec575f80fd5b50565b5f813590506115fd816115d9565b92915050565b5f805f6060848603121561161a5761161961144d565b5b5f61162786828701611474565b935050602061163886828701611474565b9250506040611649868287016115ef565b9150509250925092565b5f80604083850312156116695761166861144d565b5b5f61167685828601611474565b925050602061168785828601611474565b9150509250929050565b5f819050919050565b5f6116b46116af6116aa846114b3565b611691565b6114b3565b9050919050565b5f6116c58261169a565b9050919050565b5f6116d6826116bb565b9050919050565b6116e6816116cc565b82525050565b5f6020820190506116ff5f8301846116dd565b92915050565b5f80fd5b5f80fd5b5f601f19601f8301169050919050565b7f4e487b71000000000000000000000000000000000000000000000000000000005f52604160045260245ffd5b6117538261170d565b810181811067ffffffffffffffff821117156117725761177161171d565b5b80604052505050565b5f611784611444565b9050611790828261174a565b919050565b5f67ffffffffffffffff8211156117af576117ae61171d565b5b6117b88261170d565b9050602081019050919050565b828183375f83830152505050565b5f6117e56117e084611795565b61177b565b90508281526020810184848401111561180157611800611709565b5b61180c8482856117c5565b509392505050565b5f82601f83011261182857611827611705565b5b81356118388482602086016117d3565b91505092915050565b5f805f805f60a0868803121561185a5761185961144d565b5b5f61186788828901611474565b955050602061187888828901611474565b945050604061188988828901611549565b935050606061189a888289016115ef565b925050608086013567ffffffffffffffff8111156118bb576118ba611451565b5b6118c788828901611814565b9150509295509295909350565b5f602082840312156118e9576118e861144d565b5b5f6118f684828501611549565b91505092915050565b5f80604083850312156119155761191461144d565b5b5f61192285828601611474565b925050602061193385828601611549565b9150509250929050565b5f611947826116bb565b9050919050565b6119578161193d565b82525050565b5f6020820190506119705f83018461194e565b92915050565b61197f8161155d565b82525050565b5f6020820190506119985f830184611976565b92915050565b5f82825260208201905092915050565b7f596f75206172652774207061796d6173746572000000000000000000000000005f82015250565b5f6119e260138361199e565b91506119ed826119ae565b602082019050919050565b5f6020820190508181035f830152611a0f816119d6565b9050919050565b7f416d6f756e742063616e2774206265207a65726f0000000000000000000000005f82015250565b5f611a4a60148361199e565b9150611a5582611a16565b602082019050919050565b5f6020820190508181035f830152611a7781611a3e565b9050919050565b7f4e487b71000000000000000000000000000000000000000000000000000000005f52601160045260245ffd5b5f611ab582611455565b9150611ac083611455565b9250828201905080821115611ad857611ad7611a7e565b5b92915050565b611ae7816115d0565b82525050565b5f606082019050611b005f83018661150b565b611b0d602083018561150b565b611b1a6040830184611ade565b949350505050565b7f43616e27742077697468647261772079657400000000000000000000000000005f82015250565b5f611b5660128361199e565b9150611b6182611b22565b602082019050919050565b5f6020820190508181035f830152611b8381611b4a565b9050919050565b5f81519050611b9881611533565b92915050565b5f60208284031215611bb357611bb261144d565b5b5f611bc084828501611b8a565b91505092915050565b7f43616c6c6572206973206e6f742074686520746f6b656e206f776e65720000005f82015250565b5f611bfd601d8361199e565b9150611c0882611bc9565b602082019050919050565b5f6020820190508181035f830152611c2a81611bf1565b9050919050565b5f611c3b82611455565b9150611c4683611455565b9250828203905081811115611c5e57611c5d611a7e565b5b92915050565b7f596f75206d6f6e6579206e6f7420656e6f7567680000000000000000000000005f82015250565b5f611c9860148361199e565b9150611ca382611c64565b602082019050919050565b5f6020820190508181035f830152611cc581611c8c565b9050919050565b5f606082019050611cdf5f8301866114e3565b611cec60208301856114e3565b611cf9604083018461150b565b949350505050565b5f81519050611d0f81611568565b92915050565b5f60208284031215611d2a57611d2961144d565b5b5f611d3784828501611d01565b91505092915050565b5f604082019050611d535f83018561150b565b611d60602083018461150b565b9392505050565b5f60a082019050611d7a5f83018861150b565b611d87602083018761150b565b611d94604083018661150b565b611da160608301856114e3565b611dae6080830184611ade565b9695505050505050565b7f496e76616c6964205369676e61747572650000000000000000000000000000005f82015250565b5f611dec60118361199e565b9150611df782611db8565b602082019050919050565b5f6020820190508181035f830152611e1981611de0565b9050919050565b7f4e487b71000000000000000000000000000000000000000000000000000000005f52602160045260245ffd5b5f602082019050611e605f830184611ade565b92915050565b5f60ff82169050919050565b611e7b81611e66565b82525050565b5f608082019050611e945f830187611ade565b611ea16020830186611e72565b611eae6040830185611ade565b611ebb6060830184611ade565b9594505050505056fea26469706673582212206f10e2a9c7b1fdafeee8102d1ee80ad5f651b17b81dda8541960b932cecb821d64736f6c63430008190033",
					"opcodes": "PUSH1 0x80 PUSH1 0x40 MSTORE PUSH3 0x278D00 PUSH1 0x4 SSTORE CALLVALUE DUP1 ISZERO PUSH2 0x16 JUMPI PUSH0 DUP1 REVERT JUMPDEST POP PUSH1 0x40 MLOAD PUSH2 0x2234 CODESIZE SUB DUP1 PUSH2 0x2234 DUP4 CODECOPY DUP2 DUP2 ADD PUSH1 0x40 MSTORE DUP2 ADD SWAP1 PUSH2 0x38 SWAP2 SWAP1 PUSH2 0x2A1 JUMP JUMPDEST DUP4 PUSH0 PUSH20 0xFFFFFFFFFFFFFFFFFFFFFFFFFFFFFFFFFFFFFFFF AND DUP2 PUSH20 0xFFFFFFFFFFFFFFFFFFFFFFFFFFFFFFFFFFFFFFFF AND SUB PUSH2 0xA9 JUMPI PUSH0 PUSH1 0x40 MLOAD PUSH32 0x1E4FBDF700000000000000000000000000000000000000000000000000000000 DUP2 MSTORE PUSH1 0x4 ADD PUSH2 0xA0 SWAP2 SWAP1 PUSH2 0x314 JUMP JUMPDEST PUSH1 0x40 MLOAD DUP1 SWAP2 SUB SWAP1 REVERT JUMPDEST PUSH2 0xB8 DUP2 PUSH2 0x182 PUSH1 0x20 SHL PUSH1 0x20 SHR JUMP JUMPDEST POP DUP3 PUSH1 0x1 PUSH0 PUSH2 0x100 EXP DUP2 SLOAD DUP2 PUSH20 0xFFFFFFFFFFFFFFFFFFFFFFFFFFFFFFFFFFFFFFFF MUL NOT AND SWAP1 DUP4 PUSH20 0xFFFFFFFFFFFFFFFFFFFFFFFFFFFFFFFFFFFFFFFF AND MUL OR SWAP1 SSTORE POP DUP2 PUSH1 0x2 PUSH0 PUSH2 0x100 EXP DUP2 SLOAD DUP2 PUSH20 0xFFFFFFFFFFFFFFFFFFFFFFFFFFFFFFFFFFFFFFFF MUL NOT AND SWAP1 DUP4 PUSH20 0xFFFFFFFFFFFFFFFFFFFFFFFFFFFFFFFFFFFFFFFF AND MUL OR SWAP1 SSTORE POP DUP1 PUSH1 0x3 PUSH0 PUSH2 0x100 EXP DUP2 SLOAD DUP2 PUSH20 0xFFFFFFFFFFFFFFFFFFFFFFFFFFFFFFFFFFFFFFFF MUL NOT AND SWAP1 DUP4 PUSH20 0xFFFFFFFFFFFFFFFFFFFFFFFFFFFFFFFFFFFFFFFF AND MUL OR SWAP1 SSTORE POP POP POP POP POP PUSH2 0x32D JUMP JUMPDEST PUSH0 DUP1 PUSH0 SWAP1 SLOAD SWAP1 PUSH2 0x100 EXP SWAP1 DIV PUSH20 0xFFFFFFFFFFFFFFFFFFFFFFFFFFFFFFFFFFFFFFFF AND SWAP1 POP DUP2 PUSH0 DUP1 PUSH2 0x100 EXP DUP2 SLOAD DUP2 PUSH20 0xFFFFFFFFFFFFFFFFFFFFFFFFFFFFFFFFFFFFFFFF MUL NOT AND SWAP1 DUP4 PUSH20 0xFFFFFFFFFFFFFFFFFFFFFFFFFFFFFFFFFFFFFFFF AND MUL OR SWAP1 SSTORE POP DUP2 PUSH20 0xFFFFFFFFFFFFFFFFFFFFFFFFFFFFFFFFFFFFFFFF AND DUP2 PUSH20 0xFFFFFFFFFFFFFFFFFFFFFFFFFFFFFFFFFFFFFFFF AND PUSH32 0x8BE0079C531659141344CD1FD0A4F28419497F9722A3DAAFE3B4186F6B6457E0 PUSH1 0x40 MLOAD PUSH1 0x40 MLOAD DUP1 SWAP2 SUB SWAP1 LOG3 POP POP JUMP JUMPDEST PUSH0 DUP1 REVERT JUMPDEST PUSH0 PUSH20 0xFFFFFFFFFFFFFFFFFFFFFFFFFFFFFFFFFFFFFFFF DUP3 AND SWAP1 POP SWAP2 SWAP1 POP JUMP JUMPDEST PUSH0 PUSH2 0x270 DUP3 PUSH2 0x247 JUMP JUMPDEST SWAP1 POP SWAP2 SWAP1 POP JUMP JUMPDEST PUSH2 0x280 DUP2 PUSH2 0x266 JUMP JUMPDEST DUP2 EQ PUSH2 0x28A JUMPI PUSH0 DUP1 REVERT JUMPDEST POP JUMP JUMPDEST PUSH0 DUP2 MLOAD SWAP1 POP PUSH2 0x29B DUP2 PUSH2 0x277 JUMP JUMPDEST SWAP3 SWAP2 POP POP JUMP JUMPDEST PUSH0 DUP1 PUSH0 DUP1 PUSH1 0x80 DUP6 DUP8 SUB SLT ISZERO PUSH2 0x2B9 JUMPI PUSH2 0x2B8 PUSH2 0x243 JUMP JUMPDEST JUMPDEST PUSH0 PUSH2 0x2C6 DUP8 DUP3 DUP9 ADD PUSH2 0x28D JUMP JUMPDEST SWAP5 POP POP PUSH1 0x20 PUSH2 0x2D7 DUP8 DUP3 DUP9 ADD PUSH2 0x28D JUMP JUMPDEST SWAP4 POP POP PUSH1 0x40 PUSH2 0x2E8 DUP8 DUP3 DUP9 ADD PUSH2 0x28D JUMP JUMPDEST SWAP3 POP POP PUSH1 0x60 PUSH2 0x2F9 DUP8 DUP3 DUP9 ADD PUSH2 0x28D JUMP JUMPDEST SWAP2 POP POP SWAP3 SWAP6 SWAP2 SWAP5 POP SWAP3 POP JUMP JUMPDEST PUSH2 0x30E DUP2 PUSH2 0x266 JUMP JUMPDEST DUP3 MSTORE POP POP JUMP JUMPDEST PUSH0 PUSH1 0x20 DUP3 ADD SWAP1 POP PUSH2 0x327 PUSH0 DUP4 ADD DUP5 PUSH2 0x305 JUMP JUMPDEST SWAP3 SWAP2 POP POP JUMP JUMPDEST PUSH2 0x1EFA DUP1 PUSH2 0x33A PUSH0 CODECOPY PUSH0 RETURN INVALID PUSH1 0x80 PUSH1 0x40 MSTORE CALLVALUE DUP1 ISZERO PUSH2 0xF JUMPI PUSH0 DUP1 REVERT JUMPDEST POP PUSH1 0x4 CALLDATASIZE LT PUSH2 0x109 JUMPI PUSH0 CALLDATALOAD PUSH1 0xE0 SHR DUP1 PUSH4 0x7EA3253B GT PUSH2 0xA0 JUMPI DUP1 PUSH4 0x9F666D84 GT PUSH2 0x6F JUMPI DUP1 PUSH4 0x9F666D84 EQ PUSH2 0x279 JUMPI DUP1 PUSH4 0xC4336C1C EQ PUSH2 0x2A9 JUMPI DUP1 PUSH4 0xE767C798 EQ PUSH2 0x2D9 JUMPI DUP1 PUSH4 0xF2FDE38B EQ PUSH2 0x2F7 JUMPI DUP1 PUSH4 0xF9E58B28 EQ PUSH2 0x313 JUMPI PUSH2 0x109 JUMP JUMPDEST DUP1 PUSH4 0x7EA3253B EQ PUSH2 0x207 JUMPI DUP1 PUSH4 0x85DC3004 EQ PUSH2 0x223 JUMPI DUP1 PUSH4 0x89AE9BCE EQ PUSH2 0x23F JUMPI DUP1 PUSH4 0x8DA5CB5B EQ PUSH2 0x25B JUMPI PUSH2 0x109 JUMP JUMPDEST DUP1 PUSH4 0x1C0552E8 GT PUSH2 0xDC JUMPI DUP1 PUSH4 0x1C0552E8 EQ PUSH2 0x1A7 JUMPI DUP1 PUSH4 0x441A3E70 EQ PUSH2 0x1C3 JUMPI DUP1 PUSH4 0x56F738CF EQ PUSH2 0x1DF JUMPI DUP1 PUSH4 0x715018A6 EQ PUSH2 0x1FD JUMPI PUSH2 0x109 JUMP JUMPDEST DUP1 PUSH4 0xDD35701 EQ PUSH2 0x10D JUMPI DUP1 PUSH4 0xF20B94C EQ PUSH2 0x13D JUMPI DUP1 PUSH4 0x1573F688 EQ PUSH2 0x16D JUMPI DUP1 PUSH4 0x18AFE170 EQ PUSH2 0x189 JUMPI JUMPDEST PUSH0 DUP1 REVERT JUMPDEST PUSH2 0x127 PUSH1 0x4 DUP1 CALLDATASIZE SUB DUP2 ADD SWAP1 PUSH2 0x122 SWAP2 SWAP1 PUSH2 0x1488 JUMP JUMPDEST PUSH2 0x331 JUMP JUMPDEST PUSH1 0x40 MLOAD PUSH2 0x134 SWAP2 SWAP1 PUSH2 0x14F2 JUMP JUMPDEST PUSH1 0x40 MLOAD DUP1 SWAP2 SUB SWAP1 RETURN JUMPDEST PUSH2 0x157 PUSH1 0x4 DUP1 CALLDATASIZE SUB DUP2 ADD SWAP1 PUSH2 0x152 SWAP2 SWAP1 PUSH2 0x1488 JUMP JUMPDEST PUSH2 0x36A JUMP JUMPDEST PUSH1 0x40 MLOAD PUSH2 0x164 SWAP2 SWAP1 PUSH2 0x151A JUMP JUMPDEST PUSH1 0x40 MLOAD DUP1 SWAP2 SUB SWAP1 RETURN JUMPDEST PUSH2 0x187 PUSH1 0x4 DUP1 CALLDATASIZE SUB DUP2 ADD SWAP1 PUSH2 0x182 SWAP2 SWAP1 PUSH2 0x1592 JUMP JUMPDEST PUSH2 0x37F JUMP JUMPDEST STOP JUMPDEST PUSH2 0x191 PUSH2 0x44B JUMP JUMPDEST PUSH1 0x40 MLOAD PUSH2 0x19E SWAP2 SWAP1 PUSH2 0x14F2 JUMP JUMPDEST PUSH1 0x40 MLOAD DUP1 SWAP2 SUB SWAP1 RETURN JUMPDEST PUSH2 0x1C1 PUSH1 0x4 DUP1 CALLDATASIZE SUB DUP2 ADD SWAP1 PUSH2 0x1BC SWAP2 SWAP1 PUSH2 0x1603 JUMP JUMPDEST PUSH2 0x470 JUMP JUMPDEST STOP JUMPDEST PUSH2 0x1DD PUSH1 0x4 DUP1 CALLDATASIZE SUB DUP2 ADD SWAP1 PUSH2 0x1D8 SWAP2 SWAP1 PUSH2 0x1653 JUMP JUMPDEST PUSH2 0x5C7 JUMP JUMPDEST STOP JUMPDEST PUSH2 0x1E7 PUSH2 0x97D JUMP JUMPDEST PUSH1 0x40 MLOAD PUSH2 0x1F4 SWAP2 SWAP1 PUSH2 0x16EC JUMP JUMPDEST PUSH1 0x40 MLOAD DUP1 SWAP2 SUB SWAP1 RETURN JUMPDEST PUSH2 0x205 PUSH2 0x9A2 JUMP JUMPDEST STOP JUMPDEST PUSH2 0x221 PUSH1 0x4 DUP1 CALLDATASIZE SUB DUP2 ADD SWAP1 PUSH2 0x21C SWAP2 SWAP1 PUSH2 0x1841 JUMP JUMPDEST PUSH2 0x9B5 JUMP JUMPDEST STOP JUMPDEST PUSH2 0x23D PUSH1 0x4 DUP1 CALLDATASIZE SUB DUP2 ADD SWAP1 PUSH2 0x238 SWAP2 SWAP1 PUSH2 0x18D4 JUMP JUMPDEST PUSH2 0xCFB JUMP JUMPDEST STOP JUMPDEST PUSH2 0x259 PUSH1 0x4 DUP1 CALLDATASIZE SUB DUP2 ADD SWAP1 PUSH2 0x254 SWAP2 SWAP1 PUSH2 0x18FF JUMP JUMPDEST PUSH2 0xD46 JUMP JUMPDEST STOP JUMPDEST PUSH2 0x263 PUSH2 0xF12 JUMP JUMPDEST PUSH1 0x40 MLOAD PUSH2 0x270 SWAP2 SWAP1 PUSH2 0x14F2 JUMP JUMPDEST PUSH1 0x40 MLOAD DUP1 SWAP2 SUB SWAP1 RETURN JUMPDEST PUSH2 0x293 PUSH1 0x4 DUP1 CALLDATASIZE SUB DUP2 ADD SWAP1 PUSH2 0x28E SWAP2 SWAP1 PUSH2 0x1488 JUMP JUMPDEST PUSH2 0xF39 JUMP JUMPDEST PUSH1 0x40 MLOAD PUSH2 0x2A0 SWAP2 SWAP1 PUSH2 0x151A JUMP JUMPDEST PUSH1 0x40 MLOAD DUP1 SWAP2 SUB SWAP1 RETURN JUMPDEST PUSH2 0x2C3 PUSH1 0x4 DUP1 CALLDATASIZE SUB DUP2 ADD SWAP1 PUSH2 0x2BE SWAP2 SWAP1 PUSH2 0x1488 JUMP JUMPDEST PUSH2 0xF4E JUMP JUMPDEST PUSH1 0x40 MLOAD PUSH2 0x2D0 SWAP2 SWAP1 PUSH2 0x14F2 JUMP JUMPDEST PUSH1 0x40 MLOAD DUP1 SWAP2 SUB SWAP1 RETURN JUMPDEST PUSH2 0x2E1 PUSH2 0xF7E JUMP JUMPDEST PUSH1 0x40 MLOAD PUSH2 0x2EE SWAP2 SWAP1 PUSH2 0x151A JUMP JUMPDEST PUSH1 0x40 MLOAD DUP1 SWAP2 SUB SWAP1 RETURN JUMPDEST PUSH2 0x311 PUSH1 0x4 DUP1 CALLDATASIZE SUB DUP2 ADD SWAP1 PUSH2 0x30C SWAP2 SWAP1 PUSH2 0x18D4 JUMP JUMPDEST PUSH2 0xF84 JUMP JUMPDEST STOP JUMPDEST PUSH2 0x31B PUSH2 0x1008 JUMP JUMPDEST PUSH1 0x40 MLOAD PUSH2 0x328 SWAP2 SWAP1 PUSH2 0x195D JUMP JUMPDEST PUSH1 0x40 MLOAD DUP1 SWAP2 SUB SWAP1 RETURN JUMPDEST PUSH0 PUSH1 0xA PUSH0 DUP4 DUP2 MSTORE PUSH1 0x20 ADD SWAP1 DUP2 MSTORE PUSH1 0x20 ADD PUSH0 KECCAK256 PUSH0 SWAP1 SLOAD SWAP1 PUSH2 0x100 EXP SWAP1 DIV PUSH20 0xFFFFFFFFFFFFFFFFFFFFFFFFFFFFFFFFFFFFFFFF AND SWAP1 POP SWAP2 SWAP1 POP JUMP JUMPDEST PUSH1 0x9 PUSH1 0x20 MSTORE DUP1 PUSH0 MSTORE PUSH1 0x40 PUSH0 KECCAK256 PUSH0 SWAP2 POP SWAP1 POP SLOAD DUP2 JUMP JUMPDEST PUSH2 0x387 PUSH2 0x102D JUMP JUMPDEST DUP1 PUSH1 0x5 PUSH0 DUP5 PUSH20 0xFFFFFFFFFFFFFFFFFFFFFFFFFFFFFFFFFFFFFFFF AND PUSH20 0xFFFFFFFFFFFFFFFFFFFFFFFFFFFFFFFFFFFFFFFF AND DUP2 MSTORE PUSH1 0x20 ADD SWAP1 DUP2 MSTORE PUSH1 0x20 ADD PUSH0 KECCAK256 PUSH0 PUSH2 0x100 EXP DUP2 SLOAD DUP2 PUSH1 0xFF MUL NOT AND SWAP1 DUP4 ISZERO ISZERO MUL OR SWAP1 SSTORE POP DUP2 PUSH20 0xFFFFFFFFFFFFFFFFFFFFFFFFFFFFFFFFFFFFFFFF AND PUSH2 0x3FA PUSH2 0x10B4 JUMP JUMPDEST PUSH20 0xFFFFFFFFFFFFFFFFFFFFFFFFFFFFFFFFFFFFFFFF AND PUSH32 0x6ACF3AFC37630E6F3E6B7176F7C4F8A3FD260B3F52FBCA69F34D6DB2D4FBD897 DUP4 PUSH1 0x40 MLOAD PUSH2 0x43F SWAP2 SWAP1 PUSH2 0x1985 JUMP JUMPDEST PUSH1 0x40 MLOAD DUP1 SWAP2 SUB SWAP1 LOG3 POP POP JUMP JUMPDEST PUSH1 0x3 PUSH0 SWAP1 SLOAD SWAP1 PUSH2 0x100 EXP SWAP1 DIV PUSH20 0xFFFFFFFFFFFFFFFFFFFFFFFFFFFFFFFFFFFFFFFF AND DUP2 JUMP JUMPDEST PUSH1 0x5 PUSH0 PUSH2 0x47B PUSH2 0x10B4 JUMP JUMPDEST PUSH20 0xFFFFFFFFFFFFFFFFFFFFFFFFFFFFFFFFFFFFFFFF AND PUSH20 0xFFFFFFFFFFFFFFFFFFFFFFFFFFFFFFFFFFFFFFFF AND DUP2 MSTORE PUSH1 0x20 ADD SWAP1 DUP2 MSTORE PUSH1 0x20 ADD PUSH0 KECCAK256 PUSH0 SWAP1 SLOAD SWAP1 PUSH2 0x100 EXP SWAP1 DIV PUSH1 0xFF AND PUSH2 0x500 JUMPI PUSH1 0x40 MLOAD PUSH32 0x8C379A000000000000000000000000000000000000000000000000000000000 DUP2 MSTORE PUSH1 0x4 ADD PUSH2 0x4F7 SWAP1 PUSH2 0x19F8 JUMP JUMPDEST PUSH1 0x40 MLOAD DUP1 SWAP2 SUB SWAP1 REVERT JUMPDEST PUSH0 DUP3 GT PUSH2 0x542 JUMPI PUSH1 0x40 MLOAD PUSH32 0x8C379A000000000000000000000000000000000000000000000000000000000 DUP2 MSTORE PUSH1 0x4 ADD PUSH2 0x539 SWAP1 PUSH2 0x1A60 JUMP JUMPDEST PUSH1 0x40 MLOAD DUP1 SWAP2 SUB SWAP1 REVERT JUMPDEST DUP2 PUSH1 0x7 PUSH0 DUP6 DUP2 MSTORE PUSH1 0x20 ADD SWAP1 DUP2 MSTORE PUSH1 0x20 ADD PUSH0 KECCAK256 PUSH0 DUP3 DUP3 SLOAD PUSH2 0x562 SWAP2 SWAP1 PUSH2 0x1AAB JUMP JUMPDEST SWAP3 POP POP DUP2 SWAP1 SSTORE POP PUSH2 0x571 PUSH2 0x10B4 JUMP JUMPDEST PUSH20 0xFFFFFFFFFFFFFFFFFFFFFFFFFFFFFFFFFFFFFFFF AND PUSH32 0x798FA367D6CCDF9C7B8053DA94322C18E668AF50CD7469B5F5A3C0E720F2CB2E DUP5 DUP5 DUP5 PUSH1 0x40 MLOAD PUSH2 0x5BA SWAP4 SWAP3 SWAP2 SWAP1 PUSH2 0x1AED JUMP JUMPDEST PUSH1 0x40 MLOAD DUP1 SWAP2 SUB SWAP1 LOG2 POP POP POP JUMP JUMPDEST PUSH0 PUSH1 0x6 PUSH0 DUP5 DUP2 MSTORE PUSH1 0x20 ADD SWAP1 DUP2 MSTORE PUSH1 0x20 ADD PUSH0 KECCAK256 SLOAD EQ DUP1 ISZERO PUSH2 0x604 JUMPI POP TIMESTAMP PUSH1 0x4 SLOAD PUSH1 0x6 PUSH0 DUP6 DUP2 MSTORE PUSH1 0x20 ADD SWAP1 DUP2 MSTORE PUSH1 0x20 ADD PUSH0 KECCAK256 SLOAD PUSH2 0x602 SWAP2 SWAP1 PUSH2 0x1AAB JUMP JUMPDEST GT JUMPDEST PUSH2 0x643 JUMPI PUSH1 0x40 MLOAD PUSH32 0x8C379A000000000000000000000000000000000000000000000000000000000 DUP2 MSTORE PUSH1 0x4 ADD PUSH2 0x63A SWAP1 PUSH2 0x1B6C JUMP JUMPDEST PUSH1 0x40 MLOAD DUP1 SWAP2 SUB SWAP1 REVERT JUMPDEST PUSH2 0x64B PUSH2 0x10B4 JUMP JUMPDEST PUSH20 0xFFFFFFFFFFFFFFFFFFFFFFFFFFFFFFFFFFFFFFFF AND PUSH1 0x1 PUSH0 SWAP1 SLOAD SWAP1 PUSH2 0x100 EXP SWAP1 DIV PUSH20 0xFFFFFFFFFFFFFFFFFFFFFFFFFFFFFFFFFFFFFFFF AND PUSH20 0xFFFFFFFFFFFFFFFFFFFFFFFFFFFFFFFFFFFFFFFF AND PUSH4 0x6352211E DUP5 PUSH1 0x40 MLOAD DUP3 PUSH4 0xFFFFFFFF AND PUSH1 0xE0 SHL DUP2 MSTORE PUSH1 0x4 ADD PUSH2 0x6BB SWAP2 SWAP1 PUSH2 0x151A JUMP JUMPDEST PUSH1 0x20 PUSH1 0x40 MLOAD DUP1 DUP4 SUB DUP2 DUP7 GAS STATICCALL ISZERO DUP1 ISZERO PUSH2 0x6D6 JUMPI RETURNDATASIZE PUSH0 DUP1 RETURNDATACOPY RETURNDATASIZE PUSH0 REVERT JUMPDEST POP POP POP POP PUSH1 0x40 MLOAD RETURNDATASIZE PUSH1 0x1F NOT PUSH1 0x1F DUP3 ADD AND DUP3 ADD DUP1 PUSH1 0x40 MSTORE POP DUP2 ADD SWAP1 PUSH2 0x6FA SWAP2 SWAP1 PUSH2 0x1B9E JUMP JUMPDEST PUSH20 0xFFFFFFFFFFFFFFFFFFFFFFFFFFFFFFFFFFFFFFFF AND EQ PUSH2 0x750 JUMPI PUSH1 0x40 MLOAD PUSH32 0x8C379A000000000000000000000000000000000000000000000000000000000 DUP2 MSTORE PUSH1 0x4 ADD PUSH2 0x747 SWAP1 PUSH2 0x1C13 JUMP JUMPDEST PUSH1 0x40 MLOAD DUP1 SWAP2 SUB SWAP1 REVERT JUMPDEST PUSH0 DUP2 GT PUSH2 0x792 JUMPI PUSH1 0x40 MLOAD PUSH32 0x8C379A000000000000000000000000000000000000000000000000000000000 DUP2 MSTORE PUSH1 0x4 ADD PUSH2 0x789 SWAP1 PUSH2 0x1A60 JUMP JUMPDEST PUSH1 0x40 MLOAD DUP1 SWAP2 SUB SWAP1 REVERT JUMPDEST DUP1 PUSH1 0x9 PUSH0 DUP5 DUP2 MSTORE PUSH1 0x20 ADD SWAP1 DUP2 MSTORE PUSH1 0x20 ADD PUSH0 KECCAK256 SLOAD PUSH2 0x7AF SWAP2 SWAP1 PUSH2 0x1AAB JUMP JUMPDEST PUSH1 0x7 PUSH0 DUP5 DUP2 MSTORE PUSH1 0x20 ADD SWAP1 DUP2 MSTORE PUSH1 0x20 ADD PUSH0 KECCAK256 SLOAD PUSH1 0x8 PUSH0 DUP6 DUP2 MSTORE PUSH1 0x20 ADD SWAP1 DUP2 MSTORE PUSH1 0x20 ADD PUSH0 KECCAK256 SLOAD PUSH2 0x7DD SWAP2 SWAP1 PUSH2 0x1C31 JUMP JUMPDEST LT ISZERO PUSH2 0x81E JUMPI PUSH1 0x40 MLOAD PUSH32 0x8C379A000000000000000000000000000000000000000000000000000000000 DUP2 MSTORE PUSH1 0x4 ADD PUSH2 0x815 SWAP1 PUSH2 0x1CAE JUMP JUMPDEST PUSH1 0x40 MLOAD DUP1 SWAP2 SUB SWAP1 REVERT JUMPDEST PUSH1 0x2 PUSH0 SWAP1 SLOAD SWAP1 PUSH2 0x100 EXP SWAP1 DIV PUSH20 0xFFFFFFFFFFFFFFFFFFFFFFFFFFFFFFFFFFFFFFFF AND PUSH20 0xFFFFFFFFFFFFFFFFFFFFFFFFFFFFFFFFFFFFFFFF AND PUSH4 0x23B872DD PUSH1 0x3 PUSH0 SWAP1 SLOAD SWAP1 PUSH2 0x100 EXP SWAP1 DIV PUSH20 0xFFFFFFFFFFFFFFFFFFFFFFFFFFFFFFFFFFFFFFFF AND PUSH2 0x885 PUSH2 0x10B4 JUMP JUMPDEST DUP5 PUSH1 0x40 MLOAD DUP5 PUSH4 0xFFFFFFFF AND PUSH1 0xE0 SHL DUP2 MSTORE PUSH1 0x4 ADD PUSH2 0x8A4 SWAP4 SWAP3 SWAP2 SWAP1 PUSH2 0x1CCC JUMP JUMPDEST PUSH1 0x20 PUSH1 0x40 MLOAD DUP1 DUP4 SUB DUP2 PUSH0 DUP8 GAS CALL ISZERO DUP1 ISZERO PUSH2 0x8C0 JUMPI RETURNDATASIZE PUSH0 DUP1 RETURNDATACOPY RETURNDATASIZE PUSH0 REVERT JUMPDEST POP POP POP POP PUSH1 0x40 MLOAD RETURNDATASIZE PUSH1 0x1F NOT PUSH1 0x1F DUP3 ADD AND DUP3 ADD DUP1 PUSH1 0x40 MSTORE POP DUP2 ADD SWAP1 PUSH2 0x8E4 SWAP2 SWAP1 PUSH2 0x1D15 JUMP JUMPDEST POP TIMESTAMP PUSH1 0x6 PUSH0 DUP5 DUP2 MSTORE PUSH1 0x20 ADD SWAP1 DUP2 MSTORE PUSH1 0x20 ADD PUSH0 KECCAK256 DUP2 SWAP1 SSTORE POP DUP1 PUSH1 0x9 PUSH0 DUP5 DUP2 MSTORE PUSH1 0x20 ADD SWAP1 DUP2 MSTORE PUSH1 0x20 ADD PUSH0 KECCAK256 PUSH0 DUP3 DUP3 SLOAD PUSH2 0x91B SWAP2 SWAP1 PUSH2 0x1AAB JUMP JUMPDEST SWAP3 POP POP DUP2 SWAP1 SSTORE POP PUSH2 0x92A PUSH2 0x10B4 JUMP JUMPDEST PUSH20 0xFFFFFFFFFFFFFFFFFFFFFFFFFFFFFFFFFFFFFFFF AND PUSH32 0xF279E6A1F5E320CCA91135676D9CB6E44CA8A08C0B88342BCDB1144F6511B568 DUP4 DUP4 PUSH1 0x40 MLOAD PUSH2 0x971 SWAP3 SWAP2 SWAP1 PUSH2 0x1D40 JUMP JUMPDEST PUSH1 0x40 MLOAD DUP1 SWAP2 SUB SWAP1 LOG2 POP POP JUMP JUMPDEST PUSH1 0x2 PUSH0 SWAP1 SLOAD SWAP1 PUSH2 0x100 EXP SWAP1 DIV PUSH20 0xFFFFFFFFFFFFFFFFFFFFFFFFFFFFFFFFFFFFFFFF AND DUP2 JUMP JUMPDEST PUSH2 0x9AA PUSH2 0x102D JUMP JUMPDEST PUSH2 0x9B3 PUSH0 PUSH2 0x10BB JUMP JUMPDEST JUMP JUMPDEST PUSH0 DUP5 GT PUSH2 0x9F7 JUMPI PUSH1 0x40 MLOAD PUSH32 0x8C379A000000000000000000000000000000000000000000000000000000000 DUP2 MSTORE PUSH1 0x4 ADD PUSH2 0x9EE SWAP1 PUSH2 0x1A60 JUMP JUMPDEST PUSH1 0x40 MLOAD DUP1 SWAP2 SUB SWAP1 REVERT JUMPDEST PUSH1 0x5 PUSH0 DUP5 PUSH20 0xFFFFFFFFFFFFFFFFFFFFFFFFFFFFFFFFFFFFFFFF AND PUSH20 0xFFFFFFFFFFFFFFFFFFFFFFFFFFFFFFFFFFFFFFFF AND DUP2 MSTORE PUSH1 0x20 ADD SWAP1 DUP2 MSTORE PUSH1 0x20 ADD PUSH0 KECCAK256 PUSH0 SWAP1 SLOAD SWAP1 PUSH2 0x100 EXP SWAP1 DIV PUSH1 0xFF AND PUSH2 0xA80 JUMPI PUSH1 0x40 MLOAD PUSH32 0x8C379A000000000000000000000000000000000000000000000000000000000 DUP2 MSTORE PUSH1 0x4 ADD PUSH2 0xA77 SWAP1 PUSH2 0x19F8 JUMP JUMPDEST PUSH1 0x40 MLOAD DUP1 SWAP2 SUB SWAP1 REVERT JUMPDEST PUSH2 0xA88 PUSH2 0x10B4 JUMP JUMPDEST PUSH20 0xFFFFFFFFFFFFFFFFFFFFFFFFFFFFFFFFFFFFFFFF AND PUSH1 0x1 PUSH0 SWAP1 SLOAD SWAP1 PUSH2 0x100 EXP SWAP1 DIV PUSH20 0xFFFFFFFFFFFFFFFFFFFFFFFFFFFFFFFFFFFFFFFF AND PUSH20 0xFFFFFFFFFFFFFFFFFFFFFFFFFFFFFFFFFFFFFFFF AND PUSH4 0x6352211E DUP8 PUSH1 0x40 MLOAD DUP3 PUSH4 0xFFFFFFFF AND PUSH1 0xE0 SHL DUP2 MSTORE PUSH1 0x4 ADD PUSH2 0xAF8 SWAP2 SWAP1 PUSH2 0x151A JUMP JUMPDEST PUSH1 0x20 PUSH1 0x40 MLOAD DUP1 DUP4 SUB DUP2 DUP7 GAS STATICCALL ISZERO DUP1 ISZERO PUSH2 0xB13 JUMPI RETURNDATASIZE PUSH0 DUP1 RETURNDATACOPY RETURNDATASIZE PUSH0 REVERT JUMPDEST POP POP POP POP PUSH1 0x40 MLOAD RETURNDATASIZE PUSH1 0x1F NOT PUSH1 0x1F DUP3 ADD AND DUP3 ADD DUP1 PUSH1 0x40 MSTORE POP DUP2 ADD SWAP1 PUSH2 0xB37 SWAP2 SWAP1 PUSH2 0x1B9E JUMP JUMPDEST PUSH20 0xFFFFFFFFFFFFFFFFFFFFFFFFFFFFFFFFFFFFFFFF AND EQ PUSH2 0xB8D JUMPI PUSH1 0x40 MLOAD PUSH32 0x8C379A000000000000000000000000000000000000000000000000000000000 DUP2 MSTORE PUSH1 0x4 ADD PUSH2 0xB84 SWAP1 PUSH2 0x1C13 JUMP JUMPDEST PUSH1 0x40 MLOAD DUP1 SWAP2 SUB SWAP1 REVERT JUMPDEST PUSH0 PUSH1 0x8 PUSH0 DUP8 DUP2 MSTORE PUSH1 0x20 ADD SWAP1 DUP2 MSTORE PUSH1 0x20 ADD PUSH0 KECCAK256 SLOAD DUP7 DUP7 PUSH2 0xBAA PUSH2 0x10B4 JUMP JUMPDEST DUP7 PUSH1 0x40 MLOAD PUSH1 0x20 ADD PUSH2 0xBBF SWAP6 SWAP5 SWAP4 SWAP3 SWAP2 SWAP1 PUSH2 0x1D67 JUMP JUMPDEST PUSH1 0x40 MLOAD PUSH1 0x20 DUP2 DUP4 SUB SUB DUP2 MSTORE SWAP1 PUSH1 0x40 MSTORE DUP1 MLOAD SWAP1 PUSH1 0x20 ADD KECCAK256 SWAP1 POP PUSH0 PUSH2 0xBEB DUP4 DUP4 PUSH2 0x117C SWAP1 SWAP2 SWAP1 PUSH4 0xFFFFFFFF AND JUMP JUMPDEST SWAP1 POP DUP5 PUSH20 0xFFFFFFFFFFFFFFFFFFFFFFFFFFFFFFFFFFFFFFFF AND DUP2 PUSH20 0xFFFFFFFFFFFFFFFFFFFFFFFFFFFFFFFFFFFFFFFF AND EQ PUSH2 0xC5B JUMPI PUSH1 0x40 MLOAD PUSH32 0x8C379A000000000000000000000000000000000000000000000000000000000 DUP2 MSTORE PUSH1 0x4 ADD PUSH2 0xC52 SWAP1 PUSH2 0x1E02 JUMP JUMPDEST PUSH1 0x40 MLOAD DUP1 SWAP2 SUB SWAP1 REVERT JUMPDEST DUP6 PUSH1 0x8 PUSH0 DUP10 DUP2 MSTORE PUSH1 0x20 ADD SWAP1 DUP2 MSTORE PUSH1 0x20 ADD PUSH0 KECCAK256 PUSH0 DUP3 DUP3 SLOAD PUSH2 0xC7B SWAP2 SWAP1 PUSH2 0x1AAB JUMP JUMPDEST SWAP3 POP POP DUP2 SWAP1 SSTORE POP DUP5 PUSH20 0xFFFFFFFFFFFFFFFFFFFFFFFFFFFFFFFFFFFFFFFF AND PUSH2 0xCA1 PUSH2 0x10B4 JUMP JUMPDEST PUSH20 0xFFFFFFFFFFFFFFFFFFFFFFFFFFFFFFFFFFFFFFFF AND PUSH32 0xBFECA4B40CFE4B2290F947B0600F588F69E9387EBF4ED295CA0AC0DCF879E059 DUP10 DUP10 DUP9 PUSH1 0x40 MLOAD PUSH2 0xCEA SWAP4 SWAP3 SWAP2 SWAP1 PUSH2 0x1AED JUMP JUMPDEST PUSH1 0x40 MLOAD DUP1 SWAP2 SUB SWAP1 LOG3 POP POP POP POP POP POP POP JUMP JUMPDEST PUSH2 0xD03 PUSH2 0x102D JUMP JUMPDEST DUP1 PUSH1 0x3 PUSH0 PUSH2 0x100 EXP DUP2 SLOAD DUP2 PUSH20 0xFFFFFFFFFFFFFFFFFFFFFFFFFFFFFFFFFFFFFFFF MUL NOT AND SWAP1 DUP4 PUSH20 0xFFFFFFFFFFFFFFFFFFFFFFFFFFFFFFFFFFFFFFFF AND MUL OR SWAP1 SSTORE POP POP JUMP JUMPDEST PUSH2 0xD4E PUSH2 0x10B4 JUMP JUMPDEST PUSH20 0xFFFFFFFFFFFFFFFFFFFFFFFFFFFFFFFFFFFFFFFF AND PUSH1 0x1 PUSH0 SWAP1 SLOAD SWAP1 PUSH2 0x100 EXP SWAP1 DIV PUSH20 0xFFFFFFFFFFFFFFFFFFFFFFFFFFFFFFFFFFFFFFFF AND PUSH20 0xFFFFFFFFFFFFFFFFFFFFFFFFFFFFFFFFFFFFFFFF AND PUSH4 0x6352211E DUP5 PUSH1 0x40 MLOAD DUP3 PUSH4 0xFFFFFFFF AND PUSH1 0xE0 SHL DUP2 MSTORE PUSH1 0x4 ADD PUSH2 0xDBE SWAP2 SWAP1 PUSH2 0x151A JUMP JUMPDEST PUSH1 0x20 PUSH1 0x40 MLOAD DUP1 DUP4 SUB DUP2 DUP7 GAS STATICCALL ISZERO DUP1 ISZERO PUSH2 0xDD9 JUMPI RETURNDATASIZE PUSH0 DUP1 RETURNDATACOPY RETURNDATASIZE PUSH0 REVERT JUMPDEST POP POP POP POP PUSH1 0x40 MLOAD RETURNDATASIZE PUSH1 0x1F NOT PUSH1 0x1F DUP3 ADD AND DUP3 ADD DUP1 PUSH1 0x40 MSTORE POP DUP2 ADD SWAP1 PUSH2 0xDFD SWAP2 SWAP1 PUSH2 0x1B9E JUMP JUMPDEST PUSH20 0xFFFFFFFFFFFFFFFFFFFFFFFFFFFFFFFFFFFFFFFF AND EQ PUSH2 0xE53 JUMPI PUSH1 0x40 MLOAD PUSH32 0x8C379A000000000000000000000000000000000000000000000000000000000 DUP2 MSTORE PUSH1 0x4 ADD PUSH2 0xE4A SWAP1 PUSH2 0x1C13 JUMP JUMPDEST PUSH1 0x40 MLOAD DUP1 SWAP2 SUB SWAP1 REVERT JUMPDEST DUP1 PUSH1 0xA PUSH0 DUP5 DUP2 MSTORE PUSH1 0x20 ADD SWAP1 DUP2 MSTORE PUSH1 0x20 ADD PUSH0 KECCAK256 PUSH0 PUSH2 0x100 EXP DUP2 SLOAD DUP2 PUSH20 0xFFFFFFFFFFFFFFFFFFFFFFFFFFFFFFFFFFFFFFFF MUL NOT AND SWAP1 DUP4 PUSH20 0xFFFFFFFFFFFFFFFFFFFFFFFFFFFFFFFFFFFFFFFF AND MUL OR SWAP1 SSTORE POP DUP1 PUSH20 0xFFFFFFFFFFFFFFFFFFFFFFFFFFFFFFFFFFFFFFFF AND PUSH2 0xEC1 PUSH2 0x10B4 JUMP JUMPDEST PUSH20 0xFFFFFFFFFFFFFFFFFFFFFFFFFFFFFFFFFFFFFFFF AND PUSH32 0xD4475E70CAEF6019D8FB1CD3096F7FE97B4B60B1FB693A1F6F517E3C252A7975 DUP5 PUSH1 0x40 MLOAD PUSH2 0xF06 SWAP2 SWAP1 PUSH2 0x151A JUMP JUMPDEST PUSH1 0x40 MLOAD DUP1 SWAP2 SUB SWAP1 LOG3 POP POP JUMP JUMPDEST PUSH0 DUP1 PUSH0 SWAP1 SLOAD SWAP1 PUSH2 0x100 EXP SWAP1 DIV PUSH20 0xFFFFFFFFFFFFFFFFFFFFFFFFFFFFFFFFFFFFFFFF AND SWAP1 POP SWAP1 JUMP JUMPDEST PUSH1 0x8 PUSH1 0x20 MSTORE DUP1 PUSH0 MSTORE PUSH1 0x40 PUSH0 KECCAK256 PUSH0 SWAP2 POP SWAP1 POP SLOAD DUP2 JUMP JUMPDEST PUSH1 0xA PUSH1 0x20 MSTORE DUP1 PUSH0 MSTORE PUSH1 0x40 PUSH0 KECCAK256 PUSH0 SWAP2 POP SLOAD SWAP1 PUSH2 0x100 EXP SWAP1 DIV PUSH20 0xFFFFFFFFFFFFFFFFFFFFFFFFFFFFFFFFFFFFFFFF AND DUP2 JUMP JUMPDEST PUSH1 0x4 SLOAD DUP2 JUMP JUMPDEST PUSH2 0xF8C PUSH2 0x102D JUMP JUMPDEST PUSH0 PUSH20 0xFFFFFFFFFFFFFFFFFFFFFFFFFFFFFFFFFFFFFFFF AND DUP2 PUSH20 0xFFFFFFFFFFFFFFFFFFFFFFFFFFFFFFFFFFFFFFFF AND SUB PUSH2 0xFFC JUMPI PUSH0 PUSH1 0x40 MLOAD PUSH32 0x1E4FBDF700000000000000000000000000000000000000000000000000000000 DUP2 MSTORE PUSH1 0x4 ADD PUSH2 0xFF3 SWAP2 SWAP1 PUSH2 0x14F2 JUMP JUMPDEST PUSH1 0x40 MLOAD DUP1 SWAP2 SUB SWAP1 REVERT JUMPDEST PUSH2 0x1005 DUP2 PUSH2 0x10BB JUMP JUMPDEST POP JUMP JUMPDEST PUSH1 0x1 PUSH0 SWAP1 SLOAD SWAP1 PUSH2 0x100 EXP SWAP1 DIV PUSH20 0xFFFFFFFFFFFFFFFFFFFFFFFFFFFFFFFFFFFFFFFF AND DUP2 JUMP JUMPDEST PUSH2 0x1035 PUSH2 0x10B4 JUMP JUMPDEST PUSH20 0xFFFFFFFFFFFFFFFFFFFFFFFFFFFFFFFFFFFFFFFF AND PUSH2 0x1053 PUSH2 0xF12 JUMP JUMPDEST PUSH20 0xFFFFFFFFFFFFFFFFFFFFFFFFFFFFFFFFFFFFFFFF AND EQ PUSH2 0x10B2 JUMPI PUSH2 0x1076 PUSH2 0x10B4 JUMP JUMPDEST PUSH1 0x40 MLOAD PUSH32 0x118CDAA700000000000000000000000000000000000000000000000000000000 DUP2 MSTORE PUSH1 0x4 ADD PUSH2 0x10A9 SWAP2 SWAP1 PUSH2 0x14F2 JUMP JUMPDEST PUSH1 0x40 MLOAD DUP1 SWAP2 SUB SWAP1 REVERT JUMPDEST JUMP JUMPDEST PUSH0 CALLER SWAP1 POP SWAP1 JUMP JUMPDEST PUSH0 DUP1 PUSH0 SWAP1 SLOAD SWAP1 PUSH2 0x100 EXP SWAP1 DIV PUSH20 0xFFFFFFFFFFFFFFFFFFFFFFFFFFFFFFFFFFFFFFFF AND SWAP1 POP DUP2 PUSH0 DUP1 PUSH2 0x100 EXP DUP2 SLOAD DUP2 PUSH20 0xFFFFFFFFFFFFFFFFFFFFFFFFFFFFFFFFFFFFFFFF MUL NOT AND SWAP1 DUP4 PUSH20 0xFFFFFFFFFFFFFFFFFFFFFFFFFFFFFFFFFFFFFFFF AND MUL OR SWAP1 SSTORE POP DUP2 PUSH20 0xFFFFFFFFFFFFFFFFFFFFFFFFFFFFFFFFFFFFFFFF AND DUP2 PUSH20 0xFFFFFFFFFFFFFFFFFFFFFFFFFFFFFFFFFFFFFFFF AND PUSH32 0x8BE0079C531659141344CD1FD0A4F28419497F9722A3DAAFE3B4186F6B6457E0 PUSH1 0x40 MLOAD PUSH1 0x40 MLOAD DUP1 SWAP2 SUB SWAP1 LOG3 POP POP JUMP JUMPDEST PUSH0 DUP1 PUSH0 DUP1 PUSH2 0x118A DUP7 DUP7 PUSH2 0x11A6 JUMP JUMPDEST SWAP3 POP SWAP3 POP SWAP3 POP PUSH2 0x119A DUP3 DUP3 PUSH2 0x11FB JUMP JUMPDEST DUP3 SWAP4 POP POP POP POP SWAP3 SWAP2 POP POP JUMP JUMPDEST PUSH0 DUP1 PUSH0 PUSH1 0x41 DUP5 MLOAD SUB PUSH2 0x11E6 JUMPI PUSH0 DUP1 PUSH0 PUSH1 0x20 DUP8 ADD MLOAD SWAP3 POP PUSH1 0x40 DUP8 ADD MLOAD SWAP2 POP PUSH1 0x60 DUP8 ADD MLOAD PUSH0 BYTE SWAP1 POP PUSH2 0x11D8 DUP9 DUP3 DUP6 DUP6 PUSH2 0x135D JUMP JUMPDEST SWAP6 POP SWAP6 POP SWAP6 POP POP POP POP PUSH2 0x11F4 JUMP JUMPDEST PUSH0 PUSH1 0x2 DUP6 MLOAD PUSH0 SHL SWAP3 POP SWAP3 POP SWAP3 POP JUMPDEST SWAP3 POP SWAP3 POP SWAP3 JUMP JUMPDEST PUSH0 PUSH1 0x3 DUP2 GT ISZERO PUSH2 0x120E JUMPI PUSH2 0x120D PUSH2 0x1E20 JUMP JUMPDEST JUMPDEST DUP3 PUSH1 0x3 DUP2 GT ISZERO PUSH2 0x1221 JUMPI PUSH2 0x1220 PUSH2 0x1E20 JUMP JUMPDEST JUMPDEST SUB ISZERO PUSH2 0x1359 JUMPI PUSH1 0x1 PUSH1 0x3 DUP2 GT ISZERO PUSH2 0x123B JUMPI PUSH2 0x123A PUSH2 0x1E20 JUMP JUMPDEST JUMPDEST DUP3 PUSH1 0x3 DUP2 GT ISZERO PUSH2 0x124E JUMPI PUSH2 0x124D PUSH2 0x1E20 JUMP JUMPDEST JUMPDEST SUB PUSH2 0x1285 JUMPI PUSH1 0x40 MLOAD PUSH32 0xF645EEDF00000000000000000000000000000000000000000000000000000000 DUP2 MSTORE PUSH1 0x4 ADD PUSH1 0x40 MLOAD DUP1 SWAP2 SUB SWAP1 REVERT JUMPDEST PUSH1 0x2 PUSH1 0x3 DUP2 GT ISZERO PUSH2 0x1299 JUMPI PUSH2 0x1298 PUSH2 0x1E20 JUMP JUMPDEST JUMPDEST DUP3 PUSH1 0x3 DUP2 GT ISZERO PUSH2 0x12AC JUMPI PUSH2 0x12AB PUSH2 0x1E20 JUMP JUMPDEST JUMPDEST SUB PUSH2 0x12F0 JUMPI DUP1 PUSH0 SHR PUSH1 0x40 MLOAD PUSH32 0xFCE698F700000000000000000000000000000000000000000000000000000000 DUP2 MSTORE PUSH1 0x4 ADD PUSH2 0x12E7 SWAP2 SWAP1 PUSH2 0x151A JUMP JUMPDEST PUSH1 0x40 MLOAD DUP1 SWAP2 SUB SWAP1 REVERT JUMPDEST PUSH1 0x3 DUP1 DUP2 GT ISZERO PUSH2 0x1303 JUMPI PUSH2 0x1302 PUSH2 0x1E20 JUMP JUMPDEST JUMPDEST DUP3 PUSH1 0x3 DUP2 GT ISZERO PUSH2 0x1316 JUMPI PUSH2 0x1315 PUSH2 0x1E20 JUMP JUMPDEST JUMPDEST SUB PUSH2 0x1358 JUMPI DUP1 PUSH1 0x40 MLOAD PUSH32 0xD78BCE0C00000000000000000000000000000000000000000000000000000000 DUP2 MSTORE PUSH1 0x4 ADD PUSH2 0x134F SWAP2 SWAP1 PUSH2 0x1E4D JUMP JUMPDEST PUSH1 0x40 MLOAD DUP1 SWAP2 SUB SWAP1 REVERT JUMPDEST JUMPDEST POP POP JUMP JUMPDEST PUSH0 DUP1 PUSH0 PUSH32 0x7FFFFFFFFFFFFFFFFFFFFFFFFFFFFFFF5D576E7357A4501DDFE92F46681B20A0 DUP5 PUSH0 SHR GT ISZERO PUSH2 0x1399 JUMPI PUSH0 PUSH1 0x3 DUP6 SWAP3 POP SWAP3 POP SWAP3 POP PUSH2 0x143A JUMP JUMPDEST PUSH0 PUSH1 0x1 DUP9 DUP9 DUP9 DUP9 PUSH1 0x40 MLOAD PUSH0 DUP2 MSTORE PUSH1 0x20 ADD PUSH1 0x40 MSTORE PUSH1 0x40 MLOAD PUSH2 0x13BC SWAP5 SWAP4 SWAP3 SWAP2 SWAP1 PUSH2 0x1E81 JUMP JUMPDEST PUSH1 0x20 PUSH1 0x40 MLOAD PUSH1 0x20 DUP2 SUB SWAP1 DUP1 DUP5 SUB SWAP1 DUP6 GAS STATICCALL ISZERO DUP1 ISZERO PUSH2 0x13DC JUMPI RETURNDATASIZE PUSH0 DUP1 RETURNDATACOPY RETURNDATASIZE PUSH0 REVERT JUMPDEST POP POP POP PUSH1 0x20 PUSH1 0x40 MLOAD SUB MLOAD SWAP1 POP PUSH0 PUSH20 0xFFFFFFFFFFFFFFFFFFFFFFFFFFFFFFFFFFFFFFFF AND DUP2 PUSH20 0xFFFFFFFFFFFFFFFFFFFFFFFFFFFFFFFFFFFFFFFF AND SUB PUSH2 0x142D JUMPI PUSH0 PUSH1 0x1 PUSH0 DUP1 SHL SWAP4 POP SWAP4 POP SWAP4 POP POP PUSH2 0x143A JUMP JUMPDEST DUP1 PUSH0 DUP1 PUSH0 SHL SWAP4 POP SWAP4 POP SWAP4 POP POP JUMPDEST SWAP5 POP SWAP5 POP SWAP5 SWAP2 POP POP JUMP JUMPDEST PUSH0 PUSH1 0x40 MLOAD SWAP1 POP SWAP1 JUMP JUMPDEST PUSH0 DUP1 REVERT JUMPDEST PUSH0 DUP1 REVERT JUMPDEST PUSH0 DUP2 SWAP1 POP SWAP2 SWAP1 POP JUMP JUMPDEST PUSH2 0x1467 DUP2 PUSH2 0x1455 JUMP JUMPDEST DUP2 EQ PUSH2 0x1471 JUMPI PUSH0 DUP1 REVERT JUMPDEST POP JUMP JUMPDEST PUSH0 DUP2 CALLDATALOAD SWAP1 POP PUSH2 0x1482 DUP2 PUSH2 0x145E JUMP JUMPDEST SWAP3 SWAP2 POP POP JUMP JUMPDEST PUSH0 PUSH1 0x20 DUP3 DUP5 SUB SLT ISZERO PUSH2 0x149D JUMPI PUSH2 0x149C PUSH2 0x144D JUMP JUMPDEST JUMPDEST PUSH0 PUSH2 0x14AA DUP5 DUP3 DUP6 ADD PUSH2 0x1474 JUMP JUMPDEST SWAP2 POP POP SWAP3 SWAP2 POP POP JUMP JUMPDEST PUSH0 PUSH20 0xFFFFFFFFFFFFFFFFFFFFFFFFFFFFFFFFFFFFFFFF DUP3 AND SWAP1 POP SWAP2 SWAP1 POP JUMP JUMPDEST PUSH0 PUSH2 0x14DC DUP3 PUSH2 0x14B3 JUMP JUMPDEST SWAP1 POP SWAP2 SWAP1 POP JUMP JUMPDEST PUSH2 0x14EC DUP2 PUSH2 0x14D2 JUMP JUMPDEST DUP3 MSTORE POP POP JUMP JUMPDEST PUSH0 PUSH1 0x20 DUP3 ADD SWAP1 POP PUSH2 0x1505 PUSH0 DUP4 ADD DUP5 PUSH2 0x14E3 JUMP JUMPDEST SWAP3 SWAP2 POP POP JUMP JUMPDEST PUSH2 0x1514 DUP2 PUSH2 0x1455 JUMP JUMPDEST DUP3 MSTORE POP POP JUMP JUMPDEST PUSH0 PUSH1 0x20 DUP3 ADD SWAP1 POP PUSH2 0x152D PUSH0 DUP4 ADD DUP5 PUSH2 0x150B JUMP JUMPDEST SWAP3 SWAP2 POP POP JUMP JUMPDEST PUSH2 0x153C DUP2 PUSH2 0x14D2 JUMP JUMPDEST DUP2 EQ PUSH2 0x1546 JUMPI PUSH0 DUP1 REVERT JUMPDEST POP JUMP JUMPDEST PUSH0 DUP2 CALLDATALOAD SWAP1 POP PUSH2 0x1557 DUP2 PUSH2 0x1533 JUMP JUMPDEST SWAP3 SWAP2 POP POP JUMP JUMPDEST PUSH0 DUP2 ISZERO ISZERO SWAP1 POP SWAP2 SWAP1 POP JUMP JUMPDEST PUSH2 0x1571 DUP2 PUSH2 0x155D JUMP JUMPDEST DUP2 EQ PUSH2 0x157B JUMPI PUSH0 DUP1 REVERT JUMPDEST POP JUMP JUMPDEST PUSH0 DUP2 CALLDATALOAD SWAP1 POP PUSH2 0x158C DUP2 PUSH2 0x1568 JUMP JUMPDEST SWAP3 SWAP2 POP POP JUMP JUMPDEST PUSH0 DUP1 PUSH1 0x40 DUP4 DUP6 SUB SLT ISZERO PUSH2 0x15A8 JUMPI PUSH2 0x15A7 PUSH2 0x144D JUMP JUMPDEST JUMPDEST PUSH0 PUSH2 0x15B5 DUP6 DUP3 DUP7 ADD PUSH2 0x1549 JUMP JUMPDEST SWAP3 POP POP PUSH1 0x20 PUSH2 0x15C6 DUP6 DUP3 DUP7 ADD PUSH2 0x157E JUMP JUMPDEST SWAP2 POP POP SWAP3 POP SWAP3 SWAP1 POP JUMP JUMPDEST PUSH0 DUP2 SWAP1 POP SWAP2 SWAP1 POP JUMP JUMPDEST PUSH2 0x15E2 DUP2 PUSH2 0x15D0 JUMP JUMPDEST DUP2 EQ PUSH2 0x15EC JUMPI PUSH0 DUP1 REVERT JUMPDEST POP JUMP JUMPDEST PUSH0 DUP2 CALLDATALOAD SWAP1 POP PUSH2 0x15FD DUP2 PUSH2 0x15D9 JUMP JUMPDEST SWAP3 SWAP2 POP POP JUMP JUMPDEST PUSH0 DUP1 PUSH0 PUSH1 0x60 DUP5 DUP7 SUB SLT ISZERO PUSH2 0x161A JUMPI PUSH2 0x1619 PUSH2 0x144D JUMP JUMPDEST JUMPDEST PUSH0 PUSH2 0x1627 DUP7 DUP3 DUP8 ADD PUSH2 0x1474 JUMP JUMPDEST SWAP4 POP POP PUSH1 0x20 PUSH2 0x1638 DUP7 DUP3 DUP8 ADD PUSH2 0x1474 JUMP JUMPDEST SWAP3 POP POP PUSH1 0x40 PUSH2 0x1649 DUP7 DUP3 DUP8 ADD PUSH2 0x15EF JUMP JUMPDEST SWAP2 POP POP SWAP3 POP SWAP3 POP SWAP3 JUMP JUMPDEST PUSH0 DUP1 PUSH1 0x40 DUP4 DUP6 SUB SLT ISZERO PUSH2 0x1669 JUMPI PUSH2 0x1668 PUSH2 0x144D JUMP JUMPDEST JUMPDEST PUSH0 PUSH2 0x1676 DUP6 DUP3 DUP7 ADD PUSH2 0x1474 JUMP JUMPDEST SWAP3 POP POP PUSH1 0x20 PUSH2 0x1687 DUP6 DUP3 DUP7 ADD PUSH2 0x1474 JUMP JUMPDEST SWAP2 POP POP SWAP3 POP SWAP3 SWAP1 POP JUMP JUMPDEST PUSH0 DUP2 SWAP1 POP SWAP2 SWAP1 POP JUMP JUMPDEST PUSH0 PUSH2 0x16B4 PUSH2 0x16AF PUSH2 0x16AA DUP5 PUSH2 0x14B3 JUMP JUMPDEST PUSH2 0x1691 JUMP JUMPDEST PUSH2 0x14B3 JUMP JUMPDEST SWAP1 POP SWAP2 SWAP1 POP JUMP JUMPDEST PUSH0 PUSH2 0x16C5 DUP3 PUSH2 0x169A JUMP JUMPDEST SWAP1 POP SWAP2 SWAP1 POP JUMP JUMPDEST PUSH0 PUSH2 0x16D6 DUP3 PUSH2 0x16BB JUMP JUMPDEST SWAP1 POP SWAP2 SWAP1 POP JUMP JUMPDEST PUSH2 0x16E6 DUP2 PUSH2 0x16CC JUMP JUMPDEST DUP3 MSTORE POP POP JUMP JUMPDEST PUSH0 PUSH1 0x20 DUP3 ADD SWAP1 POP PUSH2 0x16FF PUSH0 DUP4 ADD DUP5 PUSH2 0x16DD JUMP JUMPDEST SWAP3 SWAP2 POP POP JUMP JUMPDEST PUSH0 DUP1 REVERT JUMPDEST PUSH0 DUP1 REVERT JUMPDEST PUSH0 PUSH1 0x1F NOT PUSH1 0x1F DUP4 ADD AND SWAP1 POP SWAP2 SWAP1 POP JUMP JUMPDEST PUSH32 0x4E487B7100000000000000000000000000000000000000000000000000000000 PUSH0 MSTORE PUSH1 0x41 PUSH1 0x4 MSTORE PUSH1 0x24 PUSH0 REVERT JUMPDEST PUSH2 0x1753 DUP3 PUSH2 0x170D JUMP JUMPDEST DUP2 ADD DUP2 DUP2 LT PUSH8 0xFFFFFFFFFFFFFFFF DUP3 GT OR ISZERO PUSH2 0x1772 JUMPI PUSH2 0x1771 PUSH2 0x171D JUMP JUMPDEST JUMPDEST DUP1 PUSH1 0x40 MSTORE POP POP POP JUMP JUMPDEST PUSH0 PUSH2 0x1784 PUSH2 0x1444 JUMP JUMPDEST SWAP1 POP PUSH2 0x1790 DUP3 DUP3 PUSH2 0x174A JUMP JUMPDEST SWAP2 SWAP1 POP JUMP JUMPDEST PUSH0 PUSH8 0xFFFFFFFFFFFFFFFF DUP3 GT ISZERO PUSH2 0x17AF JUMPI PUSH2 0x17AE PUSH2 0x171D JUMP JUMPDEST JUMPDEST PUSH2 0x17B8 DUP3 PUSH2 0x170D JUMP JUMPDEST SWAP1 POP PUSH1 0x20 DUP2 ADD SWAP1 POP SWAP2 SWAP1 POP JUMP JUMPDEST DUP3 DUP2 DUP4 CALLDATACOPY PUSH0 DUP4 DUP4 ADD MSTORE POP POP POP JUMP JUMPDEST PUSH0 PUSH2 0x17E5 PUSH2 0x17E0 DUP5 PUSH2 0x1795 JUMP JUMPDEST PUSH2 0x177B JUMP JUMPDEST SWAP1 POP DUP3 DUP2 MSTORE PUSH1 0x20 DUP2 ADD DUP5 DUP5 DUP5 ADD GT ISZERO PUSH2 0x1801 JUMPI PUSH2 0x1800 PUSH2 0x1709 JUMP JUMPDEST JUMPDEST PUSH2 0x180C DUP5 DUP3 DUP6 PUSH2 0x17C5 JUMP JUMPDEST POP SWAP4 SWAP3 POP POP POP JUMP JUMPDEST PUSH0 DUP3 PUSH1 0x1F DUP4 ADD SLT PUSH2 0x1828 JUMPI PUSH2 0x1827 PUSH2 0x1705 JUMP JUMPDEST JUMPDEST DUP2 CALLDATALOAD PUSH2 0x1838 DUP5 DUP3 PUSH1 0x20 DUP7 ADD PUSH2 0x17D3 JUMP JUMPDEST SWAP2 POP POP SWAP3 SWAP2 POP POP JUMP JUMPDEST PUSH0 DUP1 PUSH0 DUP1 PUSH0 PUSH1 0xA0 DUP7 DUP9 SUB SLT ISZERO PUSH2 0x185A JUMPI PUSH2 0x1859 PUSH2 0x144D JUMP JUMPDEST JUMPDEST PUSH0 PUSH2 0x1867 DUP9 DUP3 DUP10 ADD PUSH2 0x1474 JUMP JUMPDEST SWAP6 POP POP PUSH1 0x20 PUSH2 0x1878 DUP9 DUP3 DUP10 ADD PUSH2 0x1474 JUMP JUMPDEST SWAP5 POP POP PUSH1 0x40 PUSH2 0x1889 DUP9 DUP3 DUP10 ADD PUSH2 0x1549 JUMP JUMPDEST SWAP4 POP POP PUSH1 0x60 PUSH2 0x189A DUP9 DUP3 DUP10 ADD PUSH2 0x15EF JUMP JUMPDEST SWAP3 POP POP PUSH1 0x80 DUP7 ADD CALLDATALOAD PUSH8 0xFFFFFFFFFFFFFFFF DUP2 GT ISZERO PUSH2 0x18BB JUMPI PUSH2 0x18BA PUSH2 0x1451 JUMP JUMPDEST JUMPDEST PUSH2 0x18C7 DUP9 DUP3 DUP10 ADD PUSH2 0x1814 JUMP JUMPDEST SWAP2 POP POP SWAP3 SWAP6 POP SWAP3 SWAP6 SWAP1 SWAP4 POP JUMP JUMPDEST PUSH0 PUSH1 0x20 DUP3 DUP5 SUB SLT ISZERO PUSH2 0x18E9 JUMPI PUSH2 0x18E8 PUSH2 0x144D JUMP JUMPDEST JUMPDEST PUSH0 PUSH2 0x18F6 DUP5 DUP3 DUP6 ADD PUSH2 0x1549 JUMP JUMPDEST SWAP2 POP POP SWAP3 SWAP2 POP POP JUMP JUMPDEST PUSH0 DUP1 PUSH1 0x40 DUP4 DUP6 SUB SLT ISZERO PUSH2 0x1915 JUMPI PUSH2 0x1914 PUSH2 0x144D JUMP JUMPDEST JUMPDEST PUSH0 PUSH2 0x1922 DUP6 DUP3 DUP7 ADD PUSH2 0x1474 JUMP JUMPDEST SWAP3 POP POP PUSH1 0x20 PUSH2 0x1933 DUP6 DUP3 DUP7 ADD PUSH2 0x1549 JUMP JUMPDEST SWAP2 POP POP SWAP3 POP SWAP3 SWAP1 POP JUMP JUMPDEST PUSH0 PUSH2 0x1947 DUP3 PUSH2 0x16BB JUMP JUMPDEST SWAP1 POP SWAP2 SWAP1 POP JUMP JUMPDEST PUSH2 0x1957 DUP2 PUSH2 0x193D JUMP JUMPDEST DUP3 MSTORE POP POP JUMP JUMPDEST PUSH0 PUSH1 0x20 DUP3 ADD SWAP1 POP PUSH2 0x1970 PUSH0 DUP4 ADD DUP5 PUSH2 0x194E JUMP JUMPDEST SWAP3 SWAP2 POP POP JUMP JUMPDEST PUSH2 0x197F DUP2 PUSH2 0x155D JUMP JUMPDEST DUP3 MSTORE POP POP JUMP JUMPDEST PUSH0 PUSH1 0x20 DUP3 ADD SWAP1 POP PUSH2 0x1998 PUSH0 DUP4 ADD DUP5 PUSH2 0x1976 JUMP JUMPDEST SWAP3 SWAP2 POP POP JUMP JUMPDEST PUSH0 DUP3 DUP3 MSTORE PUSH1 0x20 DUP3 ADD SWAP1 POP SWAP3 SWAP2 POP POP JUMP JUMPDEST PUSH32 0x596F75206172652774207061796D617374657200000000000000000000000000 PUSH0 DUP3 ADD MSTORE POP JUMP JUMPDEST PUSH0 PUSH2 0x19E2 PUSH1 0x13 DUP4 PUSH2 0x199E JUMP JUMPDEST SWAP2 POP PUSH2 0x19ED DUP3 PUSH2 0x19AE JUMP JUMPDEST PUSH1 0x20 DUP3 ADD SWAP1 POP SWAP2 SWAP1 POP JUMP JUMPDEST PUSH0 PUSH1 0x20 DUP3 ADD SWAP1 POP DUP2 DUP2 SUB PUSH0 DUP4 ADD MSTORE PUSH2 0x1A0F DUP2 PUSH2 0x19D6 JUMP JUMPDEST SWAP1 POP SWAP2 SWAP1 POP JUMP JUMPDEST PUSH32 0x416D6F756E742063616E2774206265207A65726F000000000000000000000000 PUSH0 DUP3 ADD MSTORE POP JUMP JUMPDEST PUSH0 PUSH2 0x1A4A PUSH1 0x14 DUP4 PUSH2 0x199E JUMP JUMPDEST SWAP2 POP PUSH2 0x1A55 DUP3 PUSH2 0x1A16 JUMP JUMPDEST PUSH1 0x20 DUP3 ADD SWAP1 POP SWAP2 SWAP1 POP JUMP JUMPDEST PUSH0 PUSH1 0x20 DUP3 ADD SWAP1 POP DUP2 DUP2 SUB PUSH0 DUP4 ADD MSTORE PUSH2 0x1A77 DUP2 PUSH2 0x1A3E JUMP JUMPDEST SWAP1 POP SWAP2 SWAP1 POP JUMP JUMPDEST PUSH32 0x4E487B7100000000000000000000000000000000000000000000000000000000 PUSH0 MSTORE PUSH1 0x11 PUSH1 0x4 MSTORE PUSH1 0x24 PUSH0 REVERT JUMPDEST PUSH0 PUSH2 0x1AB5 DUP3 PUSH2 0x1455 JUMP JUMPDEST SWAP2 POP PUSH2 0x1AC0 DUP4 PUSH2 0x1455 JUMP JUMPDEST SWAP3 POP DUP3 DUP3 ADD SWAP1 POP DUP1 DUP3 GT ISZERO PUSH2 0x1AD8 JUMPI PUSH2 0x1AD7 PUSH2 0x1A7E JUMP JUMPDEST JUMPDEST SWAP3 SWAP2 POP POP JUMP JUMPDEST PUSH2 0x1AE7 DUP2 PUSH2 0x15D0 JUMP JUMPDEST DUP3 MSTORE POP POP JUMP JUMPDEST PUSH0 PUSH1 0x60 DUP3 ADD SWAP1 POP PUSH2 0x1B00 PUSH0 DUP4 ADD DUP7 PUSH2 0x150B JUMP JUMPDEST PUSH2 0x1B0D PUSH1 0x20 DUP4 ADD DUP6 PUSH2 0x150B JUMP JUMPDEST PUSH2 0x1B1A PUSH1 0x40 DUP4 ADD DUP5 PUSH2 0x1ADE JUMP JUMPDEST SWAP5 SWAP4 POP POP POP POP JUMP JUMPDEST PUSH32 0x43616E2774207769746864726177207965740000000000000000000000000000 PUSH0 DUP3 ADD MSTORE POP JUMP JUMPDEST PUSH0 PUSH2 0x1B56 PUSH1 0x12 DUP4 PUSH2 0x199E JUMP JUMPDEST SWAP2 POP PUSH2 0x1B61 DUP3 PUSH2 0x1B22 JUMP JUMPDEST PUSH1 0x20 DUP3 ADD SWAP1 POP SWAP2 SWAP1 POP JUMP JUMPDEST PUSH0 PUSH1 0x20 DUP3 ADD SWAP1 POP DUP2 DUP2 SUB PUSH0 DUP4 ADD MSTORE PUSH2 0x1B83 DUP2 PUSH2 0x1B4A JUMP JUMPDEST SWAP1 POP SWAP2 SWAP1 POP JUMP JUMPDEST PUSH0 DUP2 MLOAD SWAP1 POP PUSH2 0x1B98 DUP2 PUSH2 0x1533 JUMP JUMPDEST SWAP3 SWAP2 POP POP JUMP JUMPDEST PUSH0 PUSH1 0x20 DUP3 DUP5 SUB SLT ISZERO PUSH2 0x1BB3 JUMPI PUSH2 0x1BB2 PUSH2 0x144D JUMP JUMPDEST JUMPDEST PUSH0 PUSH2 0x1BC0 DUP5 DUP3 DUP6 ADD PUSH2 0x1B8A JUMP JUMPDEST SWAP2 POP POP SWAP3 SWAP2 POP POP JUMP JUMPDEST PUSH32 0x43616C6C6572206973206E6F742074686520746F6B656E206F776E6572000000 PUSH0 DUP3 ADD MSTORE POP JUMP JUMPDEST PUSH0 PUSH2 0x1BFD PUSH1 0x1D DUP4 PUSH2 0x199E JUMP JUMPDEST SWAP2 POP PUSH2 0x1C08 DUP3 PUSH2 0x1BC9 JUMP JUMPDEST PUSH1 0x20 DUP3 ADD SWAP1 POP SWAP2 SWAP1 POP JUMP JUMPDEST PUSH0 PUSH1 0x20 DUP3 ADD SWAP1 POP DUP2 DUP2 SUB PUSH0 DUP4 ADD MSTORE PUSH2 0x1C2A DUP2 PUSH2 0x1BF1 JUMP JUMPDEST SWAP1 POP SWAP2 SWAP1 POP JUMP JUMPDEST PUSH0 PUSH2 0x1C3B DUP3 PUSH2 0x1455 JUMP JUMPDEST SWAP2 POP PUSH2 0x1C46 DUP4 PUSH2 0x1455 JUMP JUMPDEST SWAP3 POP DUP3 DUP3 SUB SWAP1 POP DUP2 DUP2 GT ISZERO PUSH2 0x1C5E JUMPI PUSH2 0x1C5D PUSH2 0x1A7E JUMP JUMPDEST JUMPDEST SWAP3 SWAP2 POP POP JUMP JUMPDEST PUSH32 0x596F75206D6F6E6579206E6F7420656E6F756768000000000000000000000000 PUSH0 DUP3 ADD MSTORE POP JUMP JUMPDEST PUSH0 PUSH2 0x1C98 PUSH1 0x14 DUP4 PUSH2 0x199E JUMP JUMPDEST SWAP2 POP PUSH2 0x1CA3 DUP3 PUSH2 0x1C64 JUMP JUMPDEST PUSH1 0x20 DUP3 ADD SWAP1 POP SWAP2 SWAP1 POP JUMP JUMPDEST PUSH0 PUSH1 0x20 DUP3 ADD SWAP1 POP DUP2 DUP2 SUB PUSH0 DUP4 ADD MSTORE PUSH2 0x1CC5 DUP2 PUSH2 0x1C8C JUMP JUMPDEST SWAP1 POP SWAP2 SWAP1 POP JUMP JUMPDEST PUSH0 PUSH1 0x60 DUP3 ADD SWAP1 POP PUSH2 0x1CDF PUSH0 DUP4 ADD DUP7 PUSH2 0x14E3 JUMP JUMPDEST PUSH2 0x1CEC PUSH1 0x20 DUP4 ADD DUP6 PUSH2 0x14E3 JUMP JUMPDEST PUSH2 0x1CF9 PUSH1 0x40 DUP4 ADD DUP5 PUSH2 0x150B JUMP JUMPDEST SWAP5 SWAP4 POP POP POP POP JUMP JUMPDEST PUSH0 DUP2 MLOAD SWAP1 POP PUSH2 0x1D0F DUP2 PUSH2 0x1568 JUMP JUMPDEST SWAP3 SWAP2 POP POP JUMP JUMPDEST PUSH0 PUSH1 0x20 DUP3 DUP5 SUB SLT ISZERO PUSH2 0x1D2A JUMPI PUSH2 0x1D29 PUSH2 0x144D JUMP JUMPDEST JUMPDEST PUSH0 PUSH2 0x1D37 DUP5 DUP3 DUP6 ADD PUSH2 0x1D01 JUMP JUMPDEST SWAP2 POP POP SWAP3 SWAP2 POP POP JUMP JUMPDEST PUSH0 PUSH1 0x40 DUP3 ADD SWAP1 POP PUSH2 0x1D53 PUSH0 DUP4 ADD DUP6 PUSH2 0x150B JUMP JUMPDEST PUSH2 0x1D60 PUSH1 0x20 DUP4 ADD DUP5 PUSH2 0x150B JUMP JUMPDEST SWAP4 SWAP3 POP POP POP JUMP JUMPDEST PUSH0 PUSH1 0xA0 DUP3 ADD SWAP1 POP PUSH2 0x1D7A PUSH0 DUP4 ADD DUP9 PUSH2 0x150B JUMP JUMPDEST PUSH2 0x1D87 PUSH1 0x20 DUP4 ADD DUP8 PUSH2 0x150B JUMP JUMPDEST PUSH2 0x1D94 PUSH1 0x40 DUP4 ADD DUP7 PUSH2 0x150B JUMP JUMPDEST PUSH2 0x1DA1 PUSH1 0x60 DUP4 ADD DUP6 PUSH2 0x14E3 JUMP JUMPDEST PUSH2 0x1DAE PUSH1 0x80 DUP4 ADD DUP5 PUSH2 0x1ADE JUMP JUMPDEST SWAP7 SWAP6 POP POP POP POP POP POP JUMP JUMPDEST PUSH32 0x496E76616C6964205369676E6174757265000000000000000000000000000000 PUSH0 DUP3 ADD MSTORE POP JUMP JUMPDEST PUSH0 PUSH2 0x1DEC PUSH1 0x11 DUP4 PUSH2 0x199E JUMP JUMPDEST SWAP2 POP PUSH2 0x1DF7 DUP3 PUSH2 0x1DB8 JUMP JUMPDEST PUSH1 0x20 DUP3 ADD SWAP1 POP SWAP2 SWAP1 POP JUMP JUMPDEST PUSH0 PUSH1 0x20 DUP3 ADD SWAP1 POP DUP2 DUP2 SUB PUSH0 DUP4 ADD MSTORE PUSH2 0x1E19 DUP2 PUSH2 0x1DE0 JUMP JUMPDEST SWAP1 POP SWAP2 SWAP1 POP JUMP JUMPDEST PUSH32 0x4E487B7100000000000000000000000000000000000000000000000000000000 PUSH0 MSTORE PUSH1 0x21 PUSH1 0x4 MSTORE PUSH1 0x24 PUSH0 REVERT JUMPDEST PUSH0 PUSH1 0x20 DUP3 ADD SWAP1 POP PUSH2 0x1E60 PUSH0 DUP4 ADD DUP5 PUSH2 0x1ADE JUMP JUMPDEST SWAP3 SWAP2 POP POP JUMP JUMPDEST PUSH0 PUSH1 0xFF DUP3 AND SWAP1 POP SWAP2 SWAP1 POP JUMP JUMPDEST PUSH2 0x1E7B DUP2 PUSH2 0x1E66 JUMP JUMPDEST DUP3 MSTORE POP POP JUMP JUMPDEST PUSH0 PUSH1 0x80 DUP3 ADD SWAP1 POP PUSH2 0x1E94 PUSH0 DUP4 ADD DUP8 PUSH2 0x1ADE JUMP JUMPDEST PUSH2 0x1EA1 PUSH1 0x20 DUP4 ADD DUP7 PUSH2 0x1E72 JUMP JUMPDEST PUSH2 0x1EAE PUSH1 0x40 DUP4 ADD DUP6 PUSH2 0x1ADE JUMP JUMPDEST PUSH2 0x1EBB PUSH1 0x60 DUP4 ADD DUP5 PUSH2 0x1ADE JUMP JUMPDEST SWAP6 SWAP5 POP POP POP POP POP JUMP INVALID LOG2 PUSH5 0x6970667358 0x22 SLT KECCAK256 PUSH16 0x10E2A9C7B1FDAFEEE8102D1EE80AD5F6 MLOAD 0xB1 PUSH28 0x81DDA8541960B932CECB821D64736F6C634300081900330000000000 "
				},
				"gasEstimates": {
					"creation": {
						"codeDepositCost": "1586000",
						"executionCost": "infinite",
						"totalCost": "infinite"
					},
					"external": {
						"cKIP()": "infinite",
						"claim(uint256,uint256,address,bytes32,bytes)": "infinite",
						"claimedAmounts(uint256)": "infinite",
						"delegations(uint256)": "2871",
						"fund_address()": "2598",
						"getDelegation(uint256)": "2876",
						"license_nft()": "infinite",
						"owner()": "2604",
						"penalty(uint256,uint256,bytes32)": "infinite",
						"renounceOwnership()": "infinite",
						"setDelegation(uint256,address)": "infinite",
						"setFundAddress(address)": "infinite",
						"setPaymaster(address,bool)": "infinite",
						"transferOwnership(address)": "infinite",
						"withdraw(uint256,uint256)": "infinite",
						"withdrawAmounts(uint256)": "infinite",
						"withdraw_interval()": "2491"
					}
				},
				"methodIdentifiers": {
					"cKIP()": "56f738cf",
					"claim(uint256,uint256,address,bytes32,bytes)": "7ea3253b",
					"claimedAmounts(uint256)": "9f666d84",
					"delegations(uint256)": "c4336c1c",
					"fund_address()": "18afe170",
					"getDelegation(uint256)": "0dd35701",
					"license_nft()": "f9e58b28",
					"owner()": "8da5cb5b",
					"penalty(uint256,uint256,bytes32)": "1c0552e8",
					"renounceOwnership()": "715018a6",
					"setDelegation(uint256,address)": "89ae9bce",
					"setFundAddress(address)": "85dc3004",
					"setPaymaster(address,bool)": "1573f688",
					"transferOwnership(address)": "f2fde38b",
					"withdraw(uint256,uint256)": "441a3e70",
					"withdrawAmounts(uint256)": "0f20b94c",
					"withdraw_interval()": "e767c798"
				}
			},
			"storageLayout": {
				"storage": [
					{
						"astId": 8,
						"contract": "contracts/NodeReward.sol:CheckerReward",
						"label": "_owner",
						"offset": 0,
						"slot": "0",
						"type": "t_address"
					},
					{
						"astId": 746,
						"contract": "contracts/NodeReward.sol:CheckerReward",
						"label": "license_nft",
						"offset": 0,
						"slot": "1",
						"type": "t_contract(IERC721)342"
					},
					{
						"astId": 749,
						"contract": "contracts/NodeReward.sol:CheckerReward",
						"label": "cKIP",
						"offset": 0,
						"slot": "2",
						"type": "t_contract(IERC20)225"
					},
					{
						"astId": 751,
						"contract": "contracts/NodeReward.sol:CheckerReward",
						"label": "fund_address",
						"offset": 0,
						"slot": "3",
						"type": "t_address"
					},
					{
						"astId": 754,
						"contract": "contracts/NodeReward.sol:CheckerReward",
						"label": "withdraw_interval",
						"offset": 0,
						"slot": "4",
						"type": "t_uint256"
					},
					{
						"astId": 758,
						"contract": "contracts/NodeReward.sol:CheckerReward",
						"label": "paymaster",
						"offset": 0,
						"slot": "5",
						"type": "t_mapping(t_address,t_bool)"
					},
					{
						"astId": 762,
						"contract": "contracts/NodeReward.sol:CheckerReward",
						"label": "last_withdraw_time",
						"offset": 0,
						"slot": "6",
						"type": "t_mapping(t_uint256,t_uint256)"
					},
					{
						"astId": 766,
						"contract": "contracts/NodeReward.sol:CheckerReward",
						"label": "fines",
						"offset": 0,
						"slot": "7",
						"type": "t_mapping(t_uint256,t_uint256)"
					},
					{
						"astId": 770,
						"contract": "contracts/NodeReward.sol:CheckerReward",
						"label": "claimedAmounts",
						"offset": 0,
						"slot": "8",
						"type": "t_mapping(t_uint256,t_uint256)"
					},
					{
						"astId": 774,
						"contract": "contracts/NodeReward.sol:CheckerReward",
						"label": "withdrawAmounts",
						"offset": 0,
						"slot": "9",
						"type": "t_mapping(t_uint256,t_uint256)"
					},
					{
						"astId": 778,
						"contract": "contracts/NodeReward.sol:CheckerReward",
						"label": "delegations",
						"offset": 0,
						"slot": "10",
						"type": "t_mapping(t_uint256,t_address)"
					}
				],
				"types": {
					"t_address": {
						"encoding": "inplace",
						"label": "address",
						"numberOfBytes": "20"
					},
					"t_bool": {
						"encoding": "inplace",
						"label": "bool",
						"numberOfBytes": "1"
					},
					"t_contract(IERC20)225": {
						"encoding": "inplace",
						"label": "contract IERC20",
						"numberOfBytes": "20"
					},
					"t_contract(IERC721)342": {
						"encoding": "inplace",
						"label": "contract IERC721",
						"numberOfBytes": "20"
					},
					"t_mapping(t_address,t_bool)": {
						"encoding": "mapping",
						"key": "t_address",
						"label": "mapping(address => bool)",
						"numberOfBytes": "32",
						"value": "t_bool"
					},
					"t_mapping(t_uint256,t_address)": {
						"encoding": "mapping",
						"key": "t_uint256",
						"label": "mapping(uint256 => address)",
						"numberOfBytes": "32",
						"value": "t_address"
					},
					"t_mapping(t_uint256,t_uint256)": {
						"encoding": "mapping",
						"key": "t_uint256",
						"label": "mapping(uint256 => uint256)",
						"numberOfBytes": "32",
						"value": "t_uint256"
					},
					"t_uint256": {
						"encoding": "inplace",
						"label": "uint256",
						"numberOfBytes": "32"
					}
				}
			},
			"userdoc": {
				"kind": "user",
				"methods": {},
				"version": 1
			}
		}
	}
}