{
	"contracts/NodeReward.sol": {
		"CheckerReward": {
			"abi": [
				{
					"inputs": [
						{
							"internalType": "address",
							"name": "initialOwner",
							"type": "address"
						},
						{
							"internalType": "address",
							"name": "checkerLicenseAddress",
							"type": "address"
						},
						{
							"internalType": "address",
							"name": "cKIP_token",
							"type": "address"
						},
						{
							"internalType": "address",
							"name": "fundAddress",
							"type": "address"
						}
					],
					"stateMutability": "nonpayable",
					"type": "constructor"
				},
				{
					"inputs": [],
					"name": "ECDSAInvalidSignature",
					"type": "error"
				},
				{
					"inputs": [
						{
							"internalType": "uint256",
							"name": "length",
							"type": "uint256"
						}
					],
					"name": "ECDSAInvalidSignatureLength",
					"type": "error"
				},
				{
					"inputs": [
						{
							"internalType": "bytes32",
							"name": "s",
							"type": "bytes32"
						}
					],
					"name": "ECDSAInvalidSignatureS",
					"type": "error"
				},
				{
					"inputs": [
						{
							"internalType": "address",
							"name": "owner",
							"type": "address"
						}
					],
					"name": "OwnableInvalidOwner",
					"type": "error"
				},
				{
					"inputs": [
						{
							"internalType": "address",
							"name": "account",
							"type": "address"
						}
					],
					"name": "OwnableUnauthorizedAccount",
					"type": "error"
				},
				{
					"anonymous": false,
					"inputs": [
						{
							"indexed": true,
							"internalType": "address",
							"name": "sender",
							"type": "address"
						},
						{
							"indexed": false,
							"internalType": "uint256",
							"name": "token_id",
							"type": "uint256"
						},
						{
							"indexed": false,
							"internalType": "uint256",
							"name": "amount",
							"type": "uint256"
						},
						{
							"indexed": true,
							"internalType": "address",
							"name": "paymaster",
							"type": "address"
						},
						{
							"indexed": false,
							"internalType": "bytes32",
							"name": "reference_id",
							"type": "bytes32"
						}
					],
					"name": "Claimed",
					"type": "event"
				},
				{
					"anonymous": false,
					"inputs": [
						{
							"indexed": true,
							"internalType": "address",
							"name": "previousOwner",
							"type": "address"
						},
						{
							"indexed": true,
							"internalType": "address",
							"name": "newOwner",
							"type": "address"
						}
					],
					"name": "OwnershipTransferred",
					"type": "event"
				},
				{
					"anonymous": false,
					"inputs": [
						{
							"indexed": true,
							"internalType": "address",
							"name": "sender",
							"type": "address"
						},
						{
							"indexed": true,
							"internalType": "address",
							"name": "paymaster",
							"type": "address"
						},
						{
							"indexed": false,
							"internalType": "bool",
							"name": "enabled",
							"type": "bool"
						}
					],
					"name": "PaymasterChanged",
					"type": "event"
				},
				{
					"anonymous": false,
					"inputs": [
						{
							"indexed": true,
							"internalType": "address",
							"name": "paymaster",
							"type": "address"
						},
						{
							"indexed": false,
							"internalType": "uint256",
							"name": "token_id",
							"type": "uint256"
						},
						{
							"indexed": false,
							"internalType": "uint256",
							"name": "amount",
							"type": "uint256"
						},
						{
							"indexed": false,
							"internalType": "bytes32",
							"name": "reference_id",
							"type": "bytes32"
						}
					],
					"name": "Penalty",
					"type": "event"
				},
				{
					"anonymous": false,
					"inputs": [
						{
							"indexed": true,
							"internalType": "address",
							"name": "sender",
							"type": "address"
						},
						{
							"indexed": false,
							"internalType": "uint256",
							"name": "token_id",
							"type": "uint256"
						},
						{
							"indexed": false,
							"internalType": "uint256",
							"name": "amount",
							"type": "uint256"
						}
					],
					"name": "Withdraw",
					"type": "event"
				},
				{
					"inputs": [],
					"name": "cKIP",
					"outputs": [
						{
							"internalType": "contract IERC20",
							"name": "",
							"type": "address"
						}
					],
					"stateMutability": "view",
					"type": "function"
				},
				{
					"inputs": [
						{
							"internalType": "uint256",
							"name": "token_id",
							"type": "uint256"
						},
						{
							"internalType": "uint256",
							"name": "amount",
							"type": "uint256"
						},
						{
							"internalType": "address",
							"name": "_paymaster",
							"type": "address"
						},
						{
							"internalType": "bytes32",
							"name": "reference_id",
							"type": "bytes32"
						},
						{
							"internalType": "bytes",
							"name": "signature",
							"type": "bytes"
						}
					],
					"name": "claim",
					"outputs": [],
					"stateMutability": "nonpayable",
					"type": "function"
				},
				{
					"inputs": [
						{
							"internalType": "uint256",
							"name": "",
							"type": "uint256"
						}
					],
					"name": "claimedAmounts",
					"outputs": [
						{
							"internalType": "uint256",
							"name": "",
							"type": "uint256"
						}
					],
					"stateMutability": "view",
					"type": "function"
				},
				{
					"inputs": [],
					"name": "fund_address",
					"outputs": [
						{
							"internalType": "address",
							"name": "",
							"type": "address"
						}
					],
					"stateMutability": "view",
					"type": "function"
				},
				{
					"inputs": [],
					"name": "license_nft",
					"outputs": [
						{
							"internalType": "contract IERC721",
							"name": "",
							"type": "address"
						}
					],
					"stateMutability": "view",
					"type": "function"
				},
				{
					"inputs": [],
					"name": "owner",
					"outputs": [
						{
							"internalType": "address",
							"name": "",
							"type": "address"
						}
					],
					"stateMutability": "view",
					"type": "function"
				},
				{
					"inputs": [
						{
							"internalType": "uint256",
							"name": "token_id",
							"type": "uint256"
						},
						{
							"internalType": "uint256",
							"name": "amount",
							"type": "uint256"
						},
						{
							"internalType": "bytes32",
							"name": "reference_id",
							"type": "bytes32"
						}
					],
					"name": "penalty",
					"outputs": [],
					"stateMutability": "nonpayable",
					"type": "function"
				},
				{
					"inputs": [],
					"name": "renounceOwnership",
					"outputs": [],
					"stateMutability": "nonpayable",
					"type": "function"
				},
				{
					"inputs": [
						{
							"internalType": "address",
							"name": "_address",
							"type": "address"
						}
					],
					"name": "setFundAddress",
					"outputs": [],
					"stateMutability": "nonpayable",
					"type": "function"
				},
				{
					"inputs": [
						{
							"internalType": "address",
							"name": "_address",
							"type": "address"
						},
						{
							"internalType": "bool",
							"name": "enabled",
							"type": "bool"
						}
					],
					"name": "setPaymaster",
					"outputs": [],
					"stateMutability": "nonpayable",
					"type": "function"
				},
				{
					"inputs": [
						{
							"internalType": "address",
							"name": "newOwner",
							"type": "address"
						}
					],
					"name": "transferOwnership",
					"outputs": [],
					"stateMutability": "nonpayable",
					"type": "function"
				},
				{
					"inputs": [
						{
							"internalType": "uint256",
							"name": "token_id",
							"type": "uint256"
						},
						{
							"internalType": "uint256",
							"name": "amount",
							"type": "uint256"
						}
					],
					"name": "withdraw",
					"outputs": [],
					"stateMutability": "nonpayable",
					"type": "function"
				},
				{
					"inputs": [
						{
							"internalType": "uint256",
							"name": "",
							"type": "uint256"
						}
					],
					"name": "withdrawAmounts",
					"outputs": [
						{
							"internalType": "uint256",
							"name": "",
							"type": "uint256"
						}
					],
					"stateMutability": "view",
					"type": "function"
				},
				{
					"inputs": [],
					"name": "withdraw_interval",
					"outputs": [
						{
							"internalType": "uint256",
							"name": "",
							"type": "uint256"
						}
					],
					"stateMutability": "view",
					"type": "function"
				}
			],
			"devdoc": {
				"errors": {
					"ECDSAInvalidSignature()": [
						{
							"details": "The signature derives the `address(0)`."
						}
					],
					"ECDSAInvalidSignatureLength(uint256)": [
						{
							"details": "The signature has an invalid length."
						}
					],
					"ECDSAInvalidSignatureS(bytes32)": [
						{
							"details": "The signature has an S value that is in the upper half order."
						}
					],
					"OwnableInvalidOwner(address)": [
						{
							"details": "The owner is not a valid owner account. (eg. `address(0)`)"
						}
					],
					"OwnableUnauthorizedAccount(address)": [
						{
							"details": "The caller account is not authorized to perform an operation."
						}
					]
				},
				"kind": "dev",
				"methods": {
					"owner()": {
						"details": "Returns the address of the current owner."
					},
					"renounceOwnership()": {
						"details": "Leaves the contract without owner. It will not be possible to call `onlyOwner` functions. Can only be called by the current owner. NOTE: Renouncing ownership will leave the contract without an owner, thereby disabling any functionality that is only available to the owner."
					},
					"transferOwnership(address)": {
						"details": "Transfers ownership of the contract to a new account (`newOwner`). Can only be called by the current owner."
					}
				},
				"version": 1
			},
			"evm": {
				"assembly": "    /* \"contracts/NodeReward.sol\":298:3560  contract CheckerReward is Ownable {... */\n  mstore(0x40, 0x80)\n    /* \"contracts/NodeReward.sol\":500:507  2592000 */\n  0x278d00\n    /* \"contracts/NodeReward.sol\":465:507  uint256 public withdraw_interval = 2592000 */\n  0x04\n  sstore\n    /* \"contracts/NodeReward.sol\":1212:1476  constructor(address initialOwner, address checkerLicenseAddress, address cKIP_token, address fundAddress) Ownable(initialOwner) {... */\n  callvalue\n  dup1\n  iszero\n  tag_1\n  jumpi\n  0x00\n  dup1\n  revert\ntag_1:\n  pop\n  mload(0x40)\n  sub(codesize, bytecodeSize)\n  dup1\n  bytecodeSize\n  dup4\n  codecopy\n  dup2\n  dup2\n  add\n  0x40\n  mstore\n  dup2\n  add\n  swap1\n  tag_2\n  swap2\n  swap1\n  tag_3\n  jump\t// in\ntag_2:\n    /* \"contracts/NodeReward.sol\":1326:1338  initialOwner */\n  dup4\n    /* \"@openzeppelin/contracts/access/Ownable.sol\":1297:1298  0 */\n  0x00\n    /* \"@openzeppelin/contracts/access/Ownable.sol\":1273:1299  initialOwner == address(0) */\n  0xffffffffffffffffffffffffffffffffffffffff\n  and\n    /* \"@openzeppelin/contracts/access/Ownable.sol\":1273:1285  initialOwner */\n  dup2\n    /* \"@openzeppelin/contracts/access/Ownable.sol\":1273:1299  initialOwner == address(0) */\n  0xffffffffffffffffffffffffffffffffffffffff\n  and\n  sub\n    /* \"@openzeppelin/contracts/access/Ownable.sol\":1269:1364  if (initialOwner == address(0)) {... */\n  tag_7\n  jumpi\n    /* \"@openzeppelin/contracts/access/Ownable.sol\":1350:1351  0 */\n  0x00\n    /* \"@openzeppelin/contracts/access/Ownable.sol\":1322:1353  OwnableInvalidOwner(address(0)) */\n  mload(0x40)\n  0x1e4fbdf700000000000000000000000000000000000000000000000000000000\n  dup2\n  mstore\n  0x04\n  add\n  tag_8\n  swap2\n  swap1\n  tag_9\n  jump\t// in\ntag_8:\n  mload(0x40)\n  dup1\n  swap2\n  sub\n  swap1\n  revert\n    /* \"@openzeppelin/contracts/access/Ownable.sol\":1269:1364  if (initialOwner == address(0)) {... */\ntag_7:\n    /* \"@openzeppelin/contracts/access/Ownable.sol\":1373:1405  _transferOwnership(initialOwner) */\n  tag_10\n    /* \"@openzeppelin/contracts/access/Ownable.sol\":1392:1404  initialOwner */\n  dup2\n    /* \"@openzeppelin/contracts/access/Ownable.sol\":1373:1391  _transferOwnership */\n  shl(0x20, tag_11)\n    /* \"@openzeppelin/contracts/access/Ownable.sol\":1373:1405  _transferOwnership(initialOwner) */\n  0x20\n  shr\n  jump\t// in\ntag_10:\n    /* \"@openzeppelin/contracts/access/Ownable.sol\":1225:1412  constructor(address initialOwner) {... */\n  pop\n    /* \"contracts/NodeReward.sol\":1373:1394  checkerLicenseAddress */\n  dup3\n    /* \"contracts/NodeReward.sol\":1351:1362  license_nft */\n  0x01\n  0x00\n    /* \"contracts/NodeReward.sol\":1351:1395  license_nft = IERC721(checkerLicenseAddress) */\n  0x0100\n  exp\n  dup2\n  sload\n  dup2\n  0xffffffffffffffffffffffffffffffffffffffff\n  mul\n  not\n  and\n  swap1\n  dup4\n  0xffffffffffffffffffffffffffffffffffffffff\n  and\n  mul\n  or\n  swap1\n  sstore\n  pop\n    /* \"contracts/NodeReward.sol\":1420:1430  cKIP_token */\n  dup2\n    /* \"contracts/NodeReward.sol\":1406:1410  cKIP */\n  0x02\n  0x00\n    /* \"contracts/NodeReward.sol\":1406:1431  cKIP = IERC20(cKIP_token) */\n  0x0100\n  exp\n  dup2\n  sload\n  dup2\n  0xffffffffffffffffffffffffffffffffffffffff\n  mul\n  not\n  and\n  swap1\n  dup4\n  0xffffffffffffffffffffffffffffffffffffffff\n  and\n  mul\n  or\n  swap1\n  sstore\n  pop\n    /* \"contracts/NodeReward.sol\":1457:1468  fundAddress */\n  dup1\n    /* \"contracts/NodeReward.sol\":1442:1454  fund_address */\n  0x03\n  0x00\n    /* \"contracts/NodeReward.sol\":1442:1468  fund_address = fundAddress */\n  0x0100\n  exp\n  dup2\n  sload\n  dup2\n  0xffffffffffffffffffffffffffffffffffffffff\n  mul\n  not\n  and\n  swap1\n  dup4\n  0xffffffffffffffffffffffffffffffffffffffff\n  and\n  mul\n  or\n  swap1\n  sstore\n  pop\n    /* \"contracts/NodeReward.sol\":1212:1476  constructor(address initialOwner, address checkerLicenseAddress, address cKIP_token, address fundAddress) Ownable(initialOwner) {... */\n  pop\n  pop\n  pop\n  pop\n    /* \"contracts/NodeReward.sol\":298:3560  contract CheckerReward is Ownable {... */\n  jump(tag_13)\n    /* \"@openzeppelin/contracts/access/Ownable.sol\":2912:3099  function _transferOwnership(address newOwner) internal virtual {... */\ntag_11:\n    /* \"@openzeppelin/contracts/access/Ownable.sol\":2985:3001  address oldOwner */\n  0x00\n    /* \"@openzeppelin/contracts/access/Ownable.sol\":3004:3010  _owner */\n  dup1\n  0x00\n  swap1\n  sload\n  swap1\n  0x0100\n  exp\n  swap1\n  div\n  0xffffffffffffffffffffffffffffffffffffffff\n  and\n    /* \"@openzeppelin/contracts/access/Ownable.sol\":2985:3010  address oldOwner = _owner */\n  swap1\n  pop\n    /* \"@openzeppelin/contracts/access/Ownable.sol\":3029:3037  newOwner */\n  dup2\n    /* \"@openzeppelin/contracts/access/Ownable.sol\":3020:3026  _owner */\n  0x00\n  dup1\n    /* \"@openzeppelin/contracts/access/Ownable.sol\":3020:3037  _owner = newOwner */\n  0x0100\n  exp\n  dup2\n  sload\n  dup2\n  0xffffffffffffffffffffffffffffffffffffffff\n  mul\n  not\n  and\n  swap1\n  dup4\n  0xffffffffffffffffffffffffffffffffffffffff\n  and\n  mul\n  or\n  swap1\n  sstore\n  pop\n    /* \"@openzeppelin/contracts/access/Ownable.sol\":3083:3091  newOwner */\n  dup2\n    /* \"@openzeppelin/contracts/access/Ownable.sol\":3052:3092  OwnershipTransferred(oldOwner, newOwner) */\n  0xffffffffffffffffffffffffffffffffffffffff\n  and\n    /* \"@openzeppelin/contracts/access/Ownable.sol\":3073:3081  oldOwner */\n  dup2\n    /* \"@openzeppelin/contracts/access/Ownable.sol\":3052:3092  OwnershipTransferred(oldOwner, newOwner) */\n  0xffffffffffffffffffffffffffffffffffffffff\n  and\n  0x8be0079c531659141344cd1fd0a4f28419497f9722a3daafe3b4186f6b6457e0\n  mload(0x40)\n  mload(0x40)\n  dup1\n  swap2\n  sub\n  swap1\n  log3\n    /* \"@openzeppelin/contracts/access/Ownable.sol\":2975:3099  {... */\n  pop\n    /* \"@openzeppelin/contracts/access/Ownable.sol\":2912:3099  function _transferOwnership(address newOwner) internal virtual {... */\n  pop\n  jump\t// out\n    /* \"#utility.yul\":88:205   */\ntag_16:\n    /* \"#utility.yul\":197:198   */\n  0x00\n    /* \"#utility.yul\":194:195   */\n  dup1\n    /* \"#utility.yul\":187:199   */\n  revert\n    /* \"#utility.yul\":334:460   */\ntag_18:\n    /* \"#utility.yul\":371:378   */\n  0x00\n    /* \"#utility.yul\":411:453   */\n  0xffffffffffffffffffffffffffffffffffffffff\n    /* \"#utility.yul\":404:409   */\n  dup3\n    /* \"#utility.yul\":400:454   */\n  and\n    /* \"#utility.yul\":389:454   */\n  swap1\n  pop\n    /* \"#utility.yul\":334:460   */\n  swap2\n  swap1\n  pop\n  jump\t// out\n    /* \"#utility.yul\":466:562   */\ntag_19:\n    /* \"#utility.yul\":503:510   */\n  0x00\n    /* \"#utility.yul\":532:556   */\n  tag_29\n    /* \"#utility.yul\":550:555   */\n  dup3\n    /* \"#utility.yul\":532:556   */\n  tag_18\n  jump\t// in\ntag_29:\n    /* \"#utility.yul\":521:556   */\n  swap1\n  pop\n    /* \"#utility.yul\":466:562   */\n  swap2\n  swap1\n  pop\n  jump\t// out\n    /* \"#utility.yul\":568:690   */\ntag_20:\n    /* \"#utility.yul\":641:665   */\n  tag_31\n    /* \"#utility.yul\":659:664   */\n  dup2\n    /* \"#utility.yul\":641:665   */\n  tag_19\n  jump\t// in\ntag_31:\n    /* \"#utility.yul\":634:639   */\n  dup2\n    /* \"#utility.yul\":631:666   */\n  eq\n    /* \"#utility.yul\":621:684   */\n  tag_32\n  jumpi\n    /* \"#utility.yul\":680:681   */\n  0x00\n    /* \"#utility.yul\":677:678   */\n  dup1\n    /* \"#utility.yul\":670:682   */\n  revert\n    /* \"#utility.yul\":621:684   */\ntag_32:\n    /* \"#utility.yul\":568:690   */\n  pop\n  jump\t// out\n    /* \"#utility.yul\":696:839   */\ntag_21:\n    /* \"#utility.yul\":753:758   */\n  0x00\n    /* \"#utility.yul\":784:790   */\n  dup2\n    /* \"#utility.yul\":778:791   */\n  mload\n    /* \"#utility.yul\":769:791   */\n  swap1\n  pop\n    /* \"#utility.yul\":800:833   */\n  tag_34\n    /* \"#utility.yul\":827:832   */\n  dup2\n    /* \"#utility.yul\":800:833   */\n  tag_20\n  jump\t// in\ntag_34:\n    /* \"#utility.yul\":696:839   */\n  swap3\n  swap2\n  pop\n  pop\n  jump\t// out\n    /* \"#utility.yul\":845:1665   */\ntag_3:\n    /* \"#utility.yul\":942:948   */\n  0x00\n    /* \"#utility.yul\":950:956   */\n  dup1\n    /* \"#utility.yul\":958:964   */\n  0x00\n    /* \"#utility.yul\":966:972   */\n  dup1\n    /* \"#utility.yul\":1015:1018   */\n  0x80\n    /* \"#utility.yul\":1003:1012   */\n  dup6\n    /* \"#utility.yul\":994:1001   */\n  dup8\n    /* \"#utility.yul\":990:1013   */\n  sub\n    /* \"#utility.yul\":986:1019   */\n  slt\n    /* \"#utility.yul\":983:1103   */\n  iszero\n  tag_36\n  jumpi\n    /* \"#utility.yul\":1022:1101   */\n  tag_37\n  tag_16\n  jump\t// in\ntag_37:\n    /* \"#utility.yul\":983:1103   */\ntag_36:\n    /* \"#utility.yul\":1142:1143   */\n  0x00\n    /* \"#utility.yul\":1167:1231   */\n  tag_38\n    /* \"#utility.yul\":1223:1230   */\n  dup8\n    /* \"#utility.yul\":1214:1220   */\n  dup3\n    /* \"#utility.yul\":1203:1212   */\n  dup9\n    /* \"#utility.yul\":1199:1221   */\n  add\n    /* \"#utility.yul\":1167:1231   */\n  tag_21\n  jump\t// in\ntag_38:\n    /* \"#utility.yul\":1157:1231   */\n  swap5\n  pop\n    /* \"#utility.yul\":1113:1241   */\n  pop\n    /* \"#utility.yul\":1280:1282   */\n  0x20\n    /* \"#utility.yul\":1306:1370   */\n  tag_39\n    /* \"#utility.yul\":1362:1369   */\n  dup8\n    /* \"#utility.yul\":1353:1359   */\n  dup3\n    /* \"#utility.yul\":1342:1351   */\n  dup9\n    /* \"#utility.yul\":1338:1360   */\n  add\n    /* \"#utility.yul\":1306:1370   */\n  tag_21\n  jump\t// in\ntag_39:\n    /* \"#utility.yul\":1296:1370   */\n  swap4\n  pop\n    /* \"#utility.yul\":1251:1380   */\n  pop\n    /* \"#utility.yul\":1419:1421   */\n  0x40\n    /* \"#utility.yul\":1445:1509   */\n  tag_40\n    /* \"#utility.yul\":1501:1508   */\n  dup8\n    /* \"#utility.yul\":1492:1498   */\n  dup3\n    /* \"#utility.yul\":1481:1490   */\n  dup9\n    /* \"#utility.yul\":1477:1499   */\n  add\n    /* \"#utility.yul\":1445:1509   */\n  tag_21\n  jump\t// in\ntag_40:\n    /* \"#utility.yul\":1435:1509   */\n  swap3\n  pop\n    /* \"#utility.yul\":1390:1519   */\n  pop\n    /* \"#utility.yul\":1558:1560   */\n  0x60\n    /* \"#utility.yul\":1584:1648   */\n  tag_41\n    /* \"#utility.yul\":1640:1647   */\n  dup8\n    /* \"#utility.yul\":1631:1637   */\n  dup3\n    /* \"#utility.yul\":1620:1629   */\n  dup9\n    /* \"#utility.yul\":1616:1638   */\n  add\n    /* \"#utility.yul\":1584:1648   */\n  tag_21\n  jump\t// in\ntag_41:\n    /* \"#utility.yul\":1574:1648   */\n  swap2\n  pop\n    /* \"#utility.yul\":1529:1658   */\n  pop\n    /* \"#utility.yul\":845:1665   */\n  swap3\n  swap6\n  swap2\n  swap5\n  pop\n  swap3\n  pop\n  jump\t// out\n    /* \"#utility.yul\":1671:1789   */\ntag_22:\n    /* \"#utility.yul\":1758:1782   */\n  tag_43\n    /* \"#utility.yul\":1776:1781   */\n  dup2\n    /* \"#utility.yul\":1758:1782   */\n  tag_19\n  jump\t// in\ntag_43:\n    /* \"#utility.yul\":1753:1756   */\n  dup3\n    /* \"#utility.yul\":1746:1783   */\n  mstore\n    /* \"#utility.yul\":1671:1789   */\n  pop\n  pop\n  jump\t// out\n    /* \"#utility.yul\":1795:2017   */\ntag_9:\n    /* \"#utility.yul\":1888:1892   */\n  0x00\n    /* \"#utility.yul\":1926:1928   */\n  0x20\n    /* \"#utility.yul\":1915:1924   */\n  dup3\n    /* \"#utility.yul\":1911:1929   */\n  add\n    /* \"#utility.yul\":1903:1929   */\n  swap1\n  pop\n    /* \"#utility.yul\":1939:2010   */\n  tag_45\n    /* \"#utility.yul\":2007:2008   */\n  0x00\n    /* \"#utility.yul\":1996:2005   */\n  dup4\n    /* \"#utility.yul\":1992:2009   */\n  add\n    /* \"#utility.yul\":1983:1989   */\n  dup5\n    /* \"#utility.yul\":1939:2010   */\n  tag_22\n  jump\t// in\ntag_45:\n    /* \"#utility.yul\":1795:2017   */\n  swap3\n  swap2\n  pop\n  pop\n  jump\t// out\n    /* \"contracts/NodeReward.sol\":298:3560  contract CheckerReward is Ownable {... */\ntag_13:\n  dataSize(sub_0)\n  dup1\n  dataOffset(sub_0)\n  0x00\n  codecopy\n  0x00\n  return\nstop\n\nsub_0: assembly {\n        /* \"contracts/NodeReward.sol\":298:3560  contract CheckerReward is Ownable {... */\n      mstore(0x40, 0x80)\n      callvalue\n      dup1\n      iszero\n      tag_1\n      jumpi\n      0x00\n      dup1\n      revert\n    tag_1:\n      pop\n      jumpi(tag_2, lt(calldatasize, 0x04))\n      shr(0xe0, calldataload(0x00))\n      dup1\n      0x7ea3253b\n      gt\n      tag_17\n      jumpi\n      dup1\n      0x9f666d84\n      gt\n      tag_18\n      jumpi\n      dup1\n      0x9f666d84\n      eq\n      tag_13\n      jumpi\n      dup1\n      0xe767c798\n      eq\n      tag_14\n      jumpi\n      dup1\n      0xf2fde38b\n      eq\n      tag_15\n      jumpi\n      dup1\n      0xf9e58b28\n      eq\n      tag_16\n      jumpi\n      jump(tag_2)\n    tag_18:\n      dup1\n      0x7ea3253b\n      eq\n      tag_10\n      jumpi\n      dup1\n      0x85dc3004\n      eq\n      tag_11\n      jumpi\n      dup1\n      0x8da5cb5b\n      eq\n      tag_12\n      jumpi\n      jump(tag_2)\n    tag_17:\n      dup1\n      0x1c0552e8\n      gt\n      tag_19\n      jumpi\n      dup1\n      0x1c0552e8\n      eq\n      tag_6\n      jumpi\n      dup1\n      0x441a3e70\n      eq\n      tag_7\n      jumpi\n      dup1\n      0x56f738cf\n      eq\n      tag_8\n      jumpi\n      dup1\n      0x715018a6\n      eq\n      tag_9\n      jumpi\n      jump(tag_2)\n    tag_19:\n      dup1\n      0x0f20b94c\n      eq\n      tag_3\n      jumpi\n      dup1\n      0x1573f688\n      eq\n      tag_4\n      jumpi\n      dup1\n      0x18afe170\n      eq\n      tag_5\n      jumpi\n    tag_2:\n      0x00\n      dup1\n      revert\n        /* \"contracts/NodeReward.sol\":742:792  mapping(uint256 => uint256) public withdrawAmounts */\n    tag_3:\n      tag_20\n      0x04\n      dup1\n      calldatasize\n      sub\n      dup2\n      add\n      swap1\n      tag_21\n      swap2\n      swap1\n      tag_22\n      jump\t// in\n    tag_21:\n      tag_23\n      jump\t// in\n    tag_20:\n      mload(0x40)\n      tag_24\n      swap2\n      swap1\n      tag_25\n      jump\t// in\n    tag_24:\n      mload(0x40)\n      dup1\n      swap2\n      sub\n      swap1\n      return\n        /* \"contracts/NodeReward.sol\":1484:1670  function setPaymaster(address _address, bool enabled) external onlyOwner {... */\n    tag_4:\n      tag_26\n      0x04\n      dup1\n      calldatasize\n      sub\n      dup2\n      add\n      swap1\n      tag_27\n      swap2\n      swap1\n      tag_28\n      jump\t// in\n    tag_27:\n      tag_29\n      jump\t// in\n    tag_26:\n      stop\n        /* \"contracts/NodeReward.sol\":429:456  address public fund_address */\n    tag_5:\n      tag_30\n      tag_31\n      jump\t// in\n    tag_30:\n      mload(0x40)\n      tag_32\n      swap2\n      swap1\n      tag_33\n      jump\t// in\n    tag_32:\n      mload(0x40)\n      dup1\n      swap2\n      sub\n      swap1\n      return\n        /* \"contracts/NodeReward.sol\":3244:3557  function penalty(uint256 token_id, uint256 amount, bytes32 reference_id) external {... */\n    tag_6:\n      tag_34\n      0x04\n      dup1\n      calldatasize\n      sub\n      dup2\n      add\n      swap1\n      tag_35\n      swap2\n      swap1\n      tag_36\n      jump\t// in\n    tag_35:\n      tag_37\n      jump\t// in\n    tag_34:\n      stop\n        /* \"contracts/NodeReward.sol\":2533:3236  function withdraw(uint256 token_id, uint256 amount) external {... */\n    tag_7:\n      tag_38\n      0x04\n      dup1\n      calldatasize\n      sub\n      dup2\n      add\n      swap1\n      tag_39\n      swap2\n      swap1\n      tag_40\n      jump\t// in\n    tag_39:\n      tag_41\n      jump\t// in\n    tag_38:\n      stop\n        /* \"contracts/NodeReward.sol\":404:422  IERC20 public cKIP */\n    tag_8:\n      tag_42\n      tag_43\n      jump\t// in\n    tag_42:\n      mload(0x40)\n      tag_44\n      swap2\n      swap1\n      tag_45\n      jump\t// in\n    tag_44:\n      mload(0x40)\n      dup1\n      swap2\n      sub\n      swap1\n      return\n        /* \"@openzeppelin/contracts/access/Ownable.sol\":2293:2394  function renounceOwnership() public virtual onlyOwner {... */\n    tag_9:\n      tag_46\n      tag_47\n      jump\t// in\n    tag_46:\n      stop\n        /* \"contracts/NodeReward.sol\":1789:2525  function claim(uint256 token_id, uint256 amount, address _paymaster, bytes32 reference_id, bytes memory signature) external {... */\n    tag_10:\n      tag_48\n      0x04\n      dup1\n      calldatasize\n      sub\n      dup2\n      add\n      swap1\n      tag_49\n      swap2\n      swap1\n      tag_50\n      jump\t// in\n    tag_49:\n      tag_51\n      jump\t// in\n    tag_48:\n      stop\n        /* \"contracts/NodeReward.sol\":1678:1781  function setFundAddress(address _address) external onlyOwner {... */\n    tag_11:\n      tag_52\n      0x04\n      dup1\n      calldatasize\n      sub\n      dup2\n      add\n      swap1\n      tag_53\n      swap2\n      swap1\n      tag_54\n      jump\t// in\n    tag_53:\n      tag_55\n      jump\t// in\n    tag_52:\n      stop\n        /* \"@openzeppelin/contracts/access/Ownable.sol\":1638:1723  function owner() public view virtual returns (address) {... */\n    tag_12:\n      tag_56\n      tag_57\n      jump\t// in\n    tag_56:\n      mload(0x40)\n      tag_58\n      swap2\n      swap1\n      tag_33\n      jump\t// in\n    tag_58:\n      mload(0x40)\n      dup1\n      swap2\n      sub\n      swap1\n      return\n        /* \"contracts/NodeReward.sol\":686:735  mapping(uint256 => uint256) public claimedAmounts */\n    tag_13:\n      tag_59\n      0x04\n      dup1\n      calldatasize\n      sub\n      dup2\n      add\n      swap1\n      tag_60\n      swap2\n      swap1\n      tag_22\n      jump\t// in\n    tag_60:\n      tag_61\n      jump\t// in\n    tag_59:\n      mload(0x40)\n      tag_62\n      swap2\n      swap1\n      tag_25\n      jump\t// in\n    tag_62:\n      mload(0x40)\n      dup1\n      swap2\n      sub\n      swap1\n      return\n        /* \"contracts/NodeReward.sol\":465:507  uint256 public withdraw_interval = 2592000 */\n    tag_14:\n      tag_63\n      tag_64\n      jump\t// in\n    tag_63:\n      mload(0x40)\n      tag_65\n      swap2\n      swap1\n      tag_25\n      jump\t// in\n    tag_65:\n      mload(0x40)\n      dup1\n      swap2\n      sub\n      swap1\n      return\n        /* \"@openzeppelin/contracts/access/Ownable.sol\":2543:2758  function transferOwnership(address newOwner) public virtual onlyOwner {... */\n    tag_15:\n      tag_66\n      0x04\n      dup1\n      calldatasize\n      sub\n      dup2\n      add\n      swap1\n      tag_67\n      swap2\n      swap1\n      tag_54\n      jump\t// in\n    tag_67:\n      tag_68\n      jump\t// in\n    tag_66:\n      stop\n        /* \"contracts/NodeReward.sol\":371:397  IERC721 public license_nft */\n    tag_16:\n      tag_69\n      tag_70\n      jump\t// in\n    tag_69:\n      mload(0x40)\n      tag_71\n      swap2\n      swap1\n      tag_72\n      jump\t// in\n    tag_71:\n      mload(0x40)\n      dup1\n      swap2\n      sub\n      swap1\n      return\n        /* \"contracts/NodeReward.sol\":742:792  mapping(uint256 => uint256) public withdrawAmounts */\n    tag_23:\n      mstore(0x20, 0x09)\n      dup1\n      0x00\n      mstore\n      keccak256(0x00, 0x40)\n      0x00\n      swap2\n      pop\n      swap1\n      pop\n      sload\n      dup2\n      jump\t// out\n        /* \"contracts/NodeReward.sol\":1484:1670  function setPaymaster(address _address, bool enabled) external onlyOwner {... */\n    tag_29:\n        /* \"@openzeppelin/contracts/access/Ownable.sol\":1531:1544  _checkOwner() */\n      tag_74\n        /* \"@openzeppelin/contracts/access/Ownable.sol\":1531:1542  _checkOwner */\n      tag_75\n        /* \"@openzeppelin/contracts/access/Ownable.sol\":1531:1544  _checkOwner() */\n      jump\t// in\n    tag_74:\n        /* \"contracts/NodeReward.sol\":1590:1597  enabled */\n      dup1\n        /* \"contracts/NodeReward.sol\":1568:1577  paymaster */\n      0x05\n        /* \"contracts/NodeReward.sol\":1568:1587  paymaster[_address] */\n      0x00\n        /* \"contracts/NodeReward.sol\":1578:1586  _address */\n      dup5\n        /* \"contracts/NodeReward.sol\":1568:1587  paymaster[_address] */\n      0xffffffffffffffffffffffffffffffffffffffff\n      and\n      0xffffffffffffffffffffffffffffffffffffffff\n      and\n      dup2\n      mstore\n      0x20\n      add\n      swap1\n      dup2\n      mstore\n      0x20\n      add\n      0x00\n      keccak256\n      0x00\n        /* \"contracts/NodeReward.sol\":1568:1597  paymaster[_address] = enabled */\n      0x0100\n      exp\n      dup2\n      sload\n      dup2\n      0xff\n      mul\n      not\n      and\n      swap1\n      dup4\n      iszero\n      iszero\n      mul\n      or\n      swap1\n      sstore\n      pop\n        /* \"contracts/NodeReward.sol\":1644:1652  _address */\n      dup2\n        /* \"contracts/NodeReward.sol\":1613:1662  PaymasterChanged(_msgSender(), _address, enabled) */\n      0xffffffffffffffffffffffffffffffffffffffff\n      and\n        /* \"contracts/NodeReward.sol\":1630:1642  _msgSender() */\n      tag_77\n        /* \"contracts/NodeReward.sol\":1630:1640  _msgSender */\n      tag_78\n        /* \"contracts/NodeReward.sol\":1630:1642  _msgSender() */\n      jump\t// in\n    tag_77:\n        /* \"contracts/NodeReward.sol\":1613:1662  PaymasterChanged(_msgSender(), _address, enabled) */\n      0xffffffffffffffffffffffffffffffffffffffff\n      and\n      0x6acf3afc37630e6f3e6b7176f7c4f8a3fd260b3f52fbca69f34d6db2d4fbd897\n        /* \"contracts/NodeReward.sol\":1654:1661  enabled */\n      dup4\n        /* \"contracts/NodeReward.sol\":1613:1662  PaymasterChanged(_msgSender(), _address, enabled) */\n      mload(0x40)\n      tag_79\n      swap2\n      swap1\n      tag_80\n      jump\t// in\n    tag_79:\n      mload(0x40)\n      dup1\n      swap2\n      sub\n      swap1\n      log3\n        /* \"contracts/NodeReward.sol\":1484:1670  function setPaymaster(address _address, bool enabled) external onlyOwner {... */\n      pop\n      pop\n      jump\t// out\n        /* \"contracts/NodeReward.sol\":429:456  address public fund_address */\n    tag_31:\n      0x03\n      0x00\n      swap1\n      sload\n      swap1\n      0x0100\n      exp\n      swap1\n      div\n      0xffffffffffffffffffffffffffffffffffffffff\n      and\n      dup2\n      jump\t// out\n        /* \"contracts/NodeReward.sol\":3244:3557  function penalty(uint256 token_id, uint256 amount, bytes32 reference_id) external {... */\n    tag_37:\n        /* \"contracts/NodeReward.sol\":3345:3354  paymaster */\n      0x05\n        /* \"contracts/NodeReward.sol\":3345:3368  paymaster[_msgSender()] */\n      0x00\n        /* \"contracts/NodeReward.sol\":3355:3367  _msgSender() */\n      tag_82\n        /* \"contracts/NodeReward.sol\":3355:3365  _msgSender */\n      tag_78\n        /* \"contracts/NodeReward.sol\":3355:3367  _msgSender() */\n      jump\t// in\n    tag_82:\n        /* \"contracts/NodeReward.sol\":3345:3368  paymaster[_msgSender()] */\n      0xffffffffffffffffffffffffffffffffffffffff\n      and\n      0xffffffffffffffffffffffffffffffffffffffff\n      and\n      dup2\n      mstore\n      0x20\n      add\n      swap1\n      dup2\n      mstore\n      0x20\n      add\n      0x00\n      keccak256\n      0x00\n      swap1\n      sload\n      swap1\n      0x0100\n      exp\n      swap1\n      div\n      0xff\n      and\n        /* \"contracts/NodeReward.sol\":3337:3392  require(paymaster[_msgSender()], \"You are't paymaster\") */\n      tag_83\n      jumpi\n      mload(0x40)\n      0x08c379a000000000000000000000000000000000000000000000000000000000\n      dup2\n      mstore\n      0x04\n      add\n      tag_84\n      swap1\n      tag_85\n      jump\t// in\n    tag_84:\n      mload(0x40)\n      dup1\n      swap2\n      sub\n      swap1\n      revert\n    tag_83:\n        /* \"contracts/NodeReward.sol\":3418:3419  0 */\n      0x00\n        /* \"contracts/NodeReward.sol\":3411:3417  amount */\n      dup3\n        /* \"contracts/NodeReward.sol\":3411:3419  amount>0 */\n      gt\n        /* \"contracts/NodeReward.sol\":3403:3444  require(amount>0, \"Amount can't be zero\") */\n      tag_86\n      jumpi\n      mload(0x40)\n      0x08c379a000000000000000000000000000000000000000000000000000000000\n      dup2\n      mstore\n      0x04\n      add\n      tag_87\n      swap1\n      tag_88\n      jump\t// in\n    tag_87:\n      mload(0x40)\n      dup1\n      swap2\n      sub\n      swap1\n      revert\n    tag_86:\n        /* \"contracts/NodeReward.sol\":3474:3480  amount */\n      dup2\n        /* \"contracts/NodeReward.sol\":3455:3460  fines */\n      0x07\n        /* \"contracts/NodeReward.sol\":3455:3470  fines[token_id] */\n      0x00\n        /* \"contracts/NodeReward.sol\":3461:3469  token_id */\n      dup6\n        /* \"contracts/NodeReward.sol\":3455:3470  fines[token_id] */\n      dup2\n      mstore\n      0x20\n      add\n      swap1\n      dup2\n      mstore\n      0x20\n      add\n      0x00\n      keccak256\n      0x00\n        /* \"contracts/NodeReward.sol\":3455:3480  fines[token_id] += amount */\n      dup3\n      dup3\n      sload\n      tag_89\n      swap2\n      swap1\n      tag_90\n      jump\t// in\n    tag_89:\n      swap3\n      pop\n      pop\n      dup2\n      swap1\n      sstore\n      pop\n        /* \"contracts/NodeReward.sol\":3504:3516  _msgSender() */\n      tag_91\n        /* \"contracts/NodeReward.sol\":3504:3514  _msgSender */\n      tag_78\n        /* \"contracts/NodeReward.sol\":3504:3516  _msgSender() */\n      jump\t// in\n    tag_91:\n        /* \"contracts/NodeReward.sol\":3496:3549  Penalty(_msgSender(), token_id, amount, reference_id) */\n      0xffffffffffffffffffffffffffffffffffffffff\n      and\n      0x798fa367d6ccdf9c7b8053da94322c18e668af50cd7469b5f5a3c0e720f2cb2e\n        /* \"contracts/NodeReward.sol\":3518:3526  token_id */\n      dup5\n        /* \"contracts/NodeReward.sol\":3528:3534  amount */\n      dup5\n        /* \"contracts/NodeReward.sol\":3536:3548  reference_id */\n      dup5\n        /* \"contracts/NodeReward.sol\":3496:3549  Penalty(_msgSender(), token_id, amount, reference_id) */\n      mload(0x40)\n      tag_92\n      swap4\n      swap3\n      swap2\n      swap1\n      tag_93\n      jump\t// in\n    tag_92:\n      mload(0x40)\n      dup1\n      swap2\n      sub\n      swap1\n      log2\n        /* \"contracts/NodeReward.sol\":3244:3557  function penalty(uint256 token_id, uint256 amount, bytes32 reference_id) external {... */\n      pop\n      pop\n      pop\n      jump\t// out\n        /* \"contracts/NodeReward.sol\":2533:3236  function withdraw(uint256 token_id, uint256 amount) external {... */\n    tag_41:\n        /* \"contracts/NodeReward.sol\":2643:2644  0 */\n      0x00\n        /* \"contracts/NodeReward.sol\":2613:2631  last_withdraw_time */\n      0x06\n        /* \"contracts/NodeReward.sol\":2613:2641  last_withdraw_time[token_id] */\n      0x00\n        /* \"contracts/NodeReward.sol\":2632:2640  token_id */\n      dup5\n        /* \"contracts/NodeReward.sol\":2613:2641  last_withdraw_time[token_id] */\n      dup2\n      mstore\n      0x20\n      add\n      swap1\n      dup2\n      mstore\n      0x20\n      add\n      0x00\n      keccak256\n      sload\n        /* \"contracts/NodeReward.sol\":2613:2644  last_withdraw_time[token_id]==0 */\n      eq\n        /* \"contracts/NodeReward.sol\":2613:2710  last_withdraw_time[token_id]==0 && last_withdraw_time[token_id]+withdraw_interval>block.timestamp */\n      dup1\n      iszero\n      tag_95\n      jumpi\n      pop\n        /* \"contracts/NodeReward.sol\":2695:2710  block.timestamp */\n      timestamp\n        /* \"contracts/NodeReward.sol\":2677:2694  withdraw_interval */\n      sload(0x04)\n        /* \"contracts/NodeReward.sol\":2648:2666  last_withdraw_time */\n      0x06\n        /* \"contracts/NodeReward.sol\":2648:2676  last_withdraw_time[token_id] */\n      0x00\n        /* \"contracts/NodeReward.sol\":2667:2675  token_id */\n      dup6\n        /* \"contracts/NodeReward.sol\":2648:2676  last_withdraw_time[token_id] */\n      dup2\n      mstore\n      0x20\n      add\n      swap1\n      dup2\n      mstore\n      0x20\n      add\n      0x00\n      keccak256\n      sload\n        /* \"contracts/NodeReward.sol\":2648:2694  last_withdraw_time[token_id]+withdraw_interval */\n      tag_96\n      swap2\n      swap1\n      tag_90\n      jump\t// in\n    tag_96:\n        /* \"contracts/NodeReward.sol\":2648:2710  last_withdraw_time[token_id]+withdraw_interval>block.timestamp */\n      gt\n        /* \"contracts/NodeReward.sol\":2613:2710  last_withdraw_time[token_id]==0 && last_withdraw_time[token_id]+withdraw_interval>block.timestamp */\n    tag_95:\n        /* \"contracts/NodeReward.sol\":2605:2733  require(last_withdraw_time[token_id]==0 && last_withdraw_time[token_id]+withdraw_interval>block.timestamp, \"Can't withdraw yet\") */\n      tag_97\n      jumpi\n      mload(0x40)\n      0x08c379a000000000000000000000000000000000000000000000000000000000\n      dup2\n      mstore\n      0x04\n      add\n      tag_98\n      swap1\n      tag_99\n      jump\t// in\n    tag_98:\n      mload(0x40)\n      dup1\n      swap2\n      sub\n      swap1\n      revert\n    tag_97:\n        /* \"contracts/NodeReward.sol\":2789:2801  _msgSender() */\n      tag_100\n        /* \"contracts/NodeReward.sol\":2789:2799  _msgSender */\n      tag_78\n        /* \"contracts/NodeReward.sol\":2789:2801  _msgSender() */\n      jump\t// in\n    tag_100:\n        /* \"contracts/NodeReward.sol\":2756:2801  license_nft.ownerOf(token_id) == _msgSender() */\n      0xffffffffffffffffffffffffffffffffffffffff\n      and\n        /* \"contracts/NodeReward.sol\":2756:2767  license_nft */\n      0x01\n      0x00\n      swap1\n      sload\n      swap1\n      0x0100\n      exp\n      swap1\n      div\n      0xffffffffffffffffffffffffffffffffffffffff\n      and\n        /* \"contracts/NodeReward.sol\":2756:2775  license_nft.ownerOf */\n      0xffffffffffffffffffffffffffffffffffffffff\n      and\n      0x6352211e\n        /* \"contracts/NodeReward.sol\":2776:2784  token_id */\n      dup5\n        /* \"contracts/NodeReward.sol\":2756:2785  license_nft.ownerOf(token_id) */\n      mload(0x40)\n      dup3\n      0xffffffff\n      and\n      0xe0\n      shl\n      dup2\n      mstore\n      0x04\n      add\n      tag_101\n      swap2\n      swap1\n      tag_25\n      jump\t// in\n    tag_101:\n      0x20\n      mload(0x40)\n      dup1\n      dup4\n      sub\n      dup2\n      dup7\n      gas\n      staticcall\n      iszero\n      dup1\n      iszero\n      tag_103\n      jumpi\n      returndatasize\n      0x00\n      dup1\n      returndatacopy\n      revert(0x00, returndatasize)\n    tag_103:\n      pop\n      pop\n      pop\n      pop\n      mload(0x40)\n      returndatasize\n      not(0x1f)\n      0x1f\n      dup3\n      add\n      and\n      dup3\n      add\n      dup1\n      0x40\n      mstore\n      pop\n      dup2\n      add\n      swap1\n      tag_104\n      swap2\n      swap1\n      tag_105\n      jump\t// in\n    tag_104:\n        /* \"contracts/NodeReward.sol\":2756:2801  license_nft.ownerOf(token_id) == _msgSender() */\n      0xffffffffffffffffffffffffffffffffffffffff\n      and\n      eq\n        /* \"contracts/NodeReward.sol\":2748:2835  require(license_nft.ownerOf(token_id) == _msgSender(), \"Caller is not the token owner\") */\n      tag_106\n      jumpi\n      mload(0x40)\n      0x08c379a000000000000000000000000000000000000000000000000000000000\n      dup2\n      mstore\n      0x04\n      add\n      tag_107\n      swap1\n      tag_108\n      jump\t// in\n    tag_107:\n      mload(0x40)\n      dup1\n      swap2\n      sub\n      swap1\n      revert\n    tag_106:\n        /* \"contracts/NodeReward.sol\":2861:2862  0 */\n      0x00\n        /* \"contracts/NodeReward.sol\":2854:2860  amount */\n      dup2\n        /* \"contracts/NodeReward.sol\":2854:2862  amount>0 */\n      gt\n        /* \"contracts/NodeReward.sol\":2846:2887  require(amount>0, \"Amount can't be zero\") */\n      tag_109\n      jumpi\n      mload(0x40)\n      0x08c379a000000000000000000000000000000000000000000000000000000000\n      dup2\n      mstore\n      0x04\n      add\n      tag_110\n      swap1\n      tag_88\n      jump\t// in\n    tag_110:\n      mload(0x40)\n      dup1\n      swap2\n      sub\n      swap1\n      revert\n    tag_109:\n        /* \"contracts/NodeReward.sol\":2974:2980  amount */\n      dup1\n        /* \"contracts/NodeReward.sol\":2948:2963  withdrawAmounts */\n      0x09\n        /* \"contracts/NodeReward.sol\":2948:2973  withdrawAmounts[token_id] */\n      0x00\n        /* \"contracts/NodeReward.sol\":2964:2972  token_id */\n      dup5\n        /* \"contracts/NodeReward.sol\":2948:2973  withdrawAmounts[token_id] */\n      dup2\n      mstore\n      0x20\n      add\n      swap1\n      dup2\n      mstore\n      0x20\n      add\n      0x00\n      keccak256\n      sload\n        /* \"contracts/NodeReward.sol\":2948:2980  withdrawAmounts[token_id]+amount */\n      tag_111\n      swap2\n      swap1\n      tag_90\n      jump\t// in\n    tag_111:\n        /* \"contracts/NodeReward.sol\":2931:2936  fines */\n      0x07\n        /* \"contracts/NodeReward.sol\":2931:2946  fines[token_id] */\n      0x00\n        /* \"contracts/NodeReward.sol\":2937:2945  token_id */\n      dup5\n        /* \"contracts/NodeReward.sol\":2931:2946  fines[token_id] */\n      dup2\n      mstore\n      0x20\n      add\n      swap1\n      dup2\n      mstore\n      0x20\n      add\n      0x00\n      keccak256\n      sload\n        /* \"contracts/NodeReward.sol\":2906:2920  claimedAmounts */\n      0x08\n        /* \"contracts/NodeReward.sol\":2906:2930  claimedAmounts[token_id] */\n      0x00\n        /* \"contracts/NodeReward.sol\":2921:2929  token_id */\n      dup6\n        /* \"contracts/NodeReward.sol\":2906:2930  claimedAmounts[token_id] */\n      dup2\n      mstore\n      0x20\n      add\n      swap1\n      dup2\n      mstore\n      0x20\n      add\n      0x00\n      keccak256\n      sload\n        /* \"contracts/NodeReward.sol\":2906:2946  claimedAmounts[token_id]-fines[token_id] */\n      tag_112\n      swap2\n      swap1\n      tag_113\n      jump\t// in\n    tag_112:\n        /* \"contracts/NodeReward.sol\":2906:2980  claimedAmounts[token_id]-fines[token_id]>=withdrawAmounts[token_id]+amount */\n      lt\n      iszero\n        /* \"contracts/NodeReward.sol\":2898:3005  require(claimedAmounts[token_id]-fines[token_id]>=withdrawAmounts[token_id]+amount, \"You money not enough\") */\n      tag_114\n      jumpi\n      mload(0x40)\n      0x08c379a000000000000000000000000000000000000000000000000000000000\n      dup2\n      mstore\n      0x04\n      add\n      tag_115\n      swap1\n      tag_116\n      jump\t// in\n    tag_115:\n      mload(0x40)\n      dup1\n      swap2\n      sub\n      swap1\n      revert\n    tag_114:\n        /* \"contracts/NodeReward.sol\":3016:3020  cKIP */\n      0x02\n      0x00\n      swap1\n      sload\n      swap1\n      0x0100\n      exp\n      swap1\n      div\n      0xffffffffffffffffffffffffffffffffffffffff\n      and\n        /* \"contracts/NodeReward.sol\":3016:3033  cKIP.transferFrom */\n      0xffffffffffffffffffffffffffffffffffffffff\n      and\n      0x23b872dd\n        /* \"contracts/NodeReward.sol\":3034:3046  fund_address */\n      0x03\n      0x00\n      swap1\n      sload\n      swap1\n      0x0100\n      exp\n      swap1\n      div\n      0xffffffffffffffffffffffffffffffffffffffff\n      and\n        /* \"contracts/NodeReward.sol\":3048:3060  _msgSender() */\n      tag_117\n        /* \"contracts/NodeReward.sol\":3048:3058  _msgSender */\n      tag_78\n        /* \"contracts/NodeReward.sol\":3048:3060  _msgSender() */\n      jump\t// in\n    tag_117:\n        /* \"contracts/NodeReward.sol\":3062:3068  amount */\n      dup5\n        /* \"contracts/NodeReward.sol\":3016:3069  cKIP.transferFrom(fund_address, _msgSender(), amount) */\n      mload(0x40)\n      dup5\n      0xffffffff\n      and\n      0xe0\n      shl\n      dup2\n      mstore\n      0x04\n      add\n      tag_118\n      swap4\n      swap3\n      swap2\n      swap1\n      tag_119\n      jump\t// in\n    tag_118:\n      0x20\n      mload(0x40)\n      dup1\n      dup4\n      sub\n      dup2\n      0x00\n      dup8\n      gas\n      call\n      iszero\n      dup1\n      iszero\n      tag_121\n      jumpi\n      returndatasize\n      0x00\n      dup1\n      returndatacopy\n      revert(0x00, returndatasize)\n    tag_121:\n      pop\n      pop\n      pop\n      pop\n      mload(0x40)\n      returndatasize\n      not(0x1f)\n      0x1f\n      dup3\n      add\n      and\n      dup3\n      add\n      dup1\n      0x40\n      mstore\n      pop\n      dup2\n      add\n      swap1\n      tag_122\n      swap2\n      swap1\n      tag_123\n      jump\t// in\n    tag_122:\n      pop\n        /* \"contracts/NodeReward.sol\":3111:3126  block.timestamp */\n      timestamp\n        /* \"contracts/NodeReward.sol\":3080:3098  last_withdraw_time */\n      0x06\n        /* \"contracts/NodeReward.sol\":3080:3108  last_withdraw_time[token_id] */\n      0x00\n        /* \"contracts/NodeReward.sol\":3099:3107  token_id */\n      dup5\n        /* \"contracts/NodeReward.sol\":3080:3108  last_withdraw_time[token_id] */\n      dup2\n      mstore\n      0x20\n      add\n      swap1\n      dup2\n      mstore\n      0x20\n      add\n      0x00\n      keccak256\n        /* \"contracts/NodeReward.sol\":3080:3126  last_withdraw_time[token_id] = block.timestamp */\n      dup2\n      swap1\n      sstore\n      pop\n        /* \"contracts/NodeReward.sol\":3166:3172  amount */\n      dup1\n        /* \"contracts/NodeReward.sol\":3137:3152  withdrawAmounts */\n      0x09\n        /* \"contracts/NodeReward.sol\":3137:3162  withdrawAmounts[token_id] */\n      0x00\n        /* \"contracts/NodeReward.sol\":3153:3161  token_id */\n      dup5\n        /* \"contracts/NodeReward.sol\":3137:3162  withdrawAmounts[token_id] */\n      dup2\n      mstore\n      0x20\n      add\n      swap1\n      dup2\n      mstore\n      0x20\n      add\n      0x00\n      keccak256\n      0x00\n        /* \"contracts/NodeReward.sol\":3137:3172  withdrawAmounts[token_id] += amount */\n      dup3\n      dup3\n      sload\n      tag_124\n      swap2\n      swap1\n      tag_90\n      jump\t// in\n    tag_124:\n      swap3\n      pop\n      pop\n      dup2\n      swap1\n      sstore\n      pop\n        /* \"contracts/NodeReward.sol\":3197:3209  _msgSender() */\n      tag_125\n        /* \"contracts/NodeReward.sol\":3197:3207  _msgSender */\n      tag_78\n        /* \"contracts/NodeReward.sol\":3197:3209  _msgSender() */\n      jump\t// in\n    tag_125:\n        /* \"contracts/NodeReward.sol\":3188:3228  Withdraw(_msgSender(), token_id, amount) */\n      0xffffffffffffffffffffffffffffffffffffffff\n      and\n      0xf279e6a1f5e320cca91135676d9cb6e44ca8a08c0b88342bcdb1144f6511b568\n        /* \"contracts/NodeReward.sol\":3211:3219  token_id */\n      dup4\n        /* \"contracts/NodeReward.sol\":3221:3227  amount */\n      dup4\n        /* \"contracts/NodeReward.sol\":3188:3228  Withdraw(_msgSender(), token_id, amount) */\n      mload(0x40)\n      tag_126\n      swap3\n      swap2\n      swap1\n      tag_127\n      jump\t// in\n    tag_126:\n      mload(0x40)\n      dup1\n      swap2\n      sub\n      swap1\n      log2\n        /* \"contracts/NodeReward.sol\":2533:3236  function withdraw(uint256 token_id, uint256 amount) external {... */\n      pop\n      pop\n      jump\t// out\n        /* \"contracts/NodeReward.sol\":404:422  IERC20 public cKIP */\n    tag_43:\n      0x02\n      0x00\n      swap1\n      sload\n      swap1\n      0x0100\n      exp\n      swap1\n      div\n      0xffffffffffffffffffffffffffffffffffffffff\n      and\n      dup2\n      jump\t// out\n        /* \"@openzeppelin/contracts/access/Ownable.sol\":2293:2394  function renounceOwnership() public virtual onlyOwner {... */\n    tag_47:\n        /* \"@openzeppelin/contracts/access/Ownable.sol\":1531:1544  _checkOwner() */\n      tag_129\n        /* \"@openzeppelin/contracts/access/Ownable.sol\":1531:1542  _checkOwner */\n      tag_75\n        /* \"@openzeppelin/contracts/access/Ownable.sol\":1531:1544  _checkOwner() */\n      jump\t// in\n    tag_129:\n        /* \"@openzeppelin/contracts/access/Ownable.sol\":2357:2387  _transferOwnership(address(0)) */\n      tag_131\n        /* \"@openzeppelin/contracts/access/Ownable.sol\":2384:2385  0 */\n      0x00\n        /* \"@openzeppelin/contracts/access/Ownable.sol\":2357:2375  _transferOwnership */\n      tag_132\n        /* \"@openzeppelin/contracts/access/Ownable.sol\":2357:2387  _transferOwnership(address(0)) */\n      jump\t// in\n    tag_131:\n        /* \"@openzeppelin/contracts/access/Ownable.sol\":2293:2394  function renounceOwnership() public virtual onlyOwner {... */\n      jump\t// out\n        /* \"contracts/NodeReward.sol\":1789:2525  function claim(uint256 token_id, uint256 amount, address _paymaster, bytes32 reference_id, bytes memory signature) external {... */\n    tag_51:\n        /* \"contracts/NodeReward.sol\":1939:1940  0 */\n      0x00\n        /* \"contracts/NodeReward.sol\":1932:1938  amount */\n      dup5\n        /* \"contracts/NodeReward.sol\":1932:1940  amount>0 */\n      gt\n        /* \"contracts/NodeReward.sol\":1924:1965  require(amount>0, \"Amount can't be zero\") */\n      tag_134\n      jumpi\n      mload(0x40)\n      0x08c379a000000000000000000000000000000000000000000000000000000000\n      dup2\n      mstore\n      0x04\n      add\n      tag_135\n      swap1\n      tag_88\n      jump\t// in\n    tag_135:\n      mload(0x40)\n      dup1\n      swap2\n      sub\n      swap1\n      revert\n    tag_134:\n        /* \"contracts/NodeReward.sol\":1988:1997  paymaster */\n      0x05\n        /* \"contracts/NodeReward.sol\":1988:2009  paymaster[_paymaster] */\n      0x00\n        /* \"contracts/NodeReward.sol\":1998:2008  _paymaster */\n      dup5\n        /* \"contracts/NodeReward.sol\":1988:2009  paymaster[_paymaster] */\n      0xffffffffffffffffffffffffffffffffffffffff\n      and\n      0xffffffffffffffffffffffffffffffffffffffff\n      and\n      dup2\n      mstore\n      0x20\n      add\n      swap1\n      dup2\n      mstore\n      0x20\n      add\n      0x00\n      keccak256\n      0x00\n      swap1\n      sload\n      swap1\n      0x0100\n      exp\n      swap1\n      div\n      0xff\n      and\n        /* \"contracts/NodeReward.sol\":1980:2033  require(paymaster[_paymaster], \"You are't paymaster\") */\n      tag_136\n      jumpi\n      mload(0x40)\n      0x08c379a000000000000000000000000000000000000000000000000000000000\n      dup2\n      mstore\n      0x04\n      add\n      tag_137\n      swap1\n      tag_85\n      jump\t// in\n    tag_137:\n      mload(0x40)\n      dup1\n      swap2\n      sub\n      swap1\n      revert\n    tag_136:\n        /* \"contracts/NodeReward.sol\":2089:2101  _msgSender() */\n      tag_138\n        /* \"contracts/NodeReward.sol\":2089:2099  _msgSender */\n      tag_78\n        /* \"contracts/NodeReward.sol\":2089:2101  _msgSender() */\n      jump\t// in\n    tag_138:\n        /* \"contracts/NodeReward.sol\":2056:2101  license_nft.ownerOf(token_id) == _msgSender() */\n      0xffffffffffffffffffffffffffffffffffffffff\n      and\n        /* \"contracts/NodeReward.sol\":2056:2067  license_nft */\n      0x01\n      0x00\n      swap1\n      sload\n      swap1\n      0x0100\n      exp\n      swap1\n      div\n      0xffffffffffffffffffffffffffffffffffffffff\n      and\n        /* \"contracts/NodeReward.sol\":2056:2075  license_nft.ownerOf */\n      0xffffffffffffffffffffffffffffffffffffffff\n      and\n      0x6352211e\n        /* \"contracts/NodeReward.sol\":2076:2084  token_id */\n      dup8\n        /* \"contracts/NodeReward.sol\":2056:2085  license_nft.ownerOf(token_id) */\n      mload(0x40)\n      dup3\n      0xffffffff\n      and\n      0xe0\n      shl\n      dup2\n      mstore\n      0x04\n      add\n      tag_139\n      swap2\n      swap1\n      tag_25\n      jump\t// in\n    tag_139:\n      0x20\n      mload(0x40)\n      dup1\n      dup4\n      sub\n      dup2\n      dup7\n      gas\n      staticcall\n      iszero\n      dup1\n      iszero\n      tag_141\n      jumpi\n      returndatasize\n      0x00\n      dup1\n      returndatacopy\n      revert(0x00, returndatasize)\n    tag_141:\n      pop\n      pop\n      pop\n      pop\n      mload(0x40)\n      returndatasize\n      not(0x1f)\n      0x1f\n      dup3\n      add\n      and\n      dup3\n      add\n      dup1\n      0x40\n      mstore\n      pop\n      dup2\n      add\n      swap1\n      tag_142\n      swap2\n      swap1\n      tag_105\n      jump\t// in\n    tag_142:\n        /* \"contracts/NodeReward.sol\":2056:2101  license_nft.ownerOf(token_id) == _msgSender() */\n      0xffffffffffffffffffffffffffffffffffffffff\n      and\n      eq\n        /* \"contracts/NodeReward.sol\":2048:2135  require(license_nft.ownerOf(token_id) == _msgSender(), \"Caller is not the token owner\") */\n      tag_143\n      jumpi\n      mload(0x40)\n      0x08c379a000000000000000000000000000000000000000000000000000000000\n      dup2\n      mstore\n      0x04\n      add\n      tag_144\n      swap1\n      tag_108\n      jump\t// in\n    tag_144:\n      mload(0x40)\n      dup1\n      swap2\n      sub\n      swap1\n      revert\n    tag_143:\n        /* \"contracts/NodeReward.sol\":2146:2161  bytes32 message */\n      0x00\n        /* \"contracts/NodeReward.sol\":2185:2199  claimedAmounts */\n      0x08\n        /* \"contracts/NodeReward.sol\":2185:2209  claimedAmounts[token_id] */\n      0x00\n        /* \"contracts/NodeReward.sol\":2200:2208  token_id */\n      dup8\n        /* \"contracts/NodeReward.sol\":2185:2209  claimedAmounts[token_id] */\n      dup2\n      mstore\n      0x20\n      add\n      swap1\n      dup2\n      mstore\n      0x20\n      add\n      0x00\n      keccak256\n      sload\n        /* \"contracts/NodeReward.sol\":2210:2218  token_id */\n      dup7\n        /* \"contracts/NodeReward.sol\":2220:2226  amount */\n      dup7\n        /* \"contracts/NodeReward.sol\":2228:2240  _msgSender() */\n      tag_145\n        /* \"contracts/NodeReward.sol\":2228:2238  _msgSender */\n      tag_78\n        /* \"contracts/NodeReward.sol\":2228:2240  _msgSender() */\n      jump\t// in\n    tag_145:\n        /* \"contracts/NodeReward.sol\":2242:2254  reference_id */\n      dup7\n        /* \"contracts/NodeReward.sol\":2174:2255  abi.encode(claimedAmounts[token_id],token_id, amount, _msgSender(), reference_id) */\n      add(0x20, mload(0x40))\n      tag_146\n      swap6\n      swap5\n      swap4\n      swap3\n      swap2\n      swap1\n      tag_147\n      jump\t// in\n    tag_146:\n      mload(0x40)\n      0x20\n      dup2\n      dup4\n      sub\n      sub\n      dup2\n      mstore\n      swap1\n      0x40\n      mstore\n        /* \"contracts/NodeReward.sol\":2164:2256  keccak256(abi.encode(claimedAmounts[token_id],token_id, amount, _msgSender(), reference_id)) */\n      dup1\n      mload\n      swap1\n      0x20\n      add\n      keccak256\n        /* \"contracts/NodeReward.sol\":2146:2256  bytes32 message = keccak256(abi.encode(claimedAmounts[token_id],token_id, amount, _msgSender(), reference_id)) */\n      swap1\n      pop\n        /* \"contracts/NodeReward.sol\":2267:2291  address recoveredAddress */\n      0x00\n        /* \"contracts/NodeReward.sol\":2294:2320  message.recover(signature) */\n      tag_148\n        /* \"contracts/NodeReward.sol\":2310:2319  signature */\n      dup4\n        /* \"contracts/NodeReward.sol\":2294:2301  message */\n      dup4\n        /* \"contracts/NodeReward.sol\":2294:2309  message.recover */\n      tag_149\n      swap1\n        /* \"contracts/NodeReward.sol\":2294:2320  message.recover(signature) */\n      swap2\n      swap1\n      0xffffffff\n      and\n      jump\t// in\n    tag_148:\n        /* \"contracts/NodeReward.sol\":2267:2320  address recoveredAddress = message.recover(signature) */\n      swap1\n      pop\n        /* \"contracts/NodeReward.sol\":2359:2369  _paymaster */\n      dup5\n        /* \"contracts/NodeReward.sol\":2339:2369  recoveredAddress == _paymaster */\n      0xffffffffffffffffffffffffffffffffffffffff\n      and\n        /* \"contracts/NodeReward.sol\":2339:2355  recoveredAddress */\n      dup2\n        /* \"contracts/NodeReward.sol\":2339:2369  recoveredAddress == _paymaster */\n      0xffffffffffffffffffffffffffffffffffffffff\n      and\n      eq\n        /* \"contracts/NodeReward.sol\":2331:2391  require(recoveredAddress == _paymaster, \"Invalid Signature\") */\n      tag_150\n      jumpi\n      mload(0x40)\n      0x08c379a000000000000000000000000000000000000000000000000000000000\n      dup2\n      mstore\n      0x04\n      add\n      tag_151\n      swap1\n      tag_152\n      jump\t// in\n    tag_151:\n      mload(0x40)\n      dup1\n      swap2\n      sub\n      swap1\n      revert\n    tag_150:\n        /* \"contracts/NodeReward.sol\":2430:2436  amount */\n      dup6\n        /* \"contracts/NodeReward.sol\":2402:2416  claimedAmounts */\n      0x08\n        /* \"contracts/NodeReward.sol\":2402:2426  claimedAmounts[token_id] */\n      0x00\n        /* \"contracts/NodeReward.sol\":2417:2425  token_id */\n      dup10\n        /* \"contracts/NodeReward.sol\":2402:2426  claimedAmounts[token_id] */\n      dup2\n      mstore\n      0x20\n      add\n      swap1\n      dup2\n      mstore\n      0x20\n      add\n      0x00\n      keccak256\n      0x00\n        /* \"contracts/NodeReward.sol\":2402:2436  claimedAmounts[token_id] += amount */\n      dup3\n      dup3\n      sload\n      tag_153\n      swap2\n      swap1\n      tag_90\n      jump\t// in\n    tag_153:\n      swap3\n      pop\n      pop\n      dup2\n      swap1\n      sstore\n      pop\n        /* \"contracts/NodeReward.sol\":2492:2502  _paymaster */\n      dup5\n        /* \"contracts/NodeReward.sol\":2452:2517  Claimed(_msgSender(), token_id, amount, _paymaster, reference_id) */\n      0xffffffffffffffffffffffffffffffffffffffff\n      and\n        /* \"contracts/NodeReward.sol\":2460:2472  _msgSender() */\n      tag_154\n        /* \"contracts/NodeReward.sol\":2460:2470  _msgSender */\n      tag_78\n        /* \"contracts/NodeReward.sol\":2460:2472  _msgSender() */\n      jump\t// in\n    tag_154:\n        /* \"contracts/NodeReward.sol\":2452:2517  Claimed(_msgSender(), token_id, amount, _paymaster, reference_id) */\n      0xffffffffffffffffffffffffffffffffffffffff\n      and\n      0xbfeca4b40cfe4b2290f947b0600f588f69e9387ebf4ed295ca0ac0dcf879e059\n        /* \"contracts/NodeReward.sol\":2474:2482  token_id */\n      dup10\n        /* \"contracts/NodeReward.sol\":2484:2490  amount */\n      dup10\n        /* \"contracts/NodeReward.sol\":2504:2516  reference_id */\n      dup9\n        /* \"contracts/NodeReward.sol\":2452:2517  Claimed(_msgSender(), token_id, amount, _paymaster, reference_id) */\n      mload(0x40)\n      tag_155\n      swap4\n      swap3\n      swap2\n      swap1\n      tag_93\n      jump\t// in\n    tag_155:\n      mload(0x40)\n      dup1\n      swap2\n      sub\n      swap1\n      log3\n        /* \"contracts/NodeReward.sol\":1913:2525  {... */\n      pop\n      pop\n        /* \"contracts/NodeReward.sol\":1789:2525  function claim(uint256 token_id, uint256 amount, address _paymaster, bytes32 reference_id, bytes memory signature) external {... */\n      pop\n      pop\n      pop\n      pop\n      pop\n      jump\t// out\n        /* \"contracts/NodeReward.sol\":1678:1781  function setFundAddress(address _address) external onlyOwner {... */\n    tag_55:\n        /* \"@openzeppelin/contracts/access/Ownable.sol\":1531:1544  _checkOwner() */\n      tag_157\n        /* \"@openzeppelin/contracts/access/Ownable.sol\":1531:1542  _checkOwner */\n      tag_75\n        /* \"@openzeppelin/contracts/access/Ownable.sol\":1531:1544  _checkOwner() */\n      jump\t// in\n    tag_157:\n        /* \"contracts/NodeReward.sol\":1765:1773  _address */\n      dup1\n        /* \"contracts/NodeReward.sol\":1750:1762  fund_address */\n      0x03\n      0x00\n        /* \"contracts/NodeReward.sol\":1750:1773  fund_address = _address */\n      0x0100\n      exp\n      dup2\n      sload\n      dup2\n      0xffffffffffffffffffffffffffffffffffffffff\n      mul\n      not\n      and\n      swap1\n      dup4\n      0xffffffffffffffffffffffffffffffffffffffff\n      and\n      mul\n      or\n      swap1\n      sstore\n      pop\n        /* \"contracts/NodeReward.sol\":1678:1781  function setFundAddress(address _address) external onlyOwner {... */\n      pop\n      jump\t// out\n        /* \"@openzeppelin/contracts/access/Ownable.sol\":1638:1723  function owner() public view virtual returns (address) {... */\n    tag_57:\n        /* \"@openzeppelin/contracts/access/Ownable.sol\":1684:1691  address */\n      0x00\n        /* \"@openzeppelin/contracts/access/Ownable.sol\":1710:1716  _owner */\n      dup1\n      0x00\n      swap1\n      sload\n      swap1\n      0x0100\n      exp\n      swap1\n      div\n      0xffffffffffffffffffffffffffffffffffffffff\n      and\n        /* \"@openzeppelin/contracts/access/Ownable.sol\":1703:1716  return _owner */\n      swap1\n      pop\n        /* \"@openzeppelin/contracts/access/Ownable.sol\":1638:1723  function owner() public view virtual returns (address) {... */\n      swap1\n      jump\t// out\n        /* \"contracts/NodeReward.sol\":686:735  mapping(uint256 => uint256) public claimedAmounts */\n    tag_61:\n      mstore(0x20, 0x08)\n      dup1\n      0x00\n      mstore\n      keccak256(0x00, 0x40)\n      0x00\n      swap2\n      pop\n      swap1\n      pop\n      sload\n      dup2\n      jump\t// out\n        /* \"contracts/NodeReward.sol\":465:507  uint256 public withdraw_interval = 2592000 */\n    tag_64:\n      sload(0x04)\n      dup2\n      jump\t// out\n        /* \"@openzeppelin/contracts/access/Ownable.sol\":2543:2758  function transferOwnership(address newOwner) public virtual onlyOwner {... */\n    tag_68:\n        /* \"@openzeppelin/contracts/access/Ownable.sol\":1531:1544  _checkOwner() */\n      tag_161\n        /* \"@openzeppelin/contracts/access/Ownable.sol\":1531:1542  _checkOwner */\n      tag_75\n        /* \"@openzeppelin/contracts/access/Ownable.sol\":1531:1544  _checkOwner() */\n      jump\t// in\n    tag_161:\n        /* \"@openzeppelin/contracts/access/Ownable.sol\":2647:2648  0 */\n      0x00\n        /* \"@openzeppelin/contracts/access/Ownable.sol\":2627:2649  newOwner == address(0) */\n      0xffffffffffffffffffffffffffffffffffffffff\n      and\n        /* \"@openzeppelin/contracts/access/Ownable.sol\":2627:2635  newOwner */\n      dup2\n        /* \"@openzeppelin/contracts/access/Ownable.sol\":2627:2649  newOwner == address(0) */\n      0xffffffffffffffffffffffffffffffffffffffff\n      and\n      sub\n        /* \"@openzeppelin/contracts/access/Ownable.sol\":2623:2714  if (newOwner == address(0)) {... */\n      tag_163\n      jumpi\n        /* \"@openzeppelin/contracts/access/Ownable.sol\":2700:2701  0 */\n      0x00\n        /* \"@openzeppelin/contracts/access/Ownable.sol\":2672:2703  OwnableInvalidOwner(address(0)) */\n      mload(0x40)\n      0x1e4fbdf700000000000000000000000000000000000000000000000000000000\n      dup2\n      mstore\n      0x04\n      add\n      tag_164\n      swap2\n      swap1\n      tag_33\n      jump\t// in\n    tag_164:\n      mload(0x40)\n      dup1\n      swap2\n      sub\n      swap1\n      revert\n        /* \"@openzeppelin/contracts/access/Ownable.sol\":2623:2714  if (newOwner == address(0)) {... */\n    tag_163:\n        /* \"@openzeppelin/contracts/access/Ownable.sol\":2723:2751  _transferOwnership(newOwner) */\n      tag_165\n        /* \"@openzeppelin/contracts/access/Ownable.sol\":2742:2750  newOwner */\n      dup2\n        /* \"@openzeppelin/contracts/access/Ownable.sol\":2723:2741  _transferOwnership */\n      tag_132\n        /* \"@openzeppelin/contracts/access/Ownable.sol\":2723:2751  _transferOwnership(newOwner) */\n      jump\t// in\n    tag_165:\n        /* \"@openzeppelin/contracts/access/Ownable.sol\":2543:2758  function transferOwnership(address newOwner) public virtual onlyOwner {... */\n      pop\n      jump\t// out\n        /* \"contracts/NodeReward.sol\":371:397  IERC721 public license_nft */\n    tag_70:\n      0x01\n      0x00\n      swap1\n      sload\n      swap1\n      0x0100\n      exp\n      swap1\n      div\n      0xffffffffffffffffffffffffffffffffffffffff\n      and\n      dup2\n      jump\t// out\n        /* \"@openzeppelin/contracts/access/Ownable.sol\":1796:1958  function _checkOwner() internal view virtual {... */\n    tag_75:\n        /* \"@openzeppelin/contracts/access/Ownable.sol\":1866:1878  _msgSender() */\n      tag_167\n        /* \"@openzeppelin/contracts/access/Ownable.sol\":1866:1876  _msgSender */\n      tag_78\n        /* \"@openzeppelin/contracts/access/Ownable.sol\":1866:1878  _msgSender() */\n      jump\t// in\n    tag_167:\n        /* \"@openzeppelin/contracts/access/Ownable.sol\":1855:1878  owner() != _msgSender() */\n      0xffffffffffffffffffffffffffffffffffffffff\n      and\n        /* \"@openzeppelin/contracts/access/Ownable.sol\":1855:1862  owner() */\n      tag_168\n        /* \"@openzeppelin/contracts/access/Ownable.sol\":1855:1860  owner */\n      tag_57\n        /* \"@openzeppelin/contracts/access/Ownable.sol\":1855:1862  owner() */\n      jump\t// in\n    tag_168:\n        /* \"@openzeppelin/contracts/access/Ownable.sol\":1855:1878  owner() != _msgSender() */\n      0xffffffffffffffffffffffffffffffffffffffff\n      and\n      eq\n        /* \"@openzeppelin/contracts/access/Ownable.sol\":1851:1952  if (owner() != _msgSender()) {... */\n      tag_169\n      jumpi\n        /* \"@openzeppelin/contracts/access/Ownable.sol\":1928:1940  _msgSender() */\n      tag_170\n        /* \"@openzeppelin/contracts/access/Ownable.sol\":1928:1938  _msgSender */\n      tag_78\n        /* \"@openzeppelin/contracts/access/Ownable.sol\":1928:1940  _msgSender() */\n      jump\t// in\n    tag_170:\n        /* \"@openzeppelin/contracts/access/Ownable.sol\":1901:1941  OwnableUnauthorizedAccount(_msgSender()) */\n      mload(0x40)\n      0x118cdaa700000000000000000000000000000000000000000000000000000000\n      dup2\n      mstore\n      0x04\n      add\n      tag_171\n      swap2\n      swap1\n      tag_33\n      jump\t// in\n    tag_171:\n      mload(0x40)\n      dup1\n      swap2\n      sub\n      swap1\n      revert\n        /* \"@openzeppelin/contracts/access/Ownable.sol\":1851:1952  if (owner() != _msgSender()) {... */\n    tag_169:\n        /* \"@openzeppelin/contracts/access/Ownable.sol\":1796:1958  function _checkOwner() internal view virtual {... */\n      jump\t// out\n        /* \"@openzeppelin/contracts/utils/Context.sol\":656:752  function _msgSender() internal view virtual returns (address) {... */\n    tag_78:\n        /* \"@openzeppelin/contracts/utils/Context.sol\":709:716  address */\n      0x00\n        /* \"@openzeppelin/contracts/utils/Context.sol\":735:745  msg.sender */\n      caller\n        /* \"@openzeppelin/contracts/utils/Context.sol\":728:745  return msg.sender */\n      swap1\n      pop\n        /* \"@openzeppelin/contracts/utils/Context.sol\":656:752  function _msgSender() internal view virtual returns (address) {... */\n      swap1\n      jump\t// out\n        /* \"@openzeppelin/contracts/access/Ownable.sol\":2912:3099  function _transferOwnership(address newOwner) internal virtual {... */\n    tag_132:\n        /* \"@openzeppelin/contracts/access/Ownable.sol\":2985:3001  address oldOwner */\n      0x00\n        /* \"@openzeppelin/contracts/access/Ownable.sol\":3004:3010  _owner */\n      dup1\n      0x00\n      swap1\n      sload\n      swap1\n      0x0100\n      exp\n      swap1\n      div\n      0xffffffffffffffffffffffffffffffffffffffff\n      and\n        /* \"@openzeppelin/contracts/access/Ownable.sol\":2985:3010  address oldOwner = _owner */\n      swap1\n      pop\n        /* \"@openzeppelin/contracts/access/Ownable.sol\":3029:3037  newOwner */\n      dup2\n        /* \"@openzeppelin/contracts/access/Ownable.sol\":3020:3026  _owner */\n      0x00\n      dup1\n        /* \"@openzeppelin/contracts/access/Ownable.sol\":3020:3037  _owner = newOwner */\n      0x0100\n      exp\n      dup2\n      sload\n      dup2\n      0xffffffffffffffffffffffffffffffffffffffff\n      mul\n      not\n      and\n      swap1\n      dup4\n      0xffffffffffffffffffffffffffffffffffffffff\n      and\n      mul\n      or\n      swap1\n      sstore\n      pop\n        /* \"@openzeppelin/contracts/access/Ownable.sol\":3083:3091  newOwner */\n      dup2\n        /* \"@openzeppelin/contracts/access/Ownable.sol\":3052:3092  OwnershipTransferred(oldOwner, newOwner) */\n      0xffffffffffffffffffffffffffffffffffffffff\n      and\n        /* \"@openzeppelin/contracts/access/Ownable.sol\":3073:3081  oldOwner */\n      dup2\n        /* \"@openzeppelin/contracts/access/Ownable.sol\":3052:3092  OwnershipTransferred(oldOwner, newOwner) */\n      0xffffffffffffffffffffffffffffffffffffffff\n      and\n      0x8be0079c531659141344cd1fd0a4f28419497f9722a3daafe3b4186f6b6457e0\n      mload(0x40)\n      mload(0x40)\n      dup1\n      swap2\n      sub\n      swap1\n      log3\n        /* \"@openzeppelin/contracts/access/Ownable.sol\":2975:3099  {... */\n      pop\n        /* \"@openzeppelin/contracts/access/Ownable.sol\":2912:3099  function _transferOwnership(address newOwner) internal virtual {... */\n      pop\n      jump\t// out\n        /* \"@openzeppelin/contracts/utils/cryptography/ECDSA.sol\":3702:3957  function recover(bytes32 hash, bytes memory signature) internal pure returns (address) {... */\n    tag_149:\n        /* \"@openzeppelin/contracts/utils/cryptography/ECDSA.sol\":3780:3787  address */\n      0x00\n        /* \"@openzeppelin/contracts/utils/cryptography/ECDSA.sol\":3800:3817  address recovered */\n      dup1\n        /* \"@openzeppelin/contracts/utils/cryptography/ECDSA.sol\":3819:3837  RecoverError error */\n      0x00\n        /* \"@openzeppelin/contracts/utils/cryptography/ECDSA.sol\":3839:3855  bytes32 errorArg */\n      dup1\n        /* \"@openzeppelin/contracts/utils/cryptography/ECDSA.sol\":3859:3886  tryRecover(hash, signature) */\n      tag_175\n        /* \"@openzeppelin/contracts/utils/cryptography/ECDSA.sol\":3870:3874  hash */\n      dup7\n        /* \"@openzeppelin/contracts/utils/cryptography/ECDSA.sol\":3876:3885  signature */\n      dup7\n        /* \"@openzeppelin/contracts/utils/cryptography/ECDSA.sol\":3859:3869  tryRecover */\n      tag_176\n        /* \"@openzeppelin/contracts/utils/cryptography/ECDSA.sol\":3859:3886  tryRecover(hash, signature) */\n      jump\t// in\n    tag_175:\n        /* \"@openzeppelin/contracts/utils/cryptography/ECDSA.sol\":3799:3886  (address recovered, RecoverError error, bytes32 errorArg) = tryRecover(hash, signature) */\n      swap3\n      pop\n      swap3\n      pop\n      swap3\n      pop\n        /* \"@openzeppelin/contracts/utils/cryptography/ECDSA.sol\":3896:3924  _throwError(error, errorArg) */\n      tag_177\n        /* \"@openzeppelin/contracts/utils/cryptography/ECDSA.sol\":3908:3913  error */\n      dup3\n        /* \"@openzeppelin/contracts/utils/cryptography/ECDSA.sol\":3915:3923  errorArg */\n      dup3\n        /* \"@openzeppelin/contracts/utils/cryptography/ECDSA.sol\":3896:3907  _throwError */\n      tag_178\n        /* \"@openzeppelin/contracts/utils/cryptography/ECDSA.sol\":3896:3924  _throwError(error, errorArg) */\n      jump\t// in\n    tag_177:\n        /* \"@openzeppelin/contracts/utils/cryptography/ECDSA.sol\":3941:3950  recovered */\n      dup3\n        /* \"@openzeppelin/contracts/utils/cryptography/ECDSA.sol\":3934:3950  return recovered */\n      swap4\n      pop\n      pop\n      pop\n      pop\n        /* \"@openzeppelin/contracts/utils/cryptography/ECDSA.sol\":3702:3957  function recover(bytes32 hash, bytes memory signature) internal pure returns (address) {... */\n      swap3\n      swap2\n      pop\n      pop\n      jump\t// out\n        /* \"@openzeppelin/contracts/utils/cryptography/ECDSA.sol\":2129:2895  function tryRecover(bytes32 hash, bytes memory signature) internal pure returns (address, RecoverError, bytes32) {... */\n    tag_176:\n        /* \"@openzeppelin/contracts/utils/cryptography/ECDSA.sol\":2210:2217  address */\n      0x00\n        /* \"@openzeppelin/contracts/utils/cryptography/ECDSA.sol\":2219:2231  RecoverError */\n      dup1\n        /* \"@openzeppelin/contracts/utils/cryptography/ECDSA.sol\":2233:2240  bytes32 */\n      0x00\n        /* \"@openzeppelin/contracts/utils/cryptography/ECDSA.sol\":2276:2278  65 */\n      0x41\n        /* \"@openzeppelin/contracts/utils/cryptography/ECDSA.sol\":2256:2265  signature */\n      dup5\n        /* \"@openzeppelin/contracts/utils/cryptography/ECDSA.sol\":2256:2272  signature.length */\n      mload\n        /* \"@openzeppelin/contracts/utils/cryptography/ECDSA.sol\":2256:2278  signature.length == 65 */\n      sub\n        /* \"@openzeppelin/contracts/utils/cryptography/ECDSA.sol\":2252:2889  if (signature.length == 65) {... */\n      tag_180\n      jumpi\n        /* \"@openzeppelin/contracts/utils/cryptography/ECDSA.sol\":2294:2303  bytes32 r */\n      0x00\n        /* \"@openzeppelin/contracts/utils/cryptography/ECDSA.sol\":2317:2326  bytes32 s */\n      dup1\n        /* \"@openzeppelin/contracts/utils/cryptography/ECDSA.sol\":2340:2347  uint8 v */\n      0x00\n        /* \"@openzeppelin/contracts/utils/cryptography/ECDSA.sol\":2592:2596  0x20 */\n      0x20\n        /* \"@openzeppelin/contracts/utils/cryptography/ECDSA.sol\":2581:2590  signature */\n      dup8\n        /* \"@openzeppelin/contracts/utils/cryptography/ECDSA.sol\":2577:2597  add(signature, 0x20) */\n      add\n        /* \"@openzeppelin/contracts/utils/cryptography/ECDSA.sol\":2571:2598  mload(add(signature, 0x20)) */\n      mload\n        /* \"@openzeppelin/contracts/utils/cryptography/ECDSA.sol\":2566:2598  r := mload(add(signature, 0x20)) */\n      swap3\n      pop\n        /* \"@openzeppelin/contracts/utils/cryptography/ECDSA.sol\":2641:2645  0x40 */\n      0x40\n        /* \"@openzeppelin/contracts/utils/cryptography/ECDSA.sol\":2630:2639  signature */\n      dup8\n        /* \"@openzeppelin/contracts/utils/cryptography/ECDSA.sol\":2626:2646  add(signature, 0x40) */\n      add\n        /* \"@openzeppelin/contracts/utils/cryptography/ECDSA.sol\":2620:2647  mload(add(signature, 0x40)) */\n      mload\n        /* \"@openzeppelin/contracts/utils/cryptography/ECDSA.sol\":2615:2647  s := mload(add(signature, 0x40)) */\n      swap2\n      pop\n        /* \"@openzeppelin/contracts/utils/cryptography/ECDSA.sol\":2698:2702  0x60 */\n      0x60\n        /* \"@openzeppelin/contracts/utils/cryptography/ECDSA.sol\":2687:2696  signature */\n      dup8\n        /* \"@openzeppelin/contracts/utils/cryptography/ECDSA.sol\":2683:2703  add(signature, 0x60) */\n      add\n        /* \"@openzeppelin/contracts/utils/cryptography/ECDSA.sol\":2677:2704  mload(add(signature, 0x60)) */\n      mload\n        /* \"@openzeppelin/contracts/utils/cryptography/ECDSA.sol\":2674:2675  0 */\n      0x00\n        /* \"@openzeppelin/contracts/utils/cryptography/ECDSA.sol\":2669:2705  byte(0, mload(add(signature, 0x60))) */\n      byte\n        /* \"@openzeppelin/contracts/utils/cryptography/ECDSA.sol\":2664:2705  v := byte(0, mload(add(signature, 0x60))) */\n      swap1\n      pop\n        /* \"@openzeppelin/contracts/utils/cryptography/ECDSA.sol\":2739:2764  tryRecover(hash, v, r, s) */\n      tag_181\n        /* \"@openzeppelin/contracts/utils/cryptography/ECDSA.sol\":2750:2754  hash */\n      dup9\n        /* \"@openzeppelin/contracts/utils/cryptography/ECDSA.sol\":2756:2757  v */\n      dup3\n        /* \"@openzeppelin/contracts/utils/cryptography/ECDSA.sol\":2759:2760  r */\n      dup6\n        /* \"@openzeppelin/contracts/utils/cryptography/ECDSA.sol\":2762:2763  s */\n      dup6\n        /* \"@openzeppelin/contracts/utils/cryptography/ECDSA.sol\":2739:2749  tryRecover */\n      tag_182\n        /* \"@openzeppelin/contracts/utils/cryptography/ECDSA.sol\":2739:2764  tryRecover(hash, v, r, s) */\n      jump\t// in\n    tag_181:\n        /* \"@openzeppelin/contracts/utils/cryptography/ECDSA.sol\":2732:2764  return tryRecover(hash, v, r, s) */\n      swap6\n      pop\n      swap6\n      pop\n      swap6\n      pop\n      pop\n      pop\n      pop\n      jump(tag_179)\n        /* \"@openzeppelin/contracts/utils/cryptography/ECDSA.sol\":2252:2889  if (signature.length == 65) {... */\n    tag_180:\n        /* \"@openzeppelin/contracts/utils/cryptography/ECDSA.sol\":2811:2812  0 */\n      0x00\n        /* \"@openzeppelin/contracts/utils/cryptography/ECDSA.sol\":2815:2850  RecoverError.InvalidSignatureLength */\n      0x02\n        /* \"@openzeppelin/contracts/utils/cryptography/ECDSA.sol\":2860:2869  signature */\n      dup6\n        /* \"@openzeppelin/contracts/utils/cryptography/ECDSA.sol\":2860:2876  signature.length */\n      mload\n        /* \"@openzeppelin/contracts/utils/cryptography/ECDSA.sol\":2852:2877  bytes32(signature.length) */\n      0x00\n      shl\n        /* \"@openzeppelin/contracts/utils/cryptography/ECDSA.sol\":2795:2878  return (address(0), RecoverError.InvalidSignatureLength, bytes32(signature.length)) */\n      swap3\n      pop\n      swap3\n      pop\n      swap3\n      pop\n        /* \"@openzeppelin/contracts/utils/cryptography/ECDSA.sol\":2129:2895  function tryRecover(bytes32 hash, bytes memory signature) internal pure returns (address, RecoverError, bytes32) {... */\n    tag_179:\n      swap3\n      pop\n      swap3\n      pop\n      swap3\n      jump\t// out\n        /* \"@openzeppelin/contracts/utils/cryptography/ECDSA.sol\":7196:7728  function _throwError(RecoverError error, bytes32 errorArg) private pure {... */\n    tag_178:\n        /* \"@openzeppelin/contracts/utils/cryptography/ECDSA.sol\":7291:7311  RecoverError.NoError */\n      0x00\n        /* \"@openzeppelin/contracts/utils/cryptography/ECDSA.sol\":7282:7311  error == RecoverError.NoError */\n      0x03\n      dup2\n      gt\n      iszero\n      tag_185\n      jumpi\n      tag_186\n      tag_187\n      jump\t// in\n    tag_186:\n    tag_185:\n        /* \"@openzeppelin/contracts/utils/cryptography/ECDSA.sol\":7282:7287  error */\n      dup3\n        /* \"@openzeppelin/contracts/utils/cryptography/ECDSA.sol\":7282:7311  error == RecoverError.NoError */\n      0x03\n      dup2\n      gt\n      iszero\n      tag_188\n      jumpi\n      tag_189\n      tag_187\n      jump\t// in\n    tag_189:\n    tag_188:\n      sub\n        /* \"@openzeppelin/contracts/utils/cryptography/ECDSA.sol\":7278:7722  if (error == RecoverError.NoError) {... */\n      iszero\n        /* \"@openzeppelin/contracts/utils/cryptography/ECDSA.sol\":7327:7334  return; */\n      tag_184\n        /* \"@openzeppelin/contracts/utils/cryptography/ECDSA.sol\":7278:7722  if (error == RecoverError.NoError) {... */\n      jumpi\n        /* \"@openzeppelin/contracts/utils/cryptography/ECDSA.sol\":7387:7416  RecoverError.InvalidSignature */\n      0x01\n        /* \"@openzeppelin/contracts/utils/cryptography/ECDSA.sol\":7378:7416  error == RecoverError.InvalidSignature */\n      0x03\n      dup2\n      gt\n      iszero\n      tag_192\n      jumpi\n      tag_193\n      tag_187\n      jump\t// in\n    tag_193:\n    tag_192:\n        /* \"@openzeppelin/contracts/utils/cryptography/ECDSA.sol\":7378:7383  error */\n      dup3\n        /* \"@openzeppelin/contracts/utils/cryptography/ECDSA.sol\":7378:7416  error == RecoverError.InvalidSignature */\n      0x03\n      dup2\n      gt\n      iszero\n      tag_194\n      jumpi\n      tag_195\n      tag_187\n      jump\t// in\n    tag_195:\n    tag_194:\n      sub\n        /* \"@openzeppelin/contracts/utils/cryptography/ECDSA.sol\":7374:7722  if (error == RecoverError.InvalidSignature) {... */\n      tag_196\n      jumpi\n        /* \"@openzeppelin/contracts/utils/cryptography/ECDSA.sol\":7439:7462  ECDSAInvalidSignature() */\n      mload(0x40)\n      0xf645eedf00000000000000000000000000000000000000000000000000000000\n      dup2\n      mstore\n      0x04\n      add\n      mload(0x40)\n      dup1\n      swap2\n      sub\n      swap1\n      revert\n        /* \"@openzeppelin/contracts/utils/cryptography/ECDSA.sol\":7374:7722  if (error == RecoverError.InvalidSignature) {... */\n    tag_196:\n        /* \"@openzeppelin/contracts/utils/cryptography/ECDSA.sol\":7492:7527  RecoverError.InvalidSignatureLength */\n      0x02\n        /* \"@openzeppelin/contracts/utils/cryptography/ECDSA.sol\":7483:7527  error == RecoverError.InvalidSignatureLength */\n      0x03\n      dup2\n      gt\n      iszero\n      tag_198\n      jumpi\n      tag_199\n      tag_187\n      jump\t// in\n    tag_199:\n    tag_198:\n        /* \"@openzeppelin/contracts/utils/cryptography/ECDSA.sol\":7483:7488  error */\n      dup3\n        /* \"@openzeppelin/contracts/utils/cryptography/ECDSA.sol\":7483:7527  error == RecoverError.InvalidSignatureLength */\n      0x03\n      dup2\n      gt\n      iszero\n      tag_200\n      jumpi\n      tag_201\n      tag_187\n      jump\t// in\n    tag_201:\n    tag_200:\n      sub\n        /* \"@openzeppelin/contracts/utils/cryptography/ECDSA.sol\":7479:7722  if (error == RecoverError.InvalidSignatureLength) {... */\n      tag_202\n      jumpi\n        /* \"@openzeppelin/contracts/utils/cryptography/ECDSA.sol\":7586:7594  errorArg */\n      dup1\n        /* \"@openzeppelin/contracts/utils/cryptography/ECDSA.sol\":7578:7595  uint256(errorArg) */\n      0x00\n      shr\n        /* \"@openzeppelin/contracts/utils/cryptography/ECDSA.sol\":7550:7596  ECDSAInvalidSignatureLength(uint256(errorArg)) */\n      mload(0x40)\n      0xfce698f700000000000000000000000000000000000000000000000000000000\n      dup2\n      mstore\n      0x04\n      add\n      tag_203\n      swap2\n      swap1\n      tag_25\n      jump\t// in\n    tag_203:\n      mload(0x40)\n      dup1\n      swap2\n      sub\n      swap1\n      revert\n        /* \"@openzeppelin/contracts/utils/cryptography/ECDSA.sol\":7479:7722  if (error == RecoverError.InvalidSignatureLength) {... */\n    tag_202:\n        /* \"@openzeppelin/contracts/utils/cryptography/ECDSA.sol\":7626:7656  RecoverError.InvalidSignatureS */\n      0x03\n        /* \"@openzeppelin/contracts/utils/cryptography/ECDSA.sol\":7617:7656  error == RecoverError.InvalidSignatureS */\n      dup1\n      dup2\n      gt\n      iszero\n      tag_205\n      jumpi\n      tag_206\n      tag_187\n      jump\t// in\n    tag_206:\n    tag_205:\n        /* \"@openzeppelin/contracts/utils/cryptography/ECDSA.sol\":7617:7622  error */\n      dup3\n        /* \"@openzeppelin/contracts/utils/cryptography/ECDSA.sol\":7617:7656  error == RecoverError.InvalidSignatureS */\n      0x03\n      dup2\n      gt\n      iszero\n      tag_207\n      jumpi\n      tag_208\n      tag_187\n      jump\t// in\n    tag_208:\n    tag_207:\n      sub\n        /* \"@openzeppelin/contracts/utils/cryptography/ECDSA.sol\":7613:7722  if (error == RecoverError.InvalidSignatureS) {... */\n      tag_209\n      jumpi\n        /* \"@openzeppelin/contracts/utils/cryptography/ECDSA.sol\":7702:7710  errorArg */\n      dup1\n        /* \"@openzeppelin/contracts/utils/cryptography/ECDSA.sol\":7679:7711  ECDSAInvalidSignatureS(errorArg) */\n      mload(0x40)\n      0xd78bce0c00000000000000000000000000000000000000000000000000000000\n      dup2\n      mstore\n      0x04\n      add\n      tag_210\n      swap2\n      swap1\n      tag_211\n      jump\t// in\n    tag_210:\n      mload(0x40)\n      dup1\n      swap2\n      sub\n      swap1\n      revert\n        /* \"@openzeppelin/contracts/utils/cryptography/ECDSA.sol\":7613:7722  if (error == RecoverError.InvalidSignatureS) {... */\n    tag_209:\n        /* \"@openzeppelin/contracts/utils/cryptography/ECDSA.sol\":7196:7728  function _throwError(RecoverError error, bytes32 errorArg) private pure {... */\n    tag_184:\n      pop\n      pop\n      jump\t// out\n        /* \"@openzeppelin/contracts/utils/cryptography/ECDSA.sol\":5140:6670  function tryRecover(... */\n    tag_182:\n        /* \"@openzeppelin/contracts/utils/cryptography/ECDSA.sol\":5266:5273  address */\n      0x00\n        /* \"@openzeppelin/contracts/utils/cryptography/ECDSA.sol\":5275:5287  RecoverError */\n      dup1\n        /* \"@openzeppelin/contracts/utils/cryptography/ECDSA.sol\":5289:5296  bytes32 */\n      0x00\n        /* \"@openzeppelin/contracts/utils/cryptography/ECDSA.sol\":6199:6265  0x7FFFFFFFFFFFFFFFFFFFFFFFFFFFFFFF5D576E7357A4501DDFE92F46681B20A0 */\n      0x7fffffffffffffffffffffffffffffff5d576e7357a4501ddfe92f46681b20a0\n        /* \"@openzeppelin/contracts/utils/cryptography/ECDSA.sol\":6194:6195  s */\n      dup5\n        /* \"@openzeppelin/contracts/utils/cryptography/ECDSA.sol\":6186:6196  uint256(s) */\n      0x00\n      shr\n        /* \"@openzeppelin/contracts/utils/cryptography/ECDSA.sol\":6186:6265  uint256(s) > 0x7FFFFFFFFFFFFFFFFFFFFFFFFFFFFFFF5D576E7357A4501DDFE92F46681B20A0 */\n      gt\n        /* \"@openzeppelin/contracts/utils/cryptography/ECDSA.sol\":6182:6346  if (uint256(s) > 0x7FFFFFFFFFFFFFFFFFFFFFFFFFFFFFFF5D576E7357A4501DDFE92F46681B20A0) {... */\n      iszero\n      tag_213\n      jumpi\n        /* \"@openzeppelin/contracts/utils/cryptography/ECDSA.sol\":6297:6298  0 */\n      0x00\n        /* \"@openzeppelin/contracts/utils/cryptography/ECDSA.sol\":6301:6331  RecoverError.InvalidSignatureS */\n      0x03\n        /* \"@openzeppelin/contracts/utils/cryptography/ECDSA.sol\":6333:6334  s */\n      dup6\n        /* \"@openzeppelin/contracts/utils/cryptography/ECDSA.sol\":6281:6335  return (address(0), RecoverError.InvalidSignatureS, s) */\n      swap3\n      pop\n      swap3\n      pop\n      swap3\n      pop\n      jump(tag_212)\n        /* \"@openzeppelin/contracts/utils/cryptography/ECDSA.sol\":6182:6346  if (uint256(s) > 0x7FFFFFFFFFFFFFFFFFFFFFFFFFFFFFFF5D576E7357A4501DDFE92F46681B20A0) {... */\n    tag_213:\n        /* \"@openzeppelin/contracts/utils/cryptography/ECDSA.sol\":6440:6454  address signer */\n      0x00\n        /* \"@openzeppelin/contracts/utils/cryptography/ECDSA.sol\":6457:6481  ecrecover(hash, v, r, s) */\n      0x01\n        /* \"@openzeppelin/contracts/utils/cryptography/ECDSA.sol\":6467:6471  hash */\n      dup9\n        /* \"@openzeppelin/contracts/utils/cryptography/ECDSA.sol\":6473:6474  v */\n      dup9\n        /* \"@openzeppelin/contracts/utils/cryptography/ECDSA.sol\":6476:6477  r */\n      dup9\n        /* \"@openzeppelin/contracts/utils/cryptography/ECDSA.sol\":6479:6480  s */\n      dup9\n        /* \"@openzeppelin/contracts/utils/cryptography/ECDSA.sol\":6457:6481  ecrecover(hash, v, r, s) */\n      mload(0x40)\n      0x00\n      dup2\n      mstore\n      0x20\n      add\n      0x40\n      mstore\n      mload(0x40)\n      tag_214\n      swap5\n      swap4\n      swap3\n      swap2\n      swap1\n      tag_215\n      jump\t// in\n    tag_214:\n      0x20\n      mload(0x40)\n      0x20\n      dup2\n      sub\n      swap1\n      dup1\n      dup5\n      sub\n      swap1\n      dup6\n      gas\n      staticcall\n      iszero\n      dup1\n      iszero\n      tag_217\n      jumpi\n      returndatasize\n      0x00\n      dup1\n      returndatacopy\n      revert(0x00, returndatasize)\n    tag_217:\n      pop\n      pop\n      pop\n      mload(sub(mload(0x40), 0x20))\n        /* \"@openzeppelin/contracts/utils/cryptography/ECDSA.sol\":6440:6481  address signer = ecrecover(hash, v, r, s) */\n      swap1\n      pop\n        /* \"@openzeppelin/contracts/utils/cryptography/ECDSA.sol\":6513:6514  0 */\n      0x00\n        /* \"@openzeppelin/contracts/utils/cryptography/ECDSA.sol\":6495:6515  signer == address(0) */\n      0xffffffffffffffffffffffffffffffffffffffff\n      and\n        /* \"@openzeppelin/contracts/utils/cryptography/ECDSA.sol\":6495:6501  signer */\n      dup2\n        /* \"@openzeppelin/contracts/utils/cryptography/ECDSA.sol\":6495:6515  signer == address(0) */\n      0xffffffffffffffffffffffffffffffffffffffff\n      and\n      sub\n        /* \"@openzeppelin/contracts/utils/cryptography/ECDSA.sol\":6491:6604  if (signer == address(0)) {... */\n      tag_218\n      jumpi\n        /* \"@openzeppelin/contracts/utils/cryptography/ECDSA.sol\":6547:6548  0 */\n      0x00\n        /* \"@openzeppelin/contracts/utils/cryptography/ECDSA.sol\":6551:6580  RecoverError.InvalidSignature */\n      0x01\n        /* \"@openzeppelin/contracts/utils/cryptography/ECDSA.sol\":6590:6591  0 */\n      0x00\n        /* \"@openzeppelin/contracts/utils/cryptography/ECDSA.sol\":6582:6592  bytes32(0) */\n      dup1\n      shl\n        /* \"@openzeppelin/contracts/utils/cryptography/ECDSA.sol\":6531:6593  return (address(0), RecoverError.InvalidSignature, bytes32(0)) */\n      swap4\n      pop\n      swap4\n      pop\n      swap4\n      pop\n      pop\n      jump(tag_212)\n        /* \"@openzeppelin/contracts/utils/cryptography/ECDSA.sol\":6491:6604  if (signer == address(0)) {... */\n    tag_218:\n        /* \"@openzeppelin/contracts/utils/cryptography/ECDSA.sol\":6622:6628  signer */\n      dup1\n        /* \"@openzeppelin/contracts/utils/cryptography/ECDSA.sol\":6630:6650  RecoverError.NoError */\n      0x00\n        /* \"@openzeppelin/contracts/utils/cryptography/ECDSA.sol\":6660:6661  0 */\n      dup1\n        /* \"@openzeppelin/contracts/utils/cryptography/ECDSA.sol\":6652:6662  bytes32(0) */\n      0x00\n      shl\n        /* \"@openzeppelin/contracts/utils/cryptography/ECDSA.sol\":6614:6663  return (signer, RecoverError.NoError, bytes32(0)) */\n      swap4\n      pop\n      swap4\n      pop\n      swap4\n      pop\n      pop\n        /* \"@openzeppelin/contracts/utils/cryptography/ECDSA.sol\":5140:6670  function tryRecover(... */\n    tag_212:\n      swap5\n      pop\n      swap5\n      pop\n      swap5\n      swap2\n      pop\n      pop\n      jump\t// out\n        /* \"#utility.yul\":7:82   */\n    tag_219:\n        /* \"#utility.yul\":40:46   */\n      0x00\n        /* \"#utility.yul\":73:75   */\n      0x40\n        /* \"#utility.yul\":67:76   */\n      mload\n        /* \"#utility.yul\":57:76   */\n      swap1\n      pop\n        /* \"#utility.yul\":7:82   */\n      swap1\n      jump\t// out\n        /* \"#utility.yul\":88:205   */\n    tag_220:\n        /* \"#utility.yul\":197:198   */\n      0x00\n        /* \"#utility.yul\":194:195   */\n      dup1\n        /* \"#utility.yul\":187:199   */\n      revert\n        /* \"#utility.yul\":211:328   */\n    tag_221:\n        /* \"#utility.yul\":320:321   */\n      0x00\n        /* \"#utility.yul\":317:318   */\n      dup1\n        /* \"#utility.yul\":310:322   */\n      revert\n        /* \"#utility.yul\":334:411   */\n    tag_222:\n        /* \"#utility.yul\":371:378   */\n      0x00\n        /* \"#utility.yul\":400:405   */\n      dup2\n        /* \"#utility.yul\":389:405   */\n      swap1\n      pop\n        /* \"#utility.yul\":334:411   */\n      swap2\n      swap1\n      pop\n      jump\t// out\n        /* \"#utility.yul\":417:539   */\n    tag_223:\n        /* \"#utility.yul\":490:514   */\n      tag_280\n        /* \"#utility.yul\":508:513   */\n      dup2\n        /* \"#utility.yul\":490:514   */\n      tag_222\n      jump\t// in\n    tag_280:\n        /* \"#utility.yul\":483:488   */\n      dup2\n        /* \"#utility.yul\":480:515   */\n      eq\n        /* \"#utility.yul\":470:533   */\n      tag_281\n      jumpi\n        /* \"#utility.yul\":529:530   */\n      0x00\n        /* \"#utility.yul\":526:527   */\n      dup1\n        /* \"#utility.yul\":519:531   */\n      revert\n        /* \"#utility.yul\":470:533   */\n    tag_281:\n        /* \"#utility.yul\":417:539   */\n      pop\n      jump\t// out\n        /* \"#utility.yul\":545:684   */\n    tag_224:\n        /* \"#utility.yul\":591:596   */\n      0x00\n        /* \"#utility.yul\":629:635   */\n      dup2\n        /* \"#utility.yul\":616:636   */\n      calldataload\n        /* \"#utility.yul\":607:636   */\n      swap1\n      pop\n        /* \"#utility.yul\":645:678   */\n      tag_283\n        /* \"#utility.yul\":672:677   */\n      dup2\n        /* \"#utility.yul\":645:678   */\n      tag_223\n      jump\t// in\n    tag_283:\n        /* \"#utility.yul\":545:684   */\n      swap3\n      swap2\n      pop\n      pop\n      jump\t// out\n        /* \"#utility.yul\":690:1019   */\n    tag_22:\n        /* \"#utility.yul\":749:755   */\n      0x00\n        /* \"#utility.yul\":798:800   */\n      0x20\n        /* \"#utility.yul\":786:795   */\n      dup3\n        /* \"#utility.yul\":777:784   */\n      dup5\n        /* \"#utility.yul\":773:796   */\n      sub\n        /* \"#utility.yul\":769:801   */\n      slt\n        /* \"#utility.yul\":766:885   */\n      iszero\n      tag_285\n      jumpi\n        /* \"#utility.yul\":804:883   */\n      tag_286\n      tag_220\n      jump\t// in\n    tag_286:\n        /* \"#utility.yul\":766:885   */\n    tag_285:\n        /* \"#utility.yul\":924:925   */\n      0x00\n        /* \"#utility.yul\":949:1002   */\n      tag_287\n        /* \"#utility.yul\":994:1001   */\n      dup5\n        /* \"#utility.yul\":985:991   */\n      dup3\n        /* \"#utility.yul\":974:983   */\n      dup6\n        /* \"#utility.yul\":970:992   */\n      add\n        /* \"#utility.yul\":949:1002   */\n      tag_224\n      jump\t// in\n    tag_287:\n        /* \"#utility.yul\":939:1002   */\n      swap2\n      pop\n        /* \"#utility.yul\":895:1012   */\n      pop\n        /* \"#utility.yul\":690:1019   */\n      swap3\n      swap2\n      pop\n      pop\n      jump\t// out\n        /* \"#utility.yul\":1025:1143   */\n    tag_225:\n        /* \"#utility.yul\":1112:1136   */\n      tag_289\n        /* \"#utility.yul\":1130:1135   */\n      dup2\n        /* \"#utility.yul\":1112:1136   */\n      tag_222\n      jump\t// in\n    tag_289:\n        /* \"#utility.yul\":1107:1110   */\n      dup3\n        /* \"#utility.yul\":1100:1137   */\n      mstore\n        /* \"#utility.yul\":1025:1143   */\n      pop\n      pop\n      jump\t// out\n        /* \"#utility.yul\":1149:1371   */\n    tag_25:\n        /* \"#utility.yul\":1242:1246   */\n      0x00\n        /* \"#utility.yul\":1280:1282   */\n      0x20\n        /* \"#utility.yul\":1269:1278   */\n      dup3\n        /* \"#utility.yul\":1265:1283   */\n      add\n        /* \"#utility.yul\":1257:1283   */\n      swap1\n      pop\n        /* \"#utility.yul\":1293:1364   */\n      tag_291\n        /* \"#utility.yul\":1361:1362   */\n      0x00\n        /* \"#utility.yul\":1350:1359   */\n      dup4\n        /* \"#utility.yul\":1346:1363   */\n      add\n        /* \"#utility.yul\":1337:1343   */\n      dup5\n        /* \"#utility.yul\":1293:1364   */\n      tag_225\n      jump\t// in\n    tag_291:\n        /* \"#utility.yul\":1149:1371   */\n      swap3\n      swap2\n      pop\n      pop\n      jump\t// out\n        /* \"#utility.yul\":1377:1503   */\n    tag_226:\n        /* \"#utility.yul\":1414:1421   */\n      0x00\n        /* \"#utility.yul\":1454:1496   */\n      0xffffffffffffffffffffffffffffffffffffffff\n        /* \"#utility.yul\":1447:1452   */\n      dup3\n        /* \"#utility.yul\":1443:1497   */\n      and\n        /* \"#utility.yul\":1432:1497   */\n      swap1\n      pop\n        /* \"#utility.yul\":1377:1503   */\n      swap2\n      swap1\n      pop\n      jump\t// out\n        /* \"#utility.yul\":1509:1605   */\n    tag_227:\n        /* \"#utility.yul\":1546:1553   */\n      0x00\n        /* \"#utility.yul\":1575:1599   */\n      tag_294\n        /* \"#utility.yul\":1593:1598   */\n      dup3\n        /* \"#utility.yul\":1575:1599   */\n      tag_226\n      jump\t// in\n    tag_294:\n        /* \"#utility.yul\":1564:1599   */\n      swap1\n      pop\n        /* \"#utility.yul\":1509:1605   */\n      swap2\n      swap1\n      pop\n      jump\t// out\n        /* \"#utility.yul\":1611:1733   */\n    tag_228:\n        /* \"#utility.yul\":1684:1708   */\n      tag_296\n        /* \"#utility.yul\":1702:1707   */\n      dup2\n        /* \"#utility.yul\":1684:1708   */\n      tag_227\n      jump\t// in\n    tag_296:\n        /* \"#utility.yul\":1677:1682   */\n      dup2\n        /* \"#utility.yul\":1674:1709   */\n      eq\n        /* \"#utility.yul\":1664:1727   */\n      tag_297\n      jumpi\n        /* \"#utility.yul\":1723:1724   */\n      0x00\n        /* \"#utility.yul\":1720:1721   */\n      dup1\n        /* \"#utility.yul\":1713:1725   */\n      revert\n        /* \"#utility.yul\":1664:1727   */\n    tag_297:\n        /* \"#utility.yul\":1611:1733   */\n      pop\n      jump\t// out\n        /* \"#utility.yul\":1739:1878   */\n    tag_229:\n        /* \"#utility.yul\":1785:1790   */\n      0x00\n        /* \"#utility.yul\":1823:1829   */\n      dup2\n        /* \"#utility.yul\":1810:1830   */\n      calldataload\n        /* \"#utility.yul\":1801:1830   */\n      swap1\n      pop\n        /* \"#utility.yul\":1839:1872   */\n      tag_299\n        /* \"#utility.yul\":1866:1871   */\n      dup2\n        /* \"#utility.yul\":1839:1872   */\n      tag_228\n      jump\t// in\n    tag_299:\n        /* \"#utility.yul\":1739:1878   */\n      swap3\n      swap2\n      pop\n      pop\n      jump\t// out\n        /* \"#utility.yul\":1884:1974   */\n    tag_230:\n        /* \"#utility.yul\":1918:1925   */\n      0x00\n        /* \"#utility.yul\":1961:1966   */\n      dup2\n        /* \"#utility.yul\":1954:1967   */\n      iszero\n        /* \"#utility.yul\":1947:1968   */\n      iszero\n        /* \"#utility.yul\":1936:1968   */\n      swap1\n      pop\n        /* \"#utility.yul\":1884:1974   */\n      swap2\n      swap1\n      pop\n      jump\t// out\n        /* \"#utility.yul\":1980:2096   */\n    tag_231:\n        /* \"#utility.yul\":2050:2071   */\n      tag_302\n        /* \"#utility.yul\":2065:2070   */\n      dup2\n        /* \"#utility.yul\":2050:2071   */\n      tag_230\n      jump\t// in\n    tag_302:\n        /* \"#utility.yul\":2043:2048   */\n      dup2\n        /* \"#utility.yul\":2040:2072   */\n      eq\n        /* \"#utility.yul\":2030:2090   */\n      tag_303\n      jumpi\n        /* \"#utility.yul\":2086:2087   */\n      0x00\n        /* \"#utility.yul\":2083:2084   */\n      dup1\n        /* \"#utility.yul\":2076:2088   */\n      revert\n        /* \"#utility.yul\":2030:2090   */\n    tag_303:\n        /* \"#utility.yul\":1980:2096   */\n      pop\n      jump\t// out\n        /* \"#utility.yul\":2102:2235   */\n    tag_232:\n        /* \"#utility.yul\":2145:2150   */\n      0x00\n        /* \"#utility.yul\":2183:2189   */\n      dup2\n        /* \"#utility.yul\":2170:2190   */\n      calldataload\n        /* \"#utility.yul\":2161:2190   */\n      swap1\n      pop\n        /* \"#utility.yul\":2199:2229   */\n      tag_305\n        /* \"#utility.yul\":2223:2228   */\n      dup2\n        /* \"#utility.yul\":2199:2229   */\n      tag_231\n      jump\t// in\n    tag_305:\n        /* \"#utility.yul\":2102:2235   */\n      swap3\n      swap2\n      pop\n      pop\n      jump\t// out\n        /* \"#utility.yul\":2241:2709   */\n    tag_28:\n        /* \"#utility.yul\":2306:2312   */\n      0x00\n        /* \"#utility.yul\":2314:2320   */\n      dup1\n        /* \"#utility.yul\":2363:2365   */\n      0x40\n        /* \"#utility.yul\":2351:2360   */\n      dup4\n        /* \"#utility.yul\":2342:2349   */\n      dup6\n        /* \"#utility.yul\":2338:2361   */\n      sub\n        /* \"#utility.yul\":2334:2366   */\n      slt\n        /* \"#utility.yul\":2331:2450   */\n      iszero\n      tag_307\n      jumpi\n        /* \"#utility.yul\":2369:2448   */\n      tag_308\n      tag_220\n      jump\t// in\n    tag_308:\n        /* \"#utility.yul\":2331:2450   */\n    tag_307:\n        /* \"#utility.yul\":2489:2490   */\n      0x00\n        /* \"#utility.yul\":2514:2567   */\n      tag_309\n        /* \"#utility.yul\":2559:2566   */\n      dup6\n        /* \"#utility.yul\":2550:2556   */\n      dup3\n        /* \"#utility.yul\":2539:2548   */\n      dup7\n        /* \"#utility.yul\":2535:2557   */\n      add\n        /* \"#utility.yul\":2514:2567   */\n      tag_229\n      jump\t// in\n    tag_309:\n        /* \"#utility.yul\":2504:2567   */\n      swap3\n      pop\n        /* \"#utility.yul\":2460:2577   */\n      pop\n        /* \"#utility.yul\":2616:2618   */\n      0x20\n        /* \"#utility.yul\":2642:2692   */\n      tag_310\n        /* \"#utility.yul\":2684:2691   */\n      dup6\n        /* \"#utility.yul\":2675:2681   */\n      dup3\n        /* \"#utility.yul\":2664:2673   */\n      dup7\n        /* \"#utility.yul\":2660:2682   */\n      add\n        /* \"#utility.yul\":2642:2692   */\n      tag_232\n      jump\t// in\n    tag_310:\n        /* \"#utility.yul\":2632:2692   */\n      swap2\n      pop\n        /* \"#utility.yul\":2587:2702   */\n      pop\n        /* \"#utility.yul\":2241:2709   */\n      swap3\n      pop\n      swap3\n      swap1\n      pop\n      jump\t// out\n        /* \"#utility.yul\":2715:2833   */\n    tag_233:\n        /* \"#utility.yul\":2802:2826   */\n      tag_312\n        /* \"#utility.yul\":2820:2825   */\n      dup2\n        /* \"#utility.yul\":2802:2826   */\n      tag_227\n      jump\t// in\n    tag_312:\n        /* \"#utility.yul\":2797:2800   */\n      dup3\n        /* \"#utility.yul\":2790:2827   */\n      mstore\n        /* \"#utility.yul\":2715:2833   */\n      pop\n      pop\n      jump\t// out\n        /* \"#utility.yul\":2839:3061   */\n    tag_33:\n        /* \"#utility.yul\":2932:2936   */\n      0x00\n        /* \"#utility.yul\":2970:2972   */\n      0x20\n        /* \"#utility.yul\":2959:2968   */\n      dup3\n        /* \"#utility.yul\":2955:2973   */\n      add\n        /* \"#utility.yul\":2947:2973   */\n      swap1\n      pop\n        /* \"#utility.yul\":2983:3054   */\n      tag_314\n        /* \"#utility.yul\":3051:3052   */\n      0x00\n        /* \"#utility.yul\":3040:3049   */\n      dup4\n        /* \"#utility.yul\":3036:3053   */\n      add\n        /* \"#utility.yul\":3027:3033   */\n      dup5\n        /* \"#utility.yul\":2983:3054   */\n      tag_233\n      jump\t// in\n    tag_314:\n        /* \"#utility.yul\":2839:3061   */\n      swap3\n      swap2\n      pop\n      pop\n      jump\t// out\n        /* \"#utility.yul\":3067:3144   */\n    tag_234:\n        /* \"#utility.yul\":3104:3111   */\n      0x00\n        /* \"#utility.yul\":3133:3138   */\n      dup2\n        /* \"#utility.yul\":3122:3138   */\n      swap1\n      pop\n        /* \"#utility.yul\":3067:3144   */\n      swap2\n      swap1\n      pop\n      jump\t// out\n        /* \"#utility.yul\":3150:3272   */\n    tag_235:\n        /* \"#utility.yul\":3223:3247   */\n      tag_317\n        /* \"#utility.yul\":3241:3246   */\n      dup2\n        /* \"#utility.yul\":3223:3247   */\n      tag_234\n      jump\t// in\n    tag_317:\n        /* \"#utility.yul\":3216:3221   */\n      dup2\n        /* \"#utility.yul\":3213:3248   */\n      eq\n        /* \"#utility.yul\":3203:3266   */\n      tag_318\n      jumpi\n        /* \"#utility.yul\":3262:3263   */\n      0x00\n        /* \"#utility.yul\":3259:3260   */\n      dup1\n        /* \"#utility.yul\":3252:3264   */\n      revert\n        /* \"#utility.yul\":3203:3266   */\n    tag_318:\n        /* \"#utility.yul\":3150:3272   */\n      pop\n      jump\t// out\n        /* \"#utility.yul\":3278:3417   */\n    tag_236:\n        /* \"#utility.yul\":3324:3329   */\n      0x00\n        /* \"#utility.yul\":3362:3368   */\n      dup2\n        /* \"#utility.yul\":3349:3369   */\n      calldataload\n        /* \"#utility.yul\":3340:3369   */\n      swap1\n      pop\n        /* \"#utility.yul\":3378:3411   */\n      tag_320\n        /* \"#utility.yul\":3405:3410   */\n      dup2\n        /* \"#utility.yul\":3378:3411   */\n      tag_235\n      jump\t// in\n    tag_320:\n        /* \"#utility.yul\":3278:3417   */\n      swap3\n      swap2\n      pop\n      pop\n      jump\t// out\n        /* \"#utility.yul\":3423:4042   */\n    tag_36:\n        /* \"#utility.yul\":3500:3506   */\n      0x00\n        /* \"#utility.yul\":3508:3514   */\n      dup1\n        /* \"#utility.yul\":3516:3522   */\n      0x00\n        /* \"#utility.yul\":3565:3567   */\n      0x60\n        /* \"#utility.yul\":3553:3562   */\n      dup5\n        /* \"#utility.yul\":3544:3551   */\n      dup7\n        /* \"#utility.yul\":3540:3563   */\n      sub\n        /* \"#utility.yul\":3536:3568   */\n      slt\n        /* \"#utility.yul\":3533:3652   */\n      iszero\n      tag_322\n      jumpi\n        /* \"#utility.yul\":3571:3650   */\n      tag_323\n      tag_220\n      jump\t// in\n    tag_323:\n        /* \"#utility.yul\":3533:3652   */\n    tag_322:\n        /* \"#utility.yul\":3691:3692   */\n      0x00\n        /* \"#utility.yul\":3716:3769   */\n      tag_324\n        /* \"#utility.yul\":3761:3768   */\n      dup7\n        /* \"#utility.yul\":3752:3758   */\n      dup3\n        /* \"#utility.yul\":3741:3750   */\n      dup8\n        /* \"#utility.yul\":3737:3759   */\n      add\n        /* \"#utility.yul\":3716:3769   */\n      tag_224\n      jump\t// in\n    tag_324:\n        /* \"#utility.yul\":3706:3769   */\n      swap4\n      pop\n        /* \"#utility.yul\":3662:3779   */\n      pop\n        /* \"#utility.yul\":3818:3820   */\n      0x20\n        /* \"#utility.yul\":3844:3897   */\n      tag_325\n        /* \"#utility.yul\":3889:3896   */\n      dup7\n        /* \"#utility.yul\":3880:3886   */\n      dup3\n        /* \"#utility.yul\":3869:3878   */\n      dup8\n        /* \"#utility.yul\":3865:3887   */\n      add\n        /* \"#utility.yul\":3844:3897   */\n      tag_224\n      jump\t// in\n    tag_325:\n        /* \"#utility.yul\":3834:3897   */\n      swap3\n      pop\n        /* \"#utility.yul\":3789:3907   */\n      pop\n        /* \"#utility.yul\":3946:3948   */\n      0x40\n        /* \"#utility.yul\":3972:4025   */\n      tag_326\n        /* \"#utility.yul\":4017:4024   */\n      dup7\n        /* \"#utility.yul\":4008:4014   */\n      dup3\n        /* \"#utility.yul\":3997:4006   */\n      dup8\n        /* \"#utility.yul\":3993:4015   */\n      add\n        /* \"#utility.yul\":3972:4025   */\n      tag_236\n      jump\t// in\n    tag_326:\n        /* \"#utility.yul\":3962:4025   */\n      swap2\n      pop\n        /* \"#utility.yul\":3917:4035   */\n      pop\n        /* \"#utility.yul\":3423:4042   */\n      swap3\n      pop\n      swap3\n      pop\n      swap3\n      jump\t// out\n        /* \"#utility.yul\":4048:4522   */\n    tag_40:\n        /* \"#utility.yul\":4116:4122   */\n      0x00\n        /* \"#utility.yul\":4124:4130   */\n      dup1\n        /* \"#utility.yul\":4173:4175   */\n      0x40\n        /* \"#utility.yul\":4161:4170   */\n      dup4\n        /* \"#utility.yul\":4152:4159   */\n      dup6\n        /* \"#utility.yul\":4148:4171   */\n      sub\n        /* \"#utility.yul\":4144:4176   */\n      slt\n        /* \"#utility.yul\":4141:4260   */\n      iszero\n      tag_328\n      jumpi\n        /* \"#utility.yul\":4179:4258   */\n      tag_329\n      tag_220\n      jump\t// in\n    tag_329:\n        /* \"#utility.yul\":4141:4260   */\n    tag_328:\n        /* \"#utility.yul\":4299:4300   */\n      0x00\n        /* \"#utility.yul\":4324:4377   */\n      tag_330\n        /* \"#utility.yul\":4369:4376   */\n      dup6\n        /* \"#utility.yul\":4360:4366   */\n      dup3\n        /* \"#utility.yul\":4349:4358   */\n      dup7\n        /* \"#utility.yul\":4345:4367   */\n      add\n        /* \"#utility.yul\":4324:4377   */\n      tag_224\n      jump\t// in\n    tag_330:\n        /* \"#utility.yul\":4314:4377   */\n      swap3\n      pop\n        /* \"#utility.yul\":4270:4387   */\n      pop\n        /* \"#utility.yul\":4426:4428   */\n      0x20\n        /* \"#utility.yul\":4452:4505   */\n      tag_331\n        /* \"#utility.yul\":4497:4504   */\n      dup6\n        /* \"#utility.yul\":4488:4494   */\n      dup3\n        /* \"#utility.yul\":4477:4486   */\n      dup7\n        /* \"#utility.yul\":4473:4495   */\n      add\n        /* \"#utility.yul\":4452:4505   */\n      tag_224\n      jump\t// in\n    tag_331:\n        /* \"#utility.yul\":4442:4505   */\n      swap2\n      pop\n        /* \"#utility.yul\":4397:4515   */\n      pop\n        /* \"#utility.yul\":4048:4522   */\n      swap3\n      pop\n      swap3\n      swap1\n      pop\n      jump\t// out\n        /* \"#utility.yul\":4528:4588   */\n    tag_237:\n        /* \"#utility.yul\":4556:4559   */\n      0x00\n        /* \"#utility.yul\":4577:4582   */\n      dup2\n        /* \"#utility.yul\":4570:4582   */\n      swap1\n      pop\n        /* \"#utility.yul\":4528:4588   */\n      swap2\n      swap1\n      pop\n      jump\t// out\n        /* \"#utility.yul\":4594:4736   */\n    tag_238:\n        /* \"#utility.yul\":4644:4653   */\n      0x00\n        /* \"#utility.yul\":4677:4730   */\n      tag_334\n        /* \"#utility.yul\":4695:4729   */\n      tag_335\n        /* \"#utility.yul\":4704:4728   */\n      tag_336\n        /* \"#utility.yul\":4722:4727   */\n      dup5\n        /* \"#utility.yul\":4704:4728   */\n      tag_226\n      jump\t// in\n    tag_336:\n        /* \"#utility.yul\":4695:4729   */\n      tag_237\n      jump\t// in\n    tag_335:\n        /* \"#utility.yul\":4677:4730   */\n      tag_226\n      jump\t// in\n    tag_334:\n        /* \"#utility.yul\":4664:4730   */\n      swap1\n      pop\n        /* \"#utility.yul\":4594:4736   */\n      swap2\n      swap1\n      pop\n      jump\t// out\n        /* \"#utility.yul\":4742:4868   */\n    tag_239:\n        /* \"#utility.yul\":4792:4801   */\n      0x00\n        /* \"#utility.yul\":4825:4862   */\n      tag_338\n        /* \"#utility.yul\":4856:4861   */\n      dup3\n        /* \"#utility.yul\":4825:4862   */\n      tag_238\n      jump\t// in\n    tag_338:\n        /* \"#utility.yul\":4812:4862   */\n      swap1\n      pop\n        /* \"#utility.yul\":4742:4868   */\n      swap2\n      swap1\n      pop\n      jump\t// out\n        /* \"#utility.yul\":4874:5014   */\n    tag_240:\n        /* \"#utility.yul\":4938:4947   */\n      0x00\n        /* \"#utility.yul\":4971:5008   */\n      tag_340\n        /* \"#utility.yul\":5002:5007   */\n      dup3\n        /* \"#utility.yul\":4971:5008   */\n      tag_239\n      jump\t// in\n    tag_340:\n        /* \"#utility.yul\":4958:5008   */\n      swap1\n      pop\n        /* \"#utility.yul\":4874:5014   */\n      swap2\n      swap1\n      pop\n      jump\t// out\n        /* \"#utility.yul\":5020:5179   */\n    tag_241:\n        /* \"#utility.yul\":5121:5172   */\n      tag_342\n        /* \"#utility.yul\":5166:5171   */\n      dup2\n        /* \"#utility.yul\":5121:5172   */\n      tag_240\n      jump\t// in\n    tag_342:\n        /* \"#utility.yul\":5116:5119   */\n      dup3\n        /* \"#utility.yul\":5109:5173   */\n      mstore\n        /* \"#utility.yul\":5020:5179   */\n      pop\n      pop\n      jump\t// out\n        /* \"#utility.yul\":5185:5435   */\n    tag_45:\n        /* \"#utility.yul\":5292:5296   */\n      0x00\n        /* \"#utility.yul\":5330:5332   */\n      0x20\n        /* \"#utility.yul\":5319:5328   */\n      dup3\n        /* \"#utility.yul\":5315:5333   */\n      add\n        /* \"#utility.yul\":5307:5333   */\n      swap1\n      pop\n        /* \"#utility.yul\":5343:5428   */\n      tag_344\n        /* \"#utility.yul\":5425:5426   */\n      0x00\n        /* \"#utility.yul\":5414:5423   */\n      dup4\n        /* \"#utility.yul\":5410:5427   */\n      add\n        /* \"#utility.yul\":5401:5407   */\n      dup5\n        /* \"#utility.yul\":5343:5428   */\n      tag_241\n      jump\t// in\n    tag_344:\n        /* \"#utility.yul\":5185:5435   */\n      swap3\n      swap2\n      pop\n      pop\n      jump\t// out\n        /* \"#utility.yul\":5441:5558   */\n    tag_242:\n        /* \"#utility.yul\":5550:5551   */\n      0x00\n        /* \"#utility.yul\":5547:5548   */\n      dup1\n        /* \"#utility.yul\":5540:5552   */\n      revert\n        /* \"#utility.yul\":5564:5681   */\n    tag_243:\n        /* \"#utility.yul\":5673:5674   */\n      0x00\n        /* \"#utility.yul\":5670:5671   */\n      dup1\n        /* \"#utility.yul\":5663:5675   */\n      revert\n        /* \"#utility.yul\":5687:5789   */\n    tag_244:\n        /* \"#utility.yul\":5728:5734   */\n      0x00\n        /* \"#utility.yul\":5779:5781   */\n      0x1f\n        /* \"#utility.yul\":5775:5782   */\n      not\n        /* \"#utility.yul\":5770:5772   */\n      0x1f\n        /* \"#utility.yul\":5763:5768   */\n      dup4\n        /* \"#utility.yul\":5759:5773   */\n      add\n        /* \"#utility.yul\":5755:5783   */\n      and\n        /* \"#utility.yul\":5745:5783   */\n      swap1\n      pop\n        /* \"#utility.yul\":5687:5789   */\n      swap2\n      swap1\n      pop\n      jump\t// out\n        /* \"#utility.yul\":5795:5975   */\n    tag_245:\n        /* \"#utility.yul\":5843:5920   */\n      0x4e487b7100000000000000000000000000000000000000000000000000000000\n        /* \"#utility.yul\":5840:5841   */\n      0x00\n        /* \"#utility.yul\":5833:5921   */\n      mstore\n        /* \"#utility.yul\":5940:5944   */\n      0x41\n        /* \"#utility.yul\":5937:5938   */\n      0x04\n        /* \"#utility.yul\":5930:5945   */\n      mstore\n        /* \"#utility.yul\":5964:5968   */\n      0x24\n        /* \"#utility.yul\":5961:5962   */\n      0x00\n        /* \"#utility.yul\":5954:5969   */\n      revert\n        /* \"#utility.yul\":5981:6262   */\n    tag_246:\n        /* \"#utility.yul\":6064:6091   */\n      tag_350\n        /* \"#utility.yul\":6086:6090   */\n      dup3\n        /* \"#utility.yul\":6064:6091   */\n      tag_244\n      jump\t// in\n    tag_350:\n        /* \"#utility.yul\":6056:6062   */\n      dup2\n        /* \"#utility.yul\":6052:6092   */\n      add\n        /* \"#utility.yul\":6194:6200   */\n      dup2\n        /* \"#utility.yul\":6182:6192   */\n      dup2\n        /* \"#utility.yul\":6179:6201   */\n      lt\n        /* \"#utility.yul\":6158:6176   */\n      0xffffffffffffffff\n        /* \"#utility.yul\":6146:6156   */\n      dup3\n        /* \"#utility.yul\":6143:6177   */\n      gt\n        /* \"#utility.yul\":6140:6202   */\n      or\n        /* \"#utility.yul\":6137:6225   */\n      iszero\n      tag_351\n      jumpi\n        /* \"#utility.yul\":6205:6223   */\n      tag_352\n      tag_245\n      jump\t// in\n    tag_352:\n        /* \"#utility.yul\":6137:6225   */\n    tag_351:\n        /* \"#utility.yul\":6245:6255   */\n      dup1\n        /* \"#utility.yul\":6241:6243   */\n      0x40\n        /* \"#utility.yul\":6234:6256   */\n      mstore\n        /* \"#utility.yul\":6024:6262   */\n      pop\n        /* \"#utility.yul\":5981:6262   */\n      pop\n      pop\n      jump\t// out\n        /* \"#utility.yul\":6268:6397   */\n    tag_247:\n        /* \"#utility.yul\":6302:6308   */\n      0x00\n        /* \"#utility.yul\":6329:6349   */\n      tag_354\n      tag_219\n      jump\t// in\n    tag_354:\n        /* \"#utility.yul\":6319:6349   */\n      swap1\n      pop\n        /* \"#utility.yul\":6358:6391   */\n      tag_355\n        /* \"#utility.yul\":6386:6390   */\n      dup3\n        /* \"#utility.yul\":6378:6384   */\n      dup3\n        /* \"#utility.yul\":6358:6391   */\n      tag_246\n      jump\t// in\n    tag_355:\n        /* \"#utility.yul\":6268:6397   */\n      swap2\n      swap1\n      pop\n      jump\t// out\n        /* \"#utility.yul\":6403:6710   */\n    tag_248:\n        /* \"#utility.yul\":6464:6468   */\n      0x00\n        /* \"#utility.yul\":6554:6572   */\n      0xffffffffffffffff\n        /* \"#utility.yul\":6546:6552   */\n      dup3\n        /* \"#utility.yul\":6543:6573   */\n      gt\n        /* \"#utility.yul\":6540:6596   */\n      iszero\n      tag_357\n      jumpi\n        /* \"#utility.yul\":6576:6594   */\n      tag_358\n      tag_245\n      jump\t// in\n    tag_358:\n        /* \"#utility.yul\":6540:6596   */\n    tag_357:\n        /* \"#utility.yul\":6614:6643   */\n      tag_359\n        /* \"#utility.yul\":6636:6642   */\n      dup3\n        /* \"#utility.yul\":6614:6643   */\n      tag_244\n      jump\t// in\n    tag_359:\n        /* \"#utility.yul\":6606:6643   */\n      swap1\n      pop\n        /* \"#utility.yul\":6698:6702   */\n      0x20\n        /* \"#utility.yul\":6692:6696   */\n      dup2\n        /* \"#utility.yul\":6688:6703   */\n      add\n        /* \"#utility.yul\":6680:6703   */\n      swap1\n      pop\n        /* \"#utility.yul\":6403:6710   */\n      swap2\n      swap1\n      pop\n      jump\t// out\n        /* \"#utility.yul\":6716:6864   */\n    tag_249:\n        /* \"#utility.yul\":6814:6820   */\n      dup3\n        /* \"#utility.yul\":6809:6812   */\n      dup2\n        /* \"#utility.yul\":6804:6807   */\n      dup4\n        /* \"#utility.yul\":6791:6821   */\n      calldatacopy\n        /* \"#utility.yul\":6855:6856   */\n      0x00\n        /* \"#utility.yul\":6846:6852   */\n      dup4\n        /* \"#utility.yul\":6841:6844   */\n      dup4\n        /* \"#utility.yul\":6837:6853   */\n      add\n        /* \"#utility.yul\":6830:6857   */\n      mstore\n        /* \"#utility.yul\":6716:6864   */\n      pop\n      pop\n      pop\n      jump\t// out\n        /* \"#utility.yul\":6870:7293   */\n    tag_250:\n        /* \"#utility.yul\":6947:6952   */\n      0x00\n        /* \"#utility.yul\":6972:7037   */\n      tag_362\n        /* \"#utility.yul\":6988:7036   */\n      tag_363\n        /* \"#utility.yul\":7029:7035   */\n      dup5\n        /* \"#utility.yul\":6988:7036   */\n      tag_248\n      jump\t// in\n    tag_363:\n        /* \"#utility.yul\":6972:7037   */\n      tag_247\n      jump\t// in\n    tag_362:\n        /* \"#utility.yul\":6963:7037   */\n      swap1\n      pop\n        /* \"#utility.yul\":7060:7066   */\n      dup3\n        /* \"#utility.yul\":7053:7058   */\n      dup2\n        /* \"#utility.yul\":7046:7067   */\n      mstore\n        /* \"#utility.yul\":7098:7102   */\n      0x20\n        /* \"#utility.yul\":7091:7096   */\n      dup2\n        /* \"#utility.yul\":7087:7103   */\n      add\n        /* \"#utility.yul\":7136:7139   */\n      dup5\n        /* \"#utility.yul\":7127:7133   */\n      dup5\n        /* \"#utility.yul\":7122:7125   */\n      dup5\n        /* \"#utility.yul\":7118:7134   */\n      add\n        /* \"#utility.yul\":7115:7140   */\n      gt\n        /* \"#utility.yul\":7112:7224   */\n      iszero\n      tag_364\n      jumpi\n        /* \"#utility.yul\":7143:7222   */\n      tag_365\n      tag_243\n      jump\t// in\n    tag_365:\n        /* \"#utility.yul\":7112:7224   */\n    tag_364:\n        /* \"#utility.yul\":7233:7287   */\n      tag_366\n        /* \"#utility.yul\":7280:7286   */\n      dup5\n        /* \"#utility.yul\":7275:7278   */\n      dup3\n        /* \"#utility.yul\":7270:7273   */\n      dup6\n        /* \"#utility.yul\":7233:7287   */\n      tag_249\n      jump\t// in\n    tag_366:\n        /* \"#utility.yul\":6953:7293   */\n      pop\n        /* \"#utility.yul\":6870:7293   */\n      swap4\n      swap3\n      pop\n      pop\n      pop\n      jump\t// out\n        /* \"#utility.yul\":7312:7650   */\n    tag_251:\n        /* \"#utility.yul\":7367:7372   */\n      0x00\n        /* \"#utility.yul\":7416:7419   */\n      dup3\n        /* \"#utility.yul\":7409:7413   */\n      0x1f\n        /* \"#utility.yul\":7401:7407   */\n      dup4\n        /* \"#utility.yul\":7397:7414   */\n      add\n        /* \"#utility.yul\":7393:7420   */\n      slt\n        /* \"#utility.yul\":7383:7505   */\n      tag_368\n      jumpi\n        /* \"#utility.yul\":7424:7503   */\n      tag_369\n      tag_242\n      jump\t// in\n    tag_369:\n        /* \"#utility.yul\":7383:7505   */\n    tag_368:\n        /* \"#utility.yul\":7541:7547   */\n      dup2\n        /* \"#utility.yul\":7528:7548   */\n      calldataload\n        /* \"#utility.yul\":7566:7644   */\n      tag_370\n        /* \"#utility.yul\":7640:7643   */\n      dup5\n        /* \"#utility.yul\":7632:7638   */\n      dup3\n        /* \"#utility.yul\":7625:7629   */\n      0x20\n        /* \"#utility.yul\":7617:7623   */\n      dup7\n        /* \"#utility.yul\":7613:7630   */\n      add\n        /* \"#utility.yul\":7566:7644   */\n      tag_250\n      jump\t// in\n    tag_370:\n        /* \"#utility.yul\":7557:7644   */\n      swap2\n      pop\n        /* \"#utility.yul\":7373:7650   */\n      pop\n        /* \"#utility.yul\":7312:7650   */\n      swap3\n      swap2\n      pop\n      pop\n      jump\t// out\n        /* \"#utility.yul\":7656:8745   */\n    tag_50:\n        /* \"#utility.yul\":7760:7766   */\n      0x00\n        /* \"#utility.yul\":7768:7774   */\n      dup1\n        /* \"#utility.yul\":7776:7782   */\n      0x00\n        /* \"#utility.yul\":7784:7790   */\n      dup1\n        /* \"#utility.yul\":7792:7798   */\n      0x00\n        /* \"#utility.yul\":7841:7844   */\n      0xa0\n        /* \"#utility.yul\":7829:7838   */\n      dup7\n        /* \"#utility.yul\":7820:7827   */\n      dup9\n        /* \"#utility.yul\":7816:7839   */\n      sub\n        /* \"#utility.yul\":7812:7845   */\n      slt\n        /* \"#utility.yul\":7809:7929   */\n      iszero\n      tag_372\n      jumpi\n        /* \"#utility.yul\":7848:7927   */\n      tag_373\n      tag_220\n      jump\t// in\n    tag_373:\n        /* \"#utility.yul\":7809:7929   */\n    tag_372:\n        /* \"#utility.yul\":7968:7969   */\n      0x00\n        /* \"#utility.yul\":7993:8046   */\n      tag_374\n        /* \"#utility.yul\":8038:8045   */\n      dup9\n        /* \"#utility.yul\":8029:8035   */\n      dup3\n        /* \"#utility.yul\":8018:8027   */\n      dup10\n        /* \"#utility.yul\":8014:8036   */\n      add\n        /* \"#utility.yul\":7993:8046   */\n      tag_224\n      jump\t// in\n    tag_374:\n        /* \"#utility.yul\":7983:8046   */\n      swap6\n      pop\n        /* \"#utility.yul\":7939:8056   */\n      pop\n        /* \"#utility.yul\":8095:8097   */\n      0x20\n        /* \"#utility.yul\":8121:8174   */\n      tag_375\n        /* \"#utility.yul\":8166:8173   */\n      dup9\n        /* \"#utility.yul\":8157:8163   */\n      dup3\n        /* \"#utility.yul\":8146:8155   */\n      dup10\n        /* \"#utility.yul\":8142:8164   */\n      add\n        /* \"#utility.yul\":8121:8174   */\n      tag_224\n      jump\t// in\n    tag_375:\n        /* \"#utility.yul\":8111:8174   */\n      swap5\n      pop\n        /* \"#utility.yul\":8066:8184   */\n      pop\n        /* \"#utility.yul\":8223:8225   */\n      0x40\n        /* \"#utility.yul\":8249:8302   */\n      tag_376\n        /* \"#utility.yul\":8294:8301   */\n      dup9\n        /* \"#utility.yul\":8285:8291   */\n      dup3\n        /* \"#utility.yul\":8274:8283   */\n      dup10\n        /* \"#utility.yul\":8270:8292   */\n      add\n        /* \"#utility.yul\":8249:8302   */\n      tag_229\n      jump\t// in\n    tag_376:\n        /* \"#utility.yul\":8239:8302   */\n      swap4\n      pop\n        /* \"#utility.yul\":8194:8312   */\n      pop\n        /* \"#utility.yul\":8351:8353   */\n      0x60\n        /* \"#utility.yul\":8377:8430   */\n      tag_377\n        /* \"#utility.yul\":8422:8429   */\n      dup9\n        /* \"#utility.yul\":8413:8419   */\n      dup3\n        /* \"#utility.yul\":8402:8411   */\n      dup10\n        /* \"#utility.yul\":8398:8420   */\n      add\n        /* \"#utility.yul\":8377:8430   */\n      tag_236\n      jump\t// in\n    tag_377:\n        /* \"#utility.yul\":8367:8430   */\n      swap3\n      pop\n        /* \"#utility.yul\":8322:8440   */\n      pop\n        /* \"#utility.yul\":8507:8510   */\n      0x80\n        /* \"#utility.yul\":8496:8505   */\n      dup7\n        /* \"#utility.yul\":8492:8511   */\n      add\n        /* \"#utility.yul\":8479:8512   */\n      calldataload\n        /* \"#utility.yul\":8539:8557   */\n      0xffffffffffffffff\n        /* \"#utility.yul\":8531:8537   */\n      dup2\n        /* \"#utility.yul\":8528:8558   */\n      gt\n        /* \"#utility.yul\":8525:8642   */\n      iszero\n      tag_378\n      jumpi\n        /* \"#utility.yul\":8561:8640   */\n      tag_379\n      tag_221\n      jump\t// in\n    tag_379:\n        /* \"#utility.yul\":8525:8642   */\n    tag_378:\n        /* \"#utility.yul\":8666:8728   */\n      tag_380\n        /* \"#utility.yul\":8720:8727   */\n      dup9\n        /* \"#utility.yul\":8711:8717   */\n      dup3\n        /* \"#utility.yul\":8700:8709   */\n      dup10\n        /* \"#utility.yul\":8696:8718   */\n      add\n        /* \"#utility.yul\":8666:8728   */\n      tag_251\n      jump\t// in\n    tag_380:\n        /* \"#utility.yul\":8656:8728   */\n      swap2\n      pop\n        /* \"#utility.yul\":8450:8738   */\n      pop\n        /* \"#utility.yul\":7656:8745   */\n      swap3\n      swap6\n      pop\n      swap3\n      swap6\n      swap1\n      swap4\n      pop\n      jump\t// out\n        /* \"#utility.yul\":8751:9080   */\n    tag_54:\n        /* \"#utility.yul\":8810:8816   */\n      0x00\n        /* \"#utility.yul\":8859:8861   */\n      0x20\n        /* \"#utility.yul\":8847:8856   */\n      dup3\n        /* \"#utility.yul\":8838:8845   */\n      dup5\n        /* \"#utility.yul\":8834:8857   */\n      sub\n        /* \"#utility.yul\":8830:8862   */\n      slt\n        /* \"#utility.yul\":8827:8946   */\n      iszero\n      tag_382\n      jumpi\n        /* \"#utility.yul\":8865:8944   */\n      tag_383\n      tag_220\n      jump\t// in\n    tag_383:\n        /* \"#utility.yul\":8827:8946   */\n    tag_382:\n        /* \"#utility.yul\":8985:8986   */\n      0x00\n        /* \"#utility.yul\":9010:9063   */\n      tag_384\n        /* \"#utility.yul\":9055:9062   */\n      dup5\n        /* \"#utility.yul\":9046:9052   */\n      dup3\n        /* \"#utility.yul\":9035:9044   */\n      dup6\n        /* \"#utility.yul\":9031:9053   */\n      add\n        /* \"#utility.yul\":9010:9063   */\n      tag_229\n      jump\t// in\n    tag_384:\n        /* \"#utility.yul\":9000:9063   */\n      swap2\n      pop\n        /* \"#utility.yul\":8956:9073   */\n      pop\n        /* \"#utility.yul\":8751:9080   */\n      swap3\n      swap2\n      pop\n      pop\n      jump\t// out\n        /* \"#utility.yul\":9086:9227   */\n    tag_252:\n        /* \"#utility.yul\":9151:9160   */\n      0x00\n        /* \"#utility.yul\":9184:9221   */\n      tag_386\n        /* \"#utility.yul\":9215:9220   */\n      dup3\n        /* \"#utility.yul\":9184:9221   */\n      tag_239\n      jump\t// in\n    tag_386:\n        /* \"#utility.yul\":9171:9221   */\n      swap1\n      pop\n        /* \"#utility.yul\":9086:9227   */\n      swap2\n      swap1\n      pop\n      jump\t// out\n        /* \"#utility.yul\":9233:9394   */\n    tag_253:\n        /* \"#utility.yul\":9335:9387   */\n      tag_388\n        /* \"#utility.yul\":9381:9386   */\n      dup2\n        /* \"#utility.yul\":9335:9387   */\n      tag_252\n      jump\t// in\n    tag_388:\n        /* \"#utility.yul\":9330:9333   */\n      dup3\n        /* \"#utility.yul\":9323:9388   */\n      mstore\n        /* \"#utility.yul\":9233:9394   */\n      pop\n      pop\n      jump\t// out\n        /* \"#utility.yul\":9400:9652   */\n    tag_72:\n        /* \"#utility.yul\":9508:9512   */\n      0x00\n        /* \"#utility.yul\":9546:9548   */\n      0x20\n        /* \"#utility.yul\":9535:9544   */\n      dup3\n        /* \"#utility.yul\":9531:9549   */\n      add\n        /* \"#utility.yul\":9523:9549   */\n      swap1\n      pop\n        /* \"#utility.yul\":9559:9645   */\n      tag_390\n        /* \"#utility.yul\":9642:9643   */\n      0x00\n        /* \"#utility.yul\":9631:9640   */\n      dup4\n        /* \"#utility.yul\":9627:9644   */\n      add\n        /* \"#utility.yul\":9618:9624   */\n      dup5\n        /* \"#utility.yul\":9559:9645   */\n      tag_253\n      jump\t// in\n    tag_390:\n        /* \"#utility.yul\":9400:9652   */\n      swap3\n      swap2\n      pop\n      pop\n      jump\t// out\n        /* \"#utility.yul\":9658:9767   */\n    tag_254:\n        /* \"#utility.yul\":9739:9760   */\n      tag_392\n        /* \"#utility.yul\":9754:9759   */\n      dup2\n        /* \"#utility.yul\":9739:9760   */\n      tag_230\n      jump\t// in\n    tag_392:\n        /* \"#utility.yul\":9734:9737   */\n      dup3\n        /* \"#utility.yul\":9727:9761   */\n      mstore\n        /* \"#utility.yul\":9658:9767   */\n      pop\n      pop\n      jump\t// out\n        /* \"#utility.yul\":9773:9983   */\n    tag_80:\n        /* \"#utility.yul\":9860:9864   */\n      0x00\n        /* \"#utility.yul\":9898:9900   */\n      0x20\n        /* \"#utility.yul\":9887:9896   */\n      dup3\n        /* \"#utility.yul\":9883:9901   */\n      add\n        /* \"#utility.yul\":9875:9901   */\n      swap1\n      pop\n        /* \"#utility.yul\":9911:9976   */\n      tag_394\n        /* \"#utility.yul\":9973:9974   */\n      0x00\n        /* \"#utility.yul\":9962:9971   */\n      dup4\n        /* \"#utility.yul\":9958:9975   */\n      add\n        /* \"#utility.yul\":9949:9955   */\n      dup5\n        /* \"#utility.yul\":9911:9976   */\n      tag_254\n      jump\t// in\n    tag_394:\n        /* \"#utility.yul\":9773:9983   */\n      swap3\n      swap2\n      pop\n      pop\n      jump\t// out\n        /* \"#utility.yul\":9989:10158   */\n    tag_255:\n        /* \"#utility.yul\":10073:10084   */\n      0x00\n        /* \"#utility.yul\":10107:10113   */\n      dup3\n        /* \"#utility.yul\":10102:10105   */\n      dup3\n        /* \"#utility.yul\":10095:10114   */\n      mstore\n        /* \"#utility.yul\":10147:10151   */\n      0x20\n        /* \"#utility.yul\":10142:10145   */\n      dup3\n        /* \"#utility.yul\":10138:10152   */\n      add\n        /* \"#utility.yul\":10123:10152   */\n      swap1\n      pop\n        /* \"#utility.yul\":9989:10158   */\n      swap3\n      swap2\n      pop\n      pop\n      jump\t// out\n        /* \"#utility.yul\":10164:10333   */\n    tag_256:\n        /* \"#utility.yul\":10304:10325   */\n      0x596f75206172652774207061796d617374657200000000000000000000000000\n        /* \"#utility.yul\":10300:10301   */\n      0x00\n        /* \"#utility.yul\":10292:10298   */\n      dup3\n        /* \"#utility.yul\":10288:10302   */\n      add\n        /* \"#utility.yul\":10281:10326   */\n      mstore\n        /* \"#utility.yul\":10164:10333   */\n      pop\n      jump\t// out\n        /* \"#utility.yul\":10339:10705   */\n    tag_257:\n        /* \"#utility.yul\":10481:10484   */\n      0x00\n        /* \"#utility.yul\":10502:10569   */\n      tag_398\n        /* \"#utility.yul\":10566:10568   */\n      0x13\n        /* \"#utility.yul\":10561:10564   */\n      dup4\n        /* \"#utility.yul\":10502:10569   */\n      tag_255\n      jump\t// in\n    tag_398:\n        /* \"#utility.yul\":10495:10569   */\n      swap2\n      pop\n        /* \"#utility.yul\":10578:10671   */\n      tag_399\n        /* \"#utility.yul\":10667:10670   */\n      dup3\n        /* \"#utility.yul\":10578:10671   */\n      tag_256\n      jump\t// in\n    tag_399:\n        /* \"#utility.yul\":10696:10698   */\n      0x20\n        /* \"#utility.yul\":10691:10694   */\n      dup3\n        /* \"#utility.yul\":10687:10699   */\n      add\n        /* \"#utility.yul\":10680:10699   */\n      swap1\n      pop\n        /* \"#utility.yul\":10339:10705   */\n      swap2\n      swap1\n      pop\n      jump\t// out\n        /* \"#utility.yul\":10711:11130   */\n    tag_85:\n        /* \"#utility.yul\":10877:10881   */\n      0x00\n        /* \"#utility.yul\":10915:10917   */\n      0x20\n        /* \"#utility.yul\":10904:10913   */\n      dup3\n        /* \"#utility.yul\":10900:10918   */\n      add\n        /* \"#utility.yul\":10892:10918   */\n      swap1\n      pop\n        /* \"#utility.yul\":10964:10973   */\n      dup2\n        /* \"#utility.yul\":10958:10962   */\n      dup2\n        /* \"#utility.yul\":10954:10974   */\n      sub\n        /* \"#utility.yul\":10950:10951   */\n      0x00\n        /* \"#utility.yul\":10939:10948   */\n      dup4\n        /* \"#utility.yul\":10935:10952   */\n      add\n        /* \"#utility.yul\":10928:10975   */\n      mstore\n        /* \"#utility.yul\":10992:11123   */\n      tag_401\n        /* \"#utility.yul\":11118:11122   */\n      dup2\n        /* \"#utility.yul\":10992:11123   */\n      tag_257\n      jump\t// in\n    tag_401:\n        /* \"#utility.yul\":10984:11123   */\n      swap1\n      pop\n        /* \"#utility.yul\":10711:11130   */\n      swap2\n      swap1\n      pop\n      jump\t// out\n        /* \"#utility.yul\":11136:11306   */\n    tag_258:\n        /* \"#utility.yul\":11276:11298   */\n      0x416d6f756e742063616e2774206265207a65726f000000000000000000000000\n        /* \"#utility.yul\":11272:11273   */\n      0x00\n        /* \"#utility.yul\":11264:11270   */\n      dup3\n        /* \"#utility.yul\":11260:11274   */\n      add\n        /* \"#utility.yul\":11253:11299   */\n      mstore\n        /* \"#utility.yul\":11136:11306   */\n      pop\n      jump\t// out\n        /* \"#utility.yul\":11312:11678   */\n    tag_259:\n        /* \"#utility.yul\":11454:11457   */\n      0x00\n        /* \"#utility.yul\":11475:11542   */\n      tag_404\n        /* \"#utility.yul\":11539:11541   */\n      0x14\n        /* \"#utility.yul\":11534:11537   */\n      dup4\n        /* \"#utility.yul\":11475:11542   */\n      tag_255\n      jump\t// in\n    tag_404:\n        /* \"#utility.yul\":11468:11542   */\n      swap2\n      pop\n        /* \"#utility.yul\":11551:11644   */\n      tag_405\n        /* \"#utility.yul\":11640:11643   */\n      dup3\n        /* \"#utility.yul\":11551:11644   */\n      tag_258\n      jump\t// in\n    tag_405:\n        /* \"#utility.yul\":11669:11671   */\n      0x20\n        /* \"#utility.yul\":11664:11667   */\n      dup3\n        /* \"#utility.yul\":11660:11672   */\n      add\n        /* \"#utility.yul\":11653:11672   */\n      swap1\n      pop\n        /* \"#utility.yul\":11312:11678   */\n      swap2\n      swap1\n      pop\n      jump\t// out\n        /* \"#utility.yul\":11684:12103   */\n    tag_88:\n        /* \"#utility.yul\":11850:11854   */\n      0x00\n        /* \"#utility.yul\":11888:11890   */\n      0x20\n        /* \"#utility.yul\":11877:11886   */\n      dup3\n        /* \"#utility.yul\":11873:11891   */\n      add\n        /* \"#utility.yul\":11865:11891   */\n      swap1\n      pop\n        /* \"#utility.yul\":11937:11946   */\n      dup2\n        /* \"#utility.yul\":11931:11935   */\n      dup2\n        /* \"#utility.yul\":11927:11947   */\n      sub\n        /* \"#utility.yul\":11923:11924   */\n      0x00\n        /* \"#utility.yul\":11912:11921   */\n      dup4\n        /* \"#utility.yul\":11908:11925   */\n      add\n        /* \"#utility.yul\":11901:11948   */\n      mstore\n        /* \"#utility.yul\":11965:12096   */\n      tag_407\n        /* \"#utility.yul\":12091:12095   */\n      dup2\n        /* \"#utility.yul\":11965:12096   */\n      tag_259\n      jump\t// in\n    tag_407:\n        /* \"#utility.yul\":11957:12096   */\n      swap1\n      pop\n        /* \"#utility.yul\":11684:12103   */\n      swap2\n      swap1\n      pop\n      jump\t// out\n        /* \"#utility.yul\":12109:12289   */\n    tag_260:\n        /* \"#utility.yul\":12157:12234   */\n      0x4e487b7100000000000000000000000000000000000000000000000000000000\n        /* \"#utility.yul\":12154:12155   */\n      0x00\n        /* \"#utility.yul\":12147:12235   */\n      mstore\n        /* \"#utility.yul\":12254:12258   */\n      0x11\n        /* \"#utility.yul\":12251:12252   */\n      0x04\n        /* \"#utility.yul\":12244:12259   */\n      mstore\n        /* \"#utility.yul\":12278:12282   */\n      0x24\n        /* \"#utility.yul\":12275:12276   */\n      0x00\n        /* \"#utility.yul\":12268:12283   */\n      revert\n        /* \"#utility.yul\":12295:12486   */\n    tag_90:\n        /* \"#utility.yul\":12335:12338   */\n      0x00\n        /* \"#utility.yul\":12354:12374   */\n      tag_410\n        /* \"#utility.yul\":12372:12373   */\n      dup3\n        /* \"#utility.yul\":12354:12374   */\n      tag_222\n      jump\t// in\n    tag_410:\n        /* \"#utility.yul\":12349:12374   */\n      swap2\n      pop\n        /* \"#utility.yul\":12388:12408   */\n      tag_411\n        /* \"#utility.yul\":12406:12407   */\n      dup4\n        /* \"#utility.yul\":12388:12408   */\n      tag_222\n      jump\t// in\n    tag_411:\n        /* \"#utility.yul\":12383:12408   */\n      swap3\n      pop\n        /* \"#utility.yul\":12431:12432   */\n      dup3\n        /* \"#utility.yul\":12428:12429   */\n      dup3\n        /* \"#utility.yul\":12424:12433   */\n      add\n        /* \"#utility.yul\":12417:12433   */\n      swap1\n      pop\n        /* \"#utility.yul\":12452:12455   */\n      dup1\n        /* \"#utility.yul\":12449:12450   */\n      dup3\n        /* \"#utility.yul\":12446:12456   */\n      gt\n        /* \"#utility.yul\":12443:12479   */\n      iszero\n      tag_412\n      jumpi\n        /* \"#utility.yul\":12459:12477   */\n      tag_413\n      tag_260\n      jump\t// in\n    tag_413:\n        /* \"#utility.yul\":12443:12479   */\n    tag_412:\n        /* \"#utility.yul\":12295:12486   */\n      swap3\n      swap2\n      pop\n      pop\n      jump\t// out\n        /* \"#utility.yul\":12492:12610   */\n    tag_261:\n        /* \"#utility.yul\":12579:12603   */\n      tag_415\n        /* \"#utility.yul\":12597:12602   */\n      dup2\n        /* \"#utility.yul\":12579:12603   */\n      tag_234\n      jump\t// in\n    tag_415:\n        /* \"#utility.yul\":12574:12577   */\n      dup3\n        /* \"#utility.yul\":12567:12604   */\n      mstore\n        /* \"#utility.yul\":12492:12610   */\n      pop\n      pop\n      jump\t// out\n        /* \"#utility.yul\":12616:13058   */\n    tag_93:\n        /* \"#utility.yul\":12765:12769   */\n      0x00\n        /* \"#utility.yul\":12803:12805   */\n      0x60\n        /* \"#utility.yul\":12792:12801   */\n      dup3\n        /* \"#utility.yul\":12788:12806   */\n      add\n        /* \"#utility.yul\":12780:12806   */\n      swap1\n      pop\n        /* \"#utility.yul\":12816:12887   */\n      tag_417\n        /* \"#utility.yul\":12884:12885   */\n      0x00\n        /* \"#utility.yul\":12873:12882   */\n      dup4\n        /* \"#utility.yul\":12869:12886   */\n      add\n        /* \"#utility.yul\":12860:12866   */\n      dup7\n        /* \"#utility.yul\":12816:12887   */\n      tag_225\n      jump\t// in\n    tag_417:\n        /* \"#utility.yul\":12897:12969   */\n      tag_418\n        /* \"#utility.yul\":12965:12967   */\n      0x20\n        /* \"#utility.yul\":12954:12963   */\n      dup4\n        /* \"#utility.yul\":12950:12968   */\n      add\n        /* \"#utility.yul\":12941:12947   */\n      dup6\n        /* \"#utility.yul\":12897:12969   */\n      tag_225\n      jump\t// in\n    tag_418:\n        /* \"#utility.yul\":12979:13051   */\n      tag_419\n        /* \"#utility.yul\":13047:13049   */\n      0x40\n        /* \"#utility.yul\":13036:13045   */\n      dup4\n        /* \"#utility.yul\":13032:13050   */\n      add\n        /* \"#utility.yul\":13023:13029   */\n      dup5\n        /* \"#utility.yul\":12979:13051   */\n      tag_261\n      jump\t// in\n    tag_419:\n        /* \"#utility.yul\":12616:13058   */\n      swap5\n      swap4\n      pop\n      pop\n      pop\n      pop\n      jump\t// out\n        /* \"#utility.yul\":13064:13232   */\n    tag_262:\n        /* \"#utility.yul\":13204:13224   */\n      0x43616e2774207769746864726177207965740000000000000000000000000000\n        /* \"#utility.yul\":13200:13201   */\n      0x00\n        /* \"#utility.yul\":13192:13198   */\n      dup3\n        /* \"#utility.yul\":13188:13202   */\n      add\n        /* \"#utility.yul\":13181:13225   */\n      mstore\n        /* \"#utility.yul\":13064:13232   */\n      pop\n      jump\t// out\n        /* \"#utility.yul\":13238:13604   */\n    tag_263:\n        /* \"#utility.yul\":13380:13383   */\n      0x00\n        /* \"#utility.yul\":13401:13468   */\n      tag_422\n        /* \"#utility.yul\":13465:13467   */\n      0x12\n        /* \"#utility.yul\":13460:13463   */\n      dup4\n        /* \"#utility.yul\":13401:13468   */\n      tag_255\n      jump\t// in\n    tag_422:\n        /* \"#utility.yul\":13394:13468   */\n      swap2\n      pop\n        /* \"#utility.yul\":13477:13570   */\n      tag_423\n        /* \"#utility.yul\":13566:13569   */\n      dup3\n        /* \"#utility.yul\":13477:13570   */\n      tag_262\n      jump\t// in\n    tag_423:\n        /* \"#utility.yul\":13595:13597   */\n      0x20\n        /* \"#utility.yul\":13590:13593   */\n      dup3\n        /* \"#utility.yul\":13586:13598   */\n      add\n        /* \"#utility.yul\":13579:13598   */\n      swap1\n      pop\n        /* \"#utility.yul\":13238:13604   */\n      swap2\n      swap1\n      pop\n      jump\t// out\n        /* \"#utility.yul\":13610:14029   */\n    tag_99:\n        /* \"#utility.yul\":13776:13780   */\n      0x00\n        /* \"#utility.yul\":13814:13816   */\n      0x20\n        /* \"#utility.yul\":13803:13812   */\n      dup3\n        /* \"#utility.yul\":13799:13817   */\n      add\n        /* \"#utility.yul\":13791:13817   */\n      swap1\n      pop\n        /* \"#utility.yul\":13863:13872   */\n      dup2\n        /* \"#utility.yul\":13857:13861   */\n      dup2\n        /* \"#utility.yul\":13853:13873   */\n      sub\n        /* \"#utility.yul\":13849:13850   */\n      0x00\n        /* \"#utility.yul\":13838:13847   */\n      dup4\n        /* \"#utility.yul\":13834:13851   */\n      add\n        /* \"#utility.yul\":13827:13874   */\n      mstore\n        /* \"#utility.yul\":13891:14022   */\n      tag_425\n        /* \"#utility.yul\":14017:14021   */\n      dup2\n        /* \"#utility.yul\":13891:14022   */\n      tag_263\n      jump\t// in\n    tag_425:\n        /* \"#utility.yul\":13883:14022   */\n      swap1\n      pop\n        /* \"#utility.yul\":13610:14029   */\n      swap2\n      swap1\n      pop\n      jump\t// out\n        /* \"#utility.yul\":14035:14178   */\n    tag_264:\n        /* \"#utility.yul\":14092:14097   */\n      0x00\n        /* \"#utility.yul\":14123:14129   */\n      dup2\n        /* \"#utility.yul\":14117:14130   */\n      mload\n        /* \"#utility.yul\":14108:14130   */\n      swap1\n      pop\n        /* \"#utility.yul\":14139:14172   */\n      tag_427\n        /* \"#utility.yul\":14166:14171   */\n      dup2\n        /* \"#utility.yul\":14139:14172   */\n      tag_228\n      jump\t// in\n    tag_427:\n        /* \"#utility.yul\":14035:14178   */\n      swap3\n      swap2\n      pop\n      pop\n      jump\t// out\n        /* \"#utility.yul\":14184:14535   */\n    tag_105:\n        /* \"#utility.yul\":14254:14260   */\n      0x00\n        /* \"#utility.yul\":14303:14305   */\n      0x20\n        /* \"#utility.yul\":14291:14300   */\n      dup3\n        /* \"#utility.yul\":14282:14289   */\n      dup5\n        /* \"#utility.yul\":14278:14301   */\n      sub\n        /* \"#utility.yul\":14274:14306   */\n      slt\n        /* \"#utility.yul\":14271:14390   */\n      iszero\n      tag_429\n      jumpi\n        /* \"#utility.yul\":14309:14388   */\n      tag_430\n      tag_220\n      jump\t// in\n    tag_430:\n        /* \"#utility.yul\":14271:14390   */\n    tag_429:\n        /* \"#utility.yul\":14429:14430   */\n      0x00\n        /* \"#utility.yul\":14454:14518   */\n      tag_431\n        /* \"#utility.yul\":14510:14517   */\n      dup5\n        /* \"#utility.yul\":14501:14507   */\n      dup3\n        /* \"#utility.yul\":14490:14499   */\n      dup6\n        /* \"#utility.yul\":14486:14508   */\n      add\n        /* \"#utility.yul\":14454:14518   */\n      tag_264\n      jump\t// in\n    tag_431:\n        /* \"#utility.yul\":14444:14518   */\n      swap2\n      pop\n        /* \"#utility.yul\":14400:14528   */\n      pop\n        /* \"#utility.yul\":14184:14535   */\n      swap3\n      swap2\n      pop\n      pop\n      jump\t// out\n        /* \"#utility.yul\":14541:14720   */\n    tag_265:\n        /* \"#utility.yul\":14681:14712   */\n      0x43616c6c6572206973206e6f742074686520746f6b656e206f776e6572000000\n        /* \"#utility.yul\":14677:14678   */\n      0x00\n        /* \"#utility.yul\":14669:14675   */\n      dup3\n        /* \"#utility.yul\":14665:14679   */\n      add\n        /* \"#utility.yul\":14658:14713   */\n      mstore\n        /* \"#utility.yul\":14541:14720   */\n      pop\n      jump\t// out\n        /* \"#utility.yul\":14726:15092   */\n    tag_266:\n        /* \"#utility.yul\":14868:14871   */\n      0x00\n        /* \"#utility.yul\":14889:14956   */\n      tag_434\n        /* \"#utility.yul\":14953:14955   */\n      0x1d\n        /* \"#utility.yul\":14948:14951   */\n      dup4\n        /* \"#utility.yul\":14889:14956   */\n      tag_255\n      jump\t// in\n    tag_434:\n        /* \"#utility.yul\":14882:14956   */\n      swap2\n      pop\n        /* \"#utility.yul\":14965:15058   */\n      tag_435\n        /* \"#utility.yul\":15054:15057   */\n      dup3\n        /* \"#utility.yul\":14965:15058   */\n      tag_265\n      jump\t// in\n    tag_435:\n        /* \"#utility.yul\":15083:15085   */\n      0x20\n        /* \"#utility.yul\":15078:15081   */\n      dup3\n        /* \"#utility.yul\":15074:15086   */\n      add\n        /* \"#utility.yul\":15067:15086   */\n      swap1\n      pop\n        /* \"#utility.yul\":14726:15092   */\n      swap2\n      swap1\n      pop\n      jump\t// out\n        /* \"#utility.yul\":15098:15517   */\n    tag_108:\n        /* \"#utility.yul\":15264:15268   */\n      0x00\n        /* \"#utility.yul\":15302:15304   */\n      0x20\n        /* \"#utility.yul\":15291:15300   */\n      dup3\n        /* \"#utility.yul\":15287:15305   */\n      add\n        /* \"#utility.yul\":15279:15305   */\n      swap1\n      pop\n        /* \"#utility.yul\":15351:15360   */\n      dup2\n        /* \"#utility.yul\":15345:15349   */\n      dup2\n        /* \"#utility.yul\":15341:15361   */\n      sub\n        /* \"#utility.yul\":15337:15338   */\n      0x00\n        /* \"#utility.yul\":15326:15335   */\n      dup4\n        /* \"#utility.yul\":15322:15339   */\n      add\n        /* \"#utility.yul\":15315:15362   */\n      mstore\n        /* \"#utility.yul\":15379:15510   */\n      tag_437\n        /* \"#utility.yul\":15505:15509   */\n      dup2\n        /* \"#utility.yul\":15379:15510   */\n      tag_266\n      jump\t// in\n    tag_437:\n        /* \"#utility.yul\":15371:15510   */\n      swap1\n      pop\n        /* \"#utility.yul\":15098:15517   */\n      swap2\n      swap1\n      pop\n      jump\t// out\n        /* \"#utility.yul\":15523:15717   */\n    tag_113:\n        /* \"#utility.yul\":15563:15567   */\n      0x00\n        /* \"#utility.yul\":15583:15603   */\n      tag_439\n        /* \"#utility.yul\":15601:15602   */\n      dup3\n        /* \"#utility.yul\":15583:15603   */\n      tag_222\n      jump\t// in\n    tag_439:\n        /* \"#utility.yul\":15578:15603   */\n      swap2\n      pop\n        /* \"#utility.yul\":15617:15637   */\n      tag_440\n        /* \"#utility.yul\":15635:15636   */\n      dup4\n        /* \"#utility.yul\":15617:15637   */\n      tag_222\n      jump\t// in\n    tag_440:\n        /* \"#utility.yul\":15612:15637   */\n      swap3\n      pop\n        /* \"#utility.yul\":15661:15662   */\n      dup3\n        /* \"#utility.yul\":15658:15659   */\n      dup3\n        /* \"#utility.yul\":15654:15663   */\n      sub\n        /* \"#utility.yul\":15646:15663   */\n      swap1\n      pop\n        /* \"#utility.yul\":15685:15686   */\n      dup2\n        /* \"#utility.yul\":15679:15683   */\n      dup2\n        /* \"#utility.yul\":15676:15687   */\n      gt\n        /* \"#utility.yul\":15673:15710   */\n      iszero\n      tag_441\n      jumpi\n        /* \"#utility.yul\":15690:15708   */\n      tag_442\n      tag_260\n      jump\t// in\n    tag_442:\n        /* \"#utility.yul\":15673:15710   */\n    tag_441:\n        /* \"#utility.yul\":15523:15717   */\n      swap3\n      swap2\n      pop\n      pop\n      jump\t// out\n        /* \"#utility.yul\":15723:15893   */\n    tag_267:\n        /* \"#utility.yul\":15863:15885   */\n      0x596f75206d6f6e6579206e6f7420656e6f756768000000000000000000000000\n        /* \"#utility.yul\":15859:15860   */\n      0x00\n        /* \"#utility.yul\":15851:15857   */\n      dup3\n        /* \"#utility.yul\":15847:15861   */\n      add\n        /* \"#utility.yul\":15840:15886   */\n      mstore\n        /* \"#utility.yul\":15723:15893   */\n      pop\n      jump\t// out\n        /* \"#utility.yul\":15899:16265   */\n    tag_268:\n        /* \"#utility.yul\":16041:16044   */\n      0x00\n        /* \"#utility.yul\":16062:16129   */\n      tag_445\n        /* \"#utility.yul\":16126:16128   */\n      0x14\n        /* \"#utility.yul\":16121:16124   */\n      dup4\n        /* \"#utility.yul\":16062:16129   */\n      tag_255\n      jump\t// in\n    tag_445:\n        /* \"#utility.yul\":16055:16129   */\n      swap2\n      pop\n        /* \"#utility.yul\":16138:16231   */\n      tag_446\n        /* \"#utility.yul\":16227:16230   */\n      dup3\n        /* \"#utility.yul\":16138:16231   */\n      tag_267\n      jump\t// in\n    tag_446:\n        /* \"#utility.yul\":16256:16258   */\n      0x20\n        /* \"#utility.yul\":16251:16254   */\n      dup3\n        /* \"#utility.yul\":16247:16259   */\n      add\n        /* \"#utility.yul\":16240:16259   */\n      swap1\n      pop\n        /* \"#utility.yul\":15899:16265   */\n      swap2\n      swap1\n      pop\n      jump\t// out\n        /* \"#utility.yul\":16271:16690   */\n    tag_116:\n        /* \"#utility.yul\":16437:16441   */\n      0x00\n        /* \"#utility.yul\":16475:16477   */\n      0x20\n        /* \"#utility.yul\":16464:16473   */\n      dup3\n        /* \"#utility.yul\":16460:16478   */\n      add\n        /* \"#utility.yul\":16452:16478   */\n      swap1\n      pop\n        /* \"#utility.yul\":16524:16533   */\n      dup2\n        /* \"#utility.yul\":16518:16522   */\n      dup2\n        /* \"#utility.yul\":16514:16534   */\n      sub\n        /* \"#utility.yul\":16510:16511   */\n      0x00\n        /* \"#utility.yul\":16499:16508   */\n      dup4\n        /* \"#utility.yul\":16495:16512   */\n      add\n        /* \"#utility.yul\":16488:16535   */\n      mstore\n        /* \"#utility.yul\":16552:16683   */\n      tag_448\n        /* \"#utility.yul\":16678:16682   */\n      dup2\n        /* \"#utility.yul\":16552:16683   */\n      tag_268\n      jump\t// in\n    tag_448:\n        /* \"#utility.yul\":16544:16683   */\n      swap1\n      pop\n        /* \"#utility.yul\":16271:16690   */\n      swap2\n      swap1\n      pop\n      jump\t// out\n        /* \"#utility.yul\":16696:17138   */\n    tag_119:\n        /* \"#utility.yul\":16845:16849   */\n      0x00\n        /* \"#utility.yul\":16883:16885   */\n      0x60\n        /* \"#utility.yul\":16872:16881   */\n      dup3\n        /* \"#utility.yul\":16868:16886   */\n      add\n        /* \"#utility.yul\":16860:16886   */\n      swap1\n      pop\n        /* \"#utility.yul\":16896:16967   */\n      tag_450\n        /* \"#utility.yul\":16964:16965   */\n      0x00\n        /* \"#utility.yul\":16953:16962   */\n      dup4\n        /* \"#utility.yul\":16949:16966   */\n      add\n        /* \"#utility.yul\":16940:16946   */\n      dup7\n        /* \"#utility.yul\":16896:16967   */\n      tag_233\n      jump\t// in\n    tag_450:\n        /* \"#utility.yul\":16977:17049   */\n      tag_451\n        /* \"#utility.yul\":17045:17047   */\n      0x20\n        /* \"#utility.yul\":17034:17043   */\n      dup4\n        /* \"#utility.yul\":17030:17048   */\n      add\n        /* \"#utility.yul\":17021:17027   */\n      dup6\n        /* \"#utility.yul\":16977:17049   */\n      tag_233\n      jump\t// in\n    tag_451:\n        /* \"#utility.yul\":17059:17131   */\n      tag_452\n        /* \"#utility.yul\":17127:17129   */\n      0x40\n        /* \"#utility.yul\":17116:17125   */\n      dup4\n        /* \"#utility.yul\":17112:17130   */\n      add\n        /* \"#utility.yul\":17103:17109   */\n      dup5\n        /* \"#utility.yul\":17059:17131   */\n      tag_225\n      jump\t// in\n    tag_452:\n        /* \"#utility.yul\":16696:17138   */\n      swap5\n      swap4\n      pop\n      pop\n      pop\n      pop\n      jump\t// out\n        /* \"#utility.yul\":17144:17281   */\n    tag_269:\n        /* \"#utility.yul\":17198:17203   */\n      0x00\n        /* \"#utility.yul\":17229:17235   */\n      dup2\n        /* \"#utility.yul\":17223:17236   */\n      mload\n        /* \"#utility.yul\":17214:17236   */\n      swap1\n      pop\n        /* \"#utility.yul\":17245:17275   */\n      tag_454\n        /* \"#utility.yul\":17269:17274   */\n      dup2\n        /* \"#utility.yul\":17245:17275   */\n      tag_231\n      jump\t// in\n    tag_454:\n        /* \"#utility.yul\":17144:17281   */\n      swap3\n      swap2\n      pop\n      pop\n      jump\t// out\n        /* \"#utility.yul\":17287:17632   */\n    tag_123:\n        /* \"#utility.yul\":17354:17360   */\n      0x00\n        /* \"#utility.yul\":17403:17405   */\n      0x20\n        /* \"#utility.yul\":17391:17400   */\n      dup3\n        /* \"#utility.yul\":17382:17389   */\n      dup5\n        /* \"#utility.yul\":17378:17401   */\n      sub\n        /* \"#utility.yul\":17374:17406   */\n      slt\n        /* \"#utility.yul\":17371:17490   */\n      iszero\n      tag_456\n      jumpi\n        /* \"#utility.yul\":17409:17488   */\n      tag_457\n      tag_220\n      jump\t// in\n    tag_457:\n        /* \"#utility.yul\":17371:17490   */\n    tag_456:\n        /* \"#utility.yul\":17529:17530   */\n      0x00\n        /* \"#utility.yul\":17554:17615   */\n      tag_458\n        /* \"#utility.yul\":17607:17614   */\n      dup5\n        /* \"#utility.yul\":17598:17604   */\n      dup3\n        /* \"#utility.yul\":17587:17596   */\n      dup6\n        /* \"#utility.yul\":17583:17605   */\n      add\n        /* \"#utility.yul\":17554:17615   */\n      tag_269\n      jump\t// in\n    tag_458:\n        /* \"#utility.yul\":17544:17615   */\n      swap2\n      pop\n        /* \"#utility.yul\":17500:17625   */\n      pop\n        /* \"#utility.yul\":17287:17632   */\n      swap3\n      swap2\n      pop\n      pop\n      jump\t// out\n        /* \"#utility.yul\":17638:17970   */\n    tag_127:\n        /* \"#utility.yul\":17759:17763   */\n      0x00\n        /* \"#utility.yul\":17797:17799   */\n      0x40\n        /* \"#utility.yul\":17786:17795   */\n      dup3\n        /* \"#utility.yul\":17782:17800   */\n      add\n        /* \"#utility.yul\":17774:17800   */\n      swap1\n      pop\n        /* \"#utility.yul\":17810:17881   */\n      tag_460\n        /* \"#utility.yul\":17878:17879   */\n      0x00\n        /* \"#utility.yul\":17867:17876   */\n      dup4\n        /* \"#utility.yul\":17863:17880   */\n      add\n        /* \"#utility.yul\":17854:17860   */\n      dup6\n        /* \"#utility.yul\":17810:17881   */\n      tag_225\n      jump\t// in\n    tag_460:\n        /* \"#utility.yul\":17891:17963   */\n      tag_461\n        /* \"#utility.yul\":17959:17961   */\n      0x20\n        /* \"#utility.yul\":17948:17957   */\n      dup4\n        /* \"#utility.yul\":17944:17962   */\n      add\n        /* \"#utility.yul\":17935:17941   */\n      dup5\n        /* \"#utility.yul\":17891:17963   */\n      tag_225\n      jump\t// in\n    tag_461:\n        /* \"#utility.yul\":17638:17970   */\n      swap4\n      swap3\n      pop\n      pop\n      pop\n      jump\t// out\n        /* \"#utility.yul\":17976:18640   */\n    tag_147:\n        /* \"#utility.yul\":18181:18185   */\n      0x00\n        /* \"#utility.yul\":18219:18222   */\n      0xa0\n        /* \"#utility.yul\":18208:18217   */\n      dup3\n        /* \"#utility.yul\":18204:18223   */\n      add\n        /* \"#utility.yul\":18196:18223   */\n      swap1\n      pop\n        /* \"#utility.yul\":18233:18304   */\n      tag_463\n        /* \"#utility.yul\":18301:18302   */\n      0x00\n        /* \"#utility.yul\":18290:18299   */\n      dup4\n        /* \"#utility.yul\":18286:18303   */\n      add\n        /* \"#utility.yul\":18277:18283   */\n      dup9\n        /* \"#utility.yul\":18233:18304   */\n      tag_225\n      jump\t// in\n    tag_463:\n        /* \"#utility.yul\":18314:18386   */\n      tag_464\n        /* \"#utility.yul\":18382:18384   */\n      0x20\n        /* \"#utility.yul\":18371:18380   */\n      dup4\n        /* \"#utility.yul\":18367:18385   */\n      add\n        /* \"#utility.yul\":18358:18364   */\n      dup8\n        /* \"#utility.yul\":18314:18386   */\n      tag_225\n      jump\t// in\n    tag_464:\n        /* \"#utility.yul\":18396:18468   */\n      tag_465\n        /* \"#utility.yul\":18464:18466   */\n      0x40\n        /* \"#utility.yul\":18453:18462   */\n      dup4\n        /* \"#utility.yul\":18449:18467   */\n      add\n        /* \"#utility.yul\":18440:18446   */\n      dup7\n        /* \"#utility.yul\":18396:18468   */\n      tag_225\n      jump\t// in\n    tag_465:\n        /* \"#utility.yul\":18478:18550   */\n      tag_466\n        /* \"#utility.yul\":18546:18548   */\n      0x60\n        /* \"#utility.yul\":18535:18544   */\n      dup4\n        /* \"#utility.yul\":18531:18549   */\n      add\n        /* \"#utility.yul\":18522:18528   */\n      dup6\n        /* \"#utility.yul\":18478:18550   */\n      tag_233\n      jump\t// in\n    tag_466:\n        /* \"#utility.yul\":18560:18633   */\n      tag_467\n        /* \"#utility.yul\":18628:18631   */\n      0x80\n        /* \"#utility.yul\":18617:18626   */\n      dup4\n        /* \"#utility.yul\":18613:18632   */\n      add\n        /* \"#utility.yul\":18604:18610   */\n      dup5\n        /* \"#utility.yul\":18560:18633   */\n      tag_261\n      jump\t// in\n    tag_467:\n        /* \"#utility.yul\":17976:18640   */\n      swap7\n      swap6\n      pop\n      pop\n      pop\n      pop\n      pop\n      pop\n      jump\t// out\n        /* \"#utility.yul\":18646:18813   */\n    tag_270:\n        /* \"#utility.yul\":18786:18805   */\n      0x496e76616c6964205369676e6174757265000000000000000000000000000000\n        /* \"#utility.yul\":18782:18783   */\n      0x00\n        /* \"#utility.yul\":18774:18780   */\n      dup3\n        /* \"#utility.yul\":18770:18784   */\n      add\n        /* \"#utility.yul\":18763:18806   */\n      mstore\n        /* \"#utility.yul\":18646:18813   */\n      pop\n      jump\t// out\n        /* \"#utility.yul\":18819:19185   */\n    tag_271:\n        /* \"#utility.yul\":18961:18964   */\n      0x00\n        /* \"#utility.yul\":18982:19049   */\n      tag_470\n        /* \"#utility.yul\":19046:19048   */\n      0x11\n        /* \"#utility.yul\":19041:19044   */\n      dup4\n        /* \"#utility.yul\":18982:19049   */\n      tag_255\n      jump\t// in\n    tag_470:\n        /* \"#utility.yul\":18975:19049   */\n      swap2\n      pop\n        /* \"#utility.yul\":19058:19151   */\n      tag_471\n        /* \"#utility.yul\":19147:19150   */\n      dup3\n        /* \"#utility.yul\":19058:19151   */\n      tag_270\n      jump\t// in\n    tag_471:\n        /* \"#utility.yul\":19176:19178   */\n      0x20\n        /* \"#utility.yul\":19171:19174   */\n      dup3\n        /* \"#utility.yul\":19167:19179   */\n      add\n        /* \"#utility.yul\":19160:19179   */\n      swap1\n      pop\n        /* \"#utility.yul\":18819:19185   */\n      swap2\n      swap1\n      pop\n      jump\t// out\n        /* \"#utility.yul\":19191:19610   */\n    tag_152:\n        /* \"#utility.yul\":19357:19361   */\n      0x00\n        /* \"#utility.yul\":19395:19397   */\n      0x20\n        /* \"#utility.yul\":19384:19393   */\n      dup3\n        /* \"#utility.yul\":19380:19398   */\n      add\n        /* \"#utility.yul\":19372:19398   */\n      swap1\n      pop\n        /* \"#utility.yul\":19444:19453   */\n      dup2\n        /* \"#utility.yul\":19438:19442   */\n      dup2\n        /* \"#utility.yul\":19434:19454   */\n      sub\n        /* \"#utility.yul\":19430:19431   */\n      0x00\n        /* \"#utility.yul\":19419:19428   */\n      dup4\n        /* \"#utility.yul\":19415:19432   */\n      add\n        /* \"#utility.yul\":19408:19455   */\n      mstore\n        /* \"#utility.yul\":19472:19603   */\n      tag_473\n        /* \"#utility.yul\":19598:19602   */\n      dup2\n        /* \"#utility.yul\":19472:19603   */\n      tag_271\n      jump\t// in\n    tag_473:\n        /* \"#utility.yul\":19464:19603   */\n      swap1\n      pop\n        /* \"#utility.yul\":19191:19610   */\n      swap2\n      swap1\n      pop\n      jump\t// out\n        /* \"#utility.yul\":19616:19796   */\n    tag_187:\n        /* \"#utility.yul\":19664:19741   */\n      0x4e487b7100000000000000000000000000000000000000000000000000000000\n        /* \"#utility.yul\":19661:19662   */\n      0x00\n        /* \"#utility.yul\":19654:19742   */\n      mstore\n        /* \"#utility.yul\":19761:19765   */\n      0x21\n        /* \"#utility.yul\":19758:19759   */\n      0x04\n        /* \"#utility.yul\":19751:19766   */\n      mstore\n        /* \"#utility.yul\":19785:19789   */\n      0x24\n        /* \"#utility.yul\":19782:19783   */\n      0x00\n        /* \"#utility.yul\":19775:19790   */\n      revert\n        /* \"#utility.yul\":19802:20024   */\n    tag_211:\n        /* \"#utility.yul\":19895:19899   */\n      0x00\n        /* \"#utility.yul\":19933:19935   */\n      0x20\n        /* \"#utility.yul\":19922:19931   */\n      dup3\n        /* \"#utility.yul\":19918:19936   */\n      add\n        /* \"#utility.yul\":19910:19936   */\n      swap1\n      pop\n        /* \"#utility.yul\":19946:20017   */\n      tag_476\n        /* \"#utility.yul\":20014:20015   */\n      0x00\n        /* \"#utility.yul\":20003:20012   */\n      dup4\n        /* \"#utility.yul\":19999:20016   */\n      add\n        /* \"#utility.yul\":19990:19996   */\n      dup5\n        /* \"#utility.yul\":19946:20017   */\n      tag_261\n      jump\t// in\n    tag_476:\n        /* \"#utility.yul\":19802:20024   */\n      swap3\n      swap2\n      pop\n      pop\n      jump\t// out\n        /* \"#utility.yul\":20030:20116   */\n    tag_272:\n        /* \"#utility.yul\":20065:20072   */\n      0x00\n        /* \"#utility.yul\":20105:20109   */\n      0xff\n        /* \"#utility.yul\":20098:20103   */\n      dup3\n        /* \"#utility.yul\":20094:20110   */\n      and\n        /* \"#utility.yul\":20083:20110   */\n      swap1\n      pop\n        /* \"#utility.yul\":20030:20116   */\n      swap2\n      swap1\n      pop\n      jump\t// out\n        /* \"#utility.yul\":20122:20234   */\n    tag_273:\n        /* \"#utility.yul\":20205:20227   */\n      tag_479\n        /* \"#utility.yul\":20221:20226   */\n      dup2\n        /* \"#utility.yul\":20205:20227   */\n      tag_272\n      jump\t// in\n    tag_479:\n        /* \"#utility.yul\":20200:20203   */\n      dup3\n        /* \"#utility.yul\":20193:20228   */\n      mstore\n        /* \"#utility.yul\":20122:20234   */\n      pop\n      pop\n      jump\t// out\n        /* \"#utility.yul\":20240:20785   */\n    tag_215:\n        /* \"#utility.yul\":20413:20417   */\n      0x00\n        /* \"#utility.yul\":20451:20454   */\n      0x80\n        /* \"#utility.yul\":20440:20449   */\n      dup3\n        /* \"#utility.yul\":20436:20455   */\n      add\n        /* \"#utility.yul\":20428:20455   */\n      swap1\n      pop\n        /* \"#utility.yul\":20465:20536   */\n      tag_481\n        /* \"#utility.yul\":20533:20534   */\n      0x00\n        /* \"#utility.yul\":20522:20531   */\n      dup4\n        /* \"#utility.yul\":20518:20535   */\n      add\n        /* \"#utility.yul\":20509:20515   */\n      dup8\n        /* \"#utility.yul\":20465:20536   */\n      tag_261\n      jump\t// in\n    tag_481:\n        /* \"#utility.yul\":20546:20614   */\n      tag_482\n        /* \"#utility.yul\":20610:20612   */\n      0x20\n        /* \"#utility.yul\":20599:20608   */\n      dup4\n        /* \"#utility.yul\":20595:20613   */\n      add\n        /* \"#utility.yul\":20586:20592   */\n      dup7\n        /* \"#utility.yul\":20546:20614   */\n      tag_273\n      jump\t// in\n    tag_482:\n        /* \"#utility.yul\":20624:20696   */\n      tag_483\n        /* \"#utility.yul\":20692:20694   */\n      0x40\n        /* \"#utility.yul\":20681:20690   */\n      dup4\n        /* \"#utility.yul\":20677:20695   */\n      add\n        /* \"#utility.yul\":20668:20674   */\n      dup6\n        /* \"#utility.yul\":20624:20696   */\n      tag_261\n      jump\t// in\n    tag_483:\n        /* \"#utility.yul\":20706:20778   */\n      tag_484\n        /* \"#utility.yul\":20774:20776   */\n      0x60\n        /* \"#utility.yul\":20763:20772   */\n      dup4\n        /* \"#utility.yul\":20759:20777   */\n      add\n        /* \"#utility.yul\":20750:20756   */\n      dup5\n        /* \"#utility.yul\":20706:20778   */\n      tag_261\n      jump\t// in\n    tag_484:\n        /* \"#utility.yul\":20240:20785   */\n      swap6\n      swap5\n      pop\n      pop\n      pop\n      pop\n      pop\n      jump\t// out\n\n    auxdata: 0xa264697066735822122096d22af6c18355fe6fe8070b5098de8e1a866eb6be02e4e981345987ff31f00364736f6c63430008190033\n}\n",
				"bytecode": {
					"linkReferences": {},
					"object": "608060405262278d00600455348015610016575f80fd5b50604051611f24380380611f24833981810160405281019061003891906102a1565b835f73ffffffffffffffffffffffffffffffffffffffff168173ffffffffffffffffffffffffffffffffffffffff16036100a9575f6040517f1e4fbdf70000000000000000000000000000000000000000000000000000000081526004016100a09190610314565b60405180910390fd5b6100b88161018260201b60201c565b508260015f6101000a81548173ffffffffffffffffffffffffffffffffffffffff021916908373ffffffffffffffffffffffffffffffffffffffff1602179055508160025f6101000a81548173ffffffffffffffffffffffffffffffffffffffff021916908373ffffffffffffffffffffffffffffffffffffffff1602179055508060035f6101000a81548173ffffffffffffffffffffffffffffffffffffffff021916908373ffffffffffffffffffffffffffffffffffffffff1602179055505050505061032d565b5f805f9054906101000a900473ffffffffffffffffffffffffffffffffffffffff169050815f806101000a81548173ffffffffffffffffffffffffffffffffffffffff021916908373ffffffffffffffffffffffffffffffffffffffff1602179055508173ffffffffffffffffffffffffffffffffffffffff168173ffffffffffffffffffffffffffffffffffffffff167f8be0079c531659141344cd1fd0a4f28419497f9722a3daafe3b4186f6b6457e060405160405180910390a35050565b5f80fd5b5f73ffffffffffffffffffffffffffffffffffffffff82169050919050565b5f61027082610247565b9050919050565b61028081610266565b811461028a575f80fd5b50565b5f8151905061029b81610277565b92915050565b5f805f80608085870312156102b9576102b8610243565b5b5f6102c68782880161028d565b94505060206102d78782880161028d565b93505060406102e88782880161028d565b92505060606102f98782880161028d565b91505092959194509250565b61030e81610266565b82525050565b5f6020820190506103275f830184610305565b92915050565b611bea8061033a5f395ff3fe608060405234801561000f575f80fd5b50600436106100e8575f3560e01c80637ea3253b1161008a5780639f666d84116100645780639f666d841461020c578063e767c7981461023c578063f2fde38b1461025a578063f9e58b2814610276576100e8565b80637ea3253b146101b657806385dc3004146101d25780638da5cb5b146101ee576100e8565b80631c0552e8116100c65780631c0552e814610156578063441a3e701461017257806356f738cf1461018e578063715018a6146101ac576100e8565b80630f20b94c146100ec5780631573f6881461011c57806318afe17014610138575b5f80fd5b610106600480360381019061010191906111b6565b610294565b60405161011391906111f0565b60405180910390f35b61013660048036038101906101319190611298565b6102a9565b005b610140610375565b60405161014d91906112e5565b60405180910390f35b610170600480360381019061016b9190611331565b61039a565b005b61018c60048036038101906101879190611381565b6104f1565b005b6101966108a7565b6040516101a3919061141a565b60405180910390f35b6101b46108cc565b005b6101d060048036038101906101cb919061156f565b6108df565b005b6101ec60048036038101906101e79190611602565b610c25565b005b6101f6610c70565b60405161020391906112e5565b60405180910390f35b610226600480360381019061022191906111b6565b610c97565b60405161023391906111f0565b60405180910390f35b610244610cac565b60405161025191906111f0565b60405180910390f35b610274600480360381019061026f9190611602565b610cb2565b005b61027e610d36565b60405161028b919061164d565b60405180910390f35b6009602052805f5260405f205f915090505481565b6102b1610d5b565b8060055f8473ffffffffffffffffffffffffffffffffffffffff1673ffffffffffffffffffffffffffffffffffffffff1681526020019081526020015f205f6101000a81548160ff0219169083151502179055508173ffffffffffffffffffffffffffffffffffffffff16610324610de2565b73ffffffffffffffffffffffffffffffffffffffff167f6acf3afc37630e6f3e6b7176f7c4f8a3fd260b3f52fbca69f34d6db2d4fbd897836040516103699190611675565b60405180910390a35050565b60035f9054906101000a900473ffffffffffffffffffffffffffffffffffffffff1681565b60055f6103a5610de2565b73ffffffffffffffffffffffffffffffffffffffff1673ffffffffffffffffffffffffffffffffffffffff1681526020019081526020015f205f9054906101000a900460ff1661042a576040517f08c379a0000000000000000000000000000000000000000000000000000000008152600401610421906116e8565b60405180910390fd5b5f821161046c576040517f08c379a000000000000000000000000000000000000000000000000000000000815260040161046390611750565b60405180910390fd5b8160075f8581526020019081526020015f205f82825461048c919061179b565b9250508190555061049b610de2565b73ffffffffffffffffffffffffffffffffffffffff167f798fa367d6ccdf9c7b8053da94322c18e668af50cd7469b5f5a3c0e720f2cb2e8484846040516104e4939291906117dd565b60405180910390a2505050565b5f60065f8481526020019081526020015f205414801561052e57504260045460065f8581526020019081526020015f205461052c919061179b565b115b61056d576040517f08c379a00000000000000000000000000000000000000000000000000000000081526004016105649061185c565b60405180910390fd5b610575610de2565b73ffffffffffffffffffffffffffffffffffffffff1660015f9054906101000a900473ffffffffffffffffffffffffffffffffffffffff1673ffffffffffffffffffffffffffffffffffffffff16636352211e846040518263ffffffff1660e01b81526004016105e591906111f0565b602060405180830381865afa158015610600573d5f803e3d5ffd5b505050506040513d601f19601f82011682018060405250810190610624919061188e565b73ffffffffffffffffffffffffffffffffffffffff161461067a576040517f08c379a000000000000000000000000000000000000000000000000000000000815260040161067190611903565b60405180910390fd5b5f81116106bc576040517f08c379a00000000000000000000000000000000000000000000000000000000081526004016106b390611750565b60405180910390fd5b8060095f8481526020019081526020015f20546106d9919061179b565b60075f8481526020019081526020015f205460085f8581526020019081526020015f20546107079190611921565b1015610748576040517f08c379a000000000000000000000000000000000000000000000000000000000815260040161073f9061199e565b60405180910390fd5b60025f9054906101000a900473ffffffffffffffffffffffffffffffffffffffff1673ffffffffffffffffffffffffffffffffffffffff166323b872dd60035f9054906101000a900473ffffffffffffffffffffffffffffffffffffffff166107af610de2565b846040518463ffffffff1660e01b81526004016107ce939291906119bc565b6020604051808303815f875af11580156107ea573d5f803e3d5ffd5b505050506040513d601f19601f8201168201806040525081019061080e9190611a05565b504260065f8481526020019081526020015f20819055508060095f8481526020019081526020015f205f828254610845919061179b565b92505081905550610854610de2565b73ffffffffffffffffffffffffffffffffffffffff167ff279e6a1f5e320cca91135676d9cb6e44ca8a08c0b88342bcdb1144f6511b568838360405161089b929190611a30565b60405180910390a25050565b60025f9054906101000a900473ffffffffffffffffffffffffffffffffffffffff1681565b6108d4610d5b565b6108dd5f610de9565b565b5f8411610921576040517f08c379a000000000000000000000000000000000000000000000000000000000815260040161091890611750565b60405180910390fd5b60055f8473ffffffffffffffffffffffffffffffffffffffff1673ffffffffffffffffffffffffffffffffffffffff1681526020019081526020015f205f9054906101000a900460ff166109aa576040517f08c379a00000000000000000000000000000000000000000000000000000000081526004016109a1906116e8565b60405180910390fd5b6109b2610de2565b73ffffffffffffffffffffffffffffffffffffffff1660015f9054906101000a900473ffffffffffffffffffffffffffffffffffffffff1673ffffffffffffffffffffffffffffffffffffffff16636352211e876040518263ffffffff1660e01b8152600401610a2291906111f0565b602060405180830381865afa158015610a3d573d5f803e3d5ffd5b505050506040513d601f19601f82011682018060405250810190610a61919061188e565b73ffffffffffffffffffffffffffffffffffffffff1614610ab7576040517f08c379a0000000000000000000000000000000000000000000000000000000008152600401610aae90611903565b60405180910390fd5b5f60085f8781526020019081526020015f20548686610ad4610de2565b86604051602001610ae9959493929190611a57565b6040516020818303038152906040528051906020012090505f610b158383610eaa90919063ffffffff16565b90508473ffffffffffffffffffffffffffffffffffffffff168173ffffffffffffffffffffffffffffffffffffffff1614610b85576040517f08c379a0000000000000000000000000000000000000000000000000000000008152600401610b7c90611af2565b60405180910390fd5b8560085f8981526020019081526020015f205f828254610ba5919061179b565b925050819055508473ffffffffffffffffffffffffffffffffffffffff16610bcb610de2565b73ffffffffffffffffffffffffffffffffffffffff167fbfeca4b40cfe4b2290f947b0600f588f69e9387ebf4ed295ca0ac0dcf879e059898988604051610c14939291906117dd565b60405180910390a350505050505050565b610c2d610d5b565b8060035f6101000a81548173ffffffffffffffffffffffffffffffffffffffff021916908373ffffffffffffffffffffffffffffffffffffffff16021790555050565b5f805f9054906101000a900473ffffffffffffffffffffffffffffffffffffffff16905090565b6008602052805f5260405f205f915090505481565b60045481565b610cba610d5b565b5f73ffffffffffffffffffffffffffffffffffffffff168173ffffffffffffffffffffffffffffffffffffffff1603610d2a575f6040517f1e4fbdf7000000000000000000000000000000000000000000000000000000008152600401610d2191906112e5565b60405180910390fd5b610d3381610de9565b50565b60015f9054906101000a900473ffffffffffffffffffffffffffffffffffffffff1681565b610d63610de2565b73ffffffffffffffffffffffffffffffffffffffff16610d81610c70565b73ffffffffffffffffffffffffffffffffffffffff1614610de057610da4610de2565b6040517f118cdaa7000000000000000000000000000000000000000000000000000000008152600401610dd791906112e5565b60405180910390fd5b565b5f33905090565b5f805f9054906101000a900473ffffffffffffffffffffffffffffffffffffffff169050815f806101000a81548173ffffffffffffffffffffffffffffffffffffffff021916908373ffffffffffffffffffffffffffffffffffffffff1602179055508173ffffffffffffffffffffffffffffffffffffffff168173ffffffffffffffffffffffffffffffffffffffff167f8be0079c531659141344cd1fd0a4f28419497f9722a3daafe3b4186f6b6457e060405160405180910390a35050565b5f805f80610eb88686610ed4565b925092509250610ec88282610f29565b82935050505092915050565b5f805f6041845103610f14575f805f602087015192506040870151915060608701515f1a9050610f068882858561108b565b955095509550505050610f22565b5f600285515f1b9250925092505b9250925092565b5f6003811115610f3c57610f3b611b10565b5b826003811115610f4f57610f4e611b10565b5b03156110875760016003811115610f6957610f68611b10565b5b826003811115610f7c57610f7b611b10565b5b03610fb3576040517ff645eedf00000000000000000000000000000000000000000000000000000000815260040160405180910390fd5b60026003811115610fc757610fc6611b10565b5b826003811115610fda57610fd9611b10565b5b0361101e57805f1c6040517ffce698f700000000000000000000000000000000000000000000000000000000815260040161101591906111f0565b60405180910390fd5b60038081111561103157611030611b10565b5b82600381111561104457611043611b10565b5b0361108657806040517fd78bce0c00000000000000000000000000000000000000000000000000000000815260040161107d9190611b3d565b60405180910390fd5b5b5050565b5f805f7f7fffffffffffffffffffffffffffffff5d576e7357a4501ddfe92f46681b20a0845f1c11156110c7575f600385925092509250611168565b5f6001888888886040515f81526020016040526040516110ea9493929190611b71565b6020604051602081039080840390855afa15801561110a573d5f803e3d5ffd5b5050506020604051035190505f73ffffffffffffffffffffffffffffffffffffffff168173ffffffffffffffffffffffffffffffffffffffff160361115b575f60015f801b93509350935050611168565b805f805f1b935093509350505b9450945094915050565b5f604051905090565b5f80fd5b5f80fd5b5f819050919050565b61119581611183565b811461119f575f80fd5b50565b5f813590506111b08161118c565b92915050565b5f602082840312156111cb576111ca61117b565b5b5f6111d8848285016111a2565b91505092915050565b6111ea81611183565b82525050565b5f6020820190506112035f8301846111e1565b92915050565b5f73ffffffffffffffffffffffffffffffffffffffff82169050919050565b5f61123282611209565b9050919050565b61124281611228565b811461124c575f80fd5b50565b5f8135905061125d81611239565b92915050565b5f8115159050919050565b61127781611263565b8114611281575f80fd5b50565b5f813590506112928161126e565b92915050565b5f80604083850312156112ae576112ad61117b565b5b5f6112bb8582860161124f565b92505060206112cc85828601611284565b9150509250929050565b6112df81611228565b82525050565b5f6020820190506112f85f8301846112d6565b92915050565b5f819050919050565b611310816112fe565b811461131a575f80fd5b50565b5f8135905061132b81611307565b92915050565b5f805f606084860312156113485761134761117b565b5b5f611355868287016111a2565b9350506020611366868287016111a2565b92505060406113778682870161131d565b9150509250925092565b5f80604083850312156113975761139661117b565b5b5f6113a4858286016111a2565b92505060206113b5858286016111a2565b9150509250929050565b5f819050919050565b5f6113e26113dd6113d884611209565b6113bf565b611209565b9050919050565b5f6113f3826113c8565b9050919050565b5f611404826113e9565b9050919050565b611414816113fa565b82525050565b5f60208201905061142d5f83018461140b565b92915050565b5f80fd5b5f80fd5b5f601f19601f8301169050919050565b7f4e487b71000000000000000000000000000000000000000000000000000000005f52604160045260245ffd5b6114818261143b565b810181811067ffffffffffffffff821117156114a05761149f61144b565b5b80604052505050565b5f6114b2611172565b90506114be8282611478565b919050565b5f67ffffffffffffffff8211156114dd576114dc61144b565b5b6114e68261143b565b9050602081019050919050565b828183375f83830152505050565b5f61151361150e846114c3565b6114a9565b90508281526020810184848401111561152f5761152e611437565b5b61153a8482856114f3565b509392505050565b5f82601f83011261155657611555611433565b5b8135611566848260208601611501565b91505092915050565b5f805f805f60a086880312156115885761158761117b565b5b5f611595888289016111a2565b95505060206115a6888289016111a2565b94505060406115b78882890161124f565b93505060606115c88882890161131d565b925050608086013567ffffffffffffffff8111156115e9576115e861117f565b5b6115f588828901611542565b9150509295509295909350565b5f602082840312156116175761161661117b565b5b5f6116248482850161124f565b91505092915050565b5f611637826113e9565b9050919050565b6116478161162d565b82525050565b5f6020820190506116605f83018461163e565b92915050565b61166f81611263565b82525050565b5f6020820190506116885f830184611666565b92915050565b5f82825260208201905092915050565b7f596f75206172652774207061796d6173746572000000000000000000000000005f82015250565b5f6116d260138361168e565b91506116dd8261169e565b602082019050919050565b5f6020820190508181035f8301526116ff816116c6565b9050919050565b7f416d6f756e742063616e2774206265207a65726f0000000000000000000000005f82015250565b5f61173a60148361168e565b915061174582611706565b602082019050919050565b5f6020820190508181035f8301526117678161172e565b9050919050565b7f4e487b71000000000000000000000000000000000000000000000000000000005f52601160045260245ffd5b5f6117a582611183565b91506117b083611183565b92508282019050808211156117c8576117c761176e565b5b92915050565b6117d7816112fe565b82525050565b5f6060820190506117f05f8301866111e1565b6117fd60208301856111e1565b61180a60408301846117ce565b949350505050565b7f43616e27742077697468647261772079657400000000000000000000000000005f82015250565b5f61184660128361168e565b915061185182611812565b602082019050919050565b5f6020820190508181035f8301526118738161183a565b9050919050565b5f8151905061188881611239565b92915050565b5f602082840312156118a3576118a261117b565b5b5f6118b08482850161187a565b91505092915050565b7f43616c6c6572206973206e6f742074686520746f6b656e206f776e65720000005f82015250565b5f6118ed601d8361168e565b91506118f8826118b9565b602082019050919050565b5f6020820190508181035f83015261191a816118e1565b9050919050565b5f61192b82611183565b915061193683611183565b925082820390508181111561194e5761194d61176e565b5b92915050565b7f596f75206d6f6e6579206e6f7420656e6f7567680000000000000000000000005f82015250565b5f61198860148361168e565b915061199382611954565b602082019050919050565b5f6020820190508181035f8301526119b58161197c565b9050919050565b5f6060820190506119cf5f8301866112d6565b6119dc60208301856112d6565b6119e960408301846111e1565b949350505050565b5f815190506119ff8161126e565b92915050565b5f60208284031215611a1a57611a1961117b565b5b5f611a27848285016119f1565b91505092915050565b5f604082019050611a435f8301856111e1565b611a5060208301846111e1565b9392505050565b5f60a082019050611a6a5f8301886111e1565b611a7760208301876111e1565b611a8460408301866111e1565b611a9160608301856112d6565b611a9e60808301846117ce565b9695505050505050565b7f496e76616c6964205369676e61747572650000000000000000000000000000005f82015250565b5f611adc60118361168e565b9150611ae782611aa8565b602082019050919050565b5f6020820190508181035f830152611b0981611ad0565b9050919050565b7f4e487b71000000000000000000000000000000000000000000000000000000005f52602160045260245ffd5b5f602082019050611b505f8301846117ce565b92915050565b5f60ff82169050919050565b611b6b81611b56565b82525050565b5f608082019050611b845f8301876117ce565b611b916020830186611b62565b611b9e60408301856117ce565b611bab60608301846117ce565b9594505050505056fea264697066735822122096d22af6c18355fe6fe8070b5098de8e1a866eb6be02e4e981345987ff31f00364736f6c63430008190033",
					"opcodes": "PUSH1 0x80 PUSH1 0x40 MSTORE PUSH3 0x278D00 PUSH1 0x4 SSTORE CALLVALUE DUP1 ISZERO PUSH2 0x16 JUMPI PUSH0 DUP1 REVERT JUMPDEST POP PUSH1 0x40 MLOAD PUSH2 0x1F24 CODESIZE SUB DUP1 PUSH2 0x1F24 DUP4 CODECOPY DUP2 DUP2 ADD PUSH1 0x40 MSTORE DUP2 ADD SWAP1 PUSH2 0x38 SWAP2 SWAP1 PUSH2 0x2A1 JUMP JUMPDEST DUP4 PUSH0 PUSH20 0xFFFFFFFFFFFFFFFFFFFFFFFFFFFFFFFFFFFFFFFF AND DUP2 PUSH20 0xFFFFFFFFFFFFFFFFFFFFFFFFFFFFFFFFFFFFFFFF AND SUB PUSH2 0xA9 JUMPI PUSH0 PUSH1 0x40 MLOAD PUSH32 0x1E4FBDF700000000000000000000000000000000000000000000000000000000 DUP2 MSTORE PUSH1 0x4 ADD PUSH2 0xA0 SWAP2 SWAP1 PUSH2 0x314 JUMP JUMPDEST PUSH1 0x40 MLOAD DUP1 SWAP2 SUB SWAP1 REVERT JUMPDEST PUSH2 0xB8 DUP2 PUSH2 0x182 PUSH1 0x20 SHL PUSH1 0x20 SHR JUMP JUMPDEST POP DUP3 PUSH1 0x1 PUSH0 PUSH2 0x100 EXP DUP2 SLOAD DUP2 PUSH20 0xFFFFFFFFFFFFFFFFFFFFFFFFFFFFFFFFFFFFFFFF MUL NOT AND SWAP1 DUP4 PUSH20 0xFFFFFFFFFFFFFFFFFFFFFFFFFFFFFFFFFFFFFFFF AND MUL OR SWAP1 SSTORE POP DUP2 PUSH1 0x2 PUSH0 PUSH2 0x100 EXP DUP2 SLOAD DUP2 PUSH20 0xFFFFFFFFFFFFFFFFFFFFFFFFFFFFFFFFFFFFFFFF MUL NOT AND SWAP1 DUP4 PUSH20 0xFFFFFFFFFFFFFFFFFFFFFFFFFFFFFFFFFFFFFFFF AND MUL OR SWAP1 SSTORE POP DUP1 PUSH1 0x3 PUSH0 PUSH2 0x100 EXP DUP2 SLOAD DUP2 PUSH20 0xFFFFFFFFFFFFFFFFFFFFFFFFFFFFFFFFFFFFFFFF MUL NOT AND SWAP1 DUP4 PUSH20 0xFFFFFFFFFFFFFFFFFFFFFFFFFFFFFFFFFFFFFFFF AND MUL OR SWAP1 SSTORE POP POP POP POP POP PUSH2 0x32D JUMP JUMPDEST PUSH0 DUP1 PUSH0 SWAP1 SLOAD SWAP1 PUSH2 0x100 EXP SWAP1 DIV PUSH20 0xFFFFFFFFFFFFFFFFFFFFFFFFFFFFFFFFFFFFFFFF AND SWAP1 POP DUP2 PUSH0 DUP1 PUSH2 0x100 EXP DUP2 SLOAD DUP2 PUSH20 0xFFFFFFFFFFFFFFFFFFFFFFFFFFFFFFFFFFFFFFFF MUL NOT AND SWAP1 DUP4 PUSH20 0xFFFFFFFFFFFFFFFFFFFFFFFFFFFFFFFFFFFFFFFF AND MUL OR SWAP1 SSTORE POP DUP2 PUSH20 0xFFFFFFFFFFFFFFFFFFFFFFFFFFFFFFFFFFFFFFFF AND DUP2 PUSH20 0xFFFFFFFFFFFFFFFFFFFFFFFFFFFFFFFFFFFFFFFF AND PUSH32 0x8BE0079C531659141344CD1FD0A4F28419497F9722A3DAAFE3B4186F6B6457E0 PUSH1 0x40 MLOAD PUSH1 0x40 MLOAD DUP1 SWAP2 SUB SWAP1 LOG3 POP POP JUMP JUMPDEST PUSH0 DUP1 REVERT JUMPDEST PUSH0 PUSH20 0xFFFFFFFFFFFFFFFFFFFFFFFFFFFFFFFFFFFFFFFF DUP3 AND SWAP1 POP SWAP2 SWAP1 POP JUMP JUMPDEST PUSH0 PUSH2 0x270 DUP3 PUSH2 0x247 JUMP JUMPDEST SWAP1 POP SWAP2 SWAP1 POP JUMP JUMPDEST PUSH2 0x280 DUP2 PUSH2 0x266 JUMP JUMPDEST DUP2 EQ PUSH2 0x28A JUMPI PUSH0 DUP1 REVERT JUMPDEST POP JUMP JUMPDEST PUSH0 DUP2 MLOAD SWAP1 POP PUSH2 0x29B DUP2 PUSH2 0x277 JUMP JUMPDEST SWAP3 SWAP2 POP POP JUMP JUMPDEST PUSH0 DUP1 PUSH0 DUP1 PUSH1 0x80 DUP6 DUP8 SUB SLT ISZERO PUSH2 0x2B9 JUMPI PUSH2 0x2B8 PUSH2 0x243 JUMP JUMPDEST JUMPDEST PUSH0 PUSH2 0x2C6 DUP8 DUP3 DUP9 ADD PUSH2 0x28D JUMP JUMPDEST SWAP5 POP POP PUSH1 0x20 PUSH2 0x2D7 DUP8 DUP3 DUP9 ADD PUSH2 0x28D JUMP JUMPDEST SWAP4 POP POP PUSH1 0x40 PUSH2 0x2E8 DUP8 DUP3 DUP9 ADD PUSH2 0x28D JUMP JUMPDEST SWAP3 POP POP PUSH1 0x60 PUSH2 0x2F9 DUP8 DUP3 DUP9 ADD PUSH2 0x28D JUMP JUMPDEST SWAP2 POP POP SWAP3 SWAP6 SWAP2 SWAP5 POP SWAP3 POP JUMP JUMPDEST PUSH2 0x30E DUP2 PUSH2 0x266 JUMP JUMPDEST DUP3 MSTORE POP POP JUMP JUMPDEST PUSH0 PUSH1 0x20 DUP3 ADD SWAP1 POP PUSH2 0x327 PUSH0 DUP4 ADD DUP5 PUSH2 0x305 JUMP JUMPDEST SWAP3 SWAP2 POP POP JUMP JUMPDEST PUSH2 0x1BEA DUP1 PUSH2 0x33A PUSH0 CODECOPY PUSH0 RETURN INVALID PUSH1 0x80 PUSH1 0x40 MSTORE CALLVALUE DUP1 ISZERO PUSH2 0xF JUMPI PUSH0 DUP1 REVERT JUMPDEST POP PUSH1 0x4 CALLDATASIZE LT PUSH2 0xE8 JUMPI PUSH0 CALLDATALOAD PUSH1 0xE0 SHR DUP1 PUSH4 0x7EA3253B GT PUSH2 0x8A JUMPI DUP1 PUSH4 0x9F666D84 GT PUSH2 0x64 JUMPI DUP1 PUSH4 0x9F666D84 EQ PUSH2 0x20C JUMPI DUP1 PUSH4 0xE767C798 EQ PUSH2 0x23C JUMPI DUP1 PUSH4 0xF2FDE38B EQ PUSH2 0x25A JUMPI DUP1 PUSH4 0xF9E58B28 EQ PUSH2 0x276 JUMPI PUSH2 0xE8 JUMP JUMPDEST DUP1 PUSH4 0x7EA3253B EQ PUSH2 0x1B6 JUMPI DUP1 PUSH4 0x85DC3004 EQ PUSH2 0x1D2 JUMPI DUP1 PUSH4 0x8DA5CB5B EQ PUSH2 0x1EE JUMPI PUSH2 0xE8 JUMP JUMPDEST DUP1 PUSH4 0x1C0552E8 GT PUSH2 0xC6 JUMPI DUP1 PUSH4 0x1C0552E8 EQ PUSH2 0x156 JUMPI DUP1 PUSH4 0x441A3E70 EQ PUSH2 0x172 JUMPI DUP1 PUSH4 0x56F738CF EQ PUSH2 0x18E JUMPI DUP1 PUSH4 0x715018A6 EQ PUSH2 0x1AC JUMPI PUSH2 0xE8 JUMP JUMPDEST DUP1 PUSH4 0xF20B94C EQ PUSH2 0xEC JUMPI DUP1 PUSH4 0x1573F688 EQ PUSH2 0x11C JUMPI DUP1 PUSH4 0x18AFE170 EQ PUSH2 0x138 JUMPI JUMPDEST PUSH0 DUP1 REVERT JUMPDEST PUSH2 0x106 PUSH1 0x4 DUP1 CALLDATASIZE SUB DUP2 ADD SWAP1 PUSH2 0x101 SWAP2 SWAP1 PUSH2 0x11B6 JUMP JUMPDEST PUSH2 0x294 JUMP JUMPDEST PUSH1 0x40 MLOAD PUSH2 0x113 SWAP2 SWAP1 PUSH2 0x11F0 JUMP JUMPDEST PUSH1 0x40 MLOAD DUP1 SWAP2 SUB SWAP1 RETURN JUMPDEST PUSH2 0x136 PUSH1 0x4 DUP1 CALLDATASIZE SUB DUP2 ADD SWAP1 PUSH2 0x131 SWAP2 SWAP1 PUSH2 0x1298 JUMP JUMPDEST PUSH2 0x2A9 JUMP JUMPDEST STOP JUMPDEST PUSH2 0x140 PUSH2 0x375 JUMP JUMPDEST PUSH1 0x40 MLOAD PUSH2 0x14D SWAP2 SWAP1 PUSH2 0x12E5 JUMP JUMPDEST PUSH1 0x40 MLOAD DUP1 SWAP2 SUB SWAP1 RETURN JUMPDEST PUSH2 0x170 PUSH1 0x4 DUP1 CALLDATASIZE SUB DUP2 ADD SWAP1 PUSH2 0x16B SWAP2 SWAP1 PUSH2 0x1331 JUMP JUMPDEST PUSH2 0x39A JUMP JUMPDEST STOP JUMPDEST PUSH2 0x18C PUSH1 0x4 DUP1 CALLDATASIZE SUB DUP2 ADD SWAP1 PUSH2 0x187 SWAP2 SWAP1 PUSH2 0x1381 JUMP JUMPDEST PUSH2 0x4F1 JUMP JUMPDEST STOP JUMPDEST PUSH2 0x196 PUSH2 0x8A7 JUMP JUMPDEST PUSH1 0x40 MLOAD PUSH2 0x1A3 SWAP2 SWAP1 PUSH2 0x141A JUMP JUMPDEST PUSH1 0x40 MLOAD DUP1 SWAP2 SUB SWAP1 RETURN JUMPDEST PUSH2 0x1B4 PUSH2 0x8CC JUMP JUMPDEST STOP JUMPDEST PUSH2 0x1D0 PUSH1 0x4 DUP1 CALLDATASIZE SUB DUP2 ADD SWAP1 PUSH2 0x1CB SWAP2 SWAP1 PUSH2 0x156F JUMP JUMPDEST PUSH2 0x8DF JUMP JUMPDEST STOP JUMPDEST PUSH2 0x1EC PUSH1 0x4 DUP1 CALLDATASIZE SUB DUP2 ADD SWAP1 PUSH2 0x1E7 SWAP2 SWAP1 PUSH2 0x1602 JUMP JUMPDEST PUSH2 0xC25 JUMP JUMPDEST STOP JUMPDEST PUSH2 0x1F6 PUSH2 0xC70 JUMP JUMPDEST PUSH1 0x40 MLOAD PUSH2 0x203 SWAP2 SWAP1 PUSH2 0x12E5 JUMP JUMPDEST PUSH1 0x40 MLOAD DUP1 SWAP2 SUB SWAP1 RETURN JUMPDEST PUSH2 0x226 PUSH1 0x4 DUP1 CALLDATASIZE SUB DUP2 ADD SWAP1 PUSH2 0x221 SWAP2 SWAP1 PUSH2 0x11B6 JUMP JUMPDEST PUSH2 0xC97 JUMP JUMPDEST PUSH1 0x40 MLOAD PUSH2 0x233 SWAP2 SWAP1 PUSH2 0x11F0 JUMP JUMPDEST PUSH1 0x40 MLOAD DUP1 SWAP2 SUB SWAP1 RETURN JUMPDEST PUSH2 0x244 PUSH2 0xCAC JUMP JUMPDEST PUSH1 0x40 MLOAD PUSH2 0x251 SWAP2 SWAP1 PUSH2 0x11F0 JUMP JUMPDEST PUSH1 0x40 MLOAD DUP1 SWAP2 SUB SWAP1 RETURN JUMPDEST PUSH2 0x274 PUSH1 0x4 DUP1 CALLDATASIZE SUB DUP2 ADD SWAP1 PUSH2 0x26F SWAP2 SWAP1 PUSH2 0x1602 JUMP JUMPDEST PUSH2 0xCB2 JUMP JUMPDEST STOP JUMPDEST PUSH2 0x27E PUSH2 0xD36 JUMP JUMPDEST PUSH1 0x40 MLOAD PUSH2 0x28B SWAP2 SWAP1 PUSH2 0x164D JUMP JUMPDEST PUSH1 0x40 MLOAD DUP1 SWAP2 SUB SWAP1 RETURN JUMPDEST PUSH1 0x9 PUSH1 0x20 MSTORE DUP1 PUSH0 MSTORE PUSH1 0x40 PUSH0 KECCAK256 PUSH0 SWAP2 POP SWAP1 POP SLOAD DUP2 JUMP JUMPDEST PUSH2 0x2B1 PUSH2 0xD5B JUMP JUMPDEST DUP1 PUSH1 0x5 PUSH0 DUP5 PUSH20 0xFFFFFFFFFFFFFFFFFFFFFFFFFFFFFFFFFFFFFFFF AND PUSH20 0xFFFFFFFFFFFFFFFFFFFFFFFFFFFFFFFFFFFFFFFF AND DUP2 MSTORE PUSH1 0x20 ADD SWAP1 DUP2 MSTORE PUSH1 0x20 ADD PUSH0 KECCAK256 PUSH0 PUSH2 0x100 EXP DUP2 SLOAD DUP2 PUSH1 0xFF MUL NOT AND SWAP1 DUP4 ISZERO ISZERO MUL OR SWAP1 SSTORE POP DUP2 PUSH20 0xFFFFFFFFFFFFFFFFFFFFFFFFFFFFFFFFFFFFFFFF AND PUSH2 0x324 PUSH2 0xDE2 JUMP JUMPDEST PUSH20 0xFFFFFFFFFFFFFFFFFFFFFFFFFFFFFFFFFFFFFFFF AND PUSH32 0x6ACF3AFC37630E6F3E6B7176F7C4F8A3FD260B3F52FBCA69F34D6DB2D4FBD897 DUP4 PUSH1 0x40 MLOAD PUSH2 0x369 SWAP2 SWAP1 PUSH2 0x1675 JUMP JUMPDEST PUSH1 0x40 MLOAD DUP1 SWAP2 SUB SWAP1 LOG3 POP POP JUMP JUMPDEST PUSH1 0x3 PUSH0 SWAP1 SLOAD SWAP1 PUSH2 0x100 EXP SWAP1 DIV PUSH20 0xFFFFFFFFFFFFFFFFFFFFFFFFFFFFFFFFFFFFFFFF AND DUP2 JUMP JUMPDEST PUSH1 0x5 PUSH0 PUSH2 0x3A5 PUSH2 0xDE2 JUMP JUMPDEST PUSH20 0xFFFFFFFFFFFFFFFFFFFFFFFFFFFFFFFFFFFFFFFF AND PUSH20 0xFFFFFFFFFFFFFFFFFFFFFFFFFFFFFFFFFFFFFFFF AND DUP2 MSTORE PUSH1 0x20 ADD SWAP1 DUP2 MSTORE PUSH1 0x20 ADD PUSH0 KECCAK256 PUSH0 SWAP1 SLOAD SWAP1 PUSH2 0x100 EXP SWAP1 DIV PUSH1 0xFF AND PUSH2 0x42A JUMPI PUSH1 0x40 MLOAD PUSH32 0x8C379A000000000000000000000000000000000000000000000000000000000 DUP2 MSTORE PUSH1 0x4 ADD PUSH2 0x421 SWAP1 PUSH2 0x16E8 JUMP JUMPDEST PUSH1 0x40 MLOAD DUP1 SWAP2 SUB SWAP1 REVERT JUMPDEST PUSH0 DUP3 GT PUSH2 0x46C JUMPI PUSH1 0x40 MLOAD PUSH32 0x8C379A000000000000000000000000000000000000000000000000000000000 DUP2 MSTORE PUSH1 0x4 ADD PUSH2 0x463 SWAP1 PUSH2 0x1750 JUMP JUMPDEST PUSH1 0x40 MLOAD DUP1 SWAP2 SUB SWAP1 REVERT JUMPDEST DUP2 PUSH1 0x7 PUSH0 DUP6 DUP2 MSTORE PUSH1 0x20 ADD SWAP1 DUP2 MSTORE PUSH1 0x20 ADD PUSH0 KECCAK256 PUSH0 DUP3 DUP3 SLOAD PUSH2 0x48C SWAP2 SWAP1 PUSH2 0x179B JUMP JUMPDEST SWAP3 POP POP DUP2 SWAP1 SSTORE POP PUSH2 0x49B PUSH2 0xDE2 JUMP JUMPDEST PUSH20 0xFFFFFFFFFFFFFFFFFFFFFFFFFFFFFFFFFFFFFFFF AND PUSH32 0x798FA367D6CCDF9C7B8053DA94322C18E668AF50CD7469B5F5A3C0E720F2CB2E DUP5 DUP5 DUP5 PUSH1 0x40 MLOAD PUSH2 0x4E4 SWAP4 SWAP3 SWAP2 SWAP1 PUSH2 0x17DD JUMP JUMPDEST PUSH1 0x40 MLOAD DUP1 SWAP2 SUB SWAP1 LOG2 POP POP POP JUMP JUMPDEST PUSH0 PUSH1 0x6 PUSH0 DUP5 DUP2 MSTORE PUSH1 0x20 ADD SWAP1 DUP2 MSTORE PUSH1 0x20 ADD PUSH0 KECCAK256 SLOAD EQ DUP1 ISZERO PUSH2 0x52E JUMPI POP TIMESTAMP PUSH1 0x4 SLOAD PUSH1 0x6 PUSH0 DUP6 DUP2 MSTORE PUSH1 0x20 ADD SWAP1 DUP2 MSTORE PUSH1 0x20 ADD PUSH0 KECCAK256 SLOAD PUSH2 0x52C SWAP2 SWAP1 PUSH2 0x179B JUMP JUMPDEST GT JUMPDEST PUSH2 0x56D JUMPI PUSH1 0x40 MLOAD PUSH32 0x8C379A000000000000000000000000000000000000000000000000000000000 DUP2 MSTORE PUSH1 0x4 ADD PUSH2 0x564 SWAP1 PUSH2 0x185C JUMP JUMPDEST PUSH1 0x40 MLOAD DUP1 SWAP2 SUB SWAP1 REVERT JUMPDEST PUSH2 0x575 PUSH2 0xDE2 JUMP JUMPDEST PUSH20 0xFFFFFFFFFFFFFFFFFFFFFFFFFFFFFFFFFFFFFFFF AND PUSH1 0x1 PUSH0 SWAP1 SLOAD SWAP1 PUSH2 0x100 EXP SWAP1 DIV PUSH20 0xFFFFFFFFFFFFFFFFFFFFFFFFFFFFFFFFFFFFFFFF AND PUSH20 0xFFFFFFFFFFFFFFFFFFFFFFFFFFFFFFFFFFFFFFFF AND PUSH4 0x6352211E DUP5 PUSH1 0x40 MLOAD DUP3 PUSH4 0xFFFFFFFF AND PUSH1 0xE0 SHL DUP2 MSTORE PUSH1 0x4 ADD PUSH2 0x5E5 SWAP2 SWAP1 PUSH2 0x11F0 JUMP JUMPDEST PUSH1 0x20 PUSH1 0x40 MLOAD DUP1 DUP4 SUB DUP2 DUP7 GAS STATICCALL ISZERO DUP1 ISZERO PUSH2 0x600 JUMPI RETURNDATASIZE PUSH0 DUP1 RETURNDATACOPY RETURNDATASIZE PUSH0 REVERT JUMPDEST POP POP POP POP PUSH1 0x40 MLOAD RETURNDATASIZE PUSH1 0x1F NOT PUSH1 0x1F DUP3 ADD AND DUP3 ADD DUP1 PUSH1 0x40 MSTORE POP DUP2 ADD SWAP1 PUSH2 0x624 SWAP2 SWAP1 PUSH2 0x188E JUMP JUMPDEST PUSH20 0xFFFFFFFFFFFFFFFFFFFFFFFFFFFFFFFFFFFFFFFF AND EQ PUSH2 0x67A JUMPI PUSH1 0x40 MLOAD PUSH32 0x8C379A000000000000000000000000000000000000000000000000000000000 DUP2 MSTORE PUSH1 0x4 ADD PUSH2 0x671 SWAP1 PUSH2 0x1903 JUMP JUMPDEST PUSH1 0x40 MLOAD DUP1 SWAP2 SUB SWAP1 REVERT JUMPDEST PUSH0 DUP2 GT PUSH2 0x6BC JUMPI PUSH1 0x40 MLOAD PUSH32 0x8C379A000000000000000000000000000000000000000000000000000000000 DUP2 MSTORE PUSH1 0x4 ADD PUSH2 0x6B3 SWAP1 PUSH2 0x1750 JUMP JUMPDEST PUSH1 0x40 MLOAD DUP1 SWAP2 SUB SWAP1 REVERT JUMPDEST DUP1 PUSH1 0x9 PUSH0 DUP5 DUP2 MSTORE PUSH1 0x20 ADD SWAP1 DUP2 MSTORE PUSH1 0x20 ADD PUSH0 KECCAK256 SLOAD PUSH2 0x6D9 SWAP2 SWAP1 PUSH2 0x179B JUMP JUMPDEST PUSH1 0x7 PUSH0 DUP5 DUP2 MSTORE PUSH1 0x20 ADD SWAP1 DUP2 MSTORE PUSH1 0x20 ADD PUSH0 KECCAK256 SLOAD PUSH1 0x8 PUSH0 DUP6 DUP2 MSTORE PUSH1 0x20 ADD SWAP1 DUP2 MSTORE PUSH1 0x20 ADD PUSH0 KECCAK256 SLOAD PUSH2 0x707 SWAP2 SWAP1 PUSH2 0x1921 JUMP JUMPDEST LT ISZERO PUSH2 0x748 JUMPI PUSH1 0x40 MLOAD PUSH32 0x8C379A000000000000000000000000000000000000000000000000000000000 DUP2 MSTORE PUSH1 0x4 ADD PUSH2 0x73F SWAP1 PUSH2 0x199E JUMP JUMPDEST PUSH1 0x40 MLOAD DUP1 SWAP2 SUB SWAP1 REVERT JUMPDEST PUSH1 0x2 PUSH0 SWAP1 SLOAD SWAP1 PUSH2 0x100 EXP SWAP1 DIV PUSH20 0xFFFFFFFFFFFFFFFFFFFFFFFFFFFFFFFFFFFFFFFF AND PUSH20 0xFFFFFFFFFFFFFFFFFFFFFFFFFFFFFFFFFFFFFFFF AND PUSH4 0x23B872DD PUSH1 0x3 PUSH0 SWAP1 SLOAD SWAP1 PUSH2 0x100 EXP SWAP1 DIV PUSH20 0xFFFFFFFFFFFFFFFFFFFFFFFFFFFFFFFFFFFFFFFF AND PUSH2 0x7AF PUSH2 0xDE2 JUMP JUMPDEST DUP5 PUSH1 0x40 MLOAD DUP5 PUSH4 0xFFFFFFFF AND PUSH1 0xE0 SHL DUP2 MSTORE PUSH1 0x4 ADD PUSH2 0x7CE SWAP4 SWAP3 SWAP2 SWAP1 PUSH2 0x19BC JUMP JUMPDEST PUSH1 0x20 PUSH1 0x40 MLOAD DUP1 DUP4 SUB DUP2 PUSH0 DUP8 GAS CALL ISZERO DUP1 ISZERO PUSH2 0x7EA JUMPI RETURNDATASIZE PUSH0 DUP1 RETURNDATACOPY RETURNDATASIZE PUSH0 REVERT JUMPDEST POP POP POP POP PUSH1 0x40 MLOAD RETURNDATASIZE PUSH1 0x1F NOT PUSH1 0x1F DUP3 ADD AND DUP3 ADD DUP1 PUSH1 0x40 MSTORE POP DUP2 ADD SWAP1 PUSH2 0x80E SWAP2 SWAP1 PUSH2 0x1A05 JUMP JUMPDEST POP TIMESTAMP PUSH1 0x6 PUSH0 DUP5 DUP2 MSTORE PUSH1 0x20 ADD SWAP1 DUP2 MSTORE PUSH1 0x20 ADD PUSH0 KECCAK256 DUP2 SWAP1 SSTORE POP DUP1 PUSH1 0x9 PUSH0 DUP5 DUP2 MSTORE PUSH1 0x20 ADD SWAP1 DUP2 MSTORE PUSH1 0x20 ADD PUSH0 KECCAK256 PUSH0 DUP3 DUP3 SLOAD PUSH2 0x845 SWAP2 SWAP1 PUSH2 0x179B JUMP JUMPDEST SWAP3 POP POP DUP2 SWAP1 SSTORE POP PUSH2 0x854 PUSH2 0xDE2 JUMP JUMPDEST PUSH20 0xFFFFFFFFFFFFFFFFFFFFFFFFFFFFFFFFFFFFFFFF AND PUSH32 0xF279E6A1F5E320CCA91135676D9CB6E44CA8A08C0B88342BCDB1144F6511B568 DUP4 DUP4 PUSH1 0x40 MLOAD PUSH2 0x89B SWAP3 SWAP2 SWAP1 PUSH2 0x1A30 JUMP JUMPDEST PUSH1 0x40 MLOAD DUP1 SWAP2 SUB SWAP1 LOG2 POP POP JUMP JUMPDEST PUSH1 0x2 PUSH0 SWAP1 SLOAD SWAP1 PUSH2 0x100 EXP SWAP1 DIV PUSH20 0xFFFFFFFFFFFFFFFFFFFFFFFFFFFFFFFFFFFFFFFF AND DUP2 JUMP JUMPDEST PUSH2 0x8D4 PUSH2 0xD5B JUMP JUMPDEST PUSH2 0x8DD PUSH0 PUSH2 0xDE9 JUMP JUMPDEST JUMP JUMPDEST PUSH0 DUP5 GT PUSH2 0x921 JUMPI PUSH1 0x40 MLOAD PUSH32 0x8C379A000000000000000000000000000000000000000000000000000000000 DUP2 MSTORE PUSH1 0x4 ADD PUSH2 0x918 SWAP1 PUSH2 0x1750 JUMP JUMPDEST PUSH1 0x40 MLOAD DUP1 SWAP2 SUB SWAP1 REVERT JUMPDEST PUSH1 0x5 PUSH0 DUP5 PUSH20 0xFFFFFFFFFFFFFFFFFFFFFFFFFFFFFFFFFFFFFFFF AND PUSH20 0xFFFFFFFFFFFFFFFFFFFFFFFFFFFFFFFFFFFFFFFF AND DUP2 MSTORE PUSH1 0x20 ADD SWAP1 DUP2 MSTORE PUSH1 0x20 ADD PUSH0 KECCAK256 PUSH0 SWAP1 SLOAD SWAP1 PUSH2 0x100 EXP SWAP1 DIV PUSH1 0xFF AND PUSH2 0x9AA JUMPI PUSH1 0x40 MLOAD PUSH32 0x8C379A000000000000000000000000000000000000000000000000000000000 DUP2 MSTORE PUSH1 0x4 ADD PUSH2 0x9A1 SWAP1 PUSH2 0x16E8 JUMP JUMPDEST PUSH1 0x40 MLOAD DUP1 SWAP2 SUB SWAP1 REVERT JUMPDEST PUSH2 0x9B2 PUSH2 0xDE2 JUMP JUMPDEST PUSH20 0xFFFFFFFFFFFFFFFFFFFFFFFFFFFFFFFFFFFFFFFF AND PUSH1 0x1 PUSH0 SWAP1 SLOAD SWAP1 PUSH2 0x100 EXP SWAP1 DIV PUSH20 0xFFFFFFFFFFFFFFFFFFFFFFFFFFFFFFFFFFFFFFFF AND PUSH20 0xFFFFFFFFFFFFFFFFFFFFFFFFFFFFFFFFFFFFFFFF AND PUSH4 0x6352211E DUP8 PUSH1 0x40 MLOAD DUP3 PUSH4 0xFFFFFFFF AND PUSH1 0xE0 SHL DUP2 MSTORE PUSH1 0x4 ADD PUSH2 0xA22 SWAP2 SWAP1 PUSH2 0x11F0 JUMP JUMPDEST PUSH1 0x20 PUSH1 0x40 MLOAD DUP1 DUP4 SUB DUP2 DUP7 GAS STATICCALL ISZERO DUP1 ISZERO PUSH2 0xA3D JUMPI RETURNDATASIZE PUSH0 DUP1 RETURNDATACOPY RETURNDATASIZE PUSH0 REVERT JUMPDEST POP POP POP POP PUSH1 0x40 MLOAD RETURNDATASIZE PUSH1 0x1F NOT PUSH1 0x1F DUP3 ADD AND DUP3 ADD DUP1 PUSH1 0x40 MSTORE POP DUP2 ADD SWAP1 PUSH2 0xA61 SWAP2 SWAP1 PUSH2 0x188E JUMP JUMPDEST PUSH20 0xFFFFFFFFFFFFFFFFFFFFFFFFFFFFFFFFFFFFFFFF AND EQ PUSH2 0xAB7 JUMPI PUSH1 0x40 MLOAD PUSH32 0x8C379A000000000000000000000000000000000000000000000000000000000 DUP2 MSTORE PUSH1 0x4 ADD PUSH2 0xAAE SWAP1 PUSH2 0x1903 JUMP JUMPDEST PUSH1 0x40 MLOAD DUP1 SWAP2 SUB SWAP1 REVERT JUMPDEST PUSH0 PUSH1 0x8 PUSH0 DUP8 DUP2 MSTORE PUSH1 0x20 ADD SWAP1 DUP2 MSTORE PUSH1 0x20 ADD PUSH0 KECCAK256 SLOAD DUP7 DUP7 PUSH2 0xAD4 PUSH2 0xDE2 JUMP JUMPDEST DUP7 PUSH1 0x40 MLOAD PUSH1 0x20 ADD PUSH2 0xAE9 SWAP6 SWAP5 SWAP4 SWAP3 SWAP2 SWAP1 PUSH2 0x1A57 JUMP JUMPDEST PUSH1 0x40 MLOAD PUSH1 0x20 DUP2 DUP4 SUB SUB DUP2 MSTORE SWAP1 PUSH1 0x40 MSTORE DUP1 MLOAD SWAP1 PUSH1 0x20 ADD KECCAK256 SWAP1 POP PUSH0 PUSH2 0xB15 DUP4 DUP4 PUSH2 0xEAA SWAP1 SWAP2 SWAP1 PUSH4 0xFFFFFFFF AND JUMP JUMPDEST SWAP1 POP DUP5 PUSH20 0xFFFFFFFFFFFFFFFFFFFFFFFFFFFFFFFFFFFFFFFF AND DUP2 PUSH20 0xFFFFFFFFFFFFFFFFFFFFFFFFFFFFFFFFFFFFFFFF AND EQ PUSH2 0xB85 JUMPI PUSH1 0x40 MLOAD PUSH32 0x8C379A000000000000000000000000000000000000000000000000000000000 DUP2 MSTORE PUSH1 0x4 ADD PUSH2 0xB7C SWAP1 PUSH2 0x1AF2 JUMP JUMPDEST PUSH1 0x40 MLOAD DUP1 SWAP2 SUB SWAP1 REVERT JUMPDEST DUP6 PUSH1 0x8 PUSH0 DUP10 DUP2 MSTORE PUSH1 0x20 ADD SWAP1 DUP2 MSTORE PUSH1 0x20 ADD PUSH0 KECCAK256 PUSH0 DUP3 DUP3 SLOAD PUSH2 0xBA5 SWAP2 SWAP1 PUSH2 0x179B JUMP JUMPDEST SWAP3 POP POP DUP2 SWAP1 SSTORE POP DUP5 PUSH20 0xFFFFFFFFFFFFFFFFFFFFFFFFFFFFFFFFFFFFFFFF AND PUSH2 0xBCB PUSH2 0xDE2 JUMP JUMPDEST PUSH20 0xFFFFFFFFFFFFFFFFFFFFFFFFFFFFFFFFFFFFFFFF AND PUSH32 0xBFECA4B40CFE4B2290F947B0600F588F69E9387EBF4ED295CA0AC0DCF879E059 DUP10 DUP10 DUP9 PUSH1 0x40 MLOAD PUSH2 0xC14 SWAP4 SWAP3 SWAP2 SWAP1 PUSH2 0x17DD JUMP JUMPDEST PUSH1 0x40 MLOAD DUP1 SWAP2 SUB SWAP1 LOG3 POP POP POP POP POP POP POP JUMP JUMPDEST PUSH2 0xC2D PUSH2 0xD5B JUMP JUMPDEST DUP1 PUSH1 0x3 PUSH0 PUSH2 0x100 EXP DUP2 SLOAD DUP2 PUSH20 0xFFFFFFFFFFFFFFFFFFFFFFFFFFFFFFFFFFFFFFFF MUL NOT AND SWAP1 DUP4 PUSH20 0xFFFFFFFFFFFFFFFFFFFFFFFFFFFFFFFFFFFFFFFF AND MUL OR SWAP1 SSTORE POP POP JUMP JUMPDEST PUSH0 DUP1 PUSH0 SWAP1 SLOAD SWAP1 PUSH2 0x100 EXP SWAP1 DIV PUSH20 0xFFFFFFFFFFFFFFFFFFFFFFFFFFFFFFFFFFFFFFFF AND SWAP1 POP SWAP1 JUMP JUMPDEST PUSH1 0x8 PUSH1 0x20 MSTORE DUP1 PUSH0 MSTORE PUSH1 0x40 PUSH0 KECCAK256 PUSH0 SWAP2 POP SWAP1 POP SLOAD DUP2 JUMP JUMPDEST PUSH1 0x4 SLOAD DUP2 JUMP JUMPDEST PUSH2 0xCBA PUSH2 0xD5B JUMP JUMPDEST PUSH0 PUSH20 0xFFFFFFFFFFFFFFFFFFFFFFFFFFFFFFFFFFFFFFFF AND DUP2 PUSH20 0xFFFFFFFFFFFFFFFFFFFFFFFFFFFFFFFFFFFFFFFF AND SUB PUSH2 0xD2A JUMPI PUSH0 PUSH1 0x40 MLOAD PUSH32 0x1E4FBDF700000000000000000000000000000000000000000000000000000000 DUP2 MSTORE PUSH1 0x4 ADD PUSH2 0xD21 SWAP2 SWAP1 PUSH2 0x12E5 JUMP JUMPDEST PUSH1 0x40 MLOAD DUP1 SWAP2 SUB SWAP1 REVERT JUMPDEST PUSH2 0xD33 DUP2 PUSH2 0xDE9 JUMP JUMPDEST POP JUMP JUMPDEST PUSH1 0x1 PUSH0 SWAP1 SLOAD SWAP1 PUSH2 0x100 EXP SWAP1 DIV PUSH20 0xFFFFFFFFFFFFFFFFFFFFFFFFFFFFFFFFFFFFFFFF AND DUP2 JUMP JUMPDEST PUSH2 0xD63 PUSH2 0xDE2 JUMP JUMPDEST PUSH20 0xFFFFFFFFFFFFFFFFFFFFFFFFFFFFFFFFFFFFFFFF AND PUSH2 0xD81 PUSH2 0xC70 JUMP JUMPDEST PUSH20 0xFFFFFFFFFFFFFFFFFFFFFFFFFFFFFFFFFFFFFFFF AND EQ PUSH2 0xDE0 JUMPI PUSH2 0xDA4 PUSH2 0xDE2 JUMP JUMPDEST PUSH1 0x40 MLOAD PUSH32 0x118CDAA700000000000000000000000000000000000000000000000000000000 DUP2 MSTORE PUSH1 0x4 ADD PUSH2 0xDD7 SWAP2 SWAP1 PUSH2 0x12E5 JUMP JUMPDEST PUSH1 0x40 MLOAD DUP1 SWAP2 SUB SWAP1 REVERT JUMPDEST JUMP JUMPDEST PUSH0 CALLER SWAP1 POP SWAP1 JUMP JUMPDEST PUSH0 DUP1 PUSH0 SWAP1 SLOAD SWAP1 PUSH2 0x100 EXP SWAP1 DIV PUSH20 0xFFFFFFFFFFFFFFFFFFFFFFFFFFFFFFFFFFFFFFFF AND SWAP1 POP DUP2 PUSH0 DUP1 PUSH2 0x100 EXP DUP2 SLOAD DUP2 PUSH20 0xFFFFFFFFFFFFFFFFFFFFFFFFFFFFFFFFFFFFFFFF MUL NOT AND SWAP1 DUP4 PUSH20 0xFFFFFFFFFFFFFFFFFFFFFFFFFFFFFFFFFFFFFFFF AND MUL OR SWAP1 SSTORE POP DUP2 PUSH20 0xFFFFFFFFFFFFFFFFFFFFFFFFFFFFFFFFFFFFFFFF AND DUP2 PUSH20 0xFFFFFFFFFFFFFFFFFFFFFFFFFFFFFFFFFFFFFFFF AND PUSH32 0x8BE0079C531659141344CD1FD0A4F28419497F9722A3DAAFE3B4186F6B6457E0 PUSH1 0x40 MLOAD PUSH1 0x40 MLOAD DUP1 SWAP2 SUB SWAP1 LOG3 POP POP JUMP JUMPDEST PUSH0 DUP1 PUSH0 DUP1 PUSH2 0xEB8 DUP7 DUP7 PUSH2 0xED4 JUMP JUMPDEST SWAP3 POP SWAP3 POP SWAP3 POP PUSH2 0xEC8 DUP3 DUP3 PUSH2 0xF29 JUMP JUMPDEST DUP3 SWAP4 POP POP POP POP SWAP3 SWAP2 POP POP JUMP JUMPDEST PUSH0 DUP1 PUSH0 PUSH1 0x41 DUP5 MLOAD SUB PUSH2 0xF14 JUMPI PUSH0 DUP1 PUSH0 PUSH1 0x20 DUP8 ADD MLOAD SWAP3 POP PUSH1 0x40 DUP8 ADD MLOAD SWAP2 POP PUSH1 0x60 DUP8 ADD MLOAD PUSH0 BYTE SWAP1 POP PUSH2 0xF06 DUP9 DUP3 DUP6 DUP6 PUSH2 0x108B JUMP JUMPDEST SWAP6 POP SWAP6 POP SWAP6 POP POP POP POP PUSH2 0xF22 JUMP JUMPDEST PUSH0 PUSH1 0x2 DUP6 MLOAD PUSH0 SHL SWAP3 POP SWAP3 POP SWAP3 POP JUMPDEST SWAP3 POP SWAP3 POP SWAP3 JUMP JUMPDEST PUSH0 PUSH1 0x3 DUP2 GT ISZERO PUSH2 0xF3C JUMPI PUSH2 0xF3B PUSH2 0x1B10 JUMP JUMPDEST JUMPDEST DUP3 PUSH1 0x3 DUP2 GT ISZERO PUSH2 0xF4F JUMPI PUSH2 0xF4E PUSH2 0x1B10 JUMP JUMPDEST JUMPDEST SUB ISZERO PUSH2 0x1087 JUMPI PUSH1 0x1 PUSH1 0x3 DUP2 GT ISZERO PUSH2 0xF69 JUMPI PUSH2 0xF68 PUSH2 0x1B10 JUMP JUMPDEST JUMPDEST DUP3 PUSH1 0x3 DUP2 GT ISZERO PUSH2 0xF7C JUMPI PUSH2 0xF7B PUSH2 0x1B10 JUMP JUMPDEST JUMPDEST SUB PUSH2 0xFB3 JUMPI PUSH1 0x40 MLOAD PUSH32 0xF645EEDF00000000000000000000000000000000000000000000000000000000 DUP2 MSTORE PUSH1 0x4 ADD PUSH1 0x40 MLOAD DUP1 SWAP2 SUB SWAP1 REVERT JUMPDEST PUSH1 0x2 PUSH1 0x3 DUP2 GT ISZERO PUSH2 0xFC7 JUMPI PUSH2 0xFC6 PUSH2 0x1B10 JUMP JUMPDEST JUMPDEST DUP3 PUSH1 0x3 DUP2 GT ISZERO PUSH2 0xFDA JUMPI PUSH2 0xFD9 PUSH2 0x1B10 JUMP JUMPDEST JUMPDEST SUB PUSH2 0x101E JUMPI DUP1 PUSH0 SHR PUSH1 0x40 MLOAD PUSH32 0xFCE698F700000000000000000000000000000000000000000000000000000000 DUP2 MSTORE PUSH1 0x4 ADD PUSH2 0x1015 SWAP2 SWAP1 PUSH2 0x11F0 JUMP JUMPDEST PUSH1 0x40 MLOAD DUP1 SWAP2 SUB SWAP1 REVERT JUMPDEST PUSH1 0x3 DUP1 DUP2 GT ISZERO PUSH2 0x1031 JUMPI PUSH2 0x1030 PUSH2 0x1B10 JUMP JUMPDEST JUMPDEST DUP3 PUSH1 0x3 DUP2 GT ISZERO PUSH2 0x1044 JUMPI PUSH2 0x1043 PUSH2 0x1B10 JUMP JUMPDEST JUMPDEST SUB PUSH2 0x1086 JUMPI DUP1 PUSH1 0x40 MLOAD PUSH32 0xD78BCE0C00000000000000000000000000000000000000000000000000000000 DUP2 MSTORE PUSH1 0x4 ADD PUSH2 0x107D SWAP2 SWAP1 PUSH2 0x1B3D JUMP JUMPDEST PUSH1 0x40 MLOAD DUP1 SWAP2 SUB SWAP1 REVERT JUMPDEST JUMPDEST POP POP JUMP JUMPDEST PUSH0 DUP1 PUSH0 PUSH32 0x7FFFFFFFFFFFFFFFFFFFFFFFFFFFFFFF5D576E7357A4501DDFE92F46681B20A0 DUP5 PUSH0 SHR GT ISZERO PUSH2 0x10C7 JUMPI PUSH0 PUSH1 0x3 DUP6 SWAP3 POP SWAP3 POP SWAP3 POP PUSH2 0x1168 JUMP JUMPDEST PUSH0 PUSH1 0x1 DUP9 DUP9 DUP9 DUP9 PUSH1 0x40 MLOAD PUSH0 DUP2 MSTORE PUSH1 0x20 ADD PUSH1 0x40 MSTORE PUSH1 0x40 MLOAD PUSH2 0x10EA SWAP5 SWAP4 SWAP3 SWAP2 SWAP1 PUSH2 0x1B71 JUMP JUMPDEST PUSH1 0x20 PUSH1 0x40 MLOAD PUSH1 0x20 DUP2 SUB SWAP1 DUP1 DUP5 SUB SWAP1 DUP6 GAS STATICCALL ISZERO DUP1 ISZERO PUSH2 0x110A JUMPI RETURNDATASIZE PUSH0 DUP1 RETURNDATACOPY RETURNDATASIZE PUSH0 REVERT JUMPDEST POP POP POP PUSH1 0x20 PUSH1 0x40 MLOAD SUB MLOAD SWAP1 POP PUSH0 PUSH20 0xFFFFFFFFFFFFFFFFFFFFFFFFFFFFFFFFFFFFFFFF AND DUP2 PUSH20 0xFFFFFFFFFFFFFFFFFFFFFFFFFFFFFFFFFFFFFFFF AND SUB PUSH2 0x115B JUMPI PUSH0 PUSH1 0x1 PUSH0 DUP1 SHL SWAP4 POP SWAP4 POP SWAP4 POP POP PUSH2 0x1168 JUMP JUMPDEST DUP1 PUSH0 DUP1 PUSH0 SHL SWAP4 POP SWAP4 POP SWAP4 POP POP JUMPDEST SWAP5 POP SWAP5 POP SWAP5 SWAP2 POP POP JUMP JUMPDEST PUSH0 PUSH1 0x40 MLOAD SWAP1 POP SWAP1 JUMP JUMPDEST PUSH0 DUP1 REVERT JUMPDEST PUSH0 DUP1 REVERT JUMPDEST PUSH0 DUP2 SWAP1 POP SWAP2 SWAP1 POP JUMP JUMPDEST PUSH2 0x1195 DUP2 PUSH2 0x1183 JUMP JUMPDEST DUP2 EQ PUSH2 0x119F JUMPI PUSH0 DUP1 REVERT JUMPDEST POP JUMP JUMPDEST PUSH0 DUP2 CALLDATALOAD SWAP1 POP PUSH2 0x11B0 DUP2 PUSH2 0x118C JUMP JUMPDEST SWAP3 SWAP2 POP POP JUMP JUMPDEST PUSH0 PUSH1 0x20 DUP3 DUP5 SUB SLT ISZERO PUSH2 0x11CB JUMPI PUSH2 0x11CA PUSH2 0x117B JUMP JUMPDEST JUMPDEST PUSH0 PUSH2 0x11D8 DUP5 DUP3 DUP6 ADD PUSH2 0x11A2 JUMP JUMPDEST SWAP2 POP POP SWAP3 SWAP2 POP POP JUMP JUMPDEST PUSH2 0x11EA DUP2 PUSH2 0x1183 JUMP JUMPDEST DUP3 MSTORE POP POP JUMP JUMPDEST PUSH0 PUSH1 0x20 DUP3 ADD SWAP1 POP PUSH2 0x1203 PUSH0 DUP4 ADD DUP5 PUSH2 0x11E1 JUMP JUMPDEST SWAP3 SWAP2 POP POP JUMP JUMPDEST PUSH0 PUSH20 0xFFFFFFFFFFFFFFFFFFFFFFFFFFFFFFFFFFFFFFFF DUP3 AND SWAP1 POP SWAP2 SWAP1 POP JUMP JUMPDEST PUSH0 PUSH2 0x1232 DUP3 PUSH2 0x1209 JUMP JUMPDEST SWAP1 POP SWAP2 SWAP1 POP JUMP JUMPDEST PUSH2 0x1242 DUP2 PUSH2 0x1228 JUMP JUMPDEST DUP2 EQ PUSH2 0x124C JUMPI PUSH0 DUP1 REVERT JUMPDEST POP JUMP JUMPDEST PUSH0 DUP2 CALLDATALOAD SWAP1 POP PUSH2 0x125D DUP2 PUSH2 0x1239 JUMP JUMPDEST SWAP3 SWAP2 POP POP JUMP JUMPDEST PUSH0 DUP2 ISZERO ISZERO SWAP1 POP SWAP2 SWAP1 POP JUMP JUMPDEST PUSH2 0x1277 DUP2 PUSH2 0x1263 JUMP JUMPDEST DUP2 EQ PUSH2 0x1281 JUMPI PUSH0 DUP1 REVERT JUMPDEST POP JUMP JUMPDEST PUSH0 DUP2 CALLDATALOAD SWAP1 POP PUSH2 0x1292 DUP2 PUSH2 0x126E JUMP JUMPDEST SWAP3 SWAP2 POP POP JUMP JUMPDEST PUSH0 DUP1 PUSH1 0x40 DUP4 DUP6 SUB SLT ISZERO PUSH2 0x12AE JUMPI PUSH2 0x12AD PUSH2 0x117B JUMP JUMPDEST JUMPDEST PUSH0 PUSH2 0x12BB DUP6 DUP3 DUP7 ADD PUSH2 0x124F JUMP JUMPDEST SWAP3 POP POP PUSH1 0x20 PUSH2 0x12CC DUP6 DUP3 DUP7 ADD PUSH2 0x1284 JUMP JUMPDEST SWAP2 POP POP SWAP3 POP SWAP3 SWAP1 POP JUMP JUMPDEST PUSH2 0x12DF DUP2 PUSH2 0x1228 JUMP JUMPDEST DUP3 MSTORE POP POP JUMP JUMPDEST PUSH0 PUSH1 0x20 DUP3 ADD SWAP1 POP PUSH2 0x12F8 PUSH0 DUP4 ADD DUP5 PUSH2 0x12D6 JUMP JUMPDEST SWAP3 SWAP2 POP POP JUMP JUMPDEST PUSH0 DUP2 SWAP1 POP SWAP2 SWAP1 POP JUMP JUMPDEST PUSH2 0x1310 DUP2 PUSH2 0x12FE JUMP JUMPDEST DUP2 EQ PUSH2 0x131A JUMPI PUSH0 DUP1 REVERT JUMPDEST POP JUMP JUMPDEST PUSH0 DUP2 CALLDATALOAD SWAP1 POP PUSH2 0x132B DUP2 PUSH2 0x1307 JUMP JUMPDEST SWAP3 SWAP2 POP POP JUMP JUMPDEST PUSH0 DUP1 PUSH0 PUSH1 0x60 DUP5 DUP7 SUB SLT ISZERO PUSH2 0x1348 JUMPI PUSH2 0x1347 PUSH2 0x117B JUMP JUMPDEST JUMPDEST PUSH0 PUSH2 0x1355 DUP7 DUP3 DUP8 ADD PUSH2 0x11A2 JUMP JUMPDEST SWAP4 POP POP PUSH1 0x20 PUSH2 0x1366 DUP7 DUP3 DUP8 ADD PUSH2 0x11A2 JUMP JUMPDEST SWAP3 POP POP PUSH1 0x40 PUSH2 0x1377 DUP7 DUP3 DUP8 ADD PUSH2 0x131D JUMP JUMPDEST SWAP2 POP POP SWAP3 POP SWAP3 POP SWAP3 JUMP JUMPDEST PUSH0 DUP1 PUSH1 0x40 DUP4 DUP6 SUB SLT ISZERO PUSH2 0x1397 JUMPI PUSH2 0x1396 PUSH2 0x117B JUMP JUMPDEST JUMPDEST PUSH0 PUSH2 0x13A4 DUP6 DUP3 DUP7 ADD PUSH2 0x11A2 JUMP JUMPDEST SWAP3 POP POP PUSH1 0x20 PUSH2 0x13B5 DUP6 DUP3 DUP7 ADD PUSH2 0x11A2 JUMP JUMPDEST SWAP2 POP POP SWAP3 POP SWAP3 SWAP1 POP JUMP JUMPDEST PUSH0 DUP2 SWAP1 POP SWAP2 SWAP1 POP JUMP JUMPDEST PUSH0 PUSH2 0x13E2 PUSH2 0x13DD PUSH2 0x13D8 DUP5 PUSH2 0x1209 JUMP JUMPDEST PUSH2 0x13BF JUMP JUMPDEST PUSH2 0x1209 JUMP JUMPDEST SWAP1 POP SWAP2 SWAP1 POP JUMP JUMPDEST PUSH0 PUSH2 0x13F3 DUP3 PUSH2 0x13C8 JUMP JUMPDEST SWAP1 POP SWAP2 SWAP1 POP JUMP JUMPDEST PUSH0 PUSH2 0x1404 DUP3 PUSH2 0x13E9 JUMP JUMPDEST SWAP1 POP SWAP2 SWAP1 POP JUMP JUMPDEST PUSH2 0x1414 DUP2 PUSH2 0x13FA JUMP JUMPDEST DUP3 MSTORE POP POP JUMP JUMPDEST PUSH0 PUSH1 0x20 DUP3 ADD SWAP1 POP PUSH2 0x142D PUSH0 DUP4 ADD DUP5 PUSH2 0x140B JUMP JUMPDEST SWAP3 SWAP2 POP POP JUMP JUMPDEST PUSH0 DUP1 REVERT JUMPDEST PUSH0 DUP1 REVERT JUMPDEST PUSH0 PUSH1 0x1F NOT PUSH1 0x1F DUP4 ADD AND SWAP1 POP SWAP2 SWAP1 POP JUMP JUMPDEST PUSH32 0x4E487B7100000000000000000000000000000000000000000000000000000000 PUSH0 MSTORE PUSH1 0x41 PUSH1 0x4 MSTORE PUSH1 0x24 PUSH0 REVERT JUMPDEST PUSH2 0x1481 DUP3 PUSH2 0x143B JUMP JUMPDEST DUP2 ADD DUP2 DUP2 LT PUSH8 0xFFFFFFFFFFFFFFFF DUP3 GT OR ISZERO PUSH2 0x14A0 JUMPI PUSH2 0x149F PUSH2 0x144B JUMP JUMPDEST JUMPDEST DUP1 PUSH1 0x40 MSTORE POP POP POP JUMP JUMPDEST PUSH0 PUSH2 0x14B2 PUSH2 0x1172 JUMP JUMPDEST SWAP1 POP PUSH2 0x14BE DUP3 DUP3 PUSH2 0x1478 JUMP JUMPDEST SWAP2 SWAP1 POP JUMP JUMPDEST PUSH0 PUSH8 0xFFFFFFFFFFFFFFFF DUP3 GT ISZERO PUSH2 0x14DD JUMPI PUSH2 0x14DC PUSH2 0x144B JUMP JUMPDEST JUMPDEST PUSH2 0x14E6 DUP3 PUSH2 0x143B JUMP JUMPDEST SWAP1 POP PUSH1 0x20 DUP2 ADD SWAP1 POP SWAP2 SWAP1 POP JUMP JUMPDEST DUP3 DUP2 DUP4 CALLDATACOPY PUSH0 DUP4 DUP4 ADD MSTORE POP POP POP JUMP JUMPDEST PUSH0 PUSH2 0x1513 PUSH2 0x150E DUP5 PUSH2 0x14C3 JUMP JUMPDEST PUSH2 0x14A9 JUMP JUMPDEST SWAP1 POP DUP3 DUP2 MSTORE PUSH1 0x20 DUP2 ADD DUP5 DUP5 DUP5 ADD GT ISZERO PUSH2 0x152F JUMPI PUSH2 0x152E PUSH2 0x1437 JUMP JUMPDEST JUMPDEST PUSH2 0x153A DUP5 DUP3 DUP6 PUSH2 0x14F3 JUMP JUMPDEST POP SWAP4 SWAP3 POP POP POP JUMP JUMPDEST PUSH0 DUP3 PUSH1 0x1F DUP4 ADD SLT PUSH2 0x1556 JUMPI PUSH2 0x1555 PUSH2 0x1433 JUMP JUMPDEST JUMPDEST DUP2 CALLDATALOAD PUSH2 0x1566 DUP5 DUP3 PUSH1 0x20 DUP7 ADD PUSH2 0x1501 JUMP JUMPDEST SWAP2 POP POP SWAP3 SWAP2 POP POP JUMP JUMPDEST PUSH0 DUP1 PUSH0 DUP1 PUSH0 PUSH1 0xA0 DUP7 DUP9 SUB SLT ISZERO PUSH2 0x1588 JUMPI PUSH2 0x1587 PUSH2 0x117B JUMP JUMPDEST JUMPDEST PUSH0 PUSH2 0x1595 DUP9 DUP3 DUP10 ADD PUSH2 0x11A2 JUMP JUMPDEST SWAP6 POP POP PUSH1 0x20 PUSH2 0x15A6 DUP9 DUP3 DUP10 ADD PUSH2 0x11A2 JUMP JUMPDEST SWAP5 POP POP PUSH1 0x40 PUSH2 0x15B7 DUP9 DUP3 DUP10 ADD PUSH2 0x124F JUMP JUMPDEST SWAP4 POP POP PUSH1 0x60 PUSH2 0x15C8 DUP9 DUP3 DUP10 ADD PUSH2 0x131D JUMP JUMPDEST SWAP3 POP POP PUSH1 0x80 DUP7 ADD CALLDATALOAD PUSH8 0xFFFFFFFFFFFFFFFF DUP2 GT ISZERO PUSH2 0x15E9 JUMPI PUSH2 0x15E8 PUSH2 0x117F JUMP JUMPDEST JUMPDEST PUSH2 0x15F5 DUP9 DUP3 DUP10 ADD PUSH2 0x1542 JUMP JUMPDEST SWAP2 POP POP SWAP3 SWAP6 POP SWAP3 SWAP6 SWAP1 SWAP4 POP JUMP JUMPDEST PUSH0 PUSH1 0x20 DUP3 DUP5 SUB SLT ISZERO PUSH2 0x1617 JUMPI PUSH2 0x1616 PUSH2 0x117B JUMP JUMPDEST JUMPDEST PUSH0 PUSH2 0x1624 DUP5 DUP3 DUP6 ADD PUSH2 0x124F JUMP JUMPDEST SWAP2 POP POP SWAP3 SWAP2 POP POP JUMP JUMPDEST PUSH0 PUSH2 0x1637 DUP3 PUSH2 0x13E9 JUMP JUMPDEST SWAP1 POP SWAP2 SWAP1 POP JUMP JUMPDEST PUSH2 0x1647 DUP2 PUSH2 0x162D JUMP JUMPDEST DUP3 MSTORE POP POP JUMP JUMPDEST PUSH0 PUSH1 0x20 DUP3 ADD SWAP1 POP PUSH2 0x1660 PUSH0 DUP4 ADD DUP5 PUSH2 0x163E JUMP JUMPDEST SWAP3 SWAP2 POP POP JUMP JUMPDEST PUSH2 0x166F DUP2 PUSH2 0x1263 JUMP JUMPDEST DUP3 MSTORE POP POP JUMP JUMPDEST PUSH0 PUSH1 0x20 DUP3 ADD SWAP1 POP PUSH2 0x1688 PUSH0 DUP4 ADD DUP5 PUSH2 0x1666 JUMP JUMPDEST SWAP3 SWAP2 POP POP JUMP JUMPDEST PUSH0 DUP3 DUP3 MSTORE PUSH1 0x20 DUP3 ADD SWAP1 POP SWAP3 SWAP2 POP POP JUMP JUMPDEST PUSH32 0x596F75206172652774207061796D617374657200000000000000000000000000 PUSH0 DUP3 ADD MSTORE POP JUMP JUMPDEST PUSH0 PUSH2 0x16D2 PUSH1 0x13 DUP4 PUSH2 0x168E JUMP JUMPDEST SWAP2 POP PUSH2 0x16DD DUP3 PUSH2 0x169E JUMP JUMPDEST PUSH1 0x20 DUP3 ADD SWAP1 POP SWAP2 SWAP1 POP JUMP JUMPDEST PUSH0 PUSH1 0x20 DUP3 ADD SWAP1 POP DUP2 DUP2 SUB PUSH0 DUP4 ADD MSTORE PUSH2 0x16FF DUP2 PUSH2 0x16C6 JUMP JUMPDEST SWAP1 POP SWAP2 SWAP1 POP JUMP JUMPDEST PUSH32 0x416D6F756E742063616E2774206265207A65726F000000000000000000000000 PUSH0 DUP3 ADD MSTORE POP JUMP JUMPDEST PUSH0 PUSH2 0x173A PUSH1 0x14 DUP4 PUSH2 0x168E JUMP JUMPDEST SWAP2 POP PUSH2 0x1745 DUP3 PUSH2 0x1706 JUMP JUMPDEST PUSH1 0x20 DUP3 ADD SWAP1 POP SWAP2 SWAP1 POP JUMP JUMPDEST PUSH0 PUSH1 0x20 DUP3 ADD SWAP1 POP DUP2 DUP2 SUB PUSH0 DUP4 ADD MSTORE PUSH2 0x1767 DUP2 PUSH2 0x172E JUMP JUMPDEST SWAP1 POP SWAP2 SWAP1 POP JUMP JUMPDEST PUSH32 0x4E487B7100000000000000000000000000000000000000000000000000000000 PUSH0 MSTORE PUSH1 0x11 PUSH1 0x4 MSTORE PUSH1 0x24 PUSH0 REVERT JUMPDEST PUSH0 PUSH2 0x17A5 DUP3 PUSH2 0x1183 JUMP JUMPDEST SWAP2 POP PUSH2 0x17B0 DUP4 PUSH2 0x1183 JUMP JUMPDEST SWAP3 POP DUP3 DUP3 ADD SWAP1 POP DUP1 DUP3 GT ISZERO PUSH2 0x17C8 JUMPI PUSH2 0x17C7 PUSH2 0x176E JUMP JUMPDEST JUMPDEST SWAP3 SWAP2 POP POP JUMP JUMPDEST PUSH2 0x17D7 DUP2 PUSH2 0x12FE JUMP JUMPDEST DUP3 MSTORE POP POP JUMP JUMPDEST PUSH0 PUSH1 0x60 DUP3 ADD SWAP1 POP PUSH2 0x17F0 PUSH0 DUP4 ADD DUP7 PUSH2 0x11E1 JUMP JUMPDEST PUSH2 0x17FD PUSH1 0x20 DUP4 ADD DUP6 PUSH2 0x11E1 JUMP JUMPDEST PUSH2 0x180A PUSH1 0x40 DUP4 ADD DUP5 PUSH2 0x17CE JUMP JUMPDEST SWAP5 SWAP4 POP POP POP POP JUMP JUMPDEST PUSH32 0x43616E2774207769746864726177207965740000000000000000000000000000 PUSH0 DUP3 ADD MSTORE POP JUMP JUMPDEST PUSH0 PUSH2 0x1846 PUSH1 0x12 DUP4 PUSH2 0x168E JUMP JUMPDEST SWAP2 POP PUSH2 0x1851 DUP3 PUSH2 0x1812 JUMP JUMPDEST PUSH1 0x20 DUP3 ADD SWAP1 POP SWAP2 SWAP1 POP JUMP JUMPDEST PUSH0 PUSH1 0x20 DUP3 ADD SWAP1 POP DUP2 DUP2 SUB PUSH0 DUP4 ADD MSTORE PUSH2 0x1873 DUP2 PUSH2 0x183A JUMP JUMPDEST SWAP1 POP SWAP2 SWAP1 POP JUMP JUMPDEST PUSH0 DUP2 MLOAD SWAP1 POP PUSH2 0x1888 DUP2 PUSH2 0x1239 JUMP JUMPDEST SWAP3 SWAP2 POP POP JUMP JUMPDEST PUSH0 PUSH1 0x20 DUP3 DUP5 SUB SLT ISZERO PUSH2 0x18A3 JUMPI PUSH2 0x18A2 PUSH2 0x117B JUMP JUMPDEST JUMPDEST PUSH0 PUSH2 0x18B0 DUP5 DUP3 DUP6 ADD PUSH2 0x187A JUMP JUMPDEST SWAP2 POP POP SWAP3 SWAP2 POP POP JUMP JUMPDEST PUSH32 0x43616C6C6572206973206E6F742074686520746F6B656E206F776E6572000000 PUSH0 DUP3 ADD MSTORE POP JUMP JUMPDEST PUSH0 PUSH2 0x18ED PUSH1 0x1D DUP4 PUSH2 0x168E JUMP JUMPDEST SWAP2 POP PUSH2 0x18F8 DUP3 PUSH2 0x18B9 JUMP JUMPDEST PUSH1 0x20 DUP3 ADD SWAP1 POP SWAP2 SWAP1 POP JUMP JUMPDEST PUSH0 PUSH1 0x20 DUP3 ADD SWAP1 POP DUP2 DUP2 SUB PUSH0 DUP4 ADD MSTORE PUSH2 0x191A DUP2 PUSH2 0x18E1 JUMP JUMPDEST SWAP1 POP SWAP2 SWAP1 POP JUMP JUMPDEST PUSH0 PUSH2 0x192B DUP3 PUSH2 0x1183 JUMP JUMPDEST SWAP2 POP PUSH2 0x1936 DUP4 PUSH2 0x1183 JUMP JUMPDEST SWAP3 POP DUP3 DUP3 SUB SWAP1 POP DUP2 DUP2 GT ISZERO PUSH2 0x194E JUMPI PUSH2 0x194D PUSH2 0x176E JUMP JUMPDEST JUMPDEST SWAP3 SWAP2 POP POP JUMP JUMPDEST PUSH32 0x596F75206D6F6E6579206E6F7420656E6F756768000000000000000000000000 PUSH0 DUP3 ADD MSTORE POP JUMP JUMPDEST PUSH0 PUSH2 0x1988 PUSH1 0x14 DUP4 PUSH2 0x168E JUMP JUMPDEST SWAP2 POP PUSH2 0x1993 DUP3 PUSH2 0x1954 JUMP JUMPDEST PUSH1 0x20 DUP3 ADD SWAP1 POP SWAP2 SWAP1 POP JUMP JUMPDEST PUSH0 PUSH1 0x20 DUP3 ADD SWAP1 POP DUP2 DUP2 SUB PUSH0 DUP4 ADD MSTORE PUSH2 0x19B5 DUP2 PUSH2 0x197C JUMP JUMPDEST SWAP1 POP SWAP2 SWAP1 POP JUMP JUMPDEST PUSH0 PUSH1 0x60 DUP3 ADD SWAP1 POP PUSH2 0x19CF PUSH0 DUP4 ADD DUP7 PUSH2 0x12D6 JUMP JUMPDEST PUSH2 0x19DC PUSH1 0x20 DUP4 ADD DUP6 PUSH2 0x12D6 JUMP JUMPDEST PUSH2 0x19E9 PUSH1 0x40 DUP4 ADD DUP5 PUSH2 0x11E1 JUMP JUMPDEST SWAP5 SWAP4 POP POP POP POP JUMP JUMPDEST PUSH0 DUP2 MLOAD SWAP1 POP PUSH2 0x19FF DUP2 PUSH2 0x126E JUMP JUMPDEST SWAP3 SWAP2 POP POP JUMP JUMPDEST PUSH0 PUSH1 0x20 DUP3 DUP5 SUB SLT ISZERO PUSH2 0x1A1A JUMPI PUSH2 0x1A19 PUSH2 0x117B JUMP JUMPDEST JUMPDEST PUSH0 PUSH2 0x1A27 DUP5 DUP3 DUP6 ADD PUSH2 0x19F1 JUMP JUMPDEST SWAP2 POP POP SWAP3 SWAP2 POP POP JUMP JUMPDEST PUSH0 PUSH1 0x40 DUP3 ADD SWAP1 POP PUSH2 0x1A43 PUSH0 DUP4 ADD DUP6 PUSH2 0x11E1 JUMP JUMPDEST PUSH2 0x1A50 PUSH1 0x20 DUP4 ADD DUP5 PUSH2 0x11E1 JUMP JUMPDEST SWAP4 SWAP3 POP POP POP JUMP JUMPDEST PUSH0 PUSH1 0xA0 DUP3 ADD SWAP1 POP PUSH2 0x1A6A PUSH0 DUP4 ADD DUP9 PUSH2 0x11E1 JUMP JUMPDEST PUSH2 0x1A77 PUSH1 0x20 DUP4 ADD DUP8 PUSH2 0x11E1 JUMP JUMPDEST PUSH2 0x1A84 PUSH1 0x40 DUP4 ADD DUP7 PUSH2 0x11E1 JUMP JUMPDEST PUSH2 0x1A91 PUSH1 0x60 DUP4 ADD DUP6 PUSH2 0x12D6 JUMP JUMPDEST PUSH2 0x1A9E PUSH1 0x80 DUP4 ADD DUP5 PUSH2 0x17CE JUMP JUMPDEST SWAP7 SWAP6 POP POP POP POP POP POP JUMP JUMPDEST PUSH32 0x496E76616C6964205369676E6174757265000000000000000000000000000000 PUSH0 DUP3 ADD MSTORE POP JUMP JUMPDEST PUSH0 PUSH2 0x1ADC PUSH1 0x11 DUP4 PUSH2 0x168E JUMP JUMPDEST SWAP2 POP PUSH2 0x1AE7 DUP3 PUSH2 0x1AA8 JUMP JUMPDEST PUSH1 0x20 DUP3 ADD SWAP1 POP SWAP2 SWAP1 POP JUMP JUMPDEST PUSH0 PUSH1 0x20 DUP3 ADD SWAP1 POP DUP2 DUP2 SUB PUSH0 DUP4 ADD MSTORE PUSH2 0x1B09 DUP2 PUSH2 0x1AD0 JUMP JUMPDEST SWAP1 POP SWAP2 SWAP1 POP JUMP JUMPDEST PUSH32 0x4E487B7100000000000000000000000000000000000000000000000000000000 PUSH0 MSTORE PUSH1 0x21 PUSH1 0x4 MSTORE PUSH1 0x24 PUSH0 REVERT JUMPDEST PUSH0 PUSH1 0x20 DUP3 ADD SWAP1 POP PUSH2 0x1B50 PUSH0 DUP4 ADD DUP5 PUSH2 0x17CE JUMP JUMPDEST SWAP3 SWAP2 POP POP JUMP JUMPDEST PUSH0 PUSH1 0xFF DUP3 AND SWAP1 POP SWAP2 SWAP1 POP JUMP JUMPDEST PUSH2 0x1B6B DUP2 PUSH2 0x1B56 JUMP JUMPDEST DUP3 MSTORE POP POP JUMP JUMPDEST PUSH0 PUSH1 0x80 DUP3 ADD SWAP1 POP PUSH2 0x1B84 PUSH0 DUP4 ADD DUP8 PUSH2 0x17CE JUMP JUMPDEST PUSH2 0x1B91 PUSH1 0x20 DUP4 ADD DUP7 PUSH2 0x1B62 JUMP JUMPDEST PUSH2 0x1B9E PUSH1 0x40 DUP4 ADD DUP6 PUSH2 0x17CE JUMP JUMPDEST PUSH2 0x1BAB PUSH1 0x60 DUP4 ADD DUP5 PUSH2 0x17CE JUMP JUMPDEST SWAP6 SWAP5 POP POP POP POP POP JUMP INVALID LOG2 PUSH5 0x6970667358 0x22 SLT KECCAK256 SWAP7 0xD2 0x2A 0xF6 0xC1 DUP4 SSTORE INVALID PUSH16 0xE8070B5098DE8E1A866EB6BE02E4E981 CALLVALUE MSIZE DUP8 SELFDESTRUCT BALANCE CREATE SUB PUSH5 0x736F6C6343 STOP ADDMOD NOT STOP CALLER "
				},
				"gasEstimates": {
					"creation": {
						"codeDepositCost": "1429200",
						"executionCost": "infinite",
						"totalCost": "infinite"
					},
					"external": {
						"cKIP()": "infinite",
						"claim(uint256,uint256,address,bytes32,bytes)": "infinite",
						"claimedAmounts(uint256)": "infinite",
						"fund_address()": "2576",
						"license_nft()": "infinite",
						"owner()": "2582",
						"penalty(uint256,uint256,bytes32)": "infinite",
						"renounceOwnership()": "infinite",
						"setFundAddress(address)": "infinite",
						"setPaymaster(address,bool)": "infinite",
						"transferOwnership(address)": "infinite",
						"withdraw(uint256,uint256)": "infinite",
						"withdrawAmounts(uint256)": "infinite",
						"withdraw_interval()": "2469"
					}
				},
				"methodIdentifiers": {
					"cKIP()": "56f738cf",
					"claim(uint256,uint256,address,bytes32,bytes)": "7ea3253b",
					"claimedAmounts(uint256)": "9f666d84",
					"fund_address()": "18afe170",
					"license_nft()": "f9e58b28",
					"owner()": "8da5cb5b",
					"penalty(uint256,uint256,bytes32)": "1c0552e8",
					"renounceOwnership()": "715018a6",
					"setFundAddress(address)": "85dc3004",
					"setPaymaster(address,bool)": "1573f688",
					"transferOwnership(address)": "f2fde38b",
					"withdraw(uint256,uint256)": "441a3e70",
					"withdrawAmounts(uint256)": "0f20b94c",
					"withdraw_interval()": "e767c798"
				}
			},
			"storageLayout": {
				"storage": [
					{
						"astId": 8,
						"contract": "contracts/NodeReward.sol:CheckerReward",
						"label": "_owner",
						"offset": 0,
						"slot": "0",
						"type": "t_address"
					},
					{
						"astId": 746,
						"contract": "contracts/NodeReward.sol:CheckerReward",
						"label": "license_nft",
						"offset": 0,
						"slot": "1",
						"type": "t_contract(IERC721)342"
					},
					{
						"astId": 749,
						"contract": "contracts/NodeReward.sol:CheckerReward",
						"label": "cKIP",
						"offset": 0,
						"slot": "2",
						"type": "t_contract(IERC20)225"
					},
					{
						"astId": 751,
						"contract": "contracts/NodeReward.sol:CheckerReward",
						"label": "fund_address",
						"offset": 0,
						"slot": "3",
						"type": "t_address"
					},
					{
						"astId": 754,
						"contract": "contracts/NodeReward.sol:CheckerReward",
						"label": "withdraw_interval",
						"offset": 0,
						"slot": "4",
						"type": "t_uint256"
					},
					{
						"astId": 758,
						"contract": "contracts/NodeReward.sol:CheckerReward",
						"label": "paymaster",
						"offset": 0,
						"slot": "5",
						"type": "t_mapping(t_address,t_bool)"
					},
					{
						"astId": 762,
						"contract": "contracts/NodeReward.sol:CheckerReward",
						"label": "last_withdraw_time",
						"offset": 0,
						"slot": "6",
						"type": "t_mapping(t_uint256,t_uint256)"
					},
					{
						"astId": 766,
						"contract": "contracts/NodeReward.sol:CheckerReward",
						"label": "fines",
						"offset": 0,
						"slot": "7",
						"type": "t_mapping(t_uint256,t_uint256)"
					},
					{
						"astId": 770,
						"contract": "contracts/NodeReward.sol:CheckerReward",
						"label": "claimedAmounts",
						"offset": 0,
						"slot": "8",
						"type": "t_mapping(t_uint256,t_uint256)"
					},
					{
						"astId": 774,
						"contract": "contracts/NodeReward.sol:CheckerReward",
						"label": "withdrawAmounts",
						"offset": 0,
						"slot": "9",
						"type": "t_mapping(t_uint256,t_uint256)"
					}
				],
				"types": {
					"t_address": {
						"encoding": "inplace",
						"label": "address",
						"numberOfBytes": "20"
					},
					"t_bool": {
						"encoding": "inplace",
						"label": "bool",
						"numberOfBytes": "1"
					},
					"t_contract(IERC20)225": {
						"encoding": "inplace",
						"label": "contract IERC20",
						"numberOfBytes": "20"
					},
					"t_contract(IERC721)342": {
						"encoding": "inplace",
						"label": "contract IERC721",
						"numberOfBytes": "20"
					},
					"t_mapping(t_address,t_bool)": {
						"encoding": "mapping",
						"key": "t_address",
						"label": "mapping(address => bool)",
						"numberOfBytes": "32",
						"value": "t_bool"
					},
					"t_mapping(t_uint256,t_uint256)": {
						"encoding": "mapping",
						"key": "t_uint256",
						"label": "mapping(uint256 => uint256)",
						"numberOfBytes": "32",
						"value": "t_uint256"
					},
					"t_uint256": {
						"encoding": "inplace",
						"label": "uint256",
						"numberOfBytes": "32"
					}
				}
			},
			"userdoc": {
				"kind": "user",
				"methods": {},
				"version": 1
			}
		}
	}
}